:020000040800F2
:10000000C807002031020008690400086B040008DA
:100010006F04000873040008770400080000000063
:100020000000000000000000000000007B04000849
:100030007D040008000000007F0400084902000859
:100040004B0200084B0200084B0200084B0200085C
:100050004B0200084B0200084B0200084B0200084C
:100060004B0200084B0200084B0200084B0200083C
:100070004B0200084B0200084B0200084B0200082C
:100080004B0200084B020008810400084B020008E4
:100090004B0200084B0200084B0200084B0200080C
:1000A0004B0200084B0200084B0200084B020008FC
:1000B00083040008990400085B2300084B02000831
:1000C0004B0200084B0200084B0200084B020008DC
:1000D0004B020008611F00084B0200084B02000899
:1000E0004B0200084B0200084B0200084B020008BC
:1000F0004B0200084B020008000000000000000056
:1001000000000000000000004B0200084B02000845
:1001100000000000000000004B0200084B02000835
:100120004B0200084B0200084B0200084B0200087B
:100130004B020008E91E00084B0200084B020008B1
:100140004B0200080000000000000000000000005A
:10015000000000000000000000000000000000009F
:1001600000000000000000004B0200084B020008E5
:100170004B020008000000004B02000800000000D5
:10018000000000004B02000800F002F800F041F807
:100190000AA090E8000C82448344AAF10107DA45E2
:1001A00001D100F036F8AFF2090EBAE80F0013F0F3
:1001B000010F18BFFB1A43F001031847745D0000DC
:1001C000945D0000103A24BF78C878C1FAD852076D
:1001D00024BF30C830C144BF04680C6070470000C1
:1001E0000023002400250026103A28BF78C1FBD840
:1001F000520728BF30C148BF0B607047642904F024
:100200005785002070471FB505F05BFE1FBD10B578
:1002100010BD04F041FE1146FFF7F5FF00F088F92C
:1002200004F05FFE03B4FFF7F2FF03BC04F060FECE
:100230000948804709480047FEE7FEE7FEE7FEE77A
:10024000FEE7FEE7FEE7FEE7FEE7FEE704480549B6
:10025000054A064B704700004D030008890100085D
:10026000C8010020C8070020C8030020C8030020E0
:100270001CB50020019000907248006840F4803066
:100280007049086000BF6F48006800F400300090BB
:100290000198401C0190009818B90198B0F5A06F22
:1002A000F1D16848006810F4003F02D001200090AE
:1002B00001E0002000900098012836D10220624918
:1002C0000860604840685F49486008464068486088
:1002D0000846406840F4806048600846406820F462
:1002E0007C1048600846406840F4E81048600846C2
:1002F000006840F08070086000BF5248006810F04D
:10030000007FFAD04F48406820F003004D49486014
:100310000846406840F00200486000BF4948406815
:1003200000F00C000828F9D10FE04FF4E011002094
:1003300002F03DFC012002F048FC02E0022002F045
:1003400056FC02F05DFC0828F8D11CBD10B53F48F2
:10035000006840F470003D4908603A48006840F089
:100360000100384908600846406800F47F00486092
:100370000846006836490840324908600846006867
:1003800020F4802008600846406820F4FE004860A1
:100390000846C06A20F00F00C8620846006B2D496D
:1003A00008402849086300208860FFF761FF4FF08C
:1003B000006026498039086010BD30B5002100205A
:1003C000002200231F4C646804F00C0121B10429B1
:1003D00006D0082925D107E01F4C204D2C6024E0D1
:1003E0001D4C1E4D2C6020E0164C646804F4701007
:1003F000144C646804F48032022404EB904022B967
:10040000174C4443154D2C600AE00E4CE46A04F08E
:100410000F04631C104CB4FBF3F444430F4D2C60E9
:1004200003E00D4C0D4D2C6000BF00BF054C64680F
:10043000C4F303140B4D295D084C2468CC40074DD0
:100440002C6030BD001002400020024088ED00E02A
:10045000FFFFF6FE8C0FFF0F00127A000000002055
:1004600000093D0004000020704700BFFEE700BF08
:10047000FEE700BFFEE700BFFEE77047704770472A
:10048000704710B50121880703F0BCFE18B10121A7
:10049000880703F0C8FE10BD10B50121044803F021
:1004A000B1FE18B10121024803F0BDFE10BD0000ED
:1004B0000004004000B58DB001F0A2FA01F010FB7D
:1004C0004FF4E13001F06BFD29A001F0FEFD01F0D9
:1004D00067FB2BA001F0F9FD01F02AFF2CA001F031
:1004E000F4FD01F0D1FE2EA001F0EFFD01F00DF8BA
:1004F0002FA001F0EAFD01F068FCF2EE040A9FED86
:10050000300A01F08FFB2FA001F0DFFD01A802F0FF
:10051000F8FB31A13648029A04F082FB344801F01E
:10052000D4FD01F014FB0120324908700DB000BD6C
:10053000FFF7C0FF1AE030480078022804DB0020F3
:100540002D49087001F005FA2C480078052804DBD5
:1005500000202A49087001F01CFA29480078642814
:1005600004DB00202649087001F025FAE3E70000CB
:10057000313A0952533438355F496E69740A0000C4
:10058000323A094B45595F496E69740A0000000010
:10059000333A0954494D345F496E69740A000000CA
:1005A000343A0950574D5F496E69740A00000000E3
:1005B000353A095049445F496E69740A00000000E9
:1005C0000AD7A33B363A095344414443315F436F52
:1005D0006E6669670A0000000A2A2A2A436C6F6364
:1005E0006B73467265712A2A2A5B25645D0A0000D6
:1005F00028010020140000207C0000207D00002045
:100600007E00002070B52DED0E8BFE49087801F0BC
:10061000D3FBBDEEC00A10EE100A05B2FA480088FE
:10062000401B04B2201E01DB014600E0414200EE07
:10063000101AB8EE400AF549D1ED0A0AB4EEE00A04
:10064000F1EE10FA0ADDF249097839B90120F049D2
:1006500008700020EF490880EF480580EC480078DA
:1006600001286CD1EB48B0F90000404200EE100ABE
:10067000B8EEC00ADFEDE90A20EE200AE848D0ED26
:10068000000A80EE201A11EE106A304605F0A8FB31
:1006900041EC100BB0EE40EAF0EE60EA04F048FCEA
:1006A000B0EE40DAF0EE60DA9FEDDE0B53EC102B8B
:1006B00051EC1D0B05F09EFA41EC100BB0EE40BA68
:1006C000F0EE60BAD0490988D34AB2F90020881AFE
:1006D00005F009F941EC100BB0EE40CAF0EE60CA2B
:1006E00053EC1B2B51EC1C0B05F050F941EC100B9B
:1006F000B0EE409AF0EE609AC748B0F9000005F0FD
:10070000F2F841EC100BB0EE40AAF0EE60AA53EC08
:10071000192B51EC1A0B04F07DFE41EC100BB0EEDE
:10072000408AF0EE608A51EC180B05F0AFF8BF4933
:100730000880B8480088401C00B2B6490880B44917
:100740000978012912D1201E01DB014600E0414257
:10075000AE4AB2F92E20914208D2AB480088B34984
:1007600008800020AB490880A9490870BDEC0E8BB9
:1007700070BD10B5012000F0F2FEA44890ED000A13
:10078000DFEDAB0A20EE200ABDEEC00A10EE100A23
:10079000A84908809D4890ED010ADFEDA50A20EEEA
:1007A000200ABDEEC00A10EE100AA349088097483F
:1007B00090ED020ADFED9E0A20EE200ABDEEC00A8F
:1007C00010EE100A9D4908809D49088899490988BA
:1007D00002F044F89A4948889749098802F03EF89F
:1007E000974988889549098802F038F8874890ED3C
:1007F000030ADFED8F0A20EE200ABDEEC00A10EEDC
:10080000100A8C490880814890ED040ADFED880ABF
:1008100020EE200ABDEEC00A10EE100A86490880BC
:100820007A4890ED050ADFED820A20EE200ABDEE3F
:10083000C00A10EE100A814908808149C8887D49A4
:10084000098802F00BF87E4908897B49098802F083
:1008500005F87B4948897949098801F0FFFF6B4811
:1008600090ED060ADFED720A20EE200ABDEEC00A06
:1008700010EE100A6F490880644890ED070ADFED1A
:100880006C0A20EE200ABDEEC00A10EE100A6A497A
:1008900008805E4890ED080ADFED650A20EE200A28
:1008A000BDEEC00A10EE100A6449088064498889C8
:1008B0006049098801F0D2FF6149C8895E49098809
:1008C00001F0CCFF5E49088A5C49098801F0C6FF47
:1008D0004E4890ED090ABDEEC00A10EE100A5549C7
:1008E00008804A4890ED0A0ABDEEC00A10EE100AD0
:1008F000514908804548808D504908805049488AB0
:100900004C49098801F0AAFF4D49888A4A4909885B
:1009100001F0A4FF4A49C88A4849098801F09EFFAE
:100920003A48C08D434908803D4890ED000ADFED0C
:10093000400A20EE200ABDEEC00A10EE100A3E4921
:100940000880404890ED000ADFED390A20EE200AC9
:10095000BDEEC00A10EE100A384908803849088BED
:100960003449098801F07AFF3549488B32490988B2
:1009700001F074FF3249888B3049098801F06EFF1D
:10098000002000F0ECFD10BD70B505460524295D82
:10099000601C285C41EA002026490880A41C295DCF
:1009A000601C285C41EA002023490880A41C295DC2
:1009B000601C285C41EA0020204908801D4800880E
:1009C00000EE100AB8EE400ADFED190A80EE201A98
:1009D0000E4880ED001A1848008800EE100AB8EEA4
:1009E000400ADFED130A80EE201A084880ED011A54
:1009F0000846008800EE100AB8EE400ADFED0C0A47
:100A000022E000002000002054000020B000002060
:100A100048000020460000204A0000200AD7A33BDF
:100A200018000020000000000000F03F56000020E9
:100A300000007A444C0000204E00002050000020AE
:100A4000260000201C00002080EE201AFE4880EDC9
:100A5000021AA41C295D601C285C41EA0020FB49A5
:100A60000880A41C295D601C285C41EA0020F8492C
:100A70000880A41C295D601C285C41EA0020F5491F
:100A80000880F248008800EE100AB8EE400A5FEDD8
:100A9000180A80EE201AEC4880ED031AEC48008812
:100AA00000EE100AB8EE400A5FED1F0A80EE201A31
:100AB000E54880ED041A0846008800EE100AB8EEFA
:100AC000400A5FED250A80EE201ADF4880ED051A06
:100AD000A41C295D601C285C41EA0020DB490880D9
:100AE000A41C295D601C285C41EA0020D8490880CC
:100AF000A41C295D601C285C41EA0020D5490880BF
:100B0000D248008800EE100AB8EE400A5FED380ABD
:100B100080EE201ACC4880ED061ACD48008800EE01
:100B2000100AB8EE400A5FED3E0A80EE201AC64871
:100B300080ED071A0846008800EE100AB8EE400A59
:100B40005FED450A80EE201ABF4880ED081AA41C0C
:100B5000295D601C285C41EA0020BC490880A41C77
:100B6000295D601C285C41EA0020B9490880A41C6A
:100B7000295D601C285C41EA0020B6490880B34822
:100B8000008800EE100AB8EE400AAF4880ED090A6E
:100B9000AF48008800EE100AB8EE400AAA4880ED7F
:100BA0000A0A0846008800B2A7498885A41C295D66
:100BB000601C285C41EA0020A4490880A41C295D2F
:100BC000601C285C41EA0020A1490880A41C295D22
:100BD000601C285C41EA00209E4908809B480088F0
:100BE00000B29949C8859A48008800EE100AB8EE0C
:100BF000400A5FED710A80EE201A974880ED001AD6
:100C00009448008800EE100AB8EE400A5FED780ABA
:100C100080EE201A914880ED001AD0ED000A1FEDF9
:100C2000810A00F0FFFFFFF7A4FD70BD70B5054617
:100C30000524242028704E2068703E20A8703320A0
:100C40002871814890ED000A5FED870A20EE200AA6
:100C5000BDEEC00A10EE100A7C4908807A4890ED7B
:100C6000010A5FED8D0A20EE200ABDEEC00A10EEEB
:100C7000100A77490880744890ED020A5FED940AE3
:100C800020EE200ABDEEC00A10EE100A714908805D
:100C90006E48007828556D480088010A601C295468
:100CA000A41C6B480078285569480088010A601C1C
:100CB0002954A41C67480078285566480088010A12
:100CC000601C2954A41C604890ED030A5FEDA80A3B
:100CD00020EE200ABDEEC00A10EE100A5B49088023
:100CE000594890ED040A5FEDAE0A20EE200ABDEEF1
:100CF000C00A10EE100A56490880534890ED050AC4
:100D00005FEDB50A20EE200ABDEEC00A10EE100A13
:100D1000504908804D48007828554C480088010A01
:100D2000601C2954A41C4A4800782855484800886B
:100D3000010A601C2954A41C4648007828554548DF
:100D40000088010A601C2954A41C3F4890ED060A43
:100D50005FEDC90A20EE200ABDEEC00A10EE100AAF
:100D60003A490880384890ED070A5FEDCF0A20EE37
:100D7000200ABDEEC00A10EE100A3549088032483C
:100D800090ED080A5FEDD60A20EE200ABDEEC00AFB
:100D900010EE100A2F4908802C48007828552B485F
:100DA0000088010A601C2954A41C29480078285591
:100DB00027480088010A601C2954A41C2548007893
:100DC000285524480088010A601C2954A41C1E4888
:100DD00090ED090ABDEEC00A10EE100A1B4908800A
:100DE000194890ED0A0ABDEEC00A10EE100A184923
:100DF00008801548808D17490880144800782855C8
:100E000012480088010A601C2954A41C104800786C
:100E100028550F480088010A601C2954A41C0D485D
:100E2000007828550B480088010A601C2954A41C2E
:100E30000548C08D05490880074890ED000ADFEDA0
:100E4000080A20EE200A0DE0B00000204C0000202F
:100E50004E00002050000020180000201C00002040
:100E600000007A44BDEEC00A10EE100AFD49088069
:100E7000FD4890ED000A5FED060A20EE200ABDEE67
:100E8000C00A10EE100AF9490880F9480078285580
:100E9000F7480088010A601C2954A41CF448007813
:100EA0002855F0480088010A601C2954A41CED480C
:100EB00000782855ED480088010A601C2954A41CBC
:100EC000284600F0F0FB611C6854EC7070BD70B5F2
:100ED00004460525615D681C205C41EA0020E44968
:100EE0000880AD1C615D681C205C41EA0020DD4982
:100EF0000880E048007838B9DD480088DE4908807D
:100F00000846008801F0CFF9D6480088DB49088000
:100F100070BD70B505460524242028704E206870E9
:100F20003E20A87032202871D4480088D04908801B
:100F3000D1480088CB490880D148008ECF49098824
:100F4000081ACA490880CA4800782855C848008845
:100F5000010A601C2954A41CC24800782855C148C5
:100F60000088010A601C2954A41CC0480078285538
:100F7000BE480088010A601C2954A41CC048008E89
:100F8000BB490880BE48408EB6490880BC48808E68
:100F9000B6490880B64800782855B5480088010A47
:100FA000601C2954A41CAF4800782855AD4800881F
:100FB000010A601C2954A41CAC4800782855AB4891
:100FC0000088010A601C2954A41C002000F0F4FED3
:100FD000BDEEC00A10EE100AA5490880012000F0FD
:100FE000EBFEBDEEC00A10EE100A9E490880A5482F
:100FF00000889E4908809E48007828559C480088B3
:10100000010A601C2954A41C96480078285595486C
:101010000088010A601C2954A41C944800782855B3
:1010200092480088010A601C2954A41C284600F03C
:101030003AFB611C6854EC7070BD70B52DED028BED
:101040009149087800F0B8FEB0EE408A8D480088DB
:1010500000EE100AB8EE400A30EE480ABDEEC00AB3
:1010600010EE104A201E01DB014600E0414200EE76
:10107000101AB8EE400A8249D1ED090AB4EEE00A2E
:10108000F1EE10FA22DD0846D0ED000A00EE104A1B
:10109000B8EEC00A20EE800A90ED011AB0F93000D7
:1010A00000EE900AF8EEE00A01EE600A084690EDC4
:1010B000021AB0F9320000EE900AF8EEE00A01EEF2
:1010C000200ABDEEC00A10EE105A79E0201E01DBA6
:1010D000014600E0414200EE101AB8EE400A6849AD
:1010E000D1ED090AB4EEE00AF1EE10FA24D2084676
:1010F000D0ED060A00EE104AB8EEC00A60EE800A93
:1011000090ED071AB0F9300000EE100AF8EEC01AA0
:10111000B0EE600A01EE610A084690ED081AB0F9D7
:10112000320000EE900AF8EEE00A01EE200ABDEE71
:10113000C00A10EE105A43E0211E01DB0A4600E00F
:101140004A4200EE102AB8EE400A4D4AD2ED0A0A91
:10115000B4EEE00AF1EE10FA32DD201E01DB0246A9
:1011600000E0424200EE102AB8EE400A444AD2EDB6
:10117000090AB4EEE00AF1EE10FA21D21046D0EDE1
:10118000030A00EE104AB8EEC00A20EE800A90ED85
:10119000041AB0F9300000EE900AF8EEE00A01EE11
:1011A000600A104690ED051AB0F9320000EE900A80
:1011B000F8EEE00A01EE200ABDEEC00A10EE105A69
:1011C0002F48008E2E49488620B20886281E01DB53
:1011D000014600E041422A4AB2F92C2091420AD944
:1011E000002D03DD2648B0F92C0003E02448B0F9B7
:1011F0002C00404205462048008828441E490880AB
:10120000BDEC028B70BD10B5FFF717FF1A480088C0
:101210004FF6F571884202DD0846174908801648E6
:101220000088002802DA002013490880124800884C
:1012300001F039F810BD10B53821114803F074FDE4
:101240009FED120A0E4880ED000A9FED110A80ED15
:10125000010AB2EE090A80ED020A9FED0E0A80ED46
:10126000030A19E04E0000201C000020500000205E
:101270004C000020240000205200002054000020D8
:10128000B000002056000020200000200000C441D3
:1012900000000C42000044419FEDB20A80ED040AB8
:1012A000B1EE090A80ED050A9FEDAF0A80ED060A4E
:1012B000B1EE0C0A80ED070AB0EE040A80ED080AD0
:1012C0009FEDAA0A80ED090A9FEDA90A80ED0A0A9E
:1012D0004FF47A70A74988853220C885FFF749FA0C
:1012E00010BD10B5A4490888A44901F015F9A24918
:1012F0004888A34901F010F99F498888A14901F065
:101300000BF99E48008800EE100AB8EE400ADFEDA7
:101310009E0A80EE201A974880ED001A98480088AF
:1013200000EE100AB8EE400ADFED970A80EE201AB0
:10133000904880ED011A9348008800EE100AB8EE3C
:10134000400ADFED910A80EE201A8A4880ED021AE9
:101350008949C888894901F0DFF88749088988499F
:1013600001F0DAF884494889864901F0D5F88348C4
:10137000008800EE100AB8EE400ADFED830A80EE26
:10138000201A7C4880ED031A7D48008800EE100A80
:10139000B8EE400ADFED7C0A80EE201A754880ED39
:1013A000041A7848008800EE100AB8EE400ADFED13
:1013B000760A80EE201A6F4880ED051A6E498889FA
:1013C0006E4901F0A9F86C49C8896D4901F0A4F88B
:1013D0006949088A6B4901F09FF86848008800EE67
:1013E000100AB8EE400ADFED680A80EE201A614864
:1013F00080ED061A6248008800EE100AB8EE400A36
:10140000DFED610A80EE201A5A4880ED071A5D4828
:10141000008800EE100AB8EE400ADFED5B0A80EEAD
:10142000201A544880ED081A5349488A534901F05C
:1014300073F85149888A524901F06EF84E49C88ABA
:10144000504901F069F84D48008800EE100AB8EEE6
:10145000400A484880ED090A4948008800EE100A11
:10146000B8EE400A434880ED0A0A4648008800B2B8
:10147000404988854049088B404901F04DF83E4974
:10148000488B3F4901F048F83B49888B3D4901F0C2
:1014900043F83A48008800B23649C8853848008881
:1014A00000EE100AB8EE400ADFED370A80EE201A8F
:1014B000364880ED001A3348008800EE100AB8EE76
:1014C000400ADFED310A80EE201A314880ED001A23
:1014D00010BD10B501F03FF9FFF703FF2649C88B97
:1014E000264901F019F8254800880F280CD0012062
:1014F00000F035F82049C88B0F2101F0AFF900202A
:1015000000F02DF8FFF797FE10BD10B503F083F83B
:10151000FFF7DFFF10BD10B500201E4908701E49FF
:1015200008800846008800F0BEFE10BD10B50020FF
:10153000184908704FF6F5701749088000F0B3FE9F
:1015400010BD012013490870704712480078704799
:101550000146002901DD084670474842FCE780F358
:101560001088704700008C41CDCC9C4000803B45EA
:101570000000FA43B0000020260000204C000020AC
:101580004E0000205000002000007A441800002087
:101590001C00002024000020520000200146087892
:1015A0004A7850408A785040CA785040704708B511
:1015B000425C8DF800204A1C825C8DF801208A1C58
:1015C000825C8DF80220CA1C825C8DF803209DEDA0
:1015D000000A08BD70B504460E46E5782078242838
:1015E00000D070BD60784E2800D0FAE7A0783C2883
:1015F00000D0F6E720793038072849D2DFE800F03C
:10160000040F1A222A343E002046FFF760FCB2A1E4
:10161000B74803F005FBB64800F057FD40E0204610
:10162000FFF7B2F9B3A1B24803F0FAFAB04800F0FC
:101630004CFD35E0AE48FFF76CFCAD48C17800F0DA
:1016400021FD2DE0AA48FFF7F1FAA948C17800F082
:1016500019FD25E0FFF75FFFABA1A54803F0E0FA15
:10166000A34800F032FD1BE0FFF760FFAAA1A048ED
:1016700003F0D6FA9E4800F028FD11E0FFF761FF65
:10168000A9A19B4803F0CCFA994800F01EFD07E0A1
:10169000A9A1974803F0C4FA954800F016FD00BFD1
:1016A00000BF00BF9DE710B501460020CB780022A7
:1016B00004E0D41C0C5D6040541CE2B29C1CA242AD
:1016C000F7DB10BD704700B5014600221012FFF78E
:1016D000F9FFC8B2FFF7F6FF00BD30B5014600299B
:1016E00005DA2D20FFF7EEFF484241B202E020204C
:1016F000FFF7E8FF642091FBF0F0C2B2642091FB99
:10170000F0F500FB15100A2590FBF5F0C3B20A2096
:1017100091FBF0F500FB1510C4B202F13005E8B200
:10172000FFF7D0FF03F13005E8B2FFF7CBFF04F17C
:101730003005E8B2FFF7C6FF30BD30B50146642082
:1017400091FBF0F0C2B2642091FBF0F500FB1510A4
:101750000A2590FBF5F0C3B20A2091FBF0F500FBDF
:101760001510C4B202F13005E8B2FFF7ABFF03F188
:101770003005E8B2FFF7A6FF04F13005E8B2FFF745
:10178000A1FF30BDF0B50146002905DA2D20FFF795
:1017900099FF484201B202E02020FFF793FF694819
:1017A00091FBF0F700FB171042F2107790FBF7F077
:1017B000C2B2384691FBF0F700FB17104FF47A776E
:1017C00090FBF7F0C3B2384691FBF0F700FB17101F
:1017D000642790FBF7F0C4B2642091FBF0F700FBA4
:1017E00017100A2790FBF7F0C5B20A2091FBF0F71B
:1017F00000FB1710C6B202F13007F8B2FFF762FF24
:1018000003F13007F8B2FFF75DFF04F13007F8B2DB
:10181000FFF758FF05F13007F8B2FFF753FF06F165
:101820003007F8B2FFF74EFFF0BDF0B5014645486E
:1018300091FBF0F700FB171042F2107790FBF7F0E6
:10184000C2B2384691FBF0F700FB17104FF47A77DD
:1018500090FBF7F0C3B2384691FBF0F700FB17108E
:10186000642790FBF7F0C4B2642091FBF0F700FB13
:1018700017100A2790FBF7F0C5B20A2091FBF0F78A
:1018800000FB1710C6B22020FFF71CFF02F1300743
:10189000F8B2FFF717FF03F13007F8B2FFF712FFB6
:1018A00004F13007F8B2FFF70DFF05F13007F8B289
:1018B000FFF708FF06F13007F8B2FFF703FFF0BDAE
:1018C00000B50246114603E00878FFF7FBFE491C0D
:1018D00008780028F8D100BD5365745F52756E6EAC
:1018E000696E675F506172616D3A4F4B0A0000008C
:1018F000280100205365745F5049445F5061726154
:101900006D3A4F4B0A00000053657456436C6F7379
:1019100065204F4B0A000000536574564F70656E8A
:10192000204F4B0A00000000536574565049444351
:1019300074726C204F4B0A00756E6B6E6F7720636C
:101940006D640A00A086010010B526A000F0BDFB62
:1019500010BD08B54021284801F05FF800F0D7F924
:101960006946264800F0D2FB9DF8000020B19DF8A2
:1019700000102248FFF72EFEFFF7E7FD08B1FEF743
:1019800041FE012000F078F840211B4801F047F8A3
:1019900008BD10B58021184801F03FF8FFF7D5FDCC
:1019A00008B1FFF730FC012000F066F880211248F2
:1019B00001F035F810BD10B54FF480414FF0904064
:1019C00001F02BF800F026F908B1FFF7BDFF012068
:1019D00000F052F84FF480414FF0904001F01FF8B2
:1019E00010BD0000303A094F6E5265736574466C45
:1019F0006F77446F776E0A0000140048E8000020FB
:101A000010B56FF0040002F039FD2D4800682D4933
:101A1000B0FBF1F02C4908700846007800EB40015B
:101A2000C1EBC0104FF6FF7101EAC00027490880E2
:101A300010BD0146244A12784A434FF0E0235A6110
:101A400000229A611A46126942F001021A6100BF2F
:101A50004FF0E022106910F0010F02D010F4803F27
:101A6000F6D04FF0E022126922F001024FF0E0239D
:101A70001A6100229A6170470146144A12884A434B
:101A80004FF0E0235A6100229A611A46126942F02F
:101A900001021A6100BF4FF0E022106910F0010F3F
:101AA00002D010F4803FF6D04FF0E022126922F00D
:101AB00001024FF0E0231A6100229A617047000092
:101AC0000000002000127A00580000205A00002078
:101AD00010B54FF480714FF0904000F0A0FF10BDA2
:101AE0001CB501214FF4840001F02AFA4FF4414063
:101AF000009001208DF8040000208DF806000120E0
:101B00008DF8070003208DF8050069464FF09040DE
:101B100000F007FFC020009001208DF80400002095
:101B20008DF8060001208DF8070003208DF80500D0
:101B300069461A4800F0F5FEFFF7CAFF1CBD10B554
:101B40004FF480714FF0904000F067FF10BD10B56A
:101B500000240BE0FFF7F3FFC820FFF78DFFFFF72E
:101B6000B7FFC820FFF788FF601CC4B2032CF1DB6D
:101B700000240BE0FFF7E3FF6420FFF77DFFFFF792
:101B8000A7FF6420FFF778FF601CC4B2032CF1DBD1
:101B9000FFF7D5FF6420FFF76FFF10BD001400486A
:101BA0001CB50121480401F0CBF94FF4005000901E
:101BB00000208DF8040003208DF8050001208DF829
:101BC000070069464FF0904000F0ABFE4FF4005123
:101BD0004FF0904000F021FF1CBD70B504460D464B
:101BE0002946204600F001FF90B90A20FFF744FF84
:101BF0002946204600F0F9FE40B900BF294620469C
:101C000000F0F3FE0028F9D0012070BD0020FCE7B1
:101C10000020FAE710B54FF400514FF09040FFF765
:101C2000DCFF10BD10B52DED108BB0EE408AF0EE4C
:101C3000608A18EE900A04F0D3F841EC100BB0EE75
:101C400040FAF0EE60FA9FEDB60B53EC102B51EC1E
:101C50001F0B03F09BFE41EC100BB0EE40EAF0EEE0
:101C600060EA53EC1E2B9FEDB00B51EC100B03F010
:101C700085FC41EC100BB0EE40CAF0EE60CA18EEE5
:101C8000100A04F0ADF841EC100BB0EE40DAF0EEC3
:101C900060DA53EC1C2B51EC1D0B03F0BBFB41EC49
:101CA000100BB0EE40AAF0EE60AA18EE100A04F095
:101CB00097F841EC100BB0EE40BAF0EE60BA53EC7E
:101CC0001A2B51EC1B0B03F059FC41EC100BB0EE3E
:101CD000409AF0EE609A51EC190B03F069FB9449BD
:101CE0000860BDEC108B10BD01460023002200BF30
:101CF00004E0904830F9110002445B1C8E480088D3
:101D00008342F6DB8C48008892FBF0F0704700B508
:101D10000020FFF7E9FF00F5004000EE100AB8EEE2
:101D2000C00ADFED860A20EE200ADFED850A80EE8C
:101D3000201AB0EE000A21EE000A824880ED000A67
:101D40000120FFF7D1FF00F5004000EE100AB8EEC9
:101D5000C00ADFED7A0A20EE200ADFED790A80EE74
:101D6000201AB0EE000A21EE000A764880ED010A42
:101D700090ED000A7448D0ED000A70EE600A90ED14
:101D8000000A6B4890ED001A01EE200A6E4880EDC3
:101D9000000A6C4890ED010A6B48D0ED010A70EE24
:101DA000600A90ED010A624890ED001A01EE200AE7
:101DB000654880ED010A00BD18B9634991ED000A3C
:101DC0007047614991ED010AFAE710B588B0002427
:101DD0000121080601F0C1F80121080701F0CAF845
:101DE0000121480202F08FFB4FF0784000F034FFF1
:101DF0000121880401F0A4F803208DF80C000020D4
:101E00008DF80F000320029002A9504800F089FDD0
:101E1000002001F0FFFB0520FFF72EFE01214C48BA
:101E200001F0D7FB01214A4801F0DEFB1E2400BF70
:101E30004FF00041464801F0B9FC10B9601E0400A3
:101E4000F6D114B9012008B010BD4FF040600490E5
:101E5000002005900690079004AA00213C4801F05C
:101E600094FB00223B493A4801F0A4FB00223A4986
:101E7000374801F09FFB3949354801F012FC012138
:101E8000334801F01CFC0021314801F0ADFB3D203E
:101E90008DF8040000208DF805008DF80600012063
:101EA0008DF8070001A802F09EFA0021284801F0F1
:101EB000B9FB274801F0BDFB4FF4F03400BF01210E
:101EC000234801F073FC10B9601E0400F7D10CB96F
:101ED0000220B8E7012202211D4801F05EFC1C48E7
:101EE00001F0DAFB0020AEE738B5002402211848E3
:101EF00001F05CFC90B16946154801F004FC044611
:101F00000098A0F5A021203901D10A48448000980A
:101F1000A0F5C021403901D10648048038BD000039
:101F20001F85EB51B81E1940000000000000F03F73
:101F3000640000205C0000206000002000803B4521
:101F400000FF7F4768000020700000200004004868
:101F5000006001404000060020000500600007000E
:101F600010B58F498F4801F0A5FA80B18D4801F076
:101F7000A2F9C4B28C480078402808DA8B488A4914
:101F80000978445488480078401C8749087010BD7F
:101F900010B54FF48071864800F041FD10BD10B5BA
:101FA0008AB004460121480400F0CAFF0121080557
:101FB00000F0C6FF0121880300F0CFFF07220921AE
:101FC000C80600F035FD07220A214FF0904000F0CE
:101FD0002FFD4FF4C060089002208DF824000020EF
:101FE0008DF8260001208DF8270003208DF82500AC
:101FF00008A94FF0904000F094FC4FF480700890D6
:1020000001208DF8240000208DF8260001208DF895
:10201000270003208DF8250008A9654800F081FC01
:102020000294002003900490059007900C200690E5
:1020300002A95C4801F023F801225949594801F0EE
:1020400000FA0121574801F09DF84FF4E06002F0DA
:10205000C5F925208DF8040000208DF80500012029
:102060008DF806008DF8070001A802F0BCF9FFF713
:102070008FFF0AB010BD10B54FF480714C4800F0CE
:10208000CCFC10BD70B505460E46FFF7F4FF0024EA
:102090000CE000BF4021434801F001FA0028F9D0CC
:1020A000295D404801F003F9601CC4B2B442F0DB82
:1020B00000BF40213B4801F0F2F90028F9D0002090
:1020C00039490870FFF764FF70BD10B50446FFF78B
:1020D000D2FF0BE000BF4021324801F0E0F90028B8
:1020E000F9D021782F4801F0E2F8641C207800280C
:1020F000F0D100BF40212B4801F0D1F90028F9D0E0
:10210000002029490870FFF743FF10BD2DE9F04179
:1021100007460D4624480678002400202870C82071
:10212000FFF787FC2048007886420FD176B100BFC8
:1021300004E01E48005D3855601CC4B2B442F8DBB0
:10214000194800782870002017490870BDE8F08110
:1021500010B500240BE0FFF78EFFC820FFF78CFCC2
:10216000FFF716FFC820FFF787FC601CC4B2032CE2
:10217000F1DB00240BE0FFF77EFF6420FFF77CFC1F
:10218000FFF706FF6420FFF777FC601CC4B2032C46
:10219000F1DBFFF7FDFE6420FFF76EFC10BD0000D1
:1021A000050105000038014078000020E80000200B
:1021B000000C00481CB50121480400F0C1FE0820B5
:1021C000009002208DF8040003208DF80500002007
:1021D0008DF8070069464FF0904000F0A2FB1CBD4F
:1021E00008B54FF4C06002F0F9F81C208DF800002B
:1021F00000208DF8010002208DF8020001208DF8EA
:102200000300684602F0EFF808BD10B588B0044638
:102210000121084600F0AEFE4FF6FF700690A0B216
:10222000ADF814000020ADF81C00ADF8160005A9AB
:102230004FF0804001F094FB6020ADF800000120D9
:10224000ADF8020000200290ADF80C0069464FF096
:10225000804001F0EFFC0821C80601F0A6FD012135
:10226000880701F0EBFB012203214FF0904000F0C2
:10227000DFFB0121880701F0FFFB012211469007D7
:1022800001F0A9FF08B010BD10B5FFF793FF0020C3
:10229000FFF7BBFFFFF7A4FF10BD10B504462046B3
:1022A000FFF7B3FF10BD10B5044621464FF0804044
:1022B00001F022FD10BD000008B54FF4E06002F00F
:1022C0008DF81E208DF8000000208DF801000320FD
:1022D0008DF8020001208DF80300684602F083F8B3
:1022E00008BD3EB504460121042000F043FE4FF432
:1022F0007A700190A0B2ADF800000020ADF808009F
:10230000ADF802006946274801F02AFB0121254863
:1023100001F075FF01221146224801F05CFF012106
:10232000204801F0A9FB0021042000F023FE3EBD5F
:1023300010B54720FFF7D5FFFFF7BEFF01210420AE
:1023400000F018FE10BD10B504462046FFF7C9FF87
:102350000121042000F00EFE10BD1248103000884C
:1023600010F0010F1CD04FF6FE700E49103108809E
:102370000D48007800B970470C480068401C0B49B4
:1023800008600B480078401C09490870094800782B
:10239000401C0849087008480078401C064908702D
:1023A00000BFE8E700080040140000208000002083
:1023B0007C0000207D0000207E00002003460621D6
:1023C0000622FA480188FA480288A3B1012B1AD1E3
:1023D00032B9A1F56E40EE3800D170470120FCE71C
:1023E00039B9A2F56E40EE3801D10120F5E70020A1
:1023F000F3E7AB20F1E709B90020EEE70AB90120C5
:10240000EBE7AB20E9E70020E7E770B504260024FE
:102410000120FFF7D3FF0446AB2C06D1E34800EBC5
:10242000C420E4490860AB2070BDE04800EBC42044
:10243000E0490860601CDD49891E01EBC0250CE005
:10244000DC4800680068401C02D104263046EBE7F7
:10245000D8480068001DD7490860D6480068A842DF
:10246000EED38020E0E710B50424D04802F010F944
:102470000446042C01D0204610BD0021CB4802F0B8
:102480007FF90446042C01D02046F5E7C84802F045
:10249000FFF804462046EFE72DE9F04104460F46D9
:1024A00004250026DFF80883A8F101080120FFF7C2
:1024B00085FF0646AB2E01D1BDE8F081701CBB49FB
:1024C000891E01EBC02821E0BA4800680068401C62
:1024D00017D13946B748006802F052F90546042D75
:1024E00001D02846E8E72146B2480068801C02F087
:1024F00047F90546AF480068001DAE490860284608
:10250000DAE7AC480068001DAA490860A9480068DD
:102510004045D9D38020CFE72DE9F04706460F4646
:10252000002545F255584FF00109A04CA246002065
:10253000FFF744FF0546AB2D01D1BDE8F0879B486E
:1025400000EBC52A9B480068841E0AE0B4F80080AE
:10255000B04505D134F8020C38804FF0000904E092
:10256000241F0AF102008442F0D800BF4846E4E785
:102570002DE9F0474FF0060A062600250027A84659
:102580004FF0FF398948B0F800A0894806885FEA13
:102590000A0075D0A0F56E40EE382AD0A0F588501C
:1025A00011386ED146B9814802F072F80446042C05
:1025B0001ED02046BDE8F087A6F56E40EE3810D15B
:1025C0007A4802F065F80446042C01D02046F1E771
:1025D0000021774802F0D4F80446042C08D02046A5
:1025E000E8E7FFF740FF0446042C01D02046E1E76E
:1025F000AEE086BB002523E06C48801D00886E4954
:1026000031F81510884201D10FFA85F94D4515D0E2
:10261000694931F815006949FFF77EFF8046B8F136
:10262000010F0BD0644931F8150064490988FFF7A0
:1026300033FF0746042F01D03846BBE7681C85B23C
:10264000102DD9DB0021594802F09AF80446042CD9
:1026500002D02046AEE707E0554802F019F80446DC
:10266000042C1FD02046A5E7A6F57F40FF3812D1E5
:102670004F4802F00DF80446042C03D0204699E799
:1026800011E05DE00021494802F07AF80446042C8C
:1026900008D020468EE7FFF7E6FE0446042C01D062
:1026A000204687E754E036B9FFF7DDFE0446042CE8
:1026B00045D020467EE7A6F57F40FF3807D13C484D
:1026C00001F0E6FF0446042C39D0204672E70025CD
:1026D00022E03748C088384931F81510884201D1C6
:1026E0000FFA85F94D4515D0334931F815003349B6
:1026F000FFF712FF8046B8F1010F0BD02E4931F8D9
:1027000015002E490988FFF7C7FE0746042F01D0A0
:1027100038464FE7681C85B2102DDADB00212448CB
:1027200002F02EF80446042C01D0204642E71F4850
:1027300001F0AEFF0446042C01D020463AE707E042
:10274000FFF791FE0446042C01D0204632E700BF7B
:1027500000BF04202EE710B5FFF70AFF0446FFF77D
:1027600054FE204610BD2DE9F84F07468946042542
:10277000DFF84CA00D4800904FF000080024002620
:102780004FF0000B0020FFF719FE8046B8F1010F53
:1027900004D1DFF818A00648009016E0B8F1000F49
:1027A00010D1DFF80CA0014800900EE000E803080B
:1027B00000F003088800002026000020840000208C
:1027C000FFEB0308AB20BDE8F88F4EF6EE615046F4
:1027D00001F0D6FF0546042D01D02846F3E7FFF7A8
:1027E00014FE49463846FFF757FE0646042E01D030
:1027F0003046E8E700241CE0214830F81400B842D5
:1028000015D01F4931F814001E49FFF785FE834695
:10281000BBF1010F0BD01A4931F81400194909888E
:10282000FFF73AFE0646042E01D03046CBE7601C87
:1028300084B2102CE0DB009801F02AFF0546042D3D
:1028400001D02846BFE70021504601F099FF054618
:10285000042D01D02846B6E72846B4E770B50546F2
:102860000E46002431462846FFF716FE0446802C0B
:1028700004D131462846FFF776FF0446204670BD56
:10288000260000208400002010B50446B4F1904FCB
:1028900009D10121480400F07AFB00214FF40030F7
:1028A00000F075FB3CE07448844208D1012100022D
:1028B00000F06DFB0021200200F069FB30E06F4862
:1028C000844208D10121000200F061FB00212002B6
:1028D00000F05DFB24E06A48844209D1012108052B
:1028E00000F055FB00214FF4801000F050FB17E082
:1028F0006448844208D10121400200F048FB0021D5
:10290000600200F044FB0BE05F48844208D10121E3
:10291000880500F03CFB00214FF4800000F037FBFD
:1029200010BDF0B50A4600210023002400BF3DE0A1
:10293000012505FA01F3156805EA03049C4234D128
:102940001579012D02D01579022D16D185684F0019
:102950000326BE40B543856055794E00B540866874
:1029600035438560868801258D40AE438680868804
:1029700095798D40ADB22E43868005684F000326C1
:10298000BE40B543056015794E00B5400668354335
:102990000560C5684F000326BE40B543C560D579C4
:1029A0004E00B540C6683543C560491C1029BFD3E9
:1029B000F0BD4FF6FF7101600021017102214171EC
:1029C00000218171C171704708B54FF480320092C7
:1029D000009A0A430092009AC261C161009AC261E2
:1029E000C2690092C269009208BD02460020138AA3
:1029F0000B4201D0012000E0002070470146088A08
:102A0000704702460020938A0B4201D0012000E06B
:102A1000002070470146888A7047816170470185B0
:102A200070470AB1816100E001857047818270477B
:102A3000F0B5002300244D07ED0E02FA05F3CE1089
:102A400000F1200555F826504E07F70E0F26BE4020
:102A5000B543CF1000F1200646F82750CE1000F104
:102A6000200555F8265045EA0304CE1000F1200554
:102A700045F82640F0BD000000040048000800486A
:102A8000000C00480010004800140048F848006896
:102A900040F00100F64908600846406800F47F00F5
:102AA000486008460068F3490840F1490860084654
:102AB000006820F4802008600846406820F4FE008A
:102AC00048600846C06A20F00F00C8620846006BE4
:102AD000E9490840E6490863002088607047002102
:102AE000E34A917011468870704710B50146002284
:102AF000002300204A1112B9DD4C236806E0012AA8
:102B000002D1DB4C236A01E0D94C636A01F01F0259
:102B1000012494401C4201D0012000E0002010BD9F
:102B200038B5002000900024002500BF1120FFF7D9
:102B3000DCFF05460098401C00900098B0F5A06F9F
:102B400001D0002DF2D01120FFF7CFFF08B10124F2
:102B500000E00024204638BD01460020C44A106829
:102B600020F0F80040EAC10010607047C3490860D7
:102B70007047BF49096A21F00101BD4A116211463F
:102B8000096A21F0040111621146096A01431162C8
:102B90007047B749096A21F01801B54A1162114618
:102BA000096A014311627047B54908607047B04A2D
:102BB000526822F47412AE4B5A601A46526840EAC8
:102BC00001031A43AA4B5A607047AC490866704724
:102BD00001460020A64AD06A20F00F000843D062C8
:102BE0007047A649C8647047A149C871704701463B
:102BF00000209F4A506820F003000843506070474F
:102C00009B48406800F00C00704701460020984A3D
:102C1000506820F0F00008435060704701460020E3
:102C2000934A506820F4E0600843506070470146C2
:102C300000208F4A506820F4605040EAC100506084
:102C400070478B49496821F44041894A51601146D7
:102C500049680143516070478549496821F07841CE
:102C6000834A516011464968014351607047804969
:102C7000096B21F040017E4A11631146096B014343
:102C8000116370470021010F31B9794A126B22F0AC
:102C90001002774B1A6305E0754A126B22F020028E
:102CA000734B1A63724A126B0243714B1A6370477B
:102CB0000021010F012904D0022909D0032915D1CF
:102CC0000DE06B4A126B22F00302694B1A630EE0AF
:102CD000674A126B22F44032654B1A6307E0644A7C
:102CE000126B22F44022624B1A6300E000BF00BF67
:102CF0005F4A126B02435E4B1A637047614908607A
:102D0000704770B500210023002400250022584E92
:102D1000766806F00C0121B1042905D0082921D1DB
:102D200005E0594E066020E0574E06601DE0504E0B
:102D3000766806F470134E4E766806F480340226E8
:102D400006EB93431CB9514E5E43066009E0484EC2
:102D5000F66A06F00F06751C4B4EB6FBF5F65E43A1
:102D6000066002E0484E066000BF00BF404E766835
:102D700006F0F0010909464E725C0668D6404660CE
:102D80003B4E766806F4E061090A414E725C466883
:102D9000D6408660364E766806F46051C90A3C4ECD
:102DA000725C4668D640C660314E766806F4404193
:102DB000890B384E725CC668B6FBF2F606612C4E83
:102DC000766806F07841C1F3C361334E725C0668E1
:102DD000B6FBF2F64661264E366B06F04006402EF4
:102DE00003D048F21206866102E04FF40046866185
:102DF0001F4E366B06F01006102E02D0224EC66112
:102E000001E00668C6611A4E366B06F02006202ED9
:102E100002D01D4E066201E006680662144E366B53
:102E200016F0030F02D1C668466219E0104E366BE9
:102E300006F00306012E02D10668466210E00C4E31
:102E4000366B06F00306022E02D1B603466207E097
:102E5000074E366B06F00306032E01D10A4E46627A
:102E6000034E366B16F4403F18D18668866233E015
:102E700000100240FFFFF6FE8C0FFF0F00004242E1
:102E800080044242D800424200127A0000093D000C
:102E90008C0000209C000020A0000020604E366BBB
:102EA00006F44036B6F5803F02D10668866213E02C
:102EB0005B4E366B06F44036B6F5003F03D14FF457
:102EC0000046866208E0564E366B06F44036B6F58C
:102ED000403F01D1534E8662514E366B16F4402F5F
:102EE00002D18668C6621DE04D4E366B06F4402660
:102EF000B6F5802F02D10668C66213E0484E366BE5
:102F000006F44026B6F5002F03D14FF40046C66202
:102F100008E0434E366B06F44026B6F5402F01D14B
:102F2000404EC66270BD3E49096A01433C4A116287
:102F300070473D49086070473B49091D086070476C
:102F400029B1374A52690243354B5A6104E0344A89
:102F500052698243324B5A61704729B1304A9269B3
:102F600002432F4B9A6104E02D4A926982432C4B15
:102F70009A61704729B12A4AD2690243284BDA6123
:102F800004E0274AD2698243254BDA61704729B1B0
:102F9000234A926A0243224B9A6204E0204A926AD0
:102FA00082431F4B9A62704729B11D4AD26802437F
:102FB0001B4BDA6004E01A4AD2688243184BDA608D
:102FC000704729B1164A12690243154B1A6104E091
:102FD000134A12698243124B1A61704729B1104A91
:102FE000527A02430E4B5A7204E00D4A527A8243DF
:102FF0000B4B5A7270470A48406A40F0807008498B
:103000004862704701460020054A92680A4201D092
:10301000012000E0002070470149887270470000DD
:103020000010024000127A003C04424210B50446EF
:10303000F848844209D101218803FFF7B5FF002138
:103040004FF48040FFF7B0FF18E0F348844209D105
:1030500001214804FFF7B5FF00214FF40030FFF7CE
:10306000B0FF0BE0ED48844208D101218804FFF74E
:10307000A8FF00214FF48020FFF7A3FF10BD2DE92A
:10308000F0418CB004460D460027B8460026206863
:1030900020F001002060666826F44056A8680643C8
:1030A0006660266841F20C608643E96868680843F8
:1030B0002969084306432660A66826F440766869B5
:1030C0000643A6606846FFF71CFED248844202D140
:1030D000DDF8248007E0D048844202D1DDF8288062
:1030E00001E0DDF82C80206810F4004F0CD04FEA8E
:1030F00048002968B0FBF1F74FEA48002968B0FBA7
:10310000F1F201FB120607E02868B8FBF0F7286827
:10311000B8FBF0F100FB11862868B6EB500F00D326
:103120007F1C206810F4004F07D0C7F342064FF60B
:10313000F07107EA010040EA0607A7810CB0BDE87C
:10314000F0814FF416510160002141608160C1603F
:103150000C21016100214161704710B500224268D5
:1031600022F47062D1E9003423438C682343CC6895
:1031700023431A43426010BD002101604160816019
:10318000C160704721B1026842F00102026003E0B1
:10319000026822F00102026070471AB103680B4313
:1031A000036002E003688B430360704721B102684B
:1031B00042F40042026003E0026822F4004202602E
:1031C000704721B1826842F40062826003E0826845
:1031D00022F400628260704721B1426842F400220A
:1031E000426003E0426822F400224260704721B14D
:1031F000426842F48022426003E0426822F4802266
:10320000426070471AB143680B43436002E0436871
:103210008B434360704721B1426842F400424260F0
:1032200003E0426822F400424260704721B14268E4
:1032300042F40002426003E0426822F4000242606D
:103240007047426902F07F42426142690A4342612B
:103250007047028A02F47F420282028A0A43028293
:10326000704721B1026842F00202026003E0026886
:1032700022F0020202607047826822F440128260EB
:1032800082680A438260704721B1426842F480122A
:10329000426003E0426822F4801242607047426854
:1032A00022F4C002426042680A4342607047C1F3A0
:1032B0000802028570470146888CC0F308007047F9
:1032C000426822F07F424260426842EA0162426004
:1032D000704721B1026842F40052026003E00268C4
:1032E00022F4005202607047026822F40062026019
:1032F00002680A4302607047426822F0100242608E
:1033000042680A4342607047426822F020024260ED
:1033100042680A434260704721B1426842F48042E9
:10332000426003E0426822F480424260704721B16B
:10333000826842F00802826003E0826822F008029C
:1033400082607047028AD2B20282028A42EA012275
:103350000282704721B1826842F02002826003E05D
:10336000826822F020028260704721B1826842F0B8
:103370001002826003E0826822F0100282607047CF
:10338000826822F460228260826842EA414282605E
:103390007047426922F07F424261426942EA01621B
:1033A00042617047826822F00402826082680A43A8
:1033B0008260704721B1826842F00202826003E0BD
:1033C000826822F002028260704721B1826842F472
:1033D0008042826003E0826822F48042826070470B
:1033E000826822F40042826082680A4382607047E9
:1033F000026822F078720260026842EA415202607A
:103400007047026822F4F8120260026842EA014240
:10341000026070470038014000440040004800400E
:103420001AB183680B43836002E083688B43836037
:103430007047826822F40052826082680A43826088
:103440007047F0B5034600240026002500201846EA
:10345000C1F30724CEB2012707FA06F5022C01D1E9
:10346000001D02E0032C00D108301AB107682F4379
:10347000076002E00768AF430760F0BD1AB1038B35
:103480000B43038302E0038B8B4303837047826803
:1034900022F48052826082680A438260704702464A
:1034A0000020D3690B4201D0012000E000207047CA
:1034B0000162704770B502460B46002400210025CA
:1034C0000020C3F30725D9B2012606FA01F1012D28
:1034D00002D11668314006E0022D02D15668314013
:1034E00001E0966831401C0C012606FA04F4D66906
:1034F000344011B10CB1012000E0002070BD10B5C6
:10350000002200230A0C012404FA02F3036210BD16
:1035100010B50446B648844209D101210806FFF7D8
:1035200043FD00214FF08070FFF73EFD15E0B148EC
:10353000844209D101214806FFF736FD00214FF0F2
:103540000070FFF731FD08E001218806FFF72CFD30
:1035500000214FF08060FFF727FD10BD10B500225D
:103560004268A54B1A400B799B054C7943EA0463EA
:103570000C6804F4702423431A43426010BD0121F7
:103580000160002101714171704730B5002300F1E5
:10359000200303EB8103D2E900452C4395682C43BB
:1035A000D5682C431C6030BD002101604160816002
:1035B000C160704730B50023904CA14207D00B0C7E
:1035C000046C9D0002FA05F52C43046400E042649B
:1035D00030BD21B1426842F00102426003E042681E
:1035E00022F001024260704721B1026842F00042BD
:1035F000026003E0026822F000420260704721B1DD
:10360000426842F08072426003E0426822F08072B9
:10361000426070470146764A106820F440700843C3
:10362000106070470A46416821F00601114341606D
:103630007047416841F01001416070470A46416897
:1036400021F47021130C1B0419434160704721B110
:10365000426842F48002426003E0426822F4800241
:1036600042607047416841F4000141607047014683
:10367000486E00B2704721B1026842F40042026015
:1036800003E0026822F40042026070475848406F2D
:1036900070475748C06F7047416841F4004141602E
:1036A00070478AB24261704721B1426842F04002DD
:1036B000426003E0426822F040024260704721B15C
:1036C000426842F02002426003E0426822F0200299
:1036D000426070470A460021416821F4706111433D
:1036E000416070470A460021416821F4C0411143FE
:1036F00041607047014600200A6E100C0122824092
:1037000042EA0040704730B502460B460021116E78
:103710003B4800EA11200D0E0124AC402043186004
:1037200008B230BD21B1026842F48042026003E079
:10373000026822F48042026070472D48006F704793
:103740002B48806F704721B1026842F480520260BA
:1037500003E0026822F480520260704721B10268DF
:1037600042F40062026003E0026822F40062026038
:10377000704721B1026842F48062026003E002688F
:1037800022F48062026070471AB103680B43036041
:1037900002E003688B43036070471AB103680B4370
:1037A000036002E003688B43036070470246002019
:1037B00093680B4201D0012000E000207047C268EE
:1037C0000A43C260704730B502460020002300243F
:1037D000956805EA0103156805EA010413B10CB107
:1037E000012000E0002030BDC2680A43C26070477B
:1037F0000060014000640140FFFF30FE000108004E
:103800000000FFFF10B50446B4F1804F08D101213C
:103810000846FFF7D6FB00210120FFF7D2FB9EE010
:10382000F748844208D101210220FFF7CAFB00219A
:103830000220FFF7C6FB92E0F248844208D1012142
:103840000420FFF7BEFB00210420FFF7BAFB86E04F
:10385000ED48844208D101210820FFF7B2FB002186
:103860000820FFF7AEFB7AE0E848844208D1012146
:103870001020FFF7A6FB00211020FFF7A2FB6EE04F
:10388000E348844208D101212020FFF79AFB002160
:103890002020FFF796FB62E0DE48844208D1012138
:1038A0004020FFF78EFB00214020FFF78AFB56E007
:1038B000D948844208D101218020FFF782FB0021F2
:1038C0008020FFF77EFB4AE0D448844208D10121E2
:1038D0008015FFF776FB0021A015FFF772FB3EE095
:1038E000CF48844209D101210804FFF75DFB002184
:1038F0004FF48030FFF758FB31E0CA48844209D1C9
:1039000001214804FFF750FB00214FF40030FFF77E
:103910004BFB24E0C448844209D101218804FFF70D
:1039200043FB00214FF48020FFF73EFB17E0BF4828
:10393000844208D101214015FFF743FB00216015A7
:10394000FFF73FFB0BE0BA48844208D10121C804CD
:10395000FFF72AFB00214FF40020FFF725FB10BDE5
:1039600000220288B0F1804F0BD0A54B984208D0BE
:10397000A44B984205D0A44B984202D0AC4B98423D
:1039800004D14FF68F731A404B881A439F4B9842CD
:103990000AD09F4B984207D0A44B984204D04FF6D0
:1039A000FF431A400B891A4302804B68C3620B889D
:1039B00003859B4B984205D09A4B984202D09A4B74
:1039C000984201D18B7A03860123838270474FF09E
:1039D000FF31416000210180018141808172704787
:1039E0000185828270470A46002101884FF68F7355
:1039F000194011430180704741627047C1627047AE
:103A00000146486A70470146088D704721B1028817
:103A100042F00202028004E002884FF6FD731A4071
:103A20000280704721B1028842F00402028004E063
:103A300002884FF6FB731A400280704721B102885A
:103A400042F08002028004E002884FF67F731A4041
:103A50000280704702884FF6F7731A40028002888E
:103A60000A430280704702884FF6FF431A400280E3
:103A700002880A430280704721B1028842F00102A5
:103A8000028004E002884FF6FE731A4002807047FD
:103A90000A884B881A438B881A43CB881A430B89B0
:103AA0001A434B891A438B891A43B0F844301A439E
:103AB000A0F8442070470021018041808180C180AE
:103AC000018141818181704731B1B0F8442042F4D5
:103AD0000042A0F8442005E0B0F84420C2F30E02F2
:103AE000A0F84420704770B5002400220023058C04
:103AF0004FF6FE7635400584028C8388048B4FF6A2
:103B00008F752C40B51E2C400D882C43751E2A4005
:103B10008D892A434D882A43414DA84205D0414D05
:103B2000A84202D0404DA84213D14FF6F7752A4063
:103B3000CD892A434FF6FB752A408D882A434FF6DC
:103B4000FF652B404FF6FF552B400D8A2B434D8AC6
:103B50002B43838004838D684563028470BD70B5F8
:103B6000002200230024058C4FF6EF7635400584B3
:103B7000038C8488028B48F6FF752A404FF6FF4578
:103B80002A400D884FF6FF7606EA05252A434FF6B0
:103B9000DF752B408D8906EA05152B434D8806EA13
:103BA00005152B43848002838D688563038470BD73
:103BB00070B5002200230024058C4FF6FF663540C7
:103BC0000584038C8488828B4FF68F752A404FF6CC
:103BD000FC752A400D882A434FF6FF552B408D89EE
:103BE0004FF6FF7606EA05252B434D8806EA0525A4
:103BF0002B43848082838D68C563038470BD00007D
:103C00000004004000080040000C0040001000408C
:103C10000014004000180040001C0040002000403C
:103C2000004001400044014000480140009C004029
:103C3000005C014070B5002200230024058C4EF684
:103C4000FF7635400584038C8488828B48F6FF75A7
:103C50002A404FF6FF452A400D884FF6FF7606EAC8
:103C600005252A434DF6FF752B408D8906EA05355B
:103C70002B434D8806EA05352B43848082838D686B
:103C80000564038470BD00210180418081808160D2
:103C90008181C18101824182704770B50346002055
:103CA00000241846183001258D40ACB21D8CA54368
:103CB0001D8409B1082909D100EB6100056825F0D0
:103CC000700505600568154305600EE00D1FC5F31E
:103CD0004E052844056825F4E045056005684FF663
:103CE000FF7606EA02263543056070BD41637047E2
:103CF00081637047C1637047016470470A460021C1
:103D0000018B4FF68F7319401143018370470A46A8
:103D10000021018B48F6FF7319404FF6FF7303EA49
:103D200002231943018370470A460021818B4FF615
:103D30008F7319401143818370470A460021818B9C
:103D400048F6FF7319404FF6FF7303EA0223194345
:103D50008183704721B1828842F00102828004E0B1
:103D600082884FF6FE731A40828070470A4600210F
:103D7000018B4FF6F77319401143018370470A46D0
:103D80000021018B4FF2FF7319404FF6FF7303EAD6
:103D900002231943018370470A460021818B4FF6A5
:103DA000F77319401143818370470A460021818BC4
:103DB0004FF2FF7319404FF6FF7303EA02231943D2
:103DC000818370470A460021018B4FF6FB7319402F
:103DD0001143018370470A460021018B4FF6FF33E0
:103DE00019404FF6FF7303EA02231943018370471A
:103DF0000A460021818B4FF6FB73194011438183E2
:103E000070470A460021818B4FF6FF3319404FF669
:103E1000FF7303EA02231943818370470A46002196
:103E2000018B4FF67F7319401143018370470A4697
:103E30000021018BC1F30E014FF6FF7303EA022349
:103E40001943018370470A460021818B4FF67F7327
:103E500019401143818370470A460021818BC1F3C9
:103E60000E014FF6FF7303EA022319438183704763
:103E70000A460021018C4FF6FD731940114301845D
:103E800070470A460021018C4FF6F7731940114321
:103E9000018470470A460021018C4FF6DF731940F8
:103EA0004FF6FF7303EA02131943018470470A4671
:103EB0000021018C4FF6FF5319404FF6FF7303EAC0
:103EC00002231943018470470A460021018C4DF6F4
:103ED000FF7319404FF6FF7303EA0233194301845D
:103EE000704702894FF6F7731A40028102890A432C
:103EF0000281704730B5002301248C40A3B2048CAA
:103F00009C430484048C02FA01F5ADB22C43048472
:103F100030BD30B5002304248C40A3B2048C9C43F4
:103F20000484048C02FA01F5ADB22C43048430BD44
:103F300021B1828842F00402828004E082884FF638
:103F4000FB731A4082807047828B4FF2FF331A4016
:103F50008283828B4FF6FF7303EA01231A43828325
:103F60007047F0B50C461546002100220026078C4C
:103F70004EF6FF7C07EA0C070784818B028C4FF614
:103F8000FF7707EA043640F6FF4739404FF6FF77E0
:103F900007EA052739434FF6FF7707EA0337394326
:103FA00047F6FF573A4046F480573A4381830284EC
:103FB000F0BD828B4FF6F3731A408283828B0A43E3
:103FC00082837047F0B50C4615460021002200267A
:103FD000078C4FF6FF6C07EA0C070784818B028C75
:103FE0004FF6FF7707EA04264FF60C7739404FF675
:103FF000FF7707EA03172F4339434FF2FF573A4041
:1040000046F480773A4381830284F0BD028B4FF2FD
:10401000FF331A400283028B4FF6FF7303EA01233A
:104020001A4302837047F0B50C4615460021002262
:104030000026078C4FF6EF7C07EA0C070784018BFC
:10404000028C4FF6FF7707EA041640F6FF47394027
:104050004FF6FF7707EA033739434FF6FF7707EA52
:10406000052739434FF65F773A4046F010073A4349
:1040700001830284F0BD028B4FF6F3731A40028372
:10408000028B0A4302837047F0B50C4615460021A7
:104090000022068C4FF6FE773E400684018B028C90
:1040A0004FF60C7631407E1C06EA03162E43314350
:1040B0004FF6F576324044F0010632430183028424
:1040C000F0BD70B505460C46208850B92389A288FA
:1040D00061882846FFF7D8FFE1882846FFF7CBFF25
:1040E00025E0208804280AD12389A28861882846EF
:1040F000FFF799FFE1882846FFF788FF17E020883F
:1041000008280AD12389A28861882846FFF75AFF28
:10411000E1882846FFF74DFF09E02389A2886188DE
:104120002846FFF71EFFE1882846FFF70DFF70BD08
:10413000002101804180012181800021C180018115
:1041400070472DE9F04105460C460026012760889E
:1041500008B9022600E00026A088012801D1022724
:1041600000E001272088A0B92389A2886188284619
:10417000FFF78AFFE1882846FFF77DFF23893A464B
:1041800031462846FFF74FFFE1882846FFF73EFFFC
:1041900013E02389A28861882846FFF744FFE1885D
:1041A0002846FFF733FF23893A4631462846FFF772
:1041B0006BFFE1882846FFF75EFFBDE8F08101460E
:1041C000486B70470146886B70470146C86B704763
:1041D0000146086C70471AB183890B43838102E062
:1041E00083898B4383817047818270470246002018
:1041F000138A0B4201D0012000E000207047CA431F
:104200000282704730B50246002000230024158A40
:1042100005EA0103958905EA010413B10CB10120F7
:1042200000E0002030BDCA430282704741EA020329
:10423000A0F8483070471AB183890B43838102E0AC
:1042400083898B438381704721B1828842F00802C1
:10425000828004E082884FF6F7731A4082807047AC
:1042600001894FF6F8721140018170470A4600211A
:1042700001894FF68F73194011430181704730B5A2
:1042800004460D4629462046FFF7F0FF208940F0FE
:104290000700208130BD2DE9F04104460D46164649
:1042A0001F46602D06D13B46012231462046FFF7CE
:1042B000BAFE05E03B46012231462046FFF7E4FE08
:1042C00029462046FFF7D2FF208940F007002081D1
:1042D000BDE8F08130B50C4600210189C9B24FF626
:1042E000FF7505EA0325154325432943018130BDA8
:1042F0002DE9F04105460E461746984600244346F0
:104300003A4631462846FFF7E5FF2C894FF6F8700C
:10431000044044F007044FF68F70044044F07004EA
:104320002C81BDE8F081F0B504460D4616461F46C7
:104330003B46324629462046FFF7CCFF208940F411
:1043400080402081F0BD82884FF68F731A408280B2
:1043500082880A438280704702894FF6F8731A40B8
:10436000028102890A430281704702894FF67F73F6
:104370001A40028102890A4302817047F0B50C4657
:1043800015461E460021002200230189028B038C62
:104390004FF6F877394021434FF6FC473A4040F258
:1043A00001173A434FF6DD773B404FF6FF7707EAB8
:1043B00006172F433B43018102830384F0BD21B1E3
:1043C000828842F08002828004E082884FF67F7308
:1043D0001A4082807047A0F850107047314901435D
:1043E000314A1160704770B5002100230F22C47854
:1043F0000CB32D4C246804F4E064C4F5E064210A95
:10440000C1F10403CA40447804FA03F184781440EB
:1044100021430901254C0678A155047804F01F05B5
:104420000124AC4005786D114FF0E02606EB8505C0
:10443000C5F8004109E0047804F01F050124AC40F0
:104440001B4D0678761145F8264070BD194A0A4082
:104450000243154B1B1F1A60704739B1124A121DD7
:1044600012680243104B1B1D1A6006E00E4A121D13
:10447000126882430C4B1B1D1A607047042808D138
:104480004FF0E021096941F004014FF0E022116191
:1044900007E04FF0E021096921F004014FF0E0222C
:1044A000116170470000FA050CED00E000E400E047
:1044B00080E100E080FFFF1F10B501210807FEF733
:1044C00080FD00214FF08050FEF77BFD10BD3B4981
:1044D0000862704701460020394A106820F0E00069
:1044E00008431060704735490861704729B1344A64
:1044F00052680243324B5A6004E0314A52688243A8
:104500002F4B5A60704729B12D4A126802432C4B39
:104510001A6004E02A4A12688243294B1A607047E5
:104520002849096821F00401264A1160012801D1B7
:1045300030BF00E020BF704710B502460020204B7E
:10454000186820F00300104318601E4B1B6843F0EE
:1045500004031C4C2360012901D130BF00E020BFBF
:10456000184B1B6823F00403164C236010BD14483D
:10457000006840F00400124908600846006840F0F6
:10458000020008600F48006840F004000D49086010
:1045900000BF00BF30BF704701460020084A526884
:1045A0000A4201D0012000E0002070470449096858
:1045B00041EA8001024A11607047000000000E428B
:1045C0000070004010ED00E001460020FE4A106837
:1045D00020F0030008431060704730B1FA490968C1
:1045E00041F00801F84A116005E0F749096821F037
:1045F0000801F54A1160704730B1F349096841F08C
:104600001001F14A116005E0EF49096821F010013D
:10461000ED4A11607047EC48006910F0800F04D03B
:10462000EA48E9494860EA4848607047E648006956
:1046300040F08000E449086170470420E249C968FD
:1046400011F0010F01D001200EE0DF49C96811F01F
:10465000100F01D0022007E0DB49C96811F0040FF8
:1046600001D0032000E00420704700B50246042377
:10467000FFF7E3FF034603E0FFF7DFFF0346521EA9
:10468000012B01D1002AF7D102B90523184600BD3C
:1046900030B5044604254FF43020FFF7E6FF054609
:1046A000042D16D1C848006940F00200C6490861CF
:1046B00008464461006940F0400008614FF4302032
:1046C000FFF7D3FF0546C048006920F00200BE494D
:1046D0000861284630BD10B504244FF43020FFF7A0
:1046E000C4FF0446042C15D1B748006940F004000B
:1046F000B54908610846006940F0400008614FF480
:104700003020FFF7B2FF0446AF48006920F00400F4
:10471000AD490861204610BD78B506460C46042513
:10472000002000904FF43020FFF79FFF0546042D36
:1047300024D1A548006940F00100A34908613480F4
:104740004FF43020FFF791FF0546042D10D1B01C27
:104750000090200C009908804FF43020FFF785FF6F
:1047600005469948006920F001009749086105E075
:104770009548006920F0010093490861284678BDFA
:1047800070B504460D4604264FF43020FFF76DFF48
:104790000646042E11D18C48006940F001008A4978
:1047A000086125804FF43020FFF75FFF06468648FA
:1047B000006920F0010084490861304670BD8248DC
:1047C000006910F4007F04D180487F4988608048E8
:1047D000886070477C48006920F400707A4908615D
:1047E00070477948006940F4005077490861704784
:1047F00000207549C96911F0060F01D0012000E0C1
:104800000020704730B5AA250424FFF7F1FF00B15E
:1048100000254FF43020FFF728FF0446042C34D144
:104820006948006940F0200067490861084600694E
:1048300040F0400008614FF43020FFF716FF0446B7
:10484000042C1AD16048006920F020005E490861FC
:104850000846006940F0100008615E4805804FF48A
:104860003020FFF702FF0446052C0ED056480069A1
:1048700020F010005449086107E0052C05D052488B
:10488000006920F0100050490861204630BD70B525
:1048900005460E4604244FF43020FFF7E6FE04469A
:1048A000042C13D14848006940F0100046490861C3
:1048B0002E804FF43020FFF7D8FE0446052C05D09B
:1048C0004148006920F010003F490861204670BD52
:1048D0002DE9F04304464FF6FF763746B046B14621
:1048E0000425E443E6B2C4F30727C4F307484FEABC
:1048F00014694FF43020FFF7B8FE0546042D3FD170
:104900003148006940F010002F490861FF2E07D0A0
:104910003048083006804FF43020FFF7A6FE0546E9
:10492000042D09D1FF2F07D02A480A3007804FF401
:104930003020FFF79AFE0546042D0BD1B8F1FF0F8A
:1049400008D024480C30A0F800804FF43020FFF746
:104950008CFE0546042D0BD1B9F1FF0F08D01D4880
:104960000E30A0F800904FF43020FFF77EFE054691
:10497000052D05D01448006920F010001249086187
:104980002846BDE8F08330B5054604244FF43020B6
:10499000FFF76BFE0446042C3DD10B48006940F044
:1049A0002000094908610846006940F0400008619C
:1049B0004FF43020FFF759FE0446042C23D102485F
:1049C000006920F0200007E0002002402301674535
:1049D000AB89EFCD00F8FF1F8F49086108460069D9
:1049E00040F0100008618D4805804FF43020FFF73B
:1049F0003CFE0446052C0ED08748006920F01000CC
:104A00008549086107E0052C05D08348006920F03E
:104A1000200081490861204630BDF0B507460D46AB
:104A2000164604244FF43020FFF71FFE0446042CE2
:104A30001AD17948006940F010007749086147EAC7
:104A4000050046F0F80108437449891C08804FF4BA
:104A50003020FFF70AFE0446052C05D06E48006999
:104A600020F010006C4908612046F0BD30B50546C5
:104A700004244FF43020FFF7F8FD0446042C17D12E
:104A80006548006940F010006349086145F0EF0097
:104A90006249891C08804FF43020FFF7E6FD044688
:104AA000052C05D05C48006920F010005A490861C7
:104AB000204630BD30B5054604244FF43020FFF7C2
:104AC000D4FD0446042C17D15348006940F010006F
:104AD0005149086145F0DF005049891C08804FF4B6
:104AE0003020FFF7C2FD0446052C05D04A48006976
:104AF00020F0100048490861204630BD30B5054619
:104B000004244FF43020FFF7B0FD0446042C17D1E5
:104B10004148006940F010003F49086145F07F00BE
:104B20003E49891C08804FF43020FFF79EFD044663
:104B3000052C05D03848006920F01000364908617E
:104B4000204630BD30B5054604244FF43020FFF731
:104B50008CFD0446042C17D12F48006940F010004A
:104B60002D49086145F0BF002C49891C08804FF48D
:104B70003020FFF77AFD0446052C05D02648006951
:104B800020F0100024490861204630BD30B50546AC
:104B900004244FF43020FFF768FD0446042C17D19D
:104BA0001D48006940F010001B49086145F04800AD
:104BB0001A49891C08804FF43020FFF756FD04463F
:104BC000052C05D01448006920F010001249086136
:104BD000204630BD1048C069C0F3072070470E481A
:104BE000006A704729B10C4A126902430A4B1A61E4
:104BF00004E0094A12698243074B1A617047014673
:104C00000020054AD2680A4201D0012000E00020BD
:104C100070470149C86070470020024000F8FF1F3C
:104C20000FB41CB5074B06AA7B4469460090059853
:104C300000F011F90020694600F020F91CBC5DF875
:104C400014FB0000510200002DE9F0410E4604461D
:104C5000002020622046E168884730B3252805D02F
:104C6000D4E901219047206A401CF2E7E168204620
:104C700000278847050018D0A5F14100192802D85F
:104C800020354FF400673246294620462760FBF75F
:104C9000B5FA40B1012804D0F61D26F00706083603
:104CA000D8E7361DD6E72846DAE7206ABDE8F08166
:104CB0002DE9F0410646002410687529314616A5F5
:104CC00011D0AFF30080002803DAC0F1000013A573
:104CD00007E031688A0701D511A502E0490704D52C
:104CE00010A5012401E0AFF3008000210A2306F1A2
:104CF000240707E0B0FBF3F203FB120030307854D6
:104D00001046491C0028F5D123462A463046BDE806
:104D1000F04100F03EB80000000000002D0000004F
:104D20002B000000200000004FF0000200B51346E9
:104D300094469646203922BFA0E80C50A0E80C50BB
:104D4000B1F12001BFF4F7AF090728BFA0E80C506C
:104D500048BF0CC05DF804EB890028BF40F8042B65
:104D600008BF704748BF20F8022B11F0804F18BFD2
:104D700000F8012B704770477047704710B500F07E
:104D800083F8006810BD10B5044600F07DF804609B
:104D900010BD2DE9F0470D4699469246044600F1B4
:104DA00024080168880604D5E06921F0100121601B
:104DB00000E00120A84202DDA0EB050700E000278B
:104DC000A16907EB050202EB0900A1EB0000A0615D
:104DD0002078C00602D42046AFF30080002608E009
:104DE000D4E901211AF806009047206A401C761C7D
:104DF00020624E45F4DB2078C0060AD52046AFF38A
:104E0000008006E0D4E9012130209047206A401C50
:104E10002062381EA7F10107F4DC07E0D4E9012184
:104E200018F805009047206A401C2062281EA5F152
:104E30000105F3DC2046AFF300802078000602D5A0
:104E40000220BDE8F0870120FBE7000001694A1C51
:104E500002610878704700B58FB0CDE901310021BB
:104E6000059105497944CDE9031011466846FFF7DD
:104E7000EBFE0FB000BD0000E5FFFFFF0A6802F87F
:104E8000010B0A607047000000487047680100206D
:104E900000487047680100207546FFF7F9FFAE46ED
:104EA00005006946534620F00700854618B020B536
:104EB000FBF7CCF9BDE820404FF000064FF00007AB
:104EC0004FF000084FF0000B21F00701AC46ACE8B2
:104ED000C009ACE8C009ACE8C009ACE8C0098D461F
:104EE00070470446AFF300802046FBF79BF90000B3
:104EF00001491820ABBEFEE726000200704703B44C
:104F000001984100009850EAC12018BF04204A0DC2
:104F100018BF40F0010040F2FF72B2EB515F08BFD2
:104F200040F00200012808BF052002B070470000D1
:104F300070B52DED020B2DED0A8B82B00D98C40FCC
:104F400020F00045B04885424AD3B048854218D386
:104F50000C99C5F31300084308D09DED0C0B53ECDE
:104F6000102B51EC100B00F055FA20E0002C14BF70
:104F70009FEDA70B9DED0C0B02B0BDEC0A8B02B0B0
:104F800070BD9FEDA50B53EC102B9DED0C0B51EC60
:104F9000100B00F0F9FD0DD20220FFF7F4FE9FED9B
:104FA000A00B53EC102B51EC100B00F0EFFC41EC7C
:104FB000100BE1E79FED9C0B53EC102B9DED0C0BC0
:104FC00051EC100B00F0A6FC0AD20220FFF7DBFE2A
:104FD00002B0BDEC0A8B02B0BDE8704000F0D8B959
:104FE00093489FED959BA8425ED29548854219D281
:104FF0009448784400EBC40090ED000B53EC102B68
:105000009DED0C0B51EC100B00F000FE41EC1A0B67
:105010008D48784400EBC40090ED00BBC4F1010062
:10502000041B36E09FED8A0B53EC102B9DED0C0B0F
:1050300051EC100B00F0AAFC41EC100B86487844B0
:1050400000EBC40090ED001B51EC100B53EC112B46
:1050500000F0E0F900F0EAFB044600F044FC41EC0B
:10506000180B9FED7F0B53EC102B00F08FFC9DED88
:105070000C1B53EC112B00F0BDFD41EC1A0B9FED06
:105080007A0B51EC180B53EC102B00F07FFC41EC29
:105090001B0B51EC1A0B53EC1B2B00F0B7FD41EC32
:1050A000100B8DED0C0B1DE07148854217D29FED62
:1050B000720B53EC102B9DED0C0B51EC100B00F010
:1050C000A9F953EC192B00F05FFD08D29DED0C0BF4
:1050D00053EC192B51EC100B00F09CF967E79DED98
:1050E0000C0B002453EC102B51EC100B00F04EFC79
:1050F00041EC180B62480521B0EE480AF0EE680A50
:10510000784400F0C9F853EC182B51EC100B00F068
:105110003DFC9DED0C1B53EC112B00F06BFD41ECA5
:10512000180B9FED590B7CB353EC182B51EC100B63
:1051300000F06CFD9DED0C0B41EC1C0B53EC182B9F
:1051400051EC100B00F022FC53EC1C2B00F016FA73
:1051500053EC1B2B00F04EFD53EC1A2B00F056FDC8
:1051600053EC192B00F046FD41EC100B6FF47F70EF
:10517000844210EE900A8DED000B25DB00EB04500D
:1051800001909DED000BF7E6FFE753EC102B51EC7F
:10519000180B00F03BFD9DED0C0B41EC1A0B53EC92
:1051A000182B51EC100B00F0F1FB53EC1A2B00F014
:1051B000E5F99DED0C1B53EC112B00F027FD53EC92
:1051C000192B00F017FDF2E64FF07A5101EB045174
:1051D0009FED2F0B084453EC102B01909DED000B1D
:1051E00051EC100B00F0D2FB0D4645EC100B0446C1
:1051F00051EC100BFFF783FE042808BF00F0C8F83D
:1052000045EC104BB8E60000422E86400000F07FCF
:105210000000000000000000EF39FAFE422E864038
:10522000000000000000007051302DD5104987C0EB
:10523000422ED63F00000000000000000000F03FBA
:10524000B2A2F03FF20E0000E20E000000000000EB
:10525000FE822B654715F73F960E00000000000008
:105260000000E0FE422EE63F763C7935EF39EA3D1C
:105270000000303E000000009C7500883CE4377E52
:10528000040E0000000000000000000000000040CC
:10529000000000000000700170B504462DED028B87
:1052A0004D1E00EBC500B0EE408AF0EE608A90ED36
:1052B000000B35F0060017D053EC182B51EC100BF7
:1052C00000F064FB41EC100B6D1E04EBC50090ED8B
:1052D000001B51EC100B53EC112B00F09BF841EC30
:1052E000100B35F00600E7D1022D36D0042D1CD06E
:1052F000062D1CBFBDEC028B70BD53EC182B51EC7E
:10530000100B00F043FB94ED0A1B53EC112B00F043
:1053100081F853EC182B00F039FB94ED080B53EC9B
:10532000102B00F077F841EC100B53EC182B51ECDC
:10533000100B00F02BFB94ED060B53EC102B00F040
:1053400069F853EC182B00F021FB94ED041B53EC8F
:10535000112B00F05FF841EC100B53EC182B51ECC3
:10536000100B00F013FB94ED020B53EC102B00F02C
:1053700051F853EC182B00F009FB94ED000B53ECA3
:10538000102B00F047F8BDEC028B41EC100B70BD08
:105390009FED050B10B553EC102B51EC100B00F0EA
:1053A000F5FA41EC100B10BD0000000000000010E9
:1053B00021F00042A2F16052B2F5801F01F00043DB
:1053C00028BFD2F17F6C0BD95FEA001C43EAC2020E
:1053D00042EB507018BF704728BF20F001007047A3
:1053E000B2F5801FBCBF184670474FEA410C1CF550
:1053F000001F02D2084600F069BD70B500F070FBD6
:1054000000000089FFF7F6BF4FF00040A0F58000D4
:105410007047000010B591EA030F48BF83F00043C6
:1054200000F1FC83841A71EB030C05D2121943EBD3
:105430000C03001B61EB0C01DFF824E14FEA11546F
:10544000A4EB135C1EEA430F18BF9EEA445F73D0BF
:1054500023EA0E03DCF1200E21EA045143F4801309
:1054600032D322FA0CFE10EB0E0023FA0CFE41EBB5
:105470000E01CCF1200E03FA0EFE10EB0E0051F1DE
:105480000001B1F5801FCCF1200E32D201EB0451A6
:1054900012FA0EF2BDE8104058BF7047401C38BFEA
:1054A0005FEA420218BF7047002814BF20F00100D5
:1054B00041F100014FEA410313F5001F38BF704767
:1054C000A1F1C04100F05ABB012A43EB0302ACF149
:1054D000200CDCF11F0E32BF4FF0000E23FA0CF34C
:1054E00010EB030041EB0451B4EB115FD0D0A1EB02
:1054F000045101F5801149085FEA300001EB0451C5
:105500000ED350F1000038BF12FA0EFE08D1BDE8EC
:105510001040C9E7401C38BF5FEA4202CAD1C3E766
:10552000BDE810404FEA410313F5001F38BF704734
:10553000A1F1C04100F022BB9EEA445F08D011EA0D
:105540005E0FBDE8104004BF01F00041002070472D
:10555000BDE8104070B500F0C3FA00BF64FBBE3E6A
:105560000000E0FF491058BFC1F140415B1058BF37
:10557000C3F140438B42EFF3008070472DE9C041F7
:1055800030B4DFF8A0C23CEA111418BF3CEA13148F
:1055900000F0EC8081EA03051CEA111444EAD5749A
:1055A00018BF1CEA131500F0C780A4EB05044FF0E8
:1055B000004545EAC12145EAC32341EA505143EA87
:1055C000525304F17F74994204F500344FEAC0202D
:1055D0004FEAC22208BF904200F09C804FEA136558
:1055E0000FF24016765D4FEA134506FB05F7C7F14B
:1055F000807706FB07F74FEAD737A7FB03687642A9
:10560000C8F58038A7FB06CE38BFA8F1010807FB14
:1056100008E64FF0000EA6FB028CE6FB03CEDCF1A1
:10562000000CCEF1004E38BFAEF1010EA6FB0C58B7
:105630004FF000074FF00005E6FB0E87A1FB08C600
:10564000A0FB07CE16EB0E0645F10005E1FB076552
:1056500015F1E04E7EBFA4F580345FEA46066D4149
:1056600016F1800745F100054FEA17274FEA066655
:1056700047EA0567A6F1DE46B6F1805F4FEA1525D9
:105680001FD9384624F0010C05EBC471BCF1FE6F44
:1056900001EB0C1102D8F0BCBDE8008124425CBFD4
:1056A00001F5801E9EEAC47F02D4F0BCBDE80081F3
:1056B000244238D4F0BCA1F1C041BDE8004100F063
:1056C0005DBA4FEAD22242EA43524FEAD323A7FB04
:1056D00002864FEAD02040EA415007FB03661EEAEB
:1056E0000E0F4FEAD12105FB026658BFA6EB00560C
:1056F000B6EB00564FEA520E4EEAC37E18EB0E0E82
:1057000056EB530EBDD518EB02085E417F1C55F1D8
:105710000005B6E74FF480154FF000074FF0000684
:105720004FF00008ADE7F0BC4FF0000001F1C041C0
:1057300001F00041BDE8008111EA0C1F0CEA1315CD
:1057400000D00CE013EA0C1F00F025804FF00000A1
:10575000F0BC81EA030101F00041BDE80081F0BC2A
:10576000BDE8004181EA030100F008BAF0BCBDE8E1
:10577000004170B500F0B4F9097EFC3E00F007B8B6
:1057800081EA03014FF0000001F00041704781EA17
:10579000030100F0F3B9F0BCBDE800414FF0000098
:1057A00021497047FFFDFBF9F7F5F4F2F0EEEDEB60
:1057B000E9E8E6E4E3E1E0DEDDDBDAD8D7D5D4D30F
:1057C000D1D0CFCDCCCBCAC8C7C6C5C4C2C1C0BF5B
:1057D000BEBDBCBBBAB9B8B7B6B5B4B3B2B1B0AF61
:1057E000AEADACABAAA9A8A8A7A6A5A4A3A3A2A145
:1057F000A09F9F9E9D9C9C9B9A9999989797969500
:1058000095949393929191908F8F8E8E8D8C8C8B9B
:105810008B8A898988888787868585848483838223
:10582000828181800000FF070000F87F4FEA41037A
:105830004FEA5353A3F58063D3F11E03C8BFD3F1DE
:10584000210C0CDD4FF0004242EAC12242EA5052E4
:1058500032FA03FC8CEAE17CACEBE1707047102B70
:10586000C4BF0020704703F5787CBCF1FF3F04D033
:105870006FF0004282EA2100704770B500F030F905
:105880004992248000207047F2E700004FEA11534C
:10589000A3F58063D3F11E03A8BFD3F1200C08DB6E
:1058A0004FF0004242EAC12252EA505232FA03F06B
:1058B000704709420BD4102BC4BF0020704703F57A
:1058C000787CBCF1FF3F05D04FF0FF3070474FF0C0
:1058D0000000704770B500F003F900BF49922480C2
:1058E00000207047F0E710F0004248BF4042B0FA95
:1058F00080F310FA03F10AD0C3F11D0303F58063AE
:105900004FEA415002EB035202EBD12170474FF0B6
:105910000000704751EA030C17D41CF5801F58BFD4
:10592000BCF5801F00F10680994218BF704708BF80
:105930009042704707D711F5801F58BF13F5801F9D
:1059400019D499427047894270471CF5801F08D5C9
:10595000BCF5801FF7D58B4218BF704708BF824245
:1059600070474FF4001C1CEB410F38BF1CEB430F7A
:1059700001D28B42704770B500F0B2F89224490012
:105980004FF000514FF08053FFF7ECBDDFF848C1F6
:1059900070B51CEA111E1EBF1CEA13159EEA0C0FFF
:1059A00095EA0C0F00F06F8081EA030423EA4C13A0
:1059B0004EEAD47E21EA4C1141F4801143F4801365
:1059C000AE44A1FB024CA0FB0365AEF17F7E36190D
:1059D00055EB0C05A1FB034C4CF10003A0FB021C92
:1059E00016EB0C06654153F10003094218BF46F05F
:1059F000010613F4007F0BD14FEA03314FEA053063
:105A0000340341EA155140EA16506FF003020AE0F0
:105A10004FEAC3214FEAC520F40241EA555140EA5A
:105A200056506FF0020202EB2E4201EB025585EA5E
:105A3000CE710AD05FEA440C18BF24F0004450F144
:105A4000000041F1000120EAD47040F2FE7C624582
:105A500000D270BDA84214BF4FF080444FF04044C4
:105A6000002E08BF0024BEF1806FA8BFA1F1C04185
:105A7000BDE8704080F282804FF0000001F1C0412B
:105A800001F0004170479EEA0C0F0CEA131518BF95
:105A900095EA0C0F06D04FF0000081EA030E0EF0DD
:105AA000004170BD00F01CF88900013E00F007B80D
:105AB00000F009B84FEA430C5FEA5C5C08D081EA69
:105AC000030100F05BB84FEA410C5FEA5C5CF6D181
:105AD0004FF00000014970470000FF070000F87F09
