:020000040800F2
:10000000B819002071020008A9040008AB04000818
:10001000AF040008B3040008B704000800000000A3
:10002000000000000000000000000000BB04000809
:10003000BD04000800000000BF0400088902000899
:100040008B0200088B0200088B0200088B0200085C
:100050008B0200088B0200088B0200088B0200084C
:100060008B0200088B0200088B0200088B0200083C
:100070008B0200088B0200086B33000893320008E3
:100080008B020008C1280008C10400088B02000888
:100090008B0200088B0200088B0200088B0200080C
:1000A0008B0200088B0200088B0200088B020008FC
:1000B000C3040008D9040008AD2900088B02000819
:1000C0008B0200088B0200088B0200088B020008DC
:1000D0008B020008C92500088B0200088B0200086B
:1000E0008B0200088B0200088B0200088B020008BC
:1000F0008B0200088B0200080000000000000000D6
:1001000000000000000000008B0200088B020008C5
:1001100000000000000000008B0200088B020008B5
:100120008B0200088B0200088B0200088B0200087B
:100130008B0200088B0200088B0200088B0200086B
:100140008B0200080000000000000000000000001A
:10015000000000000000000000000000000000009F
:1001600000000000000000008B0200088B02000865
:100170008B020008000000008B0200080000000055
:10018000000000008B02000800F002F800F061F8A7
:100190000AA090E8000C82448344AAF10107DA45E2
:1001A00001D100F056F8AFF2090EBAE80F0013F0D3
:1001B000010F18BFFB1A43F001031847FC7300003E
:1001C0001C7400000A444FF0000C10F8013B13F0BF
:1001D000070408BF10F8014B1D1108BF10F8015BA0
:1001E000641E05D010F8016B641E01F8016BF9D193
:1001F00013F0080F1EBF10F8014BAD1C0C1B09D1EA
:100200006D1E58BF01F801CBFAD505E014F8016B5B
:1002100001F8016B6D1EF9D59142D6D370470000ED
:100220000023002400250026103A28BF78C1FBD8FF
:10023000520728BF30C148BF0B607047642905F0E2
:10024000C187002070471FB507F07FF91FBD10B5AB
:1002500010BD06F063F91146FFF7F5FF00F098FABC
:1002600006F081F903B4FFF7F2FF03BC06F082F950
:100270000948804709480047FEE7FEE7FEE7FEE73A
:10028000FEE7FEE7FEE7FEE7FEE7FEE70448054976
:10029000054A064B704700008D03000889010008DD
:1002A000B8130020B8190020B8150020B815002098
:1002B0001CB50020019000907248006840F4803026
:1002C0007049086000BF6F48006800F4003000907B
:1002D0000198401C0190009818B90198B0F5A06FE2
:1002E000F1D16848006810F4003F02D0012000906E
:1002F00001E0002000900098012836D102206249D8
:100300000860604840685F49486008464068486047
:100310000846406840F4806048600846406820F421
:100320007C1048600846406840F4E8104860084681
:10033000006840F08070086000BF5248006810F00C
:10034000007FFAD04F48406820F003004D494860D4
:100350000846406840F00200486000BF49484068D5
:1003600000F00C000828F9D10FE04FF4E011002054
:1003700003F0B3F9012003F0BEF902E0022003F01C
:10038000CCF903F0D3F90828F8D11CBD10B53F48CB
:10039000006840F470003D4908603A48006840F049
:1003A0000100384908600846406800F47F00486052
:1003B0000846006836490840324908600846006827
:1003C00020F4802008600846406820F4FE00486061
:1003D0000846C06A20F00F00C8620846006B2D492D
:1003E00008402849086300208860FFF761FF4FF04C
:1003F000006026498039086010BD30B5002100201A
:10040000002200231F4C646804F00C0121B1042970
:1004100006D0082925D107E01F4C204D2C6024E090
:100420001D4C1E4D2C6020E0164C646804F47010C6
:10043000144C646804F48032022404EB904022B926
:10044000174C4443154D2C600AE00E4CE46A04F04E
:100450000F04631C104CB4FBF3F444430F4D2C60A9
:1004600003E00D4C0D4D2C6000BF00BF054C6468CF
:10047000C4F303140B4D295D084C2468CC40074D90
:100480002C6030BD001002400020024088ED00E0EA
:10049000FFFFF6FE8C0FFF0F00127A000000002015
:1004A00000093D0004000020704700BFFEE700BFC8
:1004B000FEE700BFFEE700BFFEE7704770477047EA
:1004C000704710B50121880704F05AFF18B10121C7
:1004D000880704F066FF10BD10B50121044804F040
:1004E0004FFF18B10121024804F05BFF10BD00006E
:1004F0000004004000B58DB001F01AFD01F088FD48
:1005000001F092FD4FF4E13002F054FEBDA002F084
:10051000B5FE01F0B0FDBFA002F0B0FE02F033FA6C
:10052000C0A002F0ABFE02F07EF9C2A002F0A6FE6F
:1005300001F09DFAC3A002F0A1FE01F08CFF9FED37
:10054000C50A01F0C5FDC4A002F098FE02F07AFDD4
:10055000C5A002F093FE01A803F069F9C6A1CC483A
:10056000029A05F0E7FDCA4802F088FE0120C94959
:1005700008700DB000BD10B50121480403F076FAF3
:100580000121880403F072FA0121080503F06EFAD4
:100590000121480503F06AFA0121084603F066FAD2
:1005A0000121C80303F07CFA0121880303F06BFAF0
:1005B00010BD08B54FF4A06004F0CEFF0F208DF8F9
:1005C000000000208DF801008DF8020001208DF858
:1005D0000300684604F0C5FF0E208DF800000020DF
:1005E0008DF8010001208DF802008DF803006846A7
:1005F00004F0B7FF1E208DF8000001208DF80100E7
:1006000000208DF8020001208DF80300684604F0F8
:10061000A8FF11208DF8000001208DF801008DF851
:1006200002008DF80300684604F09BFF08BD1CB56E
:100630004FF44070009003208DF8040000208DF8E6
:1006400007006946944802F002FF4FF40050009002
:1006500000208DF8040003208DF8050001208DF89E
:10066000070069464FF0904002F0F1FE4FF48070B1
:10067000009001208DF8040000208DF80600012074
:100680008DF8070003208DF8050069464FF0904073
:1006900002F0DDFE0820009002208DF80400032007
:1006A0008DF8050000208DF8070069467B4802F0B0
:1006B000CEFE01220321794802F050FF0E20009067
:1006C00001208DF8050002208DF8040000208DF82F
:1006D000060001208DF8070069464FF0904002F0B7
:1006E000B6FE062201214FF0904002F037FF0622AD
:1006F00002214FF0904002F031FF062203214FF01B
:10070000904002F02BFF1020009001208DF8050092
:100710008DF8040000208DF8060001208DF80700F8
:1007200069464FF0904002F092FE4FF4C060009096
:1007300002208DF8040000208DF8060001208DF8BD
:10074000070003208DF8050069464FF0904002F045
:100750007EFE4FF48070009001208DF80400002090
:100760008DF8060001208DF8070003208DF80500A4
:1007700069464B4802F06BFE07220921C80602F0C9
:10078000EDFE07220A214FF0904002F0E7FE1CBD6B
:10079000FFF7F1FEFFF74BFFFFF70BFFFFF7AAFE96
:1007A0002EE040480088012804DB00203D490880F5
:1007B00001F097FB00F080F83B490988884204DC8F
:1007C00000203949088001F08DFB38480088052851
:1007D00004DB00203549088001F08FFB3448008895
:1007E0000A2804DB00203249088001F087FB3148E9
:1007F0000088642804DB00202E49088001F087FB74
:10080000CFE70000313A0952533438355F496E69F9
:10081000740A0000323A094B45595F496E69740AFF
:1008200000000000333A0954494D345F496E697441
:100830000A000000343A0950574D5F496E69740A46
:1008400000000000353A095049445F496E69740A56
:100850000000000000004842363A094144435F4925
:100860006E69740A00000000373A09414435373692
:10087000315F496E69740A000A2A2A2A436C6F6341
:100880006B73467265712A2A2A5B25645D0A000033
:1008900054100020140000200010004800040048FC
:1008A000000C00489C0400209E040020A0040020AE
:1008B000A2040020A4040020FE48008870472DE90F
:1008C000F0412DED0E8B0024FB48007801F00CFD6B
:1008D000BDEEC00A10EE100A05B2F848007801F02B
:1008E00003FDBDEEC00A10EE100A06B2F44800780F
:1008F00018B9F4480088401B04B2F1480078012878
:1009000003D1701B04B2EF490E80201E01DB0146AB
:1009100000E0414200EE101AB8EE400AEA49D1ED7B
:100920000A0AB4EEE00AF1EE10FA12DDE74909789E
:1009300079B90120E54908700020E5490880204682
:10094000E11704EB917105EBA10109B2E14A1180B5
:1009500003E0DC480088E0490880DC480078012892
:100960006CD1DB48B0F90000404200EE100AB8EE4E
:10097000C00ADFEDDA0A20EE200AD948D0ED000ADD
:1009800080EE201A11EE107A384606F06DFD41EC2B
:10099000100BB0EE40EAF0EE60EA05F00DFEB0EEAE
:1009A00040DAF0EE60DA9FEDCF0B53EC102B51ECF8
:1009B0001D0B06F063FC41EC100BB0EE40BAF0EEFC
:1009C00060BAC0490988C34AB2F90020881A06F003
:1009D000CEFA41EC100BB0EE40CAF0EE60CA53EC18
:1009E0001B2B51EC1C0B06F015FB41EC100BB0EE71
:1009F000409AF0EE609AB748B0F9000006F0B7FAF6
:100A000041EC100BB0EE40AAF0EE60AA53EC192BAB
:100A100051EC1A0B06F042F841EC100BB0EE408A94
:100A2000F0EE608A51EC180B06F074FAAA490880BF
:100A3000A7480088401C00B2A5490880A348007858
:100A400001280DD1A2480088B0F5FA7F08D19D4851
:100A50000088A149088000209D4908809B490870B2
:100A6000BDEC0E8BBDE8F08110B5012001F02AF835
:100A7000954890ED000ADFED9D0A20EE200ABDEEBC
:100A8000C00A10EE100A9A4908808F4890ED010ABA
:100A9000DFED960A20EE200ABDEEC00A10EE100A25
:100AA00094490880884890ED020ADFED900A20EE14
:100AB000200ABDEEC00A10EE100A8F4908808F4947
:100AC00008888B49098802F001FA8C4948888949CD
:100AD000098802F0FBF9894988888749098802F06A
:100AE000F5F9794890ED030ADFED800A20EE200A3F
:100AF000BDEEC00A10EE100A7D490880724890EDE4
:100B0000040ADFED7A0A20EE200ABDEEC00A10EEDC
:100B1000100A784908806C4890ED050ADFED730AE9
:100B200020EE200ABDEEC00A10EE100A72490880BD
:100B30007249C8886E49098802F0C8F96F49088966
:100B40006C49098802F0C2F96C4948896A490988E8
:100B500002F0BCF95C4890ED060ADFED640A20EE75
:100B6000200ABDEEC00A10EE100A614908805648FE
:100B700090ED070ADFED5D0A20EE200ABDEEC00A07
:100B800010EE100A5B4908804F4890ED080ADFED2F
:100B9000570A20EE200ABDEEC00A10EE100A564990
:100BA0000880564988895249098802F08FF95349CB
:100BB000C8895049098802F089F95049088A4E4984
:100BC000098802F083F9404890ED090ABDEEC00A99
:100BD00010EE100A464908803B4890ED0A0ABDEE27
:100BE000C00A10EE100A434908803748808D4249F8
:100BF00008804249488A3E49098802F067F93F491E
:100C0000888A3C49098802F061F93C49C88A3A4916
:100C1000098802F05BF92C48C08D354908803048BE
:100C200090ED000ADFED310A20EE200ABDEEC00A89
:100C300010EE100A2F490880314890ED000ADFEDD0
:100C40002B0A20EE200ABDEEC00A10EE100A2A4937
:100C500008802A49088B2649098802F037F9274974
:100C6000488B2449098802F031F92449888B2249AC
:100C7000098802F02BF9002000F024FF10BD70B5A8
:100C800005460524295D601C285C41EA00201849BE
:100C90000880A41C295D601C285C41EA00201549DD
:100CA0000880A41C295D601C285C41EA00201249D0
:100CB000088027E0200000202200002023000020E0
:100CC0002600002060000020E804002052000020E0
:100CD0005000002054000020620000200AD7233C6E
:100CE00018000020000000000000F03F00007A44DF
:100CF00056000020580000205A0000202800002044
:100D00001C000020FE48008800EE100AB8EE400AE1
:100D1000F2EE040A80EE201AFA4880ED001AFA4832
:100D2000008800EE100AB8EE400AF2EE040A80EEE7
:100D3000201AF44880ED011A0846008800EE100AD7
:100D4000B8EE400AF2EE040A80EE201AED4880ED7B
:100D5000021AA41C295D601C285C41EA0020E849B5
:100D60000880A41C295D601C285C41EA0020E6493B
:100D70000880A41C295D601C285C41EA0020E3492E
:100D80000880DF48008800EE100AB8EE400AF2EE54
:100D9000040A80EE201ADB4880ED031ADA48008846
:100DA00000EE100AB8EE400AF2EE040A80EE201AB5
:100DB000D44880ED041A0846008800EE100AB8EE08
:100DC000400AF2EE040A80EE201ACE4880ED051AA1
:100DD000A41C295D601C285C41EA0020C8490880E9
:100DE000A41C295D601C285C41EA0020C6490880DB
:100DF000A41C295D601C285C41EA0020C3490880CE
:100E0000BF48008800EE100AB8EE400AF2EE040A6D
:100E100080EE201ABB4880ED061ABB48008800EE21
:100E2000100AB8EE400AF2EE040A80EE201AB54825
:100E300080ED071A0846008800EE100AB8EE400A56
:100E4000F2EE040A80EE201AAE4880ED081AA41CC7
:100E5000295D601C285C41EA0020A9490880A41C87
:100E6000295D601C285C41EA0020A7490880A41C79
:100E7000295D601C285C41EA0020A4490880A04844
:100E8000008800EE100AB8EE400A9E4880ED090A7C
:100E90009D48008800EE100AB8EE400A994880ED9F
:100EA0000A0A0846008800B296498885A41C295D74
:100EB000601C285C41EA002091490880A41C295D3F
:100EC000601C285C41EA00208F490880A41C295D31
:100ED000601C285C41EA00208C4908808848008812
:100EE00000B28849C8858848008800EE100AB8EE2C
:100EF000400A5FED820A80EE201A854880ED001AD4
:100F00008248008800EE100AB8EE400A5FED890AB8
:100F100080EE201A7F4880ED001AA41C295D601C19
:100F2000285C41EA002076490880084600787A4922
:100F30000870784890ED000A01F0CAF8FFF794FDB8
:100F400070BD70B505460524242028704E206870B9
:100F50003E20A870332028716A4890ED000A5FEDAA
:100F60009D0A20EE200ABDEEC00A10EE100A644968
:100F70000880644890ED010A5FEDA40A20EE200A83
:100F8000BDEEC00A10EE100A5F4908805D4890ED82
:100F9000020A5FEDAA0A20EE200ABDEEC00A10EE9A
:100FA000100A5A4908805648007828555448008845
:100FB000010A601C2954A41C534800782855524843
:100FC0000088010A601C2954A41C50480078285548
:100FD0004E480088010A601C2954A41C494890ED21
:100FE000030A5FEDBE0A20EE200ABDEEC00A10EE35
:100FF000100A43490880434890ED040A5FEDC50A92
:1010000020EE200ABDEEC00A10EE100A3E4908800C
:101010003C4890ED050A5FEDCB0A20EE200ABDEEBC
:10102000C00A10EE100A3949088035480078285562
:1010300033480088010A601C2954A41C32480078F7
:10104000285531480088010A601C2954A41C2F48E7
:10105000007828552D480088010A601C2954A41CDA
:10106000284890ED060A5FEDDF0A20EE200ABDEE6B
:10107000C00A10EE100A22490880224890ED070AA3
:101080005FEDE60A20EE200ABDEEC00A10EE100A5F
:101090001D4908801B4890ED080A5FEDEC0A20EE20
:1010A000200ABDEEC00A10EE100A18490880144844
:1010B0000078285512480088010A601C2954A41C95
:1010C00011480078285510480088010A601C2954EE
:1010D000A41C0E48007828550C480088010A601CA2
:1010E0002954A41C074890ED090ABDEEC00A10EE71
:1010F000100A03490880034890ED0A0A0EE0000038
:1011000056000020E8040020580000205A0000206B
:10111000180000201C00002022000020BDEEC00AA4
:1011200010EE100AFC490880FC48808DFC490880BC
:10113000FC4800782855FB480088010A601C2954A7
:10114000A41CF54800782855F3480088010A601C63
:101150002954A41CF24800782855F1480088010A57
:10116000601C2954A41CED48C08DEE490880EE484F
:1011700090ED000ADFEDED0A20EE200ABDEEC00A78
:1011800010EE100AE4490880E94890ED000ADFED0E
:10119000E70A20EE200ABDEEC00A10EE100AE04970
:1011A0000880E04800782855DE480088010A601C65
:1011B0002954A41CD84800782855D7480088010A2B
:1011C000601C2954A41CD64800782855D4480088AF
:1011D000010A601C2954A41C284600F021FD611C52
:1011E0006854EC7070BD70B505460524295D601C1F
:1011F000285C41EA0020CB490880A41C295D601CC2
:10120000285C41EA0020C4490880A41C295D601CB8
:10121000285C41EA0020C2490880C2480088C549CC
:101220000880C548007838B9BE480088C3490860BE
:101230000846006801F0FDFAC148007818B9B648C0
:101240000088C0490880B6480078BF49087070BD62
:1012500070B505460524242028704E2068703E2075
:10126000A87032202871B7480088AE490880B3487A
:101270000668AA48D0ED0C0AB248008800EE100AB1
:10128000B8EE400A30EE600ABDEEC00A10EE100A59
:10129000A3490880A34800782855A2480088010A7D
:1012A000601C2954A41C2E55C6F30721601C295428
:1012B000C6F30741A01C2954300EE11C6854241DBC
:1012C00097480078285596480088010A601C2954E0
:1012D000A41C002001F008F8F2EE040A20EE200A17
:1012E000BDEEC00A10EE100A8E490880012000F001
:1012F000FBFFF2EE040A20EE200ABDEEC00A10EE5B
:10130000100A8549088091480088854908808548E9
:101310000078285583480088010A601C2954A41CC1
:101320007D48007828557C480088010A601C2954B3
:10133000A41C7B480078285579480088010A601C65
:101340002954A41CEC7070BD10B52DED028B8048A3
:10135000007800F0C9FFF0EE408A7C48008800EE7B
:10136000100AB8EE400A30EE680AB0EE408ABDEED0
:10137000C80A10EE100A002801DB014600E04142D5
:10138000664AB2F92E20914201D20024B8E0BDEEA7
:10139000C80A10EE100A002801DB014600E04142B5
:1013A00000EE101AB8EE400A5C49D1ED090AB4EE1D
:1013B000E00AF1EE10FA21DD084690ED000AD0EDCA
:1013C0000C0A78EE600A20EE200AD0ED010A00EE49
:1013D000880A90ED0C1AF0EE001AF0EE480A41EE81
:1013E000C10A90ED0D1A70EE810A90ED021A01EE1D
:1013F000200ABDEEC00A10EE104A81E0BDEEC80A18
:1014000010EE100A002801DB014600E0414200EE28
:10141000101AB8EE400A4149D1ED090AB4EEE00ACB
:10142000F1EE10FA21D2084690ED060AD0ED0C0A32
:1014300078EE600A20EE200AD0ED070A00EEC80A16
:1014400090ED0C1AF0EE001AF0EE480A41EEC10AD7
:1014500090ED0D1A70EE810A90ED081A01EE200A47
:10146000BDEEC00A10EE104A4AE0BDEEC80A10EE0A
:10147000101A002901DB0A4600E04A4200EE102A59
:10148000B8EE400A254AD2ED0A0AB4EEE00AF1EEBF
:1014900010FA35DDBDEEC80A10EE100A002801DB97
:1014A000024600E0424200EE102AB8EE400A1B4A13
:1014B000D2ED090AB4EEE00AF1EE10FA20D210469D
:1014C00090ED030AD0ED0C0A78EE600A20EE200AB7
:1014D000D0ED040A00EEC80A90ED0C1AF0EE001AE6
:1014E000F0EE480A41EEC10A90ED0D1A70EE810A45
:1014F00090ED051A01EE200ABDEEC00A10EE104A6A
:10150000064890ED0C0A80ED0D0A80ED0C8A201E35
:1015100020DB01461FE0000058000020E804002006
:101520005A000020560000201800002000007A44D5
:101530001C00002020000020240000205C0000206F
:10154000260000206000002027000020620000200C
:10155000220000204142FE4AB2F92C2091420AD9D1
:10156000002C03DDFA48B0F92C0003E0F848B0F98C
:101570002C0040420446F74800682044F5490860C2
:10158000BDEC028B10BD10B52DED028BF24800783A
:1015900000F0AAFEF0EE408AF048008800EE100A43
:1015A000B8EE400A30EE680AB0EE408ABDEEC80AD6
:1015B00010EE100A002801DB014600E04142E44A37
:1015C000B2F92E20914201D2002494E0BDEEC80A67
:1015D00010EE100A002801DB014600E0414200EE57
:1015E000101AB8EE400ADA49D1ED090AB4EEE00A61
:1015F000F1EE10FA15DD084690ED000A20EE080A1B
:10160000D0ED010A90ED0C1A00EEC10AD0ED020AED
:1016100090ED0D1A00EE810ABDEEC00A10EE104AE0
:1016200069E0BDEEC80A10EE100A002801DB014691
:1016300000E0414200EE101AB8EE400AC449D1ED74
:10164000090AB4EEE00AF1EE10FA15D2084690ED60
:10165000060A20EE080AD0ED070A90ED0C1A00EEFB
:10166000C10AD0ED080A90ED0D1A00EE810ABDEE18
:10167000C00A10EE104A3EE0BDEEC80A10EE101A85
:10168000002901DB0A4600E04A4200EE102AB8EECB
:10169000400AAF4AD2ED0A0AB4EEE00AF1EE10FABF
:1016A00029DDBDEEC80A10EE100A002801DB024653
:1016B00000E0424200EE102AB8EE400AA44AD2ED01
:1016C000090AB4EEE00AF1EE10FA14D2104690EDD9
:1016D000030A20EE080AD0ED040A90ED0C1A00EE81
:1016E000C10AD0ED050A90ED0D1A00EE810ABDEE9B
:1016F000C00A10EE104A964890ED0C0A80ED0D0AD3
:1017000080ED0C8A201E01DB014600E04142904A38
:10171000B2F92C2091420AD9002C03DD8C48B0F993
:101720002C0003E08A48B0F92C0040420446894866
:101730000068204487490860BDEC028B10BD10B5DD
:101740008748007810B1012806D102E0FFF71BFF9F
:1017500002E0FFF7F9FD00BF00BF7E480068814945
:10176000884202D908467B4908607A48006842F2FC
:101770001071884202D208467649086075480068B0
:1017800001F057F810BD10B53C21714804F0DCFDA4
:101790009FED750A6E4880ED000A9FED740A80ED9A
:1017A000010AB2EE090A80ED020A9FED710A80ED8E
:1017B000030A9FED700A80ED040AB1EE090A80ED7C
:1017C000050A9FED6D0A80ED060AB1EE0C0A80ED68
:1017D000070AB0EE040A80ED080A9FED680A80ED62
:1017E000090A9FED670A80ED0A0A4FF47A7058499A
:1017F00088853220C885FFF737F910BD10B56149DB
:101800000888614901F0C0F95E4948885F4901F0E4
:10181000BBF95C4988885E4901F0B6F95A480088EE
:1018200000EE100AB8EE400A5FEDC00A80EE201A02
:10183000474880ED001A5548008800EE100AB8EEBF
:10184000400A5FEDC60A80EE201A414880ED011A79
:101850004F48008800EE100AB8EE400A5FEDCD0A4E
:1018600080EE201A3A4880ED021A4649C888464957
:1018700001F08AF943490889444901F085F9414951
:101880004889434901F080F93F48008800EE100A7A
:10189000B8EE400A5FEDDB0A80EE201A2C4880ED9E
:1018A000031A3A48008800EE100AB8EE400A5FEDCD
:1018B000E10A80EE201A264880ED041A3448008898
:1018C00000EE100AB8EE400A5FEDE80A80EE201A3A
:1018D0001F4880ED051A2B4988892B4901F054F9DE
:1018E0002849C889294901F04FF92649088A284919
:1018F00001F04AF92448008800EE100AB8EE400AC8
:101900005FEDF60A80EE201A114880ED061A1F4896
:10191000008800EE100AB8EE400A5FEDFC0A80EE87
:10192000201A0B4880ED071A1948008800EE100AAB
:10193000B8EE400ADFED170A80EE201A044880ED69
:10194000081A1049488A104901F01EF90D4923E090
:10195000E80400205C00002022000020620000203B
:101960002700002050870A000000C44100000C42FC
:101970000000444100008C41CDCC9C4000803B45A0
:101980000000FA43280000205600002058000020E4
:101990005A00002000007A44888A4C4901F0F4F88B
:1019A0004B49C88A4B4901F0EFF84B48008800EEDC
:1019B000100AB8EE400A494880ED090A43480088F9
:1019C00000EE100AB8EE400A444880ED0A0A414889
:1019D000008800B2414988853D49088B3E4901F0A5
:1019E000D3F83B49488B394901F0CEF83849888B08
:1019F000384901F0C9F83848008800B23749C8852D
:101A00003248008800EE100AB8EE400A5FED1F0A67
:101A100080EE201A324880ED001A2E48008800EE31
:101A2000100AB8EE400A5FED250A80EE201A2D4814
:101A300080ED001A10BD10B501F0C5F9FFF7DEFE0C
:101A40002349C88B244901F09FF8234800880F28B8
:101A50000CD0012000F036F81D49C88B0F2101F091
:101A600035FA002000F02EF8FFF78DFE10BD10B5FE
:101A700003F08FFEFFF7DFFF10BD10B500201A49FD
:101A8000087042F21070194908600846006800F0BA
:101A9000D0FE10BD10B5002013490870144813493A
:101AA000086000F0C6FE10BD01200F4908707047A5
:101AB0000D48007870470146002901DD084670474F
:101AC0004842FCE780F3108870470000580000206F
:101AD000280000205A00002056000020E8040020C2
:101AE000180000201C000020240000205C000020C2
:101AF00050870A00014608784A7850408A7850405A
:101B0000CA785040704708B5425C8DF800204A1CE6
:101B1000825C8DF801208A1C825C8DF80220CA1C30
:101B2000825C8DF803209DED000A08BD70B5044667
:101B30000E4600252078242800D070BD60784E28FD
:101B400000D0FAE7A0783C2800D0F6E720793038BA
:101B500008285AD2DFE800F004202B333B454F0F12
:101B60002046FFF740FBBBA1C04804F0E3FABF48A2
:101B700001F084FB51E0A179607901EB002085B28E
:101B80002A46BBA1B94804F0D5FAB84801F076FB63
:101B9000284601F0FAF940E02046FFF770F8B9A1B5
:101BA000B24804F0C7FAB14801F068FB35E0AF482D
:101BB000FFF74EFBAD48C17801F015FB2DE0AB48B7
:101BC000FFF7BFF9A948C17801F00DFB25E0FFF749
:101BD00054FFB1A1A54804F0ADFAA44801F04EFBB2
:101BE0001BE0FFF757FFB0A1A04804F0A3FA9F48FD
:101BF00001F044FB11E0FFF757FFAFA19B4804F051
:101C000099FA9A4801F03AFB07E0AFA1974804F02F
:101C100091FA964801F032FB00BF00BF00BF8CE78D
:101C200010B501460020CB78002204E0D41C0C5DE6
:101C30006040541CE2B29C1CA242F7DB10BD70470E
:101C400000B5014600221012FFF7F9FFC8B2FFF7F6
:101C5000F6FF00BD30B50146002905DA2D20FFF75B
:101C6000EEFF484241B202E02020FFF7E8FF642087
:101C700091FBF0F0C2B2642091FBF0F500FB15106F
:101C80000A2590FBF5F0C3B20A2091FBF0F500FBAA
:101C90001510C4B202F13005E8B2FFF7D0FF03F12E
:101CA0003005E8B2FFF7CBFF04F13005E8B2FFF7EB
:101CB000C6FF30BD30B50146642091FBF0F0C2B2E2
:101CC000642091FBF0F500FB15100A2590FBF5F060
:101CD000C3B20A2091FBF0F500FB1510C4B202F16B
:101CE0003005E8B2FFF7ABFF03F13005E8B2FFF7CC
:101CF000A6FF04F13005E8B2FFF7A1FF30BDF0B553
:101D00000146002905DA2D20FFF799FF484201B26C
:101D100002E02020FFF793FF6E4891FBF0F700FBF5
:101D2000171042F2107790FBF7F0C2B2384691FBE1
:101D3000F0F700FB17104FF47A7790FBF7F0C3B27F
:101D4000384691FBF0F700FB1710642790FBF7F083
:101D5000C4B2642091FBF0F700FB17100A2790FB38
:101D6000F7F0C5B20A2091FBF0F700FB1710C6B2DE
:101D700002F13007F8B2FFF762FF03F13007F8B263
:101D8000FFF75DFF04F13007F8B2FFF758FF05F1E8
:101D90003007F8B2FFF753FF06F13007F8B2FFF74C
:101DA0004EFFF0BDF0B501464A4891FBF0F700FB4D
:101DB000171042F2107790FBF7F0C2B2384691FB51
:101DC000F0F700FB17104FF47A7790FBF7F0C3B2EF
:101DD000384691FBF0F700FB1710642790FBF7F0F3
:101DE000C4B2642091FBF0F700FB17100A2790FBA8
:101DF000F7F0C5B20A2091FBF0F700FB1710C6B24E
:101E00002020FFF71CFF02F13007F8B2FFF717FFA1
:101E100003F13007F8B2FFF712FF04F13007F8B210
:101E2000FFF70DFF05F13007F8B2FFF708FF06F1E5
:101E30003007F8B2FFF703FFF0BD00B502461146C8
:101E400003E00878FFF7FBFE491C08780028F8D16A
:101E500000BD00005365745F52756E6E696E675FFA
:101E6000506172616D3A4F4B0A000000541000201F
:101E70005F555F536574564F75745B25645D3A4FCB
:101E80004B0A00005365745F5049445F50617261B2
:101E90006D3A4F4B0A00000053657456436C6F73E4
:101EA00065204F4B0A000000536574564F70656EF5
:101EB000204F4B0A000000005365745650494443BC
:101EC00074726C204F4B0A00756E6B6E6F772063D7
:101ED0006D640A00A086010010B510A001F0CEF9D3
:101EE00010BD704710B500F097F8FFF7E1FD08B19D
:101EF000FFF725FC00F084F810BD704710B500F026
:101F00009CF9FFF7D5FD08B1FEF7D9FC10BD10B55F
:101F100000F0D6F808B1FFF7DFFF10BD303A094FE7
:101F20006E5265736574466C6F77446F776E0A0006
:101F300010B56FF0040003F05FFB2D4800682D49D9
:101F4000B0FBF1F02C4908700846007800EB400126
:101F5000C1EBC0104FF6FF7101EAC00027490880AD
:101F600010BD0146244A12784A434FF0E0235A61DB
:101F700000229A611A46126942F001021A6100BFFA
:101F80004FF0E022106910F0010F02D010F4803FF2
:101F9000F6D04FF0E022126922F001024FF0E02368
:101FA0001A6100229A6170470146144A12884A4316
:101FB0004FF0E0235A6100229A611A46126942F0FA
:101FC00001021A6100BF4FF0E022106910F0010F0A
:101FD00002D010F4803FF6D04FF0E022126922F0D8
:101FE00001024FF0E0231A6100229A61704700005D
:101FF0000000002000127A0064000020660000202B
:1020000010B54FF480714FF0904001F09EFA10BD72
:1020100010B5FFF7F5FF10BD10B54FF480714FF00C
:10202000904001F090FA10BD10B500240BE0FFF7CE
:10203000F3FFC820FFF7B8FFFFF7E2FFC820FFF764
:10204000B3FF601CC4B2032CF1DB00240BE0FFF7EC
:10205000E3FF6420FFF7A8FFFFF7D2FF6420FFF73C
:10206000A3FF601CC4B2032CF1DBFFF7C9FF64209F
:10207000FFF79AFF10BD10B54FF400514FF090409C
:1020800001F061FA10BD70B504460D4629462046A0
:1020900001F041FA90B90A20FFF786FF2946204651
:1020A00001F039FA40B900BF2946204601F033FA61
:1020B0000028F9D0012070BD0020FCE70020FAE7DD
:1020C00010B54FF400514FF09040FFF7DCFF10BD0A
:1020D00010B52DED108BB0EE408A18EE100A05F009
:1020E000C3F941EC100BB0EE40FAF0EE60FA9FED50
:1020F000FE0B53EC102B51EC1F0B04F08BFF41EC4B
:10210000100BB0EE40EAF0EE60EA53EC1E2B9FEDB0
:10211000F80B51EC100B04F075FD41EC100BB0EE18
:1021200040CAF0EE60CAF448006805F09DF941EC41
:10213000100BB0EE40DAF0EE60DA53EC1C2B51ECF1
:102140001D0B04F0ABFC41EC100BB0EE40AAF0EE1E
:1021500060AAE948006805F087F941EC100BB0EE81
:1021600040BAF0EE60BA53EC1A2B51EC1B0B04F0A2
:1021700049FD41EC100BB0EE409AF0EE609A51EC44
:10218000190B04F059FCDD490860BDEC108B10BD43
:1021900030B5002000210022002300BF0BE04400E6
:1021A000D74D35F914402244012404EB400435F99D
:1021B00014402144401CC828F1DBC82491FBF4F4EE
:1021C00024B2D04D2C80C82492FBF4F424B26C804D
:1021D000C82493FBF4F424B2CB4D2C8030BD00B561
:1021E000FFF7D6FFC7480088C849C94A92F90020BE
:1021F00021F81200C3484188C648C54A92F9002018
:1022000020F81210C2480078401C40B2C049087043
:10221000084690F90000C82801D10020087000BDD0
:1022200030B500240025FFF7B3FFB6480088BA494F
:102230000880B4484088488030BD00B5FFF7F0FF03
:10224000B548B0F9000000F5004000EE100AB8EE05
:10225000C00ADFEDB20A20EE200ADFEDB10A80EEFF
:10226000201AB0EE000A21EE000AAE4880ED000A06
:10227000A948B0F9020000F5004000EE100AB8EEDF
:10228000C00ADFEDA60A20EE200ADFEDA50A80EEE7
:10229000201AB0EE000A21EE000AA24880ED010AE1
:1022A00090ED000AA048D0ED000A70EE600A90EDB3
:1022B000000A924890ED001A01EE200A9A4880ED3B
:1022C000000A984890ED010A9748D0ED010A70EE97
:1022D000600A90ED010A894890ED001A01EE200A8B
:1022E000914880ED010A00BD70B504468E4890ED1E
:1022F000000A9FED8E1AC0EE010A9FED8D0A20EEB6
:10230000800ABCEEC00A10EE100A85B2284600F022
:102310003CFE1CB9844890ED000A70BD824890EDE7
:10232000010AFAE710B590B000240121080601F077
:10233000AAFB0121080701F0B3FB0121480203F0C9
:10234000A0F94FF0784001F01DFA002002F020FAC9
:102350000520FFF729FE0121764802F0F8F9012156
:10236000744802F0FFF91E2400BF4FF0004171488D
:1023700002F0DAFA10B9601E0400F6D114B9012097
:1023800010B010BD4FF040600C9000200D900E90EA
:102390000F900CAA0021674802F0B5F900226649A7
:1023A000644802F0C5F900226449624802F0C0F9AD
:1023B0006349604802F033FA01215E4802F03DFAB9
:1023C00000215C4802F0CEF900215A4802F0E8F9F9
:1023D000584802F0ECF94FF4F03400BF01215548A1
:1023E00002F0A2FA10B9601E0400F7D10CB9022065
:1023F000C6E7504802F00EFA0121022001F036FB38
:10240000504802F01BF84B48603001903C48029065
:10241000002003904FF4C870ADF810000020059024
:1024200080200690400007908000089020200990AE
:1024300000020A9000200B9001A9424802F0A0F887
:102440000121404802F0C7F801221104394802F086
:1024500059FA002094E710B5FFF764FF10BD00B5EE
:102460008FB00121084601F001FB0121480201F073
:102470000AFB4FF4004001F07AF9334801F0DEFF27
:102480003248049032480590002006904FF41670B0
:10249000ADF81C00002008908020099040000A90B0
:1024A00080000B9020200C9000020D9000200E90D8
:1024B00004A9254802F064F80121234802F08BF8B2
:1024C00022484C3801F0BAFD012001F014FE012031
:1024D0008DF800008DF801004FF46020019000207D
:1024E0000290032036E000001F85EB51B81E194012
:1024F000000000000000F03F780000207C00002079
:10250000240500207000002074000020F40C00203E
:1025100076000020840E00206C00002000803B45E7
:1025200000FF7F47800000208800002000409C457D
:1025300000008047006001408000070000010800A3
:1025400080010F0030040240080002404C2401408A
:10255000440800208DF80C0069461A4801F07AFD05
:10256000072301220821174801F0D4FD0723022286
:102570000921144801F0CEFD07230322112111483F
:1025800001F0C8FD01210F4801F060FE01210D4856
:1025900001F089FD0B4801F096FD00BF094801F0EC
:1025A0003CFF0028FAD1074801F088FD00BF05482C
:1025B00001F029FF0028FAD1024801F012FE0020A4
:1025C0000FB000BD0024014010B54D494D4801F049
:1025D00007FD80B14B4801F004FCC4B24A480078C2
:1025E000402808DA49484849097844544648007860
:1025F000401C4549087010BD704710B586B00446B0
:102600000094002001900290039005900C2004900B
:1026100069463C4801F0C9FA01223949394801F0BC
:10262000A6FC0121374801F043FBFFF7E5FF06B0A8
:1026300010BD704770B505460E46FFF7FAFF00243F
:102640000CE000BF40212F4801F0BFFC0028F9D06A
:10265000295D2C4801F0C1FB601CC4B2B442F0DB20
:1026600000BF4021274801F0B0FC0028F9D000202D
:1026700025490870FFF7C0FF70BD10B50446FFF78D
:10268000D8FF0BE000BF40211E4801F09EFC00284F
:10269000F9D021781B4801F0A0FB641C20780028A9
:1026A000F0D100BF4021174801F08FFC0028F9D07D
:1026B000002015490870FFF79FFF10BD2DE9F0417C
:1026C00007460D4610480678002400202870C820D0
:1026D000FFF747FC0C48007886420FD176B100BF67
:1026E00004E00A48005D3855601CC4B2B442F8DB0F
:1026F000054800782870002003490870BDE8F08183
:102700000501050000380140900000201410002051
:1027100000B589B00121084601F0C2F942F6E06037
:1027200007900020ADF81800ADF82000ADF81A00B1
:1027300006A94FF0804002F0D1F96020ADF8040006
:102740000120ADF8060042F2107003900020ADF8B1
:10275000100001A94FF0804002F0BFFA0821C8061E
:1027600002F0CBFB0121880702F026FA012188073D
:1027700002F040FA01221102880502F01AFE01223D
:102780009102080502F015FE0121880702F05AFAAD
:1027900009B000BD00B58BB00121084601F066F913
:1027A0005B4801F04BFE684601F008FF5948009075
:1027B000594801901020029058480078ADF80C005C
:1027C00000200490802005908000069080000790F3
:1027D000202008900002099000200A9069464C4889
:1027E00001F0CEFE4FF0007001F023FF4FF080604B
:1027F00001F01FFF4FF0006001F01BFF01220221DA
:10280000434801F0FAFE01220421414801F0F5FE9F
:10281000012208213E4801F0F0FE01213C4801F070
:10282000DAFE0BB000BD10B5FFF7B4FFFFF770FF85
:1028300010BD01460020C1F34F12394B1A8001F040
:102840001F02384B1A7000BF0EE0374A354B1B7819
:1028500002EB4312125C324B1B881A4492B2334B88
:1028600043F82020421CD0B22028EEDB0022304B5F
:102870001A70304B1A707047002000BF07E02B49D8
:1028800051F82010244A42F82010411CC8B22028D8
:10289000F5DB0121264A11707047002000BF09E0D6
:1028A000224951F820201C4B00F1200143F821203F
:1028B000411CC8B22028F3DB01211E4A1170704769
:1028C00010B54FF0007001F0BFFE40B14FF0007046
:1028D00001F0CDFE1748007808B9FFF7DEFF4FF092
:1028E000806001F0B1FE40B14FF0806001F0BFFEAA
:1028F0000F48007808B9FFF7BFFF4FF0006001F004
:10290000A3FE18B14FF0006001F0B1FE10BD000051
:102910008000024038000040141100209204002082
:1029200096040020980400209200002094100020BB
:1029300093040020940400203EB5044601210420A5
:1029400001F0AEF84FF47A700190A0B2ADF800003B
:102950000020ADF80800ADF8020069462B4802F0EF
:10296000BDF80121294802F008FD0122114627483F
:1029700002F0EFFC0121254802F03CF9002104207F
:1029800001F08EF83EBD10B54720FFF7D5FF0121BD
:10299000042001F085F810BD10B504462046FFF76D
:1029A000CBFF0121042001F07BF810BD1748103047
:1029B000008810F0010F26D04FF6FE701349103139
:1029C00008801348007800B9704712480068401C1E
:1029D0001049086010480088401C0F4908800F48C3
:1029E0000088401C0D4908800D480088401C0C4997
:1029F00008800C480088401C0A4908800A48008862
:102A0000401C0949088000BFDEE7000000080040C4
:102A100014000020A80400209C0400209E04002034
:102A2000A0040020A2040020A404002003460621E4
:102A30000622FA480188FA480288A3B1012B1AD16C
:102A400032B9A1F56E40EE3800D170470120FCE7A5
:102A500039B9A2F56E40EE3801D10120F5E700202A
:102A6000F3E7AB20F1E709B90020EEE70AB901204E
:102A7000EBE7AB20E9E70020E7E770B50426002488
:102A80000120FFF7D3FF0446AB2C06D1E34800EB4F
:102A9000C420E4490860AB2070BDE04800EBC420CE
:102AA000E0490860601CDD49891E01EBC0250CE08F
:102AB000DC4800680068401C02D104263046EBE781
:102AC000D8480068001DD7490860D6480068A84269
:102AD000EED38020E0E710B50424D04802F096FE43
:102AE0000446042C01D0204610BD0021CB4802F042
:102AF00005FF0446042C01D02046F5E7C84802F043
:102B000085FE04462046EFE72DE9F04104460F46D6
:102B100004250026DFF80883A8F101080120FFF74B
:102B200085FF0646AB2E01D1BDE8F081701CBB4984
:102B3000891E01EBC02821E0BA4800680068401CEB
:102B400017D13946B748006802F0D8FE0546042D73
:102B500001D02846E8E72146B2480068801C02F010
:102B6000CDFE0546AF480068001DAE490860284606
:102B7000DAE7AC480068001DAA490860A948006867
:102B80004045D9D38020CFE72DE9F04706460F46D0
:102B9000002545F255584FF00109A04CA2460020EF
:102BA000FFF744FF0546AB2D01D1BDE8F0879B48F8
:102BB00000EBC52A9B480068841E0AE0B4F8008038
:102BC000B04505D134F8020C38804FF0000904E01C
:102BD000241F0AF102008442F0D800BF4846E4E70F
:102BE0002DE9F0474FF0060A062600250027A846E3
:102BF0004FF0FF398948B0F800A0894806885FEA9D
:102C00000A0075D0A0F56E40EE382AD0A0F58850A5
:102C100011386ED146B9814802F0F8FD0446042C03
:102C20001ED02046BDE8F087A6F56E40EE3810D1E4
:102C30007A4802F0EBFD0446042C01D02046F1E76F
:102C40000021774802F05AFE0446042C08D02046A2
:102C5000E8E7FFF740FF0446042C01D02046E1E7F7
:102C6000AEE086BB002523E06C48801D00886E49DD
:102C700031F81510884201D10FFA85F94D4515D06C
:102C8000694931F815006949FFF77EFF8046B8F1C0
:102C9000010F0BD0644931F8150064490988FFF72A
:102CA00033FF0746042F01D03846BBE7681C85B2C6
:102CB000142DD9DB0021594802F020FE0446042CD3
:102CC00002D02046AEE707E0554802F09FFD0446DB
:102CD000042C1FD02046A5E7A6F57F40FF3812D16F
:102CE0004F4802F093FD0446042C03D0204699E798
:102CF00011E05DE00021494802F000FE0446042C8A
:102D000008D020468EE7FFF7E6FE0446042C01D0EB
:102D1000204687E754E036B9FFF7DDFE0446042C71
:102D200045D020467EE7A6F57F40FF3807D13C48D6
:102D300002F06CFD0446042C39D0204672E70025D1
:102D400022E03748C088384931F81510884201D14F
:102D50000FFA85F94D4515D0334931F8150033493F
:102D6000FFF712FF8046B8F1010F0BD02E4931F862
:102D700015002E490988FFF7C7FE0746042F01D02A
:102D800038464FE7681C85B2142DDADB0021244851
:102D900002F0B4FD0446042C01D0204642E71F484F
:102DA00002F034FD0446042C01D020463AE707E047
:102DB000FFF791FE0446042C01D0204632E700BF05
:102DC00000BF04202EE710B5FFF70AFF0446FFF707
:102DD00054FE204610BD2DE9F84F074689460425CC
:102DE000DFF84CA00D4800904FF0000800240026AA
:102DF0004FF0000B0020FFF719FE8046B8F1010FDD
:102E000004D1DFF818A00648009016E0B8F1000FD2
:102E100010D1DFF80CA0014800900EE000E8030894
:102E200000F00308B004002028000020AC040020BB
:102E3000FFEB0308AB20BDE8F88F4EF6EE6150467D
:102E400002F05CFD0546042D01D02846F3E7FFF7AC
:102E500014FE49463846FFF757FE0646042E01D0B9
:102E60003046E8E700241CE0214830F81400B8425E
:102E700015D01F4931F814001E49FFF785FE83461F
:102E8000BBF1010F0BD01A4931F814001949098818
:102E9000FFF73AFE0646042E01D03046CBE7601C11
:102EA00084B2142CE0DB009802F0B0FC0546042D3F
:102EB00001D02846BFE70021504602F01FFD05461D
:102EC000042D01D02846B6E72846B4E770B505467C
:102ED0000E46002431462846FFF716FE0446802C95
:102EE00004D131462846FFF776FF0446204670BDE0
:102EF00028000020AC04002070B50546002405E041
:102F0000601CC4B2642C01DD204670BD02217948EA
:102F100003F0E3F80028F3D02946764803F07CF864
:102F2000002405E0601CC4B26E2C01DD2046ECE7F5
:102F30000121704803F0D1F80028F3D06D4803F068
:102F400072F8E2E72DE9F04105460C4610214FF0FA
:102F5000904000F0FAFA0120FFF726F82846FFF724
:102F6000CBFF0646270A3846FFF7C6FFE7B23846CA
:102F7000FFF7C2FF0120FFF717F810214FF0904034
:102F800000F0E1FA3046BDE8F08110B50446214674
:102F90000320FFF7D7FF10BD2DE9F05F00250026C5
:102FA00000274FF001084FF00109AA464FF0030B2C
:102FB000680240EA062040EAC71040EA881040EA6A
:102FC000491040EACA0040EA0B0421460420FFF7FA
:102FD000B9FFBDE8F09F00B585B00021454802F07B
:102FE000B0FF0020ADF800004FF48270ADF8020091
:102FF0004FF4E060ADF804000020ADF806000120B9
:10300000ADF808004002ADF80A003020ADF80C0021
:103010000020ADF80E000720ADF8100010214FF091
:10302000904000F090FA6946324802F0ECFE01212F
:10303000304802F086FF0E214FF0904000F083FAF6
:1030400005B000BD10B5FFF7C6FFFFF7A5FF0020D4
:10305000FFF79BFF10BD70B505460E4610214FF0DF
:10306000904000F072FA0120FEF79EFF002405E078
:10307000285DFFF741FF2855601CC4B2B442F7DB5E
:103080000120FEF791FF10214FF0904000F05BFA15
:10309000002070BD00B591B000210C20FFF752FF59
:1030A00000208DF80400032101A8FFF7D4FF9DF84C
:1030B000060000909DF805309DF804200EA101A89F
:1030C00003F038F801A800F0D9F811B000BD10B530
:1030D0000446084800884FF6C77108400549088033
:1030E00008460088204308800121024802F029FF99
:1030F00010BD0000003C00405350495F52656369B9
:10310000657665446174615B2564202564202564CF
:10311000205D0A0030B58BB005460C469C480090F7
:10312000019500200290A0B2ADF80C0000200490A0
:103130008020059000200690079008904FF40050E2
:10314000099000200A90934801F078F96946914867
:1031500001F016FA012202218E4801F04EFA4FF4D6
:10316000003001F066FA012240218948243800F03D
:10317000EDFE0121874801F02EFA0BB030BD10B5ED
:1031800086B00446009400200190029003900590C0
:103190000C2004907E48243800F0DEFC69467C4810
:1031A000243800F002FD01217948243800F080FD28
:1031B00006B010BD10B504462046FFF7E0FF012120
:1031C0007548FFF7A7FF10BD744975480078401E89
:1031D00000EB400001EB4000704771490978491C41
:1031E0006F4A1170704730B58BB005460C460CB96C
:1031F0000BB030BD00BF6B4800780128FBD0012028
:103200006849087022462946674803F036F8604846
:10321000001D00906448019010200290A0B2ADF80B
:103220000C0000200490802005900020069007905C
:1032300008904FF40050099000200A905548143827
:1032400001F0FCF869465348143801F099F901225D
:1032500002215048143801F0D0F94FF4005001F029
:10326000E8F9012280214A48243800F06FFE01214C
:103270004848143801F0AFF900BFB9E770B504460B
:10328000204602F0DBFF054629462046FFF7ABFF4C
:1032900070BD10B54FF4003001F0D6F9002863D0AE
:1032A0004FF4003001F0E3F900213A4801F093F9BE
:1032B000002240213648243800F048FE0022022136
:1032C000344801F09AF93948007888B932480078D2
:1032D000242808D101203549087003212E48401CBC
:1032E000FFF718FF40E001212B48FFF713FF3BE0F9
:1032F0002E48007801281AD1274840784E280CD152
:10330000254880783C2808D10220284908702248A6
:10331000C178001DFFF7FEFE26E00020234908705B
:103320001D48002101600121FFF7F4FE1CE01F4849
:103330000078022818D100201C4908701648C0786F
:10334000021D15491A4802F098FF1348C078011D64
:10335000114802F0D7FF1048C1781548FEF7E6FB88
:1033600001210D48FFF7D6FE10BD10B54FF40050F7
:1033700001F06AF958B14FF4005001F078F90021DA
:103380000448143801F027F900200649087010BDE0
:1033900024380140580002405412002094120020AA
:1033A000B6040020B804002014120020B404002049
:1033B0001413002010B50446B4F1904F09D1012137
:1033C000480400F07AFB00214FF4003000F075FB58
:1033D0003CE07448844208D10121000200F06DFBFA
:1033E0000021200200F069FB30E06F48844208D1E0
:1033F0000121000200F061FB0021200200F05DFBD2
:1034000024E06A48844209D10121080500F055FBF7
:1034100000214FF4801000F050FB17E06448844214
:1034200008D10121400200F048FB0021600200F0B9
:1034300044FB0BE05F48844208D10121880500F07D
:103440003CFB00214FF4800000F037FB10BDF0B5CD
:103450000A4600210023002400BF3DE0012505FAB3
:1034600001F3156805EA03049C4234D11579012D56
:1034700002D01579022D16D185684F000326BE4073
:10348000B543856055794E00B54086683543856003
:10349000868801258D40AE438680868895798D404B
:1034A000ADB22E43868005684F000326BE40B5436B
:1034B000056015794E00B540066835430560C5685E
:1034C0004F000326BE40B543C560D5794E00B540D8
:1034D000C6683543C560491C1029BFD3F0BD4FF6FF
:1034E000FF71016000210171022141710021817190
:1034F000C171704708B54FF480320092009A0A43B8
:103500000092009AC261C161009AC261C2690092D0
:10351000C269009208BD02460020138A0B4201D006
:10352000012000E0002070470146088A70470246EB
:103530000020938A0B4201D0012000E00020704758
:103540000146888A704781617047018570470AB1DA
:10355000816100E00185704781827047F0B50023EA
:1035600000244D07ED0E02FA05F3CE1000F1200500
:1035700055F826504E07F70E0F26BE40B543CF1024
:1035800000F1200646F82750CE1000F1200555F82E
:10359000265045EA0304CE1000F1200545F82640E8
:1035A000F0BD00000004004800080048000C00487E
:1035B0000010004800140048F848006840F001007E
:1035C000F64908600846406800F47F0048600846F5
:1035D0000068F3490840F14908600846006820F493
:1035E000802008600846406820F4FE0048600846D5
:1035F000C06A20F00F00C8620846006BE949084025
:10360000E64908630020886070470021E34A917012
:1036100011468870704710B5014600220023002033
:103620004A1112B9DD4C236806E0012A02D1DB4CB5
:10363000236A01E0D94C636A01F01F02012494401F
:103640001C4201D0012000E0002010BD38B5002050
:1036500000900024002500BF1120FFF7DCFF054685
:103660000098401C00900098B0F5A06F01D0002D8C
:10367000F2D01120FFF7CFFF08B1012400E00024B1
:10368000204638BD01460020C44A106820F0F800EA
:1036900040EAC10010607047C34908607047BF49E5
:1036A000096A21F00101BD4A11621146096A21F03F
:1036B000040111621146096A014311627047B7495A
:1036C000096A21F01801B54A11621146096A0143DD
:1036D00011627047B54908607047B04A526822F4D9
:1036E0007412AE4B5A601A46526840EA01031A43FC
:1036F000AA4B5A607047AC490866704701460020E3
:10370000A64AD06A20F00F000843D0627047A6494D
:10371000C8647047A149C8717047014600209F4A9C
:10372000506820F003000843506070479B48406891
:1037300000F00C00704701460020984A506820F0C5
:10374000F00008435060704701460020934A5068DB
:1037500020F4E060084350607047014600208F4A23
:10376000506820F4605040EAC100506070478B49B7
:10377000496821F44041894A516011464968014332
:10378000516070478549496821F07841834A51600A
:10379000114649680143516070478049096B21F027
:1037A00040017E4A11631146096B01431163704762
:1037B0000021010F31B9794A126B22F01002774BC8
:1037C0001A6305E0754A126B22F02002734B1A63EC
:1037D000724A126B0243714B1A6370470021010F4A
:1037E000012904D0022909D0032915D10DE06B4A23
:1037F000126B22F00302694B1A630EE0674A126BE8
:1038000022F44032654B1A6307E0644A126B22F4DB
:103810004022624B1A6300E000BF00BF5F4A126B98
:1038200002435E4B1A63704761490860704770B588
:1038300000210023002400250022584E766806F05F
:103840000C0121B1042905D0082921D105E0594EE8
:10385000066020E0574E06601DE0504E766806F484
:1038600070134E4E766806F48034022606EB9343BE
:103870001CB9514E5E43066009E0484EF66A06F0F8
:103880000F06751C4B4EB6FBF5F65E43066002E074
:10389000484E066000BF00BF404E766806F0F0015B
:1038A0000909464E725C0668D64046603B4E766813
:1038B00006F4E061090A414E725C4668D6408660B3
:1038C000364E766806F46051C90A3C4E725C466812
:1038D000D640C660314E766806F44041890B384EBA
:1038E000725CC668B6FBF2F606612C4E766806F08E
:1038F0007841C1F3C361334E725C0668B6FBF2F6E1
:103900004661264E366B06F04006402E03D048F244
:103910001206866102E04FF4004686611F4E366B48
:1039200006F01006102E02D0224EC66101E0066895
:10393000C6611A4E366B06F02006202E02D01D4EB0
:10394000066201E006680662144E366B16F0030F3D
:1039500002D1C668466219E0104E366B06F00306C7
:10396000012E02D10668466210E00C4E366B06F05E
:103970000306022E02D1B603466207E0074E366BFD
:1039800006F00306032E01D10A4E4662034E366B43
:1039900016F4403F18D18668866233E0001002407A
:1039A000FFFFF6FE8C0FFF0F0000424280044242F0
:1039B000D800424200127A0000093D00C4040020F1
:1039C000D4040020D8040020604E366B06F4403644
:1039D000B6F5803F02D10668866213E05B4E366B17
:1039E00006F44036B6F5003F03D14FF40046866238
:1039F00008E0564E366B06F44036B6F5403F01D12E
:103A0000534E8662514E366B16F4402F02D18668B3
:103A1000C6621DE04D4E366B06F44026B6F5802F8B
:103A200002D10668C66213E0484E366B06F44026A3
:103A3000B6F5002F03D14FF40046C66208E0434EAE
:103A4000366B06F44026B6F5402F01D1404EC662D3
:103A500070BD3E49096A01433C4A116270473D49C5
:103A6000086070473B49091D0860704729B1374A13
:103A700052690243354B5A6104E0344A5269824329
:103A8000324B5A61704729B1304A926902432F4B39
:103A90009A6104E02D4A926982432C4B9A617047E7
:103AA00029B12A4AD2690243284BDA6104E0274A45
:103AB000D2698243254BDA61704729B1234A926A61
:103AC0000243224B9A6204E0204A926A82431F4BCF
:103AD0009A62704729B11D4AD26802431B4BDA60D3
:103AE00004E01A4AD2688243184BDA60704729B161
:103AF000164A12690243154B1A6104E0134A12690F
:103B00008243124B1A61704729B1104A527A02431C
:103B10000E4B5A7204E00D4A527A82430B4B5A7292
:103B200070470A48406A40F0807008494862704710
:103B300001460020054A92680A4201D0012000E0B7
:103B40000020704701498872704700000010024051
:103B500000127A003C04424210B50446F848844200
:103B600009D101218803FFF7B5FF00214FF4804000
:103B7000FFF7B0FF18E0F348844209D1012148045F
:103B8000FFF7B5FF00214FF40030FFF7B0FF0BE067
:103B9000ED48844208D101218804FFF7A8FF0021E5
:103BA0004FF48020FFF7A3FF10BD2DE9F0418CB04A
:103BB00004460D460027B8460026206820F0010084
:103BC0002060666826F44056A8680643666026684A
:103BD00041F20C608643E968686808432969084334
:103BE00006432660A66826F4407668690643A66008
:103BF0006846FFF71CFED248844202D1DDF82480DB
:103C000007E0D048844202D1DDF8288001E0DDF8E9
:103C10002C80206810F4004F0CD04FEA480029682F
:103C2000B0FBF1F74FEA48002968B0FBF1F201FB65
:103C3000120607E02868B8FBF0F72868B8FBF0F137
:103C400000FB11862868B6EB500F00D37F1C20685C
:103C500010F4004F07D0C7F342064FF6F07107EAA1
:103C6000010040EA0607A7810CB0BDE8F0814FF4DF
:103C700016510160002141608160C1600C21016129
:103C800000214161704710B50022426822F4706241
:103C9000D1E9003423438C682343CC6823431A437F
:103CA000426010BD0021016041608160C1607047C9
:103CB00021B1026842F00102026003E0026822F0D2
:103CC0000102026070471AB103680B43036002E00F
:103CD00003688B430360704721B1026842F40042DD
:103CE000026003E0026822F400420260704721B1E2
:103CF000826842F40062826003E0826822F400621B
:103D00008260704721B1426842F40022426003E0C1
:103D1000426822F400224260704721B1426842F4B6
:103D20008022426003E0426822F4802242607047B1
:103D30001AB143680B43436002E043688B4343601E
:103D4000704721B1426842F40042426003E0426899
:103D500022F400424260704721B1426842F40002FE
:103D6000426003E0426822F4000242607047426908
:103D700002F07F42426142690A4342617047028A0F
:103D800002F47F420282028A0A430282704721B112
:103D9000026842F00202026003E0026822F00202BE
:103DA00002607047826822F44012826082680A438F
:103DB0008260704721B1426842F48012426003E0A1
:103DC000426822F4801242607047426822F4C002C6
:103DD000426042680A4342607047C1F308020285AC
:103DE00070470146888CC0F308007047426822F093
:103DF0007F424260426842EA01624260704721B1FC
:103E0000026842F40052026003E0026822F40052A9
:103E100002607047026822F40062026002680A438E
:103E200002607047426822F01002426042680A4312
:103E300042607047426822F02002426042680A43B2
:103E40004260704721B1426842F48042426003E020
:103E5000426822F480424260704721B1826842F099
:103E60000802826003E0826822F0080282607047E4
:103E7000028AD2B20282028A42EA01220282704798
:103E800021B1826842F02002826003E0826822F061
:103E900020028260704721B1826842F01002826085
:103EA00003E0826822F0100282607047826822F488
:103EB00060228260826842EA4142826070474269C1
:103EC00022F07F424261426942EA016242617047E8
:103ED000826822F00402826082680A43826070472E
:103EE00021B1826842F00202826003E0826822F01F
:103EF00002028260704721B1826842F4804282608F
:103F000003E0826822F4804282607047826822F473
:103F10000042826082680A4382607047026822F031
:103F200078720260026842EA415202607047026899
:103F300022F4F8120260026842EA0142026070470D
:103F40000038014000440040004800401AB1836836
:103F50000B43836002E083688B4383607047826811
:103F600022F40052826082680A4382607047F0B592
:103F7000034600240026002500201846C1F307242C
:103F8000CEB2012707FA06F5022C01D1001D02E08E
:103F9000032C00D108301AB107682F43076002E0F4
:103FA0000768AF430760F0BD1AB1038B0B4303836F
:103FB00002E0038B8B4303837047826822F48052B4
:103FC000826082680A438260704702460020D3699B
:103FD0000B4201D0012000E00020704701627047D1
:103FE00070B502460B460024002100250020C3F3D3
:103FF0000725D9B2012606FA01F1012D02D1166872
:10400000314006E0022D02D15668314001E0966849
:1040100031401C0C012606FA04F4D669344011B173
:104020000CB1012000E0002070BD10B5002200237B
:104030000A0C012404FA02F3036210BD10B5044611
:1040400001214802FFF746FD00214FF40070FFF701
:1040500041FD10BD30B5024600200023506820F419
:1040600080700C7840EA042050609068F04C20404A
:10407000D1E901542C434D7844EA45042043906033
:10408000D06A20F470000C7B641EE4B2234340EA43
:104090000350D06230BD00210170417041608160E9
:1040A00001210173704721B1826842F001028260F0
:1040B00003E0826822F0010282607047816841F06B
:1040C000040181607047816841F008018160704798
:1040D0000A4600214168D74B19401143416070479F
:1040E0004162826270470A460021416821F01F0147
:1040F00011434160704730B1CF49096841F4000174
:10410000CD4A116005E0CC49096821F40001CA4A92
:1041100011607047F0B504460D4600200021092DBE
:1041200011DDE068A5F10A0606EB4607072606FA48
:1041300007F18843A5F10A0606EB460603FA06F1E5
:104140000843E0600CE0206905EB4507072606FA06
:1041500007F1884305EB450603FA06F108432061A1
:10416000072A0FDA606B561E06EB86071F2606FA33
:1041700007F18843561E06EB860605FA06F108434A
:10418000606322E00D2A0FDA206BD61F06EB86074C
:104190001F2606FA07F18843D61F06EB860605FAA6
:1041A00006F10843206310E0E06AA2F10D0606EB79
:1041B00086071F2606FA07F18843A2F10D0606EBD3
:1041C000860605FA06F10843E062F0BD21B1826877
:1041D00042F48012826003E0826822F480128260DE
:1041E0007047816841F4A00181607047014600205A
:1041F0008A6812F4800F01D0012000E0002070478F
:1042000021B1826842F00202826003E0826822F0FB
:1042100002028260704710B50A46002100234168FF
:1042200021F46041531E41EA4331416010BD21B188
:10423000426842F40062426003E0426822F4006295
:10424000426070470146C86C80B2704721B18268F5
:1042500042F48072826003E0826822F4807282609D
:104260007047F0B5044615460020002200260929B3
:1042700011DDE068A1F10A0707EB470C072707FAF1
:104280000CF29043A1F10A0707EB470703FA07F284
:104290001043E0600CE0206901EB410C072707FAAE
:1042A0000CF2904301EB410703FA07F2104320613F
:1042B000A06BC0F30156EF1C06F1010CA7EB0C0735
:1042C00007EB870C1F2707FA0CF29043EF1C06F14F
:1042D000010CA7EB0C0707EB870701FA07F2104365
:1042E000A063F0BD10B50A4600210023816B21F4C4
:1042F0004011531E41EA0351816310BD08B50023EC
:1043000000930090009B0B440093009B1A6008BD33
:104310000A460021816821F4E04111438160704721
:1043200021B1826842F40042826003E0826822F494
:1043300000428260704721B1826842F402128260BA
:1043400003E0826822F40212826070470146002076
:104350008A6812F4001F01D0012000E0002070479D
:1043600021B1426842F48062426003E0426822F474
:1043700080624260704721B1426842F480524260DC
:1043800003E0426822F480524260704708B502465A
:1043900000200090009201F12800009B184400903A
:1043A0000098006880B208BD10B50023CBB21AB1E6
:1043B00044681C43446002E044689C43446010BD70
:1043C0000246002013680B4201D0012000E00020CB
:1043D0007047CA430260704770B502460020002350
:1043E00000240B125568CEB205EA060415681D427A
:1043F00002D00CB1012000E0002070BD00220A12A2
:10440000D34303607047014600208A6812F0040F0E
:1044100001D0012000E000207047014600208A689A
:1044200012F0080F01D0012000E0002070470000CA
:10443000FDF7F1FFFFFD3FFF0824014001684FF643
:10444000FE72114001600021016041608160C16025
:104450008C49884208D18B490839496841F00F01DD
:10446000884A083A51608AE086491431884208D166
:1044700084490839496841F0F001824A083A51609C
:104480007DE080492831884208D17E490839496851
:1044900041F470617B4A083A516070E079493C31DF
:1044A000884208D177490839496841F47041754A12
:1044B000083A516063E073495031884208D171492C
:1044C0000839496841F470216E4A083A516056E053
:1044D0006C496431884208D16A490839496841F415
:1044E0007001684A083A516049E06649783188426B
:1044F00008D164490839496841F07061614A083A55
:1045000051603CE06049884206D1011F096841F0D2
:104510000F01021F116032E05B491431884208D15B
:104520005949091F096841F0F001574A121F1160EB
:1045300025E055492831884208D15349091F0968A7
:1045400041F47061504A121F116018E04E493C312D
:10455000884208D14C49091F096841F470414A4A10
:10456000121F11600BE048495031884207D146497B
:10457000091F096841F47021434A121F11607047F6
:1045800010B50022026847F6F0739A430C6A8B68F4
:1045900023430C6923434C6923438C692343CC692F
:1045A00023434C6A23438C6A23431A4302608B895A
:1045B00043600B6883604B68C36010BD00210160DD
:1045C000416081608181016141618161C1610162FC
:1045D00041628162704721B1026842F001020260CB
:1045E00004E002684FF6FE731A40026070474160B3
:1045F00070470146486880B270471AB103680B43A0
:10460000036002E003688B430360704701460020AB
:10461000002211F0805F03D01B4B083B1A6802E0B8
:10462000184B083B1A680A4201D0012000E0002024
:10463000704710F0805F03D01349091F086002E043
:10464000104908394860704701460020002211F0E7
:10465000805F03D00C4B083B1A6802E0094B083B13
:104660001A680A4201D0012000E00020704710F0D3
:10467000805F03D00449091F086002E0014908393E
:1046800048607047080002400804024010B5044624
:10469000B648844209D101210806FFF71BFA002120
:1046A0004FF08070FFF716FA15E0B148844209D147
:1046B00001214806FFF70EFA00214FF00070FFF7C6
:1046C00009FA08E001218806FFF704FA00214FF0FB
:1046D0008060FFF7FFF910BD10B500224268A54BBE
:1046E0001A400B799B054C7943EA04630C6804F487
:1046F000702423431A43426010BD01210160002150
:1047000001714171704730B5002300F1200303EBC4
:104710008103D2E900452C4395682C43D5682C438E
:104720001C6030BD0021016041608160C160704744
:1047300030B50023904CA14207D00B0C046C9D00B7
:1047400002FA05F52C43046400E0426430BD21B157
:10475000426842F00102426003E0426822F0010236
:104760004260704721B1026842F00042026003E0FB
:10477000026822F000420260704721B1426842F0B4
:104780008072426003E0426822F0807242607047AB
:104790000146764A106820F4407008431060704764
:1047A0000A46416821F006011143416070474168A3
:1047B00041F01001416070470A46416821F47021C0
:1047C000130C1B0419434160704721B1426842F445
:1047D0008002426003E0426822F480024260704737
:1047E000416841F40001416070470146486E00B2E3
:1047F000704721B1026842F40042026003E002689F
:1048000022F40042026070475848406F7047574892
:10481000C06F7047416841F40041416070478AB2FF
:104820004261704721B1426842F04002426003E0B9
:10483000426822F040024260704721B1426842F073
:104840002002426003E0426822F02002426070478A
:104850000A460021416821F47061114341607047AC
:104860000A460021416821F4C0411143416070476C
:10487000014600200A6E100C0122824042EA0040EC
:10488000704730B502460B460021116E3B4800EAE6
:1048900011200D0E0124AC402043186008B230BD39
:1048A00021B1026842F48042026003E0026822F40F
:1048B0008042026070472D48006F70472B48806F20
:1048C000704721B1026842F48052026003E002683E
:1048D00022F480520260704721B1026842F4006203
:1048E000026003E0026822F400620260704721B1B6
:1048F000026842F48062026003E0026822F480628F
:10490000026070471AB103680B43036002E003685A
:104910008B43036070471AB103680B43036002E0E6
:1049200003688B43036070470246002093680B4284
:1049300001D0012000E000207047C2680A43C26035
:10494000704730B50246002000230024956805EA30
:104950000103156805EA010413B10CB1012000E060
:10496000002030BDC2680A43C26070470060014049
:1049700000640140FFFF30FE000108000000FFFF5F
:1049800010B50446B4F1804F08D101210846FFF765
:10499000AEF800210120FFF7AAF89EE0F748844214
:1049A00008D101210220FFF7A2F800210220FFF721
:1049B0009EF892E0F248844208D101210420FFF7DA
:1049C00096F800210420FFF792F886E0ED48844233
:1049D00008D101210820FFF78AF800210820FFF7FD
:1049E00086F87AE0E848844208D101211020FFF7D8
:1049F0007EF800211020FFF77AF86EE0E348844249
:104A000008D101212020FFF772F800212020FFF7B4
:104A10006EF862E0DE48844208D101214020FFF7B1
:104A200066F800214020FFF762F856E0D94884423A
:104A300008D101218020FFF75AF800218020FFF7DC
:104A400056F84AE0D448844208D101218015FFF786
:104A50004EF80021A015FFF74AF83EE0CF48844207
:104A600009D101210804FFF735F800214FF4803007
:104A7000FFF730F831E0CA48844209D101214804E7
:104A8000FFF728F800214FF40030FFF723F824E067
:104A9000C448844209D101218804FFF71BF8002192
:104AA0004FF48020FFF716F817E0BF48844208D182
:104AB00001214015FFF71BF800216015FFF717F8DB
:104AC0000BE0BA48844208D10121C804FFF702F87C
:104AD00000214FF40020FEF7FDFF10BD00220288E8
:104AE000B0F1804F0BD0A54B984208D0A44B984210
:104AF00005D0A44B984202D0AC4B984204D14FF65B
:104B00008F731A404B881A439F4B98420AD09F4B91
:104B1000984207D0A44B984204D04FF6FF431A4066
:104B20000B891A4302804B68C3620B8803859B4B39
:104B3000984205D09A4B984202D09A4B984201D1A4
:104B40008B7A03860123838270474FF0FF314160E7
:104B5000002101800181418081727047018582823C
:104B600070470A46002101884FF68F7319401143A0
:104B70000180704741627047C16270470146486AD0
:104B800070470146088D704721B1028842F0020249
:104B9000028004E002884FF6FD731A4002807047DD
:104BA00021B1028842F00402028004E002884FF63C
:104BB000FB731A400280704721B1028842F08002E4
:104BC000028004E002884FF67F731A40028070472B
:104BD00002884FF6F7731A40028002880A43028067
:104BE000704702884FF6FF431A40028002880A434A
:104BF0000280704721B1028842F00102028004E085
:104C000002884FF6FE731A40028070470A884B886C
:104C10001A438B881A43CB881A430B891A434B8952
:104C20001A438B891A43B0F844301A43A0F8442041
:104C300070470021018041808180C18001814181D4
:104C40008181704731B1B0F8442042F40042A0F8AD
:104C5000442005E0B0F84420C2F30E02A0F844203E
:104C6000704770B5002400220023058C4FF6FE76B5
:104C700035400584028C8388048B4FF68F752C4059
:104C8000B51E2C400D882C43751E2A408D892A4361
:104C90004D882A43414DA84205D0414DA84202D03B
:104CA000404DA84213D14FF6F7752A40CD892A43CB
:104CB0004FF6FB752A408D882A434FF6FF652B403F
:104CC0004FF6FF552B400D8A2B434D8A2B43838093
:104CD00004838D684563028470BD70B50022002393
:104CE0000024058C4FF6EF7635400584038C8488CC
:104CF000028B48F6FF752A404FF6FF452A400D8883
:104D00004FF6FF7606EA05252A434FF6DF752B405E
:104D10008D8906EA05152B434D8806EA05152B43B8
:104D2000848002838D688563038470BD70B5002222
:104D300000230024058C4FF6FF6635400584038C64
:104D40008488828B4FF68F752A404FF6FC752A4077
:104D50000D882A434FF6FF552B408D894FF6FF767D
:104D600006EA05252B434D8806EA05252B4384805A
:104D700082838D68C563038470BD00000004004019
:104D800000080040000C00400010004000140040EB
:104D900000180040001C004000200040004001407E
:104DA0000044014000480140009C0040005C01407C
:104DB00070B5002200230024058C4EF6FF763540A6
:104DC0000584038C8488828B48F6FF752A404FF651
:104DD000FF452A400D884FF6FF7606EA05252A434F
:104DE0004DF6FF752B408D8906EA05352B434D881E
:104DF00006EA05352B43848082838D68056403842D
:104E000070BD002101804180818081608181C181EC
:104E100001824182704770B5034600200024184685
:104E2000183001258D40ACB21D8CA5431D8409B1FD
:104E3000082909D100EB6100056825F070050560BF
:104E40000568154305600EE00D1FC5F34E052844A7
:104E5000056825F4E045056005684FF6FF7606EA2B
:104E600002263543056070BD41637047816370471A
:104E7000C1637047016470470A460021018B4FF6F9
:104E80008F7319401143018370470A460021018B3B
:104E900048F6FF7319404FF6FF7303EA02231943E4
:104EA000018370470A460021818B4FF68F731940AA
:104EB0001143818370470A460021818B48F6FF73B6
:104EC00019404FF6FF7303EA0223194381837047A9
:104ED00021B1828842F00102828004E082884FF68C
:104EE000FE731A40828070470A460021018B4FF6FC
:104EF000F77319401143018370470A460021018B63
:104F00004FF2FF7319404FF6FF7303EA0223194370
:104F1000018370470A460021818B4FF6F7731940D1
:104F20001143818370470A460021818B4FF2FF7342
:104F300019404FF6FF7303EA022319438183704738
:104F40000A460021018B4FF6FB7319401143018380
:104F500070470A460021018B4FF6FF3319404FF688
:104F6000FF7303EA02231943018370470A460021B5
:104F7000818B4FF6FB7319401143818370470A46BA
:104F80000021818B4FF6FF3319404FF6FF7303EA80
:104F900002231943818370470A460021018B4FF693
:104FA0007F7319401143018370470A460021018B2A
:104FB000C1F30E014FF6FF7303EA02231943018385
:104FC00070470A460021818B4FF67F7319401143C9
:104FD000818370470A460021818BC1F30E014FF691
:104FE000FF7303EA02231943818370470A460021B5
:104FF000018C4FF6FD7319401143018470470A4636
:105000000021018C4FF6F77319401143018470475A
:105010000A460021018C4FF6DF7319404FF6FF73EB
:1050200003EA02131943018470470A460021018CE8
:105030004FF6FF5319404FF6FF7303EA022319435B
:10504000018470470A460021018C4DF6FF73194018
:105050004FF6FF7303EA0233194301847047028954
:105060004FF6F7731A40028102890A4302817047A2
:1050700030B5002301248C40A3B2048C9C430484EB
:10508000048C02FA01F5ADB22C43048430BD30B576
:10509000002304248C40A3B2048C9C430484048C1D
:1050A00002FA01F5ADB22C43048430BD21B18288EF
:1050B00042F00402828004E082884FF6FB731A40BB
:1050C00082807047828B4FF2FF331A408283828B3B
:1050D0004FF6FF7303EA01231A4382837047F0B54A
:1050E0000C461546002100220026078C4EF6FF7C58
:1050F00007EA0C070784818B028C4FF6FF7707EADB
:10510000043640F6FF4739404FF6FF7707EA052798
:1051100039434FF6FF7707EA0337394347F6FF571E
:105120003A4046F480573A4381830284F0BD828B33
:105130004FF6F3731A408283828B0A43828370474F
:10514000F0B50C461546002100220026078C4FF6CC
:10515000FF6C07EA0C070784818B028C4FF6FF7700
:1051600007EA04264FF60C7739404FF6FF7707EA37
:1051700003172F4339434FF2FF573A4046F48077E5
:105180003A4381830284F0BD028B4FF2FF331A4011
:105190000283028B4FF6FF7303EA01231A43028353
:1051A0007047F0B50C461546002100220026078CFA
:1051B0004FF6EF7C07EA0C070784018B028C4FF651
:1051C000FF7707EA041640F6FF4739404FF6FF77AE
:1051D00007EA033739434FF6FF7707EA05273943D4
:1051E0004FF65F773A4046F010073A430183028456
:1051F000F0BD028B4FF6F3731A400283028B0A4311
:1052000002837047F0B50C46154600210022068C3B
:105210004FF6FE773E400684018B028C4FF60C76EB
:1052200031407E1C06EA03162E4331434FF6F576D5
:10523000324044F00106324301830284F0BD70B570
:1052400005460C46208850B92389A28861882846E3
:10525000FFF7D8FFE1882846FFF7CBFF25E020883D
:1052600004280AD12389A28861882846FFF799FF7C
:10527000E1882846FFF788FF17E0208808280AD130
:105280002389A28861882846FFF75AFFE1882846CB
:10529000FFF74DFF09E02389A28861882846FFF7C0
:1052A0001EFFE1882846FFF70DFF70BD0021018039
:1052B0004180012181800021C180018170472DE959
:1052C000F04105460C4600260127608808B90226F1
:1052D00000E00026A088012801D1022700E0012774
:1052E0002088A0B92389A28861882846FFF78AFF11
:1052F000E1882846FFF77DFF23893A463146284654
:10530000FFF74FFFE1882846FFF73EFF13E02389B0
:10531000A28861882846FFF744FFE1882846FFF706
:1053200033FF23893A4631462846FFF76BFFE18871
:105330002846FFF75EFFBDE8F0810146486B7047E5
:105340000146886B70470146C86B70470146086C80
:1053500070471AB183890B43838102E083898B43B1
:10536000838170478182704702460020138A0B4276
:1053700001D0012000E000207047CA43028270473C
:1053800030B50246002000230024158A05EA0103F7
:10539000958905EA010413B10CB1012000E0002059
:1053A00030BDCA430282704741EA0203A0F8483088
:1053B00070471AB183890B43838102E083898B4351
:1053C0008381704721B1828842F00802828004E024
:1053D00082884FF6F7731A408280704701894FF632
:1053E000F8721140018170470A46002101894FF689
:1053F0008F73194011430181704730B504460D4643
:1054000029462046FFF7F0FF208940F00700208161
:1054100030BD2DE9F04104460D4616461F46602D6D
:1054200006D13B46012231462046FFF7BAFE05E091
:105430003B46012231462046FFF7E4FE294620463E
:10544000FFF7D2FF208940F007002081BDE8F081FE
:1054500030B50C4600210189C9B24FF6FF7505EA47
:105460000325154325432943018130BD2DE9F04132
:1054700005460E4617469846002443463A463146AE
:105480002846FFF7E5FF2C894FF6F870044044F0FA
:1054900007044FF68F70044044F070042C81BDE87F
:1054A000F081F0B504460D4616461F463B4632468F
:1054B00029462046FFF7CCFF208940F48040208118
:1054C000F0BD82884FF68F731A40828082880A432B
:1054D0008280704702894FF6F8731A400281028970
:1054E0000A430281704702894FF67F731A40028196
:1054F00002890A4302817047F0B50C4615461E46E4
:105500000021002200230189028B038C4FF6F877DB
:10551000394021434FF6FC473A4040F201173A43E5
:105520004FF6DD773B404FF6FF7707EA06172F432C
:105530003B43018102830384F0BD21B1828842F0A4
:105540008002828004E082884FF67F731A40828056
:105550007047A0F85010704731490143314A11603B
:10556000704770B5002100230F22C4780CB32D4C76
:10557000246804F4E064C4F5E064210AC1F1040382
:10558000CA40447804FA03F18478144021430901A5
:10559000254C0678A155047804F01F050124AC4081
:1055A00005786D114FF0E02606EB8505C5F8004142
:1055B00009E0047804F01F050124AC401B4D067877
:1055C000761145F8264070BD194A0A400243154B32
:1055D0001B1F1A60704739B1124A121D126802432C
:1055E000104B1B1D1A6006E00E4A121D1268824302
:1055F0000C4B1B1D1A607047042808D14FF0E021A6
:10560000096941F004014FF0E022116107E04FF019
:10561000E021096921F004014FF0E0221161704797
:105620000000FA050CED00E000E400E080E100E09D
:1056300080FFFF1F10B501210807FEF758FA00216F
:105640004FF08050FEF753FA10BD3B490862704797
:1056500001460020394A106820F0E000084310603D
:10566000704735490861704729B1344A526802438E
:10567000324B5A6004E0314A526882432F4B5A60E1
:10568000704729B12D4A126802432C4B1A6004E07E
:105690002A4A12688243294B1A60704728490968D0
:1056A00021F00401264A1160012801D130BF00E039
:1056B00020BF704710B502460020204B186820F02C
:1056C0000300104318601E4B1B6843F004031C4C7E
:1056D0002360012901D130BF00E020BF184B1B68B7
:1056E00023F00403164C236010BD1448006840F0FA
:1056F0000400124908600846006840F00200086093
:105700000F48006840F004000D49086000BF00BF6A
:1057100030BF704701460020084A52680A4201D053
:10572000012000E0002070470449096841EA800137
:10573000024A11607047000000000E4200700040F5
:1057400010ED00E001460020FE4A106820F0030042
:1057500008431060704730B1FA49096841F0080108
:10576000F84A116005E0F749096821F00801F54A97
:105770001160704730B1F349096841F01001F14AF6
:10578000116005E0EF49096821F01001ED4A116050
:105790007047EC48006910F0800F04D0EA48E949EE
:1057A0004860EA4848607047E648006940F0800079
:1057B000E449086170470420E249C96811F0010F0B
:1057C00001D001200EE0DF49C96811F0100F01D0AF
:1057D000022007E0DB49C96811F0040F01D0032063
:1057E00000E00420704700B502460423FFF7E3FF02
:1057F000034603E0FFF7DFFF0346521E012B01D1F2
:10580000002AF7D102B90523184600BD30B5044679
:1058100004254FF43020FFF7E6FF0546042D16D18E
:10582000C848006940F00200C64908610846446162
:10583000006940F0400008614FF43020FFF7D3FFCB
:105840000546C048006920F00200BE4908612846AC
:1058500030BD10B504244FF43020FFF7C4FF0446D8
:10586000042C15D1B748006940F00400B54908611F
:105870000846006940F0400008614FF43020FFF70F
:10588000B2FF0446AF48006920F00400AD4908614A
:10589000204610BD78B506460C4604250020009031
:1058A0004FF43020FFF79FFF0546042D24D1A54873
:1058B000006940F00100A349086134804FF43020B2
:1058C000FFF791FF0546042D10D1B01C0090200C6D
:1058D000009908804FF43020FFF785FF054699486E
:1058E000006920F001009749086105E095480069CA
:1058F00020F0010093490861284678BD70B5044640
:105900000D4604264FF43020FFF76DFF0646042EA7
:1059100011D18C48006940F001008A490861258056
:105920004FF43020FFF75FFF06468648006920F0FD
:10593000010084490861304670BD8248006910F456
:10594000007F04D180487F49886080488860704724
:105950007C48006920F400707A49086170477948F2
:10596000006940F40050774908617047002075498C
:10597000C96911F0060F01D0012000E00020704736
:1059800030B5AA250424FFF7F1FF00B100254FF43C
:105990003020FFF728FF0446042C34D16948006901
:1059A00040F02000674908610846006940F0400067
:1059B00008614FF43020FFF716FF0446042C1AD17B
:1059C0006048006920F020005E49086108460069CF
:1059D00040F0100008615E4805804FF43020FFF76A
:1059E00002FF0446052C0ED05648006920F0100036
:1059F0005449086107E0052C05D05248006920F0A1
:105A0000100050490861204630BD70B505460E466D
:105A100004244FF43020FFF7E6FE0446042C13D193
:105A20004848006940F01000464908612E804FF454
:105A30003020FFF7D8FE0446052C05D04148006908
:105A400020F010003F490861204670BD2DE9F04369
:105A500004464FF6FF763746B046B1460425E44388
:105A6000E6B2C4F30727C4F307484FEA14694FF4BA
:105A70003020FFF7B8FE0546042D3FD131480069BC
:105A800040F010002F490861FF2E07D03048083041
:105A900006804FF43020FFF7A6FE0546042D09D1FD
:105AA000FF2F07D02A480A3007804FF43020FFF735
:105AB0009AFE0546042D0BD1B8F1FF0F08D02448FB
:105AC0000C30A0F800804FF43020FFF78CFE054624
:105AD000042D0BD1B9F1FF0F08D01D480E30A0F8EE
