:020000040800F2
:10000000600D002071020008A9040008AB0400087C
:10001000AF040008B3040008B704000800000000A3
:10002000000000000000000000000000BB04000809
:10003000BD04000800000000BF0400088902000899
:100040008B0200088B0200088B0200088B0200085C
:100050008B0200088B0200088B0200088B0200084C
:100060008B0200088B0200088B0200088B0200083C
:100070008B0200088B0200088B0200088B0200082C
:100080008B020008CD240008C10400088B02000880
:100090008B0200088B0200088B0200088B0200080C
:1000A0008B0200088B0200088B0200088B020008FC
:1000B000C3040008D90400080F2600088B020008BA
:1000C0008B0200088B0200088B0200088B020008DC
:1000D0008B020008B11F00088B0200088B02000889
:1000E0008B0200088B0200088B0200088B020008BC
:1000F0008B0200088B0200080000000000000000D6
:1001000000000000000000008B0200088B020008C5
:1001100000000000000000008B0200088B020008B5
:100120008B0200088B0200088B0200088B0200087B
:100130008B020008391F00088B0200088B020008A0
:100140008B0200080000000000000000000000001A
:10015000000000000000000000000000000000009F
:1001600000000000000000008B0200088B02000865
:100170008B020008000000008B0200080000000055
:10018000000000008B02000800F002F800F061F8A7
:100190000AA090E8000C82448344AAF10107DA45E2
:1001A00001D100F056F8AFF2090EBAE80F0013F0D3
:1001B000010F18BFFB1A43F0010318477C620000CF
:1001C0009C6200000A444FF0000C10F8013B13F051
:1001D000070408BF10F8014B1D1108BF10F8015BA0
:1001E000641E05D010F8016B641E01F8016BF9D193
:1001F00013F0080F1EBF10F8014BAD1C0C1B09D1EA
:100200006D1E58BF01F801CBFAD505E014F8016B5B
:1002100001F8016B6D1EF9D59142D6D370470000ED
:100220000023002400250026103A28BF78C1FBD8FF
:10023000520728BF30C148BF0B607047642904F0E3
:10024000B987002070471FB506F0BFF81FBD10B575
:1002500010BD05F0A3F81146FFF7F5FF00F087F990
:1002600005F0C1F803B4FFF7F2FF03BC05F0C2F8D4
:100270000948804709480047FEE7FEE7FEE7FEE73A
:10028000FEE7FEE7FEE7FEE7FEE7FEE70448054976
:10029000054A064B704700008D03000889010008DD
:1002A00060070020600D0020600900206009002028
:1002B0001CB50020019000907248006840F4803026
:1002C0007049086000BF6F48006800F4003000907B
:1002D0000198401C0190009818B90198B0F5A06FE2
:1002E000F1D16848006810F4003F02D0012000906E
:1002F00001E0002000900098012836D102206249D8
:100300000860604840685F49486008464068486047
:100310000846406840F4806048600846406820F421
:100320007C1048600846406840F4E8104860084681
:10033000006840F08070086000BF5248006810F00C
:10034000007FFAD04F48406820F003004D494860D4
:100350000846406840F00200486000BF49484068D5
:1003600000F00C000828F9D10FE04FF4E011002054
:1003700002F077FD012002F082FD02E0022002F08F
:1003800090FD02F097FD0828F8D11CBD10B53F483C
:10039000006840F470003D4908603A48006840F049
:1003A0000100384908600846406800F47F00486052
:1003B0000846006836490840324908600846006827
:1003C00020F4802008600846406820F4FE00486061
:1003D0000846C06A20F00F00C8620846006B2D492D
:1003E00008402849086300208860FFF761FF4FF04C
:1003F000006026498039086010BD30B5002100201A
:10040000002200231F4C646804F00C0121B1042970
:1004100006D0082925D107E01F4C204D2C6024E090
:100420001D4C1E4D2C6020E0164C646804F47010C6
:10043000144C646804F48032022404EB904022B926
:10044000174C4443154D2C600AE00E4CE46A04F04E
:100450000F04631C104CB4FBF3F444430F4D2C60A9
:1004600003E00D4C0D4D2C6000BF00BF054C6468CF
:10047000C4F303140B4D295D084C2468CC40074D90
:100480002C6030BD001002400020024088ED00E0EA
:10049000FFFFF6FE8C0FFF0F00127A000000002015
:1004A00000093D0004000020704700BFFEE700BFC8
:1004B000FEE700BFFEE700BFFEE7704770477047EA
:1004C000704710B50121880704F01EF918B1012109
:1004D000880704F02AF910BD10B50121044804F082
:1004E00013F918B10121024804F01FF910BD0000F2
:1004F0000004004000B58DB001F0AAFA01F018FB2D
:10050000314801F074FD31A001F007FE01F070FBED
:1005100032A001F002FE02F065F834A001F0FDFD0A
:1005200001F07CFF35A001F0F8FD01F043F837A0A1
:1005300001F0F3FD01F071FCF2EE040A9FED370AC1
:1005400001F098FB36A001F0E8FD01A802F033FDB0
:1005500038A13E48029A04F0E5FD3C4801F0DDFD7B
:1005600001F01DFB01203A4908700DB000BD08B52F
:10057000FFF7C0FF27E06946364801F0EFFD9DF820
:10058000000020B19DF80010324801F081F8324897
:100590000078052804DB00202F49087001F037FAA5
:1005A0002E4800780A2804DB00202C49087001F04E
:1005B00037FA2B480078C82804DB00202849087047
:1005C00001F035FA00BFD6E7D0F50200313A095202
:1005D000533438355F496E69740A0000323A094B6A
:1005E00045595F496E69740A00000000333A0954A6
:1005F000494D345F496E69740A000000343A09506D
:10060000574D5F496E69740A00000000353A095081
:1006100049445F496E69740A000000006F12833B11
:10062000363A095344414443315F436F6E6669670C
:100630000A0000000A2A2A2A436C6F636B73467211
:1006400065712A2A2A5B25645D0A00003C050020AA
:1006500014000020FC0400208C0400208D040020E5
:100660008E04002070B52DED0E8BFE49087801F048
:10067000CBFBBDEEC00A10EE100A05B2FA480088A6
:10068000401B04B2201E01DB014600E0414200EEA7
:10069000101AB8EE400AF549D1ED0A0AB4EEE00AA4
:1006A000F1EE10FA0FDDF249097861B90120F04945
:1006B00008700020EF490880032094FBF0F02844E4
:1006C00000B2ED490880EA48007801286CD1E94879
:1006D000B0F90000404200EE100AB8EEC00ADFEDAB
:1006E000E70A20EE200AE648D0ED000A80EE201A44
:1006F00011EE106A304605F0F7FD41EC100BB0EE3C
:1007000040EAF0EE60EA04F097FEB0EE40DAF0EE78
:1007100060DA9FEDDC0B53EC102B51EC1D0B05F058
:10072000EDFC41EC100BB0EE40BAF0EE60BACE49F1
:100730000988D14AB2F90020881A05F058FB41EC2B
:10074000100BB0EE40CAF0EE60CA53EC1B2B51EC1C
:100750001C0B05F09FFB41EC100BB0EE409AF0EE45
:10076000609AC548B0F9000005F041FB41EC100B60
:10077000B0EE40AAF0EE60AA53EC192B51EC1A0B24
:1007800005F0CCF841EC100BB0EE408AF0EE608A38
:1007900051EC180B05F0FEFABC490880B5480088FA
:1007A000401C00B2B3490880B1490978012921D120
:1007B000AE49D1ED0A0AB0EE001A80EE810AD1ED01
:1007C0000A0A70EEC00A201E01DB014600E0414229
:1007D00000EE101AB8EE400AF4EEC00AF1EE10FA7C
:1007E00008DDA1480088A94908800020A1490880A7
:1007F0009F490870BDEC0E8B70BD10B5012000F054
:1008000004FF9A4890ED000ADFEDA10A20EE200ACD
:10081000BDEEC00A10EE100A9E490880934890ED84
:10082000010ADFED9B0A20EE200ABDEEC00A10EEA1
:10083000100A994908808D4890ED020ADFED940A6C
:1008400020EE200ABDEEC00A10EE100A934908807F
:10085000934908888F49098802F05AF990494888D5
:100860008D49098802F054F98D4988888B49098897
:1008700002F04EF97D4890ED030ADFED850A20EE87
:10088000200ABDEEC00A10EE100A8249088077489F
:1008900090ED040ADFED7E0A20EE200ABDEEC00ACC
:1008A00010EE100A7C490880704890ED050ADFEDD3
:1008B000780A20EE200ABDEEC00A10EE100A774931
:1008C00008807749C8887349098802F021F974497A
:1008D00008897149098802F01BF9714948896F49F3
:1008E000098802F015F9614890ED060ADFED680A03
:1008F00020EE200ABDEEC00A10EE100A65490880FD
:100900005A4890ED070ADFED620A20EE200ABDEE9C
:10091000C00A10EE100A60490880544890ED080A99
:10092000DFED5B0A20EE200ABDEEC00A10EE100AD1
:100930005A4908805A4988895649098802F0E8F8D6
:100940005749C8895449098802F0E2F85449088A8D
:100950005249098802F0DCF8444890ED090ABDEEDE
:10096000C00A10EE100A4B490880404890ED0A0A70
:10097000BDEEC00A10EE100A474908803B48808D42
:10098000464908804649488A4249098802F0C0F829
:100990004349888A4049098802F0BAF84049C88A20
:1009A0003E49098802F0B4F83048C08D39490880C2
:1009B000334890ED000ADFED360A20EE200ABDEE46
:1009C000C00A10EE100A34490880364890ED000A3B
:1009D000DFED2F0A20EE200ABDEEC00A10EE100A4D
:1009E0002E4908802E49088B2A49098802F090F880
:1009F0002B49488B2849098802F08AF82849888BB6
:100A00002649098802F084F8002000F0FEFD10BDA0
:100A100070B505460524295D601C285C41EA00206C
:100A20001C490880A41C295D601C285C41EA002048
:100A300019490880A41C295D601C285C41EA00203B
:100A4000164908801348008800EE100AB8EE400AE4
:100A5000DFED0F0A80EE201A044880ED001A0E48E0
:100A6000008821E02000002060000020C004002059
:100A7000500000204E000020520000200AD7A33B67
:100A800018000020000000000000F03F620000207D
:100A900000007A4454000020560000205800002036
:100AA000260000201C00002000EE100AB8EE400ACC
:100AB0005FED090A80EE201AFE4880ED011A084613
:100AC000008800EE100AB8EE400A5FED0F0A80EED3
:100AD000201AF84880ED021AA41C295D601C285CCD
:100AE00041EA0020F4490880A41C295D601C285CB0
:100AF00041EA0020F1490880A41C295D601C285CA3
:100B000041EA0020EE490880EB48008800EE100A18
:100B1000B8EE400A5FED220A80EE201AE54880ED2B
:100B2000031AE648008800EE100AB8EE400A5FEDAE
:100B3000280A80EE201ADF4880ED041A0846008853
:100B400000EE100AB8EE400A5FED2F0A80EE201A80
:100B5000D84880ED051AA41C295D601C285C41EA78
:100B60000020D5490880A41C295D601C285C41EA4E
:100B70000020D2490880A41C295D601C285C41EA41
:100B80000020CF490880CC48008800EE100AB8EE5B
:100B9000400A5FED410A80EE201AC64880ED061A31
:100BA000C648008800EE100AB8EE400A5FED480A19
:100BB00080EE201ABF4880ED071A0846008800EE34
:100BC000100AB8EE400A5FED4E0A80EE201AB948CE
:100BD00080ED081AA41C295D601C285C41EA0020F5
:100BE000B5490880A41C295D601C285C41EA0020EE
:100BF000B2490880A41C295D601C285C41EA0020E1
:100C0000AF490880AC48008800EE100AB8EE400AF0
:100C1000A84880ED090AA948008800EE100AB8EE3D
:100C2000400AA44880ED0A0A0846008800B2A1499B
:100C30008885A41C295D601C285C41EA00209E492F
:100C40000880A41C295D601C285C41EA00209B49A7
:100C50000880A41C295D601C285C41EA002098499A
:100C600008809548008800B29249C885934800885A
:100C700000EE100AB8EE400A5FED7B0A80EE201A03
:100C8000904880ED001A8E48008800EE100AB8EEF9
:100C9000400A5FED810A80EE201A8B4880ED001A31
:100CA000D0ED000A9FED890A00F0E4FFFFF7A5FDF3
:100CB00070BD70B505460524242028704E2068704C
:100CC0003E20A870332028717A4890ED000A5FED2D
:100CD000900A20EE200ABDEEC00A10EE100A7649F6
:100CE0000880744890ED010A5FED970A20EE200A13
:100CF000BDEEC00A10EE100A704908806D4890EDF4
:100D0000020A5FED9D0A20EE200ABDEEC00A10EE39
:100D1000100A6B49088068480078285566480088A2
:100D2000010A601C2954A41C6448007828556348B3
:100D30000088010A601C2954A41C614800782855C9
:100D40005F480088010A601C2954A41C594890ED92
:100D5000030A5FEDB10A20EE200ABDEEC00A10EED4
:100D6000100A55490880534890ED040A5FEDB80A0F
:100D700020EE200ABDEEC00A10EE100A4F4908808E
:100D80004C4890ED050A5FEDBE0A20EE200ABDEE4C
:100D9000C00A10EE100A4A490880474800782855D2
:100DA00045480088010A601C2954A41C4348007867
:100DB000285542480088010A601C2954A41C404858
:100DC000007828553E480088010A601C2954A41C5C
:100DD000384890ED060A5FEDD20A20EE200ABDEEFB
:100DE000C00A10EE100A34490880324890ED070A14
:100DF0005FEDD90A20EE200ABDEEC00A10EE100AFF
:100E00002E4908802B4890ED080A5FEDDF0A20EE9E
:100E1000200ABDEEC00A10EE100A294908802648B3
:100E20000078285524480088010A601C2954A41C15
:100E300022480078285521480088010A601C29545E
:100E4000A41C1F48007828551D480088010A601C12
:100E50002954A41C174890ED090ABDEEC00A10EEF3
:100E6000100A15490880134890ED0A0ABDEEC00A21
:100E700010EE100A114908800E48808D1049088034
:100E80000D48007828550C480088010A601C295438
:100E9000A41C0A480078285508480088010A601CEC
:100EA0002954A41C06480078285505480088010AE2
:100EB000601C0DE0C00400205400002056000020FB
:100EC00058000020180000201C0000206F12833BF7
:100ED0002954A41CFE48C08DFE490880FE4890EDB0
:100EE000000ADFEDFE0A20EE200ABDEEC00A10EE79
:100EF000100AFB490880FB4890ED000ADFEDF70A75
:100F000020EE200ABDEEC00A10EE100AF649088055
:100F1000F04800782855EF480088010A601C2954E1
:100F2000A41CEF4800782855ED480088010A601C91
:100F30002954A41CEC4800782855EB480088010A85
:100F4000601C2954A41C284600F00BFC611C68544A
:100F5000EC7070BD70B504460525615D681C205CB1
:100F600041EA0020DB490880AD1C615D681C205C03
:100F700041EA0020DA490880DC48007838B9D548D1
:100F80000088DB4908600846006801F058FAD44838
:100F90000088D849088070BD70B505460524242016
:100FA00028704E2068703E20A87032202871D148E9
:100FB0000088C8490880CE480668C548D0ED0C0AAC
:100FC000CC48008800EE100AB8EE400A30EE600A05
:100FD000BDEEC00A10EE100AC3490880BD48007873
:100FE0002855BC480088010A601C2954A41C2E55B1
:100FF000C6F30721601C2954C6F30741A01C2954DD
:10100000300EE11C6854241DB74800782855B648B6
:101010000088010A601C2954A41CAD4890ED0C0AFC
:10102000BDEEC00A10EE100AAA490880A84890ED4B
:101030000D0ABDEEC00A10EE100AA9490880A448A6
:10104000008FA9490880A34800782855A148008846
:10105000010A601C2954A41CA14800782855A04806
:101060000088010A601C2954A41C9F480078285558
:101070009D480088010A601C2954A41C002000F02F
:10108000C3FEBDEEC00A10EE100A9249088001208E
:1010900000F0BAFEBDEEC00A10EE100A90490880BA
:1010A00095480088904908808A48007828558948E2
:1010B0000088010A601C2954A41C8948007828551E
:1010C00087480088010A601C2954A41C86480078BF
:1010D000285585480088010A601C2954A41C61B267
:1010E000284601F08FF80E34284600F03AFB611CC8
:1010F0006854EC7070BD10B52DED028B7F490878F7
:1011000000F082FEF0EE408A7B48008800EE100A74
:10111000B8EE400A30EE680AB0EE408ABDEEC80A6A
:1011200010EE100A002801DB014600E04142684A47
:10113000B2F92E20914201D2002494E0BDEEC80AFB
:1011400010EE100A002801DB014600E0414200EEEB
:10115000101AB8EE400A5E49D1ED090AB4EEE00A71
:10116000F1EE10FA15DD084690ED000A20EE080AAF
:10117000D0ED010A90ED0C1A00EEC10AD0ED020A82
:1011800090ED0D1A00EE810ABDEEC00A10EE104A75
:1011900069E0BDEEC80A10EE100A002801DB014626
:1011A00000E0414200EE101AB8EE400A4849D1ED85
:1011B000090AB4EEE00AF1EE10FA15D2084690EDF5
:1011C000060A20EE080AD0ED070A90ED0C1A00EE90
:1011D000C10AD0ED080A90ED0D1A00EE810ABDEEAD
:1011E000C00A10EE104A3EE0BDEEC80A10EE101A1A
:1011F000002901DB0A4600E04A4200EE102AB8EE60
:10120000400A334AD2ED0A0AB4EEE00AF1EE10FACF
:1012100029DDBDEEC80A10EE100A002801DB0246E7
:1012200000E0424200EE102AB8EE400A284AD2ED11
:10123000090AB4EEE00AF1EE10FA14D2104690ED6D
:10124000030A20EE080AD0ED040A90ED0C1A00EE15
:10125000C10AD0ED050A90ED0D1A00EE810ABDEE2F
:10126000C00A10EE104A1A4890ED0C0A80ED0D0AE3
:1012700080ED0C8A201E01DB014600E04142144A49
:10128000B2F92C2091420AD9002C03DD1048B0F9A4
:101290002C0003E00E48B0F92C00404204461448EC
:1012A0000068204412490860BDEC028B10BD10B5E7
:1012B000FFF721FF0E4800681149884202D908460D
:1012C0000B4908600A48006842F6E061884219E06C
:1012D000C0040020540000201800002000007A44C0
:1012E000560000201C000020580000202400002090
:1012F0005C00002060000020620000202000002030
:10130000900E4D0002D20846C1490860C0480068EE
:1013100001F095F810BD10B53C21BE4803F086FFE2
:101320009FEDBD0ABB4880ED000A9FEDBC0A80ED31
:10133000010AB2EE090A80ED020A9FEDB90A80EDBA
:10134000030A9FEDB80A80ED040AB1EE090A80EDA8
:10135000050A9FEDB50A80ED060AB1EE0C0A80ED94
:10136000070AB0EE040A80ED080A9FEDB00A80ED8E
:10137000090A9FEDAF0A80ED0A0A4FF47A70A54979
:1013800088853220C885FFF738FA10BD10B5A94905
:101390000888A94901F01AFAA6494888A74901F026
:1013A00015FAA4498888A64901F010FAA2480088D5
:1013B00000EE100AB8EE400A5FED380A80EE201AFF
:1013C000944880ED001A9D48008800EE100AB8EE9F
:1013D000400A5FED3E0A80EE201A8E4880ED011A29
:1013E0009748008800EE100AB8EE400A5FED450A03
:1013F00080EE201A874880ED021A8E49C8888E49EF
:1014000001F0E4F98B4908898C4901F0DFF9894939
:1014100048898B4901F0DAF98748008800EE100A04
:10142000B8EE400A5FED530A80EE201A794880ED4D
:10143000031A8248008800EE100AB8EE400A5FEDF9
:10144000590A80EE201A734880ED041A7C480088FF
:1014500000EE100AB8EE400A5FED600A80EE201A36
:101460006C4880ED051A73498889734901F0AEF91B
:101470007049C889714901F0A9F96E49088A704913
:1014800001F0A4F96C48008800EE100AB8EE400A9A
:101490005FED6E0A80EE201A5E4880ED061A6748FE
:1014A000008800EE100AB8EE400A5FED740A80EE84
:1014B000201A584880ED071A6148008800EE100A8B
:1014C000B8EE400A5FED7B0A80EE201A514880EDAD
:1014D000081A5849488A584901F078F95549888AC4
:1014E000564901F073F95349C88A554901F06EF91C
:1014F0005148008800EE100AB8EE400A454880EDD9
:10150000090A4E48008800EE100AB8EE400A414829
:1015100080ED0A0A4A48008800B23E49888545495C
:10152000088B454901F052F94249488B434901F083
:101530004DF94049888B424901F048F93E480088FE
:1015400000B23449C8853D48008800EE100AB8EE64
:10155000400A5FED9E0A80EE201A3A4880ED001A9C
:101560003748008800EE100AB8EE400A5FEDA50A81
:1015700080EE201A344880ED001A10BD10B501F03D
:1015800044FAFFF703FF2B49C88B2B4901F01EF9E2
:10159000294800880F280CD0012000F036F8254992
:1015A000C88B0F2101F0B4FA002000F02EF8FFF7ED
:1015B000B2FE10BD10B503F0B0FAFFF7DFFF10BDAB
:1015C00010B50020214908701149086020490880A1
:1015D0000F48006800F033FF10BD10B500201B4914
:1015E00008701C480A49086000F029FF10BD01205E
:1015F0001649087070471548007870470146002961
:1016000001DD084670474842FCE780F310887047C8
:101610005C000020C00400200000C44100000C4217
:101620000000444100008C41CDCC9C4000803B45F3
:101630000000FA432600002054000020560000203D
:1016400058000020180000201C000020240000206A
:1016500060000020900E4D00014608784A78504006
:101660008A785040CA785040704708B5425C8DF87F
:1016700000204A1C825C8DF801208A1C825C8DF857
:101680000220CA1C825C8DF803209DED000A08BD73
:1016900070B504460E46E5782078242800D070BD49
:1016A00060784E2800D0FAE7A0783C2800D0F6E712
:1016B00020793038072849D2DFE800F0040F1A22D9
:1016C0002A343E002046FFF745FCB2A1B74803F09C
:1016D00029FDB64800F021FD40E02046FFF798F9CB
:1016E000B3A1B24803F01EFDB04800F016FD35E08E
:1016F000AE48FFF751FCAD48C17800F0EBFC2DE09F
:10170000AA48FFF7D6FAA948C17800F0E3FC25E023
:10171000FFF756FFABA1A54803F004FDA34800F076
:10172000FCFC1BE0FFF759FFAAA1A04803F0FAFC5C
:101730009E4800F0F2FC11E0FFF759FFA9A19B4879
:1017400003F0F0FC994800F0E8FC07E0A9A19748F5
:1017500003F0E8FC954800F0E0FC00BF00BF00BFCC
:101760009DE710B501460020CB78002204E0D41C90
:101770000C5D6040541CE2B29C1CA242F7DB10BD21
:10178000704700B5014600221012FFF7F9FFC8B2FA
:10179000FFF7F6FF00BD30B50146002905DA2D2020
:1017A000FFF7EEFF484241B202E02020FFF7E8FFDA
:1017B000642091FBF0F0C2B2642091FBF0F500FBD5
:1017C00015100A2590FBF5F0C3B20A2091FBF0F545
:1017D00000FB1510C4B202F13005E8B2FFF7D0FFEC
:1017E00003F13005E8B2FFF7CBFF04F13005E8B2B2
:1017F000FFF7C6FF30BD30B50146642091FBF0F025
:10180000C2B2642091FBF0F500FB15100A2590FB95
:10181000F5F0C3B20A2091FBF0F500FB1510C4B23D
:1018200002F13005E8B2FFF7ABFF03F13005E8B293
:10183000FFF7A6FF04F13005E8B2FFF7A1FF30BDC6
:10184000F0B50146002905DA2D20FFF799FF48423F
:1018500001B202E02020FFF793FF694891FBF0F707
:1018600000FB171042F2107790FBF7F0C2B2384637
:1018700091FBF0F700FB17104FF47A7790FBF7F02D
:10188000C3B2384691FBF0F700FB1710642790FBBA
:10189000F7F0C4B2642091FBF0F700FB17100A27A1
:1018A00090FBF7F0C5B20A2091FBF0F700FB171090
:1018B000C6B202F13007F8B2FFF762FF03F130075A
:1018C000F8B2FFF75DFF04F13007F8B2FFF758FFF9
:1018D00005F13007F8B2FFF753FF06F13007F8B211
:1018E000FFF74EFFF0BDF0B50146454891FBF0F71C
:1018F00000FB171042F2107790FBF7F0C2B23846A7
:1019000091FBF0F700FB17104FF47A7790FBF7F09C
:10191000C3B2384691FBF0F700FB1710642790FB29
:10192000F7F0C4B2642091FBF0F700FB17100A2710
:1019300090FBF7F0C5B20A2091FBF0F700FB1710FF
:10194000C6B22020FFF71CFF02F13007F8B2FFF704
:1019500017FF03F13007F8B2FFF712FF04F1300769
:10196000F8B2FFF70DFF05F13007F8B2FFF708FFF7
:1019700006F13007F8B2FFF703FFF0BD00B50246ED
:10198000114603E00878FFF7FBFE491C08780028A1
:10199000F8D100BD5365745F52756E6E696E675FF6
:1019A000506172616D3A4F4B0A0000003C05002007
:1019B0005365745F5049445F506172616D3A4F4B9B
:1019C0000A00000053657456436C6F7365204F4BDB
:1019D0000A000000536574564F70656E204F4B0A25
:1019E00000000000536574565049444374726C20E3
:1019F0004F4B0A00756E6B6E6F7720636D640A0043
:101A0000A086010010B50DA000F087FB10BD10B539
:101A100000F0A5F9FFF7EFFD08B1FEF723FE10BDBA
:101A200010B5FFF7E8FD08B1FFF741FC10BD10B598
:101A300000F018F908B1FFF7E5FF10BD303A094F83
:101A40006E5265736574466C6F77446F776E0A00EB
:101A500010B56FF0040002F093FF2D4800682D4987
:101A6000B0FBF1F02C4908700846007800EB40010B
:101A7000C1EBC0104FF6FF7101EAC0002749088092
:101A800010BD0146244A12784A434FF0E0235A61C0
:101A900000229A611A46126942F001021A6100BFDF
:101AA0004FF0E022106910F0010F02D010F4803FD7
:101AB000F6D04FF0E022126922F001024FF0E0234D
:101AC0001A6100229A6170470146144A12884A43FB
:101AD0004FF0E0235A6100229A611A46126942F0DF
:101AE00001021A6100BF4FF0E022106910F0010FEF
:101AF00002D010F4803FF6D04FF0E022126922F0BD
:101B000001024FF0E0231A6100229A617047000041
:101B10000000002000127A0064000020660000200F
:101B200010B54FF480714FF0904001F0D2F810BD25
:101B30001CB501214FF4840001F05CFB4FF44140DF
:101B4000009001208DF8040000208DF8060001208F
:101B50008DF8070003208DF8050069464FF090408E
:101B600001F039F8C020009001208DF80400002019
:101B70008DF8060001208DF8070003208DF8050080
:101B800069461A4801F027F8FFF7CAFF1CBD10B5D7
:101B90004FF480714FF0904001F099F810BD10B5EE
:101BA00000240BE0FFF7F3FFC820FFF78DFFFFF7DE
:101BB000B7FFC820FFF788FF601CC4B2032CF1DB1D
:101BC00000240BE0FFF7E3FF6420FFF77DFFFFF742
:101BD000A7FF6420FFF778FF601CC4B2032CF1DB81
:101BE000FFF7D5FF6420FFF76FFF10BD001400481A
:101BF0001CB50121480401F0FDFA4FF4005000909B
:101C000000208DF8040003208DF8050001208DF8D8
:101C1000070069464FF0904000F0DDFF4FF400519F
:101C20004FF0904001F053F81CBD70B504460D46CE
:101C30002946204601F033F890B90A20FFF744FF07
:101C40002946204601F02BF840B900BF294620461E
:101C500001F025F80028F9D0012070BD0020FCE734
:101C60000020FAE710B54FF400514FF09040FFF715
:101C7000DCFF10BD10B52DED108BB0EE408AF0EEFC
:101C8000608A18EE900A04F02FFB41EC100BB0EEC6
:101C900040FAF0EE60FA9FEDB60B53EC102B51ECCE
:101CA0001F0B04F0F7F841EC100BB0EE40EAF0EE39
:101CB00060EA53EC1E2B9FEDB00B51EC100B03F0C0
:101CC000E1FE41EC100BB0EE40CAF0EE60CA18EE37
:101CD000100A04F009FB41EC100BB0EE40DAF0EE14
:101CE00060DA53EC1C2B51EC1D0B03F017FE41EC9A
:101CF000100BB0EE40AAF0EE60AA18EE100A04F045
:101D0000F3FA41EC100BB0EE40BAF0EE60BA53ECCF
:101D10001A2B51EC1B0B03F0B5FE41EC100BB0EE8F
:101D2000409AF0EE609A51EC190B03F0C5FD94490E
:101D30000860BDEC108B10BD01460023002200BFDF
:101D400004E0904830F9110002445B1C8E48008882
:101D50008342F6DB8C48008892FBF0F0704700B5B8
:101D60000020FFF7E9FF00F5004000EE100AB8EE92
:101D7000C00ADFED860A20EE200ADFED850A80EE3C
:101D8000201AB0EE000A21EE000A824880ED000A17
:101D90000120FFF7D1FF00F5004000EE100AB8EE79
:101DA000C00ADFED7A0A20EE200ADFED790A80EE24
:101DB000201AB0EE000A21EE000A764880ED010AF2
:101DC00090ED000A7448D0ED000A70EE600A90EDC4
:101DD000000A6B4890ED001A01EE200A6E4880ED73
:101DE000000A6C4890ED010A6B48D0ED010A70EED4
:101DF000600A90ED010A624890ED001A01EE200A97
:101E0000654880ED010A00BD18B9634991ED000AEB
:101E10007047614991ED010AFAE710B588B00024D6
:101E20000121080601F0F3F90121080701F0FCF98E
:101E30000121480202F0E9FD4FF0784001F066F818
:101E40000121880401F0D6F903208DF80C00002050
:101E50008DF80F000320029002A9504800F0BBFE4D
:101E6000002001F059FE0520FFF72EFE01214C480D
:101E700001F031FE01214A4801F038FE1E2400BF66
:101E80004FF00041464801F013FF10B9601E0400F6
:101E9000F6D114B9012008B010BD4FF04060049095
:101EA000002005900690079004AA00213C4801F00C
:101EB000EEFD00223B493A4801F0FEFD00223A497E
:101EC000374801F0F9FD3949354801F06CFE012130
:101ED000334801F076FE0021314801F007FE3D2035
:101EE0008DF8040000208DF805008DF80600012013
:101EF0008DF8070001A802F0F8FC0021284801F045
:101F000013FE274801F017FE4FF4F03400BF012103
:101F1000234801F0CDFE10B9601E0400F7D10CB9C2
:101F20000220B8E7012202211D4801F0B8FE1C483A
:101F300001F034FE0020AEE738B500240221184835
:101F400001F0B6FE90B16946154801F05EFE044608
:101F50000098A0F5A021203901D10A4844800098BA
:101F6000A0F5C021403901D10648048038BD0000E9
:101F70001F85EB51B81E1940000000000000F03F23
:101F800070000020680000206C00002000803B45AD
:101F900000FF7F47740000207C0000200004004800
:101FA00000600140400006002000050060000700BE
:101FB00010B58F498F4801F0D7FB80B18D4801F0F3
:101FC000D4FAC4B28C480078402808DA8B488A4991
:101FD0000978445488480078401C8749087010BD2F
:101FE00010B54FF48071864800F073FE10BD10B537
:101FF0008AB004460121480401F0FCF801210805DB
:1020000001F0F8F80121880301F001F90722092104
:10201000C80600F067FE07220A214FF0904000F04A
:1020200061FE4FF4C060089002208DF8240000206B
:102030008DF8260001208DF8270003208DF825005B
:1020400008A94FF0904000F0C6FD4FF48070089052
:1020500001208DF8240000208DF8260001208DF845
:10206000270003208DF8250008A9654800F0B3FD7E
:102070000294002003900490059007900C20069095
:1020800002A95C4801F055F901225949594801F06B
:1020900032FB0121574801F0CFF94FF4E06002F024
:1020A0001FFC25208DF8040000208DF8050001207C
:1020B0008DF806008DF8070001A802F016FCFFF766
:1020C0008FFF0AB010BD10B54FF480714C4800F07E
:1020D000FEFD10BD70B505460E46FFF7F4FF002467
:1020E0000CE000BF4021434801F033FB0028F9D049
:1020F000295D404801F035FA601CC4B2B442F0DBFF
:1021000000BF40213B4801F024FB0028F9D000200B
:1021100039490870FFF764FF70BD10B50446FFF73A
:10212000D2FF0BE000BF4021324801F012FB002833
:10213000F9D021782F4801F014FA641C2078002887
:10214000F0D100BF40212B4801F003FB0028F9D05B
:10215000002029490870FFF743FF10BD2DE9F04129
:1021600007460D4624480678002400202870C82021
:10217000FFF787FC2048007886420FD176B100BF78
:1021800004E01E48005D3855601CC4B2B442F8DB60
:10219000194800782870002017490870BDE8F081C0
:1021A00010B500240BE0FFF78EFFC820FFF78CFC72
:1021B000FFF716FFC820FFF787FC601CC4B2032C92
:1021C000F1DB00240BE0FFF77EFF6420FFF77CFCCF
:1021D000FFF706FF6420FFF777FC601CC4B2032CF6
:1021E000F1DBFFF7FDFE6420FFF76EFC10BD000081
:1021F000050105000038014084000020FC04002097
:10220000000C004870B5C54D2D88ACB2C44D2B787C
:102210004454260A4D1C46558D1C69B243541E0A6F
:102220004D1C46558D1C69B2002206E0BD4D15F8C7
:1022300022508E188555551CEAB2082AF6DB70BD6F
:102240001CB50121480400F0D5FF082000900220B1
:102250008DF8040003208DF8050000208DF807009C
:1022600069464FF0904000F0B6FC1CBD10B586B03A
:102270000446AC48C069AB498969AA4A5269A94B6E
:102280001B69CDE90232CDE90410A648C068A54912
:102290008968CDE90010A3484368A3A102682046DD
:1022A00002F040FF06B010BD08B54FF4C06002F068
:1022B00017FB1C208DF8000000208DF80100022083
:1022C0008DF8020001208DF80300684602F00DFB36
:1022D00011208DF8000001208DF8010000208DF8FC
:1022E000020001208DF80300684602F0FEFA08BDE6
:1022F00010B588B004460121084600F095FF42F66B
:10230000E0600690A0B2ADF814000020ADF81C000B
:10231000ADF8160005A94FF0804001F0A3FD602044
:10232000ADF800000120ADF802004020029000202E
:10233000ADF80C0069464FF0804001F0FDFE082129
:10234000C80601F0B4FF0121880701F0F9FD012260
:1023500003214FF0904000F0C5FC0121880701F0F7
:102360000DFE01221146900702F0B7F90122110279
:10237000880502F0E2F901221103880402F0DDF978
:102380000121880701F022FE08B010BD00B58BB016
:102390000121084600F02EFF6E4801F013FA68464E
:1023A00001F0D0FA6C4800905E4801901020029035
:1023B0004020ADF80C0000200490802005908000A3
:1023C00006908000079020200890000209900020CD
:1023D0000A9069465F4801F097FA4FF0007001F0EB
:1023E000ECFA4FF0806001F0E8FA4FF0006001F085
:1023F000E4FA01220221574801F0C3FA0122042124
:10240000544801F0BEFA01220821524801F0B9FAFD
:102410000121504801F0A3FA0BB000BD10B5FFF741
:102420000FFFFFF7B3FF0020FFF762FFFFF73CFF4E
:1024300010BD10B504462046FFF75AFF10BD0146F7
:102440000020C1F34F12354B1A8001F01F02344BAC
:102450001A7000BF0EE0414A314B1B7802EB431269
:10246000125C2E4B1B881A4492B23D4B43F820203D
:10247000421CD0B22028EEDB00223A4B1A703A4BB5
:102480001A707047002000BF07E0354951F820104E
:10249000244A42F82010411CC8B22028F5DB012153
:1024A000304A11707047002000BF09E02C4951F8F4
:1024B00020201C4B00F1200143F82120411CC8B210
:1024C0002028F3DB0121284A1170704710B54FF026
:1024D000007001F07DFA40B14FF0007001F08BFA0E
:1024E0002148007808B9FFF7DEFF4FF0806001F067
:1024F0006FFA40B14FF0806001F07DFA1948007822
:1025000008B9FFF7BFFF4FF0006001F061FA18B1A2
:102510004FF0006001F06FFA10BD00008804002049
:102520008A040020FC0500205B25645D2C5B25648B
:102530005D2C5B25645D2C5B25645D2C5B25645DF7
:102540002C5B25645D2C5B25645D2C5B25645D0D37
:102550000A00000080000240400000408600002089
:102560007C050020860400208704002008B54FF475
:10257000E06002F0B5F91E208DF8000000208DF813
:10258000010003208DF8020001208DF80300684649
:1025900002F0ABF908BD3EB504460121042000F06D
:1025A00043FE4FF4FA700190A0B2ADF80000002095
:1025B000ADF80800ADF802006946274801F052FC6A
:1025C0000121254802F09DF801221146224802F01F
:1025D00084F80121204801F0D1FC0021042000F002
:1025E00023FE3EBD10B54720FFF7D5FFFFF7BEFF26
:1025F0000121042000F018FE10BD10B5044620464D
:10260000FFF7C9FF0121042000F00EFE10BD1248A3
:102610001030008810F0010F1CD04FF6FE700E49EC
:10262000103108800D48007800B970470C480068E8
:10263000401C0B4908600B480078401C0949087091
:1026400009480078401C0849087008480078401C78
:102650000649087000BFE8E70008004014000020A9
:10266000900400208C0400208D0400208E040020A3
:10267000034606210622FA480188FA480288A3B1D7
:10268000012B1AD132B9A1F56E40EE3800D1704756
:102690000120FCE739B9A2F56E40EE3801D10120E6
:1026A000F5E70020F3E7AB20F1E709B90020EEE7FA
:1026B0000AB90120EBE7AB20E9E70020E7E770B5B6
:1026C000042600240120FFF7D3FF0446AB2C06D1DB
:1026D000E34800EBC420E4490860AB2070BDE0484B
:1026E00000EBC420E0490860601CDD49891E01EB55
:1026F000C0250CE0DC4800680068401C02D10426BC
:102700003046EBE7D8480068001DD7490860D64836
:102710000068A842EED38020E0E710B50424D0483A
:1027200002F038FA0446042C01D0204610BD0021E6
:10273000CB4802F0A7FA0446042C01D02046F5E766
:10274000C84802F027FA04462046EFE72DE9F04199
:1027500004460F4604250026DFF80883A8F1010887
:102760000120FFF785FF0646AB2E01D1BDE8F081C1
:10277000701CBB49891E01EBC02821E0BA480068E3
:102780000068401C17D13946B748006802F07AFA51
:102790000546042D01D02846E8E72146B2480068E6
:1027A000801C02F06FFA0546AF480068001DAE4974
:1027B00008602846DAE7AC480068001DAA490860AE
:1027C000A94800684045D9D38020CFE72DE9F047DC
:1027D00006460F46002545F255584FF00109A04C1A
:1027E000A2460020FFF744FF0546AB2D01D1BDE80E
:1027F000F0879B4800EBC52A9B480068841E0AE0CE
:10280000B4F80080B04505D134F8020C38804FF0A0
:10281000000904E0241F0AF102008442F0D800BF3E
:102820004846E4E72DE9F0474FF0060A0626002562
:102830000027A8464FF0FF398948B0F800A0894822
:1028400006885FEA0A0075D0A0F56E40EE382AD0FF
:10285000A0F5885011386ED146B9814802F09AF936
:102860000446042C1ED02046BDE8F087A6F56E4035
:10287000EE3810D17A4802F08DF90446042C01D0CC
:102880002046F1E70021774802F0FCF90446042CC9
:1028900008D02046E8E7FFF740FF0446042C01D0AB
:1028A0002046E1E7AEE086BB002523E06C48801DB2
:1028B00000886E4931F81510884201D10FFA85F968
:1028C0004D4515D0694931F815006949FFF77EFF7C
:1028D0008046B8F1010F0BD0644931F81500644906
:1028E0000988FFF733FF0746042F01D03846BBE7BE
:1028F000681C85B2142DD9DB0021594802F0C2F9B9
:102900000446042C02D02046AEE707E0554802F00A
:1029100041F90446042C1FD02046A5E7A6F57F40C8
:10292000FF3812D14F4802F035F90446042C03D089
:10293000204699E711E05DE00021494802F0A2F944
:102940000446042C08D020468EE7FFF7E6FE044636
:10295000042C01D0204687E754E036B9FFF7DDFEAE
:102960000446042C45D020467EE7A6F57F40FF387C
:1029700007D13C4802F00EF90446042C39D0204619
:1029800072E7002522E03748C088384931F8151031
:10299000884201D10FFA85F94D4515D0334931F8F8
:1029A00015003349FFF712FF8046B8F1010F0BD035
:1029B0002E4931F815002E490988FFF7C7FE074652
:1029C000042F01D038464FE7681C85B2142DDADB9E
:1029D0000021244802F056F90446042C01D0204678
:1029E00042E71F4802F0D6F80446042C01D02046E6
:1029F0003AE707E0FFF791FE0446042C01D0204699
:102A000032E700BF00BF04202EE710B5FFF70AFF32
:102A10000446FFF754FE204610BD2DE9F84F074647
:102A200089460425DFF84CA00D4800904FF00008BF
:102A3000002400264FF0000B0020FFF719FE80460F
:102A4000B8F1010F04D1DFF818A00648009016E095
:102A5000B8F1000F10D1DFF80CA0014800900EE093
:102A600000E8030800F00308980400202600002076
:102A700094040020FFEB0308AB20BDE8F88F4EF66E
:102A8000EE61504602F0FEF80546042D01D02846BE
:102A9000F3E7FFF714FE49463846FFF757FE0646B0
:102AA000042E01D03046E8E700241CE0214830F82D
:102AB0001400B84215D01F4931F814001E49FFF721
:102AC00085FE8346BBF1010F0BD01A4931F8140083
:102AD00019490988FFF73AFE0646042E01D0304610
:102AE000CBE7601C84B2142CE0DB009802F052F8B3
:102AF0000546042D01D02846BFE70021504602F0CC
:102B0000C1F80546042D01D02846B6E72846B4E7AB
:102B100070B505460E46002431462846FFF716FEDE
:102B20000446802C04D131462846FFF776FF044640
:102B3000204670BD260000209404002010B50446F5
:102B4000B4F1904F09D10121480400F07AFB002133
:102B50004FF4003000F075FB3CE07448844208D12B
:102B60000121000200F06DFB0021200200F069FB52
:102B700030E06F48844208D10121000200F061FB7F
:102B80000021200200F05DFB24E06A48844209D164
:102B90000121080500F055FB00214FF4801000F0E2
:102BA00050FB17E06448844208D10121400200F044
:102BB00048FB0021600200F044FB0BE05F488442C8
:102BC00008D10121880500F03CFB00214FF4800072
:102BD00000F037FB10BDF0B50A46002100230024A9
:102BE00000BF3DE0012505FA01F3156805EA03047D
:102BF0009C4234D11579012D02D01579022D16D1C0
:102C000085684F000326BE40B543856055794E0068
:102C1000B540866835438560868801258D40AE4382
:102C20008680868895798D40ADB22E438680056872
:102C30004F000326BE40B543056015794E00B540F0
:102C4000066835430560C5684F000326BE40B5439E
:102C5000C560D5794E00B540C6683543C560491C8E
:102C60001029BFD3F0BD4FF6FF7101600021017143
:102C70000221417100218171C171704708B54FF483
:102C800080320092009A0A430092009AC261C161A8
:102C9000009AC261C2690092C269009208BD0246F0
:102CA0000020138A0B4201D0012000E00020704771
:102CB0000146088A704702460020938A0B4201D0E1
:102CC000012000E0002070470146888A704781613A
:102CD0007047018570470AB1816100E00185704746
:102CE00081827047F0B5002300244D07ED0E02FAF3
:102CF00005F3CE1000F1200555F826504E07F70ECB
:102D00000F26BE40B543CF1000F1200646F82750ED
:102D1000CE1000F1200555F8265045EA0304CE10E8
:102D200000F1200545F82640F0BD000000040048F1
:102D300000080048000C004800100048001400483B
:102D4000F848006840F00100F6490860084640680D
:102D500000F47F00486008460068F3490840F149E4
:102D600008600846006820F4802008600846406833
:102D700020F4FE0048600846C06A20F00F00C862D8
:102D80000846006BE9490840E6490863002088606E
:102D900070470021E34A917011468870704710B562
:102DA00001460022002300204A1112B9DD4C23689D
:102DB00006E0012A02D1DB4C236A01E0D94C636AA8
:102DC00001F01F02012494401C4201D0012000E0C8
:102DD000002010BD38B5002000900024002500BF61
:102DE0001120FFF7DCFF05460098401C009000987A
:102DF000B0F5A06F01D0002DF2D01120FFF7CFFF6A
:102E000008B1012400E00024204638BD014600201E
:102E1000C44A106820F0F80040EAC1001060704712
:102E2000C34908607047BF49096A21F00101BD4AE2
:102E300011621146096A21F0040111621146096A02
:102E4000014311627047B749096A21F01801B54A78
:102E500011621146096A014311627047B549086061
:102E60007047B04A526822F47412AE4B5A601A4648
:102E7000526840EA01031A43AA4B5A607047AC49B2
:102E80000866704701460020A64AD06A20F00F006D
:102E90000843D0627047A649C8647047A149C87109
:102EA0007047014600209F4A506820F00300084305
:102EB000506070479B48406800F00C007047014626
:102EC0000020984A506820F0F00008435060704796
:102ED00001460020934A506820F4E06008435060A7
:102EE0007047014600208F4A506820F4605040EA45
:102EF000C100506070478B49496821F44041894ABC
:102F000051601146496801435160704785494968DD
:102F100021F07841834A516011464968014351606C
:102F200070478049096B21F040017E4A11631146C8
:102F3000096B0143116370470021010F31B9794AD0
:102F4000126B22F01002774B1A6305E0754A126B80
:102F500022F02002734B1A63724A126B0243714BC8
:102F60001A6370470021010F012904D0022909D0FA
:102F7000032915D10DE06B4A126B22F00302694B55
:102F80001A630EE0674A126B22F44032654B1A63F3
:102F900007E0644A126B22F44022624B1A6300E09D
:102FA00000BF00BF5F4A126B02435E4B1A6370475B
:102FB00061490860704770B5002100230024002596
:102FC0000022584E766806F00C0121B1042905D084
:102FD000082921D105E0594E066020E0574E0660D1
:102FE0001DE0504E766806F470134E4E766806F477
:102FF0008034022606EB93431CB9514E5E430660B3
:1030000009E0484EF66A06F00F06751C4B4EB6FBFB
:10301000F5F65E43066002E0484E066000BF00BF62
:10302000404E766806F0F0010909464E725C06686B
:10303000D64046603B4E766806F4E061090A414E90
:10304000725C4668D6408660364E766806F46051FB
:10305000C90A3C4E725C4668D640C660314E7668FE
:1030600006F44041890B384E725CC668B6FBF2F636
:1030700006612C4E766806F07841C1F3C361334E89
:10308000725C0668B6FBF2F64661264E366B06F0B9
:103090004006402E03D048F21206866102E04FF44B
:1030A000004686611F4E366B06F01006102E02D0C9
:1030B000224EC66101E00668C6611A4E366B06F004
:1030C0002006202E02D01D4E066201E00668066230
:1030D000144E366B16F0030F02D1C668466219E033
:1030E000104E366B06F00306012E02D106684662CA
:1030F00010E00C4E366B06F00306022E02D1B6032A
:10310000466207E0074E366B06F00306032E01D138
:103110000A4E4662034E366B16F4403F18D186685D
:10312000866233E000100240FFFFF6FE8C0FFF0FB7
:103130000000424280044242D800424200127A001B
:1031400000093D009C040020AC040020B0040020D5
:10315000604E366B06F44036B6F5803F02D1066805
:10316000866213E05B4E366B06F44036B6F5003FE0
:1031700003D14FF40046866208E0564E366B06F4E3
:103180004036B6F5403F01D1534E8662514E366B04
:1031900016F4402F02D18668C6621DE04D4E366B94
:1031A00006F44026B6F5802F02D10668C66213E009
:1031B000484E366B06F44026B6F5002F03D14FF487
:1031C0000046C66208E0434E366B06F44026B6F56C
:1031D000402F01D1404EC66270BD3E49096A01438D
:1031E0003C4A116270473D49086070473B49091DE0
:1031F0000860704729B1374A52690243354B5A611A
:1032000004E0344A52698243324B5A61704729B113
:10321000304A926902432F4B9A6104E02D4A926929
:1032200082432C4B9A61704729B12A4AD2690243E2
:10323000284BDA6104E0274AD2698243254BDA61E0
:10324000704729B1234A926A0243224B9A6204E0F2
:10325000204A926A82431F4B9A62704729B11D4AE5
:10326000D26802431B4BDA6004E01A4AD2688243F8
:10327000184BDA60704729B1164A12690243154BA0
:103280001A6104E0134A12698243124B1A617047B3
:1032900029B1104A527A02430E4B5A7204E00D4A89
:1032A000527A82430B4B5A7270470A48406A40F088
:1032B000807008494862704701460020054A9268BC
:1032C0000A4201D0012000E00020704701498872C5
:1032D000704700000010024000127A003C04424295
:1032E00010B50446F848844209D101218803FFF74C
:1032F000B5FF00214FF48040FFF7B0FF18E0F3481E
:10330000844209D101214804FFF7B5FF00214FF4A1
:103310000030FFF7B0FF0BE0ED48844208D10121F7
:103320008804FFF7A8FF00214FF48020FFF7A3FFD8
:1033300010BD2DE9F0418CB004460D460027B8467B
:103340000026206820F001002060666826F44056C0
:10335000A86806436660266841F20C608643E96807
:10336000686808432969084306432660A66826F46E
:10337000407668690643A6606846FFF71CFED2489F
:10338000844202D1DDF8248007E0D048844202D193
:10339000DDF8288001E0DDF82C80206810F4004F73
:1033A0000CD04FEA48002968B0FBF1F74FEA48001B
:1033B0002968B0FBF1F201FB120607E02868B8FBB0
:1033C000F0F72868B8FBF0F100FB11862868B6EB2F
:1033D000500F00D37F1C206810F4004F07D0C7F3B4
:1033E00042064FF6F07107EA010040EA0607A7819E
:1033F0000CB0BDE8F0814FF416510160002141602E
:103400008160C1600C21016100214161704710B5EC
:103410000022426822F47062D1E9003423438C68B0
:103420002343CC6823431A43426010BD002101604E
:1034300041608160C160704721B1026842F00102C1
:10344000026003E0026822F00102026070471AB1D4
:1034500003680B43036002E003688B43036070471B
:1034600021B1026842F40042026003E0026822F4E3
:1034700000420260704721B1826842F400628260BB
:1034800003E0826822F400628260704721B14268E2
:1034900042F40022426003E0426822F400224260CB
:1034A000704721B1426842F48022426003E04268E2
:1034B00022F48022426070471AB143680B43436094
:1034C00002E043688B434360704721B1426842F495
:1034D0000042426003E0426822F4004242607047CA
:1034E00021B1426842F40002426003E0426822F4E3
:1034F000000242607047426902F07F4242614269C5
:103500000A4342617047028A02F47F420282028AC1
:103510000A430282704721B1026842F0020202604F
:1035200003E0026822F0020202607047826822F41F
:103530004012826082680A438260704721B142680B
:1035400042F48012426003E0426822F4801242603A
:103550007047426822F4C002426042680A434260F7
:103560007047C1F30802028570470146888CC0F39A
:1035700008007047426822F07F424260426842EA97
:1035800001624260704721B1026842F40052026059
:1035900003E0026822F4005202607047026822F4DD
:1035A0000062026002680A4302607047426822F0CB
:1035B0001002426042680A4342607047426822F04B
:1035C0002002426042680A434260704721B142686B
:1035D00042F48042426003E0426822F4804242604A
:1035E000704721B1826842F00802826003E082687D
:1035F00022F0080282607047028AD2B20282028AF6
:1036000042EA01220282704721B1826842F0200220
:10361000826003E0826822F020028260704721B15C
:10362000826842F01002826003E0826822F0100299
:1036300082607047826822F460228260826842EA77
:10364000414282607047426922F07F424261426992
:1036500042EA016242617047826822F0040282609D
:1036600082680A438260704721B1826842F0020298
:10367000826003E0826822F002028260704721B11A
:10368000826842F48042826003E0826822F48042D1
:1036900082607047826822F40042826082680A4336
:1036A00082607047026822F078720260026842EA23
:1036B000415202607047026822F4F8120260026808
:1036C00042EA014202607047003801400044004075
:1036D000004800401AB183680B43836002E08368AE
:1036E0008B4383607047826822F400528260826854
:1036F0000A4382607047F0B5034600240026002587
:1037000000201846C1F30724CEB2012707FA06F5B8
:10371000022C01D1001D02E0032C00D108301AB1A7
:1037200007682F43076002E00768AF430760F0BDFA
:103730001AB1038B0B43038302E0038B8B43038398
:103740007047826822F48052826082680A438260F5
:10375000704702460020D3690B4201D0012000E0EF
:10376000002070470162704770B502460B46002486
:10377000002100250020C3F30725D9B2012606FA4F
:1037800001F1012D02D11668314006E0022D02D16F
:103790005668314001E0966831401C0C012606FA5B
:1037A00004F4D669344011B10CB1012000E00020CE
:1037B00070BD10B5002200230A0C012404FA02F3A4
:1037C000036210BD01684FF6FE72114001600021D6
:1037D000016041608160C1608C49884208D18B4999
:1037E0000839496841F00F01884A083A51608AE077
:1037F00086491431884208D184490839496841F022
:10380000F001824A083A51607DE0804928318842BF
:1038100008D17E490839496841F470617B4A083A09
:10382000516070E079493C31884208D177490839C4
:10383000496841F47041754A083A516063E0734940
:103840005031884208D171490839496841F47021E2
:103850006E4A083A516056E06C496431884208D19A
:103860006A490839496841F47001684A083A516068
:1038700049E066497831884208D164490839496885
:1038800041F07061614A083A51603CE06049884209
:1038900006D1011F096841F00F01021F116032E0DB
:1038A0005B491431884208D15949091F096841F020
:1038B000F001574A121F116025E05549283188420E
:1038C00008D15349091F096841F47061504A121F19
:1038D000116018E04E493C31884208D14C49091F1B
:1038E000096841F470414A4A121F11600BE04849CF
:1038F0005031884207D14649091F096841F47021B7
:10390000434A121F1160704710B50022026847F643
:10391000F0739A430C6A8B6823430C6923434C6908
:1039200023438C692343CC6923434C6A23438C6A29
:1039300023431A4302608B8943600B6883604B68A2
:10394000C36010BD0021016041608160818101611F
:1039500041618161C161016241628162704721B14F
:10396000026842F00102026004E002684FF6FE7352
:103970001A4002607047416070470146486880B253
:1039800070471AB103680B43036002E003688B437E
:103990000360704701460020002211F0805F03D0D1
:1039A0001B4B083B1A6802E0184B083B1A680A4296
:1039B00001D0012000E00020704710F0805F03D0AC
:1039C0001349091F086002E0104908394860704730
:1039D00001460020002211F0805F03D00C4B083B11
:1039E0001A6802E0094B083B1A680A4201D001201C
:1039F00000E00020704710F0805F03D00449091FE9
:103A0000086002E001490839486070470800024038
:103A10000804024010B50446B648844209D1012189
:103A20000806FFF71BFC00214FF08070FFF716FC23
:103A300015E0B148844209D101214806FFF70EFC88
:103A400000214FF00070FFF709FC08E00121880613
:103A5000FFF704FC00214FF08060FFF7FFFB10BD73
:103A600010B500224268A54B1A400B799B054C7992
:103A700043EA04630C6804F4702423431A4342604D
:103A800010BD01210160002101714171704730B505
:103A9000002300F1200303EB8103D2E900452C430E
:103AA00095682C43D5682C431C6030BD0021016013
:103AB00041608160C160704730B50023904CA142E5
:103AC00007D00B0C046C9D0002FA05F52C4304642E
:103AD00000E0426430BD21B1426842F00102426020
:103AE00003E0426822F001024260704721B102689F
:103AF00042F00042026003E0026822F000420260ED
:103B0000704721B1426842F08072426003E042682F
:103B100022F08072426070470146764A106820F4B5
:103B200040700843106070470A46416821F0060162
:103B3000114341607047416841F010014160704796
:103B40000A46416821F47021130C1B04194341609B
:103B5000704721B1426842F48002426003E042684B
:103B600022F4800242607047416841F400014160E4
:103B700070470146486E00B2704721B1026842F4B6
:103B80000042026003E0026822F4004202607047D3
:103B90005848406F70475748C06F7047416841F4BC
:103BA0000041416070478AB24261704721B142686A
:103BB00042F04002426003E0426822F0400242606C
:103BC000704721B1426842F02002426003E042683F
:103BD00022F02002426070470A460021416821F429
:103BE00070611143416070470A460021416821F429
:103BF000C041114341607047014600200A6E100C1D
:103C00000122824042EA0040704730B502460B462E
:103C10000021116E3B4800EA11200D0E0124AC403A
:103C20002043186008B230BD21B1026842F48042DE
:103C3000026003E0026822F48042026070472D486F
:103C4000006F70472B48806F704721B1026842F4C3
:103C50008052026003E0026822F4805202607047E2
:103C600021B1026842F40062026003E0026822F4BB
:103C700000620260704721B1026842F48062026013
:103C800003E0026822F48062026070471AB10368A0
:103C90000B43036002E003688B43036070471AB173
:103CA00003680B43036002E003688B4303607047C3
:103CB0000246002093680B4201D0012000E0002062
:103CC0007047C2680A43C260704730B502460020A0
:103CD00000230024956805EA0103156805EA01043C
:103CE00013B10CB1012000E0002030BDC2680A43CE
:103CF000C26070470060014000640140FFFF30FE79
:103D0000000108000000FFFF10B50446B4F1804F29
:103D100008D101210846FFF7AEFA00210120FFF784
:103D2000AAFA9EE0F748844208D101210220FFF759
:103D3000A2FA00210220FFF79EFA92E0F2488442A4
:103D400008D101210420FFF796FA00210420FFF793
:103D500092FA86E0ED48844208D101210820FFF75D
:103D60008AFA00210820FFF786FA7AE0E8488442C0
:103D700008D101211020FFF77EFA00211020FFF763
:103D80007AFA6EE0E348844208D101212020FFF74F
:103D900072FA00212020FFF76EFA62E0DE488442CA
:103DA00008D101214020FFF766FA00214020FFF7EB
:103DB00062FA56E0D948844208D101218020FFF7F9
:103DC0005AFA00218020FFF756FA4AE0D44884428C
:103DD00008D101218015FFF74EFA0021A015FFF749
:103DE0004AFA3EE0CF48844209D101210804FFF796
:103DF00035FA00214FF48030FFF730FA31E0CA483D
:103E0000844209D101214804FFF728FA00214FF428
:103E10000030FFF723FA24E0C448844209D101218D
:103E20008804FFF71BFA00214FF48020FFF716FAF1
:103E300017E0BF48844208D101214015FFF71BFA63
:103E400000216015FFF717FA0BE0BA48844208D149
:103E50000121C804FFF702FA00214FF40020FFF708
:103E6000FDF910BD00220288B0F1804F0BD0A54BA8
:103E7000984208D0A44B984205D0A44B984202D057
:103E8000AC4B984204D14FF68F731A404B881A43BB
:103E90009F4B98420AD09F4B984207D0A44B984220
:103EA00004D04FF6FF431A400B891A4302804B6837
:103EB000C3620B8803859B4B984205D09A4B98426E
:103EC00002D09A4B984201D18B7A038601238382D8
:103ED00070474FF0FF314160002101800181418036
:103EE000817270470185828270470A4600210188ED
:103EF0004FF68F731940114301807047416270473C
:103F0000C16270470146486A70470146088D704794
:103F100021B1028842F00202028004E002884FF6DA
:103F2000FD731A400280704721B1028842F00402FA
:103F3000028004E002884FF6FB731A40028070474B
:103F400021B1028842F08002028004E002884FF62C
:103F50007F731A400280704702884FF6F7731A4049
:103F6000028002880A430280704702884FF6FF43AE
:103F70001A40028002880A430280704721B10288F9
:103F800042F00102028004E002884FF6FE731A40FC
:103F9000028070470A884B881A438B881A43CB8863
:103FA0001A430B891A434B891A438B891A43B0F879
:103FB00044301A43A0F8442070470021018041801A
:103FC0008180C180018141818181704731B1B0F828
:103FD000442042F40042A0F8442005E0B0F8442018
:103FE000C2F30E02A0F84420704770B500240022EE
:103FF0000023058C4FF6FE7635400584028C8388BD
:10400000048B4FF68F752C40B51E2C400D882C4329
:10401000751E2A408D892A434D882A43414DA84266
:1040200005D0414DA84202D0404DA84213D14FF6D1
:10403000F7752A40CD892A434FF6FB752A408D88B3
:104040002A434FF6FF652B404FF6FF552B400D8A54
:104050002B434D8A2B43838004838D684563028400
:1040600070BD70B5002200230024058C4FF6EF765A
:1040700035400584038C8488028B48F6FF752A40FE
:104080004FF6FF452A400D884FF6FF7606EA0525D4
:104090002A434FF6DF752B408D8906EA05152B4321
:1040A0004D8806EA05152B43848002838D6885635D
:1040B000038470BD70B5002200230024058C4FF6E8
:1040C000FF6635400584038C8488828B4FF68F759C
:1040D0002A404FF6FC752A400D882A434FF6FF55BB
:1040E0002B408D894FF6FF7606EA05252B434D8838
:1040F00006EA05252B43848082838D68C56303848B
:1041000070BD00000004004000080040000C0040AA
:10411000001000400014004000180040001C004047
:1041200000200040004001400044014000480140A0
:10413000009C0040005C014070B500220023002478
:10414000058C4EF6FF7635400584038C8488828B7F
:1041500048F6FF752A404FF6FF452A400D884FF676
:10416000FF7606EA05252A434DF6FF752B408D891B
:1041700006EA05352B434D8806EA05352B43848036
:1041800082838D680564038470BD002101804180B5
:10419000818081608181C18101824182704770B5D7
:1041A0000346002000241846183001258D40ACB28B
:1041B0001D8CA5431D8409B1082909D100EB6100BC
:1041C000056825F0700505600568154305600EE07B
:1041D0000D1FC5F34E052844056825F4E04505602C
:1041E00005684FF6FF7606EA02263543056070BD86
:1041F0004163704781637047C163704701647047D2
:104200000A460021018B4FF68F7319401143018339
:1042100070470A460021018B48F6FF7319404FF69C
:10422000FF7303EA02231943018370470A46002102
:10423000818B4FF68F7319401143818370470A4673
:104240000021818B48F6FF7319404FF6FF7303EA94
:10425000022319438183704721B1828842F0010211
:10426000828004E082884FF6FE731A408280704795
:104270000A460021018B4FF6F77319401143018361
:1042800070470A460021018B4FF2FF7319404FF629
:10429000FF7303EA02231943018370470A46002192
:1042A000818B4FF6F77319401143818370470A469B
:1042B0000021818B4FF2FF7319404FF6FF7303EA21
:1042C00002231943818370470A460021018B4FF670
:1042D000FB7319401143018370470A460021018B8B
:1042E0004FF6FF3319404FF6FF7303EA02231943D9
:1042F000018370470A460021818B4FF6FB731940FA
:104300001143818370470A460021818B4FF6FF33AA
:1043100019404FF6FF7303EA022319438183704764
:104320000A460021018B4FF67F7319401143018328
:1043300070470A460021018BC1F30E014FF6FF734F
:1043400003EA02231943018370470A460021818B47
:104350004FF67F7319401143818370470A4600214D
:10436000818BC1F30E014FF6FF7303EA0223194359
:10437000818370470A460021018C4FF6FD73194076
:104380001143018470470A460021018C4FF6F773F0
:1043900019401143018470470A460021018C4FF6F1
:1043A000DF7319404FF6FF7303EA021319430184C8
:1043B00070470A460021018C4FF6FF5319404FF613
:1043C000FF7303EA02231943018470470A46002160
:1043D000018C4DF6FF7319404FF6FF7303EA023369
:1043E00019430184704702894FF6F7731A4002811E
:1043F00002890A430281704730B5002301248C40B2
:10440000A3B2048C9C430484048C02FA01F5ADB27F
:104410002C43048430BD30B5002304248C40A3B267
:10442000048C9C430484048C02FA01F5ADB22C4345
:10443000048430BD21B1828842F00402828004E00D
:1044400082884FF6FB731A4082807047828B4FF24E
:10445000FF331A408283828B4FF6FF7303EA0123F6
:104460001A4382837047F0B50C461546002100229E
:104470000026078C4EF6FF7C07EA0C070784818B29
:10448000028C4FF6FF7707EA043640F6FF473940C3
:104490004FF6FF7707EA052739434FF6FF7707EA1C
:1044A0000337394347F6FF573A4046F480573A43BB
:1044B00081830284F0BD828B4FF6F3731A408283AE
:1044C000828B0A4382837047F0B50C461546002163
:1044D00000220026078C4FF6FF6C07EA0C070784C2
:1044E000818B028C4FF6FF7707EA04264FF60C7794
:1044F00039404FF6FF7707EA03172F4339434FF24E
:10450000FF573A4046F480773A4381830284F0BDF6
:10451000028B4FF2FF331A400283028B4FF6FF7378
:1045200003EA01231A4302837047F0B50C4615468F
:10453000002100220026078C4FF6EF7C07EA0C07CB
:104540000784018B028C4FF6FF7707EA041640F6CA
:10455000FF4739404FF6FF7707EA033739434FF6F5
:10456000FF7707EA052739434FF65F773A4046F071
:1045700010073A4301830284F0BD028B4FF6F373B8
:104580001A400283028B0A4302837047F0B50C463F
:10459000154600210022068C4FF6FE773E40068429
:1045A000018B028C4FF60C7631407E1C06EA031616
:1045B0002E4331434FF6F576324044F00106324344
:1045C00001830284F0BD70B505460C46208850B9C1
:1045D0002389A28861882846FFF7D8FFE18828460A
:1045E000FFF7CBFF25E0208804280AD12389A28881
:1045F00061882846FFF799FFE1882846FFF788FF82
:1046000017E0208808280AD12389A28861882846D3
:10461000FFF75AFFE1882846FFF74DFF09E023899D
:10462000A28861882846FFF71EFFE1882846FFF729
:104630000DFF70BD0021018041800121818000219A
:10464000C180018170472DE9F04105460C460026E6
:104650000127608808B9022600E00026A08801280A
:1046600001D1022700E001272088A0B92389A28870
:1046700061882846FFF78AFFE1882846FFF77DFF1B
:1046800023893A4631462846FFF74FFFE1882846FE
:10469000FFF73EFF13E02389A28861882846FFF7D1
:1046A00044FFE1882846FFF733FF23893A46314625
:1046B0002846FFF76BFFE1882846FFF75EFFBDE85D
:1046C000F0810146486B70470146886B7047014690
:1046D000C86B70470146086C70471AB183890B4359
:1046E000838102E083898B43838170478182704795
:1046F00002460020138A0B4201D0012000E0002076
:104700007047CA430282704730B50246002000233A
:104710000024158A05EA0103958905EA010413B10D
:104720000CB1012000E0002030BDCA430282704776
:1047300041EA0203A0F8483070471AB183890B435D
:10474000838102E083898B438381704721B1828812
:1047500042F00802828004E082884FF6F7731A4024
:104760008280704701894FF6F872114001817047CD
:104770000A46002101894FF68F73194011430181C8
:10478000704730B504460D4629462046FFF7F0FF36
:10479000208940F00700208130BD2DE9F04104461A
:1047A0000D4616461F46602D06D13B460122314676
:1047B0002046FFF7BAFE05E03B460122314620467F
:1047C000FFF7E4FE29462046FFF7D2FF208940F09C
:1047D00007002081BDE8F08130B50C460021018939
:1047E000C9B24FF6FF7505EA032515432543294352
:1047F000018130BD2DE9F04105460E461746984629
:10480000002443463A4631462846FFF7E5FF2C8907
:104810004FF6F870044044F007044FF68F700440E0
:1048200044F070042C81BDE8F081F0B504460D46DB
:1048300016461F463B46324629462046FFF7CCFF28
:10484000208940F480402081F0BD82884FF68F732C
:104850001A40828082880A438280704702894FF61C
:10486000F8731A40028102890A4302817047028963
:104870004FF67F731A40028102890A430281704712
:10488000F0B50C4615461E46002100220023018982
:10489000028B038C4FF6F877394021434FF6FC47E3
:1048A0003A4040F201173A434FF6DD773B404FF66E
:1048B000FF7707EA06172F433B43018102830384F6
:1048C000F0BD21B1828842F08002828004E08288BB
:1048D0004FF67F731A4082807047A0F850107047DF
:1048E00031490143314A1160704770B500210023FE
:1048F0000F22C4780CB32D4C246804F4E064C4F592
:10490000E064210AC1F10403CA40447804FA03F1C7
:104910008478144021430901254C0678A155047878
:1049200004F01F050124AC4005786D114FF0E0261E
:1049300006EB8505C5F8004109E0047804F01F0581
:104940000124AC401B4D0678761145F8264070BD19
:10495000194A0A400243154B1B1F1A60704739B1B0
:10496000124A121D12680243104B1B1D1A6006E00A
:104970000E4A121D126882430C4B1B1D1A607047B1
:10498000042808D14FF0E021096941F004014FF0FB
:10499000E022116107E04FF0E021096921F00401F4
:1049A0004FF0E022116170470000FA050CED00E0C5
:1049B00000E400E080E100E080FFFF1F10B501216E
:1049C0000807FEF758FC00214FF08050FEF753FC1B
:1049D00010BD3B490862704701460020394A106803
:1049E00020F0E000084310607047354908617047C7
:1049F00029B1344A52680243324B5A6004E0314ACA
:104A0000526882432F4B5A60704729B12D4A126871
:104A100002432C4B1A6004E02A4A12688243294B55
:104A20001A6070472849096821F00401264A11607C
:104A3000012801D130BF00E020BF704710B5024609
:104A40000020204B186820F00300104318601E4B14
:104A50001B6843F004031C4C2360012901D130BFC3
:104A600000E020BF184B1B6823F00403164C2360A2
:104A700010BD1448006840F0040012490860084660
:104A8000006840F0020008600F48006840F0040031
:104A90000D49086000BF00BF30BF704701460020CD
:104AA000084A52680A4201D0012000E00020704705
:104AB0000449096841EA8001024A11607047000018
:104AC00000000E420070004010ED00E001460020A2
:104AD000FE4A106820F0030008431060704730B1B0
:104AE000FA49096841F00801F84A116005E0F74900
:104AF000096821F00801F54A1160704730B1F349A7
:104B0000096841F01001F14A116005E0EF490968B8
:104B100021F01001ED4A11607047EC48006910F077
:104B2000800F04D0EA48E9494860EA484860704785
:104B3000E648006940F08000E449086170470420BD
:104B4000E249C96811F0010F01D001200EE0DF49F0
:104B5000C96811F0100F01D0022007E0DB49C968D5
:104B600011F0040F01D0032000E00420704700B5CD
:104B700002460423FFF7E3FF034603E0FFF7DFFFEE
:104B80000346521E012B01D1002AF7D102B9052399
:104B9000184600BD30B5044604254FF43020FFF719
:104BA000E6FF0546042D16D1C848006940F0020012
:104BB000C649086108464461006940F04000086148
:104BC0004FF43020FFF7D3FF0546C048006920F0BE
:104BD0000200BE490861284630BD10B504244FF4D8
:104BE0003020FFF7C4FF0446042C15D1B7480069F4
:104BF00040F00400B54908610846006940F04000F3
:104C000008614FF43020FFF7B2FF0446AF48006957
:104C100020F00400AD490861204610BD78B5064675
:104C20000C460425002000904FF43020FFF79FFF32
:104C30000546042D24D1A548006940F00100A34990
:104C4000086134804FF43020FFF791FF0546042DB2
:104C500010D1B01C0090200C009908804FF4302037
:104C6000FFF785FF05469948006920F00100974944
:104C7000086105E09548006920F00100934908614A
:104C8000284678BD70B504460D4604264FF4302002
:104C9000FFF76DFF0646042E11D18C48006940F0E5
:104CA00001008A49086125804FF43020FFF75FFF3B
:104CB00006468648006920F00100844908613046B4
:104CC00070BD8248006910F4007F04D180487F499C
:104CD00088608048886070477C48006920F40070D4
:104CE0007A49086170477948006940F40050774973
:104CF0000861704700207549C96911F0060F01D09D
:104D0000012000E00020704730B5AA250424FFF7F9
:104D1000F1FF00B100254FF43020FFF728FF0446D3
:104D2000042C34D16948006940F0200067490861CB
:104D30000846006940F0400008614FF43020FFF75A
:104D400016FF0446042C1AD16048006920F02000A8
:104D50005E4908610846006940F0100008615E483D
:104D600005804FF43020FFF702FF0446052C0ED0DB
:104D70005648006920F010005449086107E0052CEE
:104D800005D05248006920F01000504908612046C3
:104D900030BD70B505460E4604244FF43020FFF7B1
:104DA000E6FE0446042C13D14848006940F0100088
:104DB000464908612E804FF43020FFF7D8FE0446A4
:104DC000052C05D04148006920F010003F490861DA
:104DD000204670BD2DE9F04304464FF6FF76374676
:104DE000B046B1460425E443E6B2C4F30727C4F352
:104DF00007484FEA14694FF43020FFF7B8FE054624
:104E0000042D3FD13148006940F010002F4908615E
:104E1000FF2E07D03048083006804FF43020FFF7CF
:104E2000A6FE0546042D09D1FF2F07D02A480A30D7
:104E300007804FF43020FFF79AFE0546042D0BD172
:104E4000B8F1FF0F08D024480C30A0F800804FF4D0
:104E50003020FFF78CFE0546042D0BD1B9F1FF0F72
:104E600008D01D480E30A0F800904FF43020FFF716
:104E70007EFE0546052D05D01448006920F010007F
:104E8000124908612846BDE8F08330B50546042480
:104E90004FF43020FFF76BFE0446042C3DD10B4845
:104EA000006940F02000094908610846006940F0A7
:104EB000400008614FF43020FFF759FE0446042CEF
:104EC00023D10248006920F0200007E000200240C2
:104ED00023016745AB89EFCD00F8FF1F8F490861BB
:104EE0000846006940F0100008618D4805804FF4C5
:104EF0003020FFF73CFE0446052C0ED087480069A1
:104F000020F010008549086107E0052C05D0834892
:104F1000006920F0200081490861204630BDF0B5CD
:104F200007460D46164604244FF43020FFF71FFEB7
:104F30000446042C1AD17948006940F010007749E2
:104F4000086147EA050046F0F80108437449891CE6
:104F500008804FF43020FFF70AFE0446052C05D0E8
:104F60006E48006920F010006C4908612046F0BDD1
:104F700030B5054604244FF43020FFF7F8FD044611
:104F8000042C17D16548006940F01000634908619E
:104F900045F0EF006249891C08804FF43020FFF78C
:104FA000E6FD0446052C05D05C48006920F01000A1
:104FB0005A490861204630BD30B5054604244FF4F7
:104FC0003020FFF7D4FD0446042C17D15348006964
:104FD00040F010005149086145F0DF005049891C3C
:104FE00008804FF43020FFF7C2FD0446052C05D0A1
:104FF0004A48006920F0100048490861204630BD49
:1050000030B5054604244FF43020FFF7B0FD0446C8
:10501000042C17D14148006940F010003F49086155
:1050200045F07F003E49891C08804FF43020FFF78F
:105030009EFD0446052C05D03848006920F010007C
:1050400036490861204630BD30B5054604244FF48A
:105050003020FFF78CFD0446042C17D12F4800693F
:1050600040F010002D49086145F0BF002C49891C13
:1050700008804FF43020FFF77AFD0446052C05D058
:105080002648006920F0100024490861204630BD00
:1050900030B5054604244FF43020FFF768FD044680
:1050A000042C17D11D48006940F010001B4908610D
:1050B00045F048001A49891C08804FF43020FFF75A
:1050C00056FD0446052C05D01448006920F0100058
:1050D00012490861204630BD1048C069C0F307205E
:1050E00070470E48006A704729B10C4A12690243A2
:1050F0000A4B1A6104E0094A12698243074B1A619C
:10510000704701460020054AD2680A4201D00120BA
:1051100000E0002070470149C8607047002002404D
:1051200000F8FF1F0FB41CB5074B06AA7B44694665
:105130000090059800F011F90020694600F020F970
:105140001CBC5DF814FB0000510200002DE9F04189
:105150000E460446002020622046E168884730B3AE
:10516000252805D0D4E901219047206A401CF2E7A8
:10517000E168204600278847050018D0A5F14100C6
:10518000192802D820354FF40067324629462046B8
:105190002760FBF753F840B1012804D0F61D26F034
:1051A00007060836D8E7361DD6E72846DAE7206A2C
:1051B000BDE8F0812DE9F04106460024106875290C
:1051C000314616A511D0AFF30080002803DAC0F1F4
:1051D000000013A507E031688A0701D511A502E098
:1051E000490704D510A5012401E0AFF30080002198
:1051F0000A2306F1240707E0B0FBF3F203FB1200D9
:10520000303078541046491C0028F5D123462A46F0
:105210003046BDE8F04100F03EB80000000000005C
:105220002D0000002B000000200000004FF00002C5
:1052300000B5134694469646203922BFA0E80C508C
:10524000A0E80C50B1F12001BFF4F7AF090728BF67
:10525000A0E80C5048BF0CC05DF804EB890028BFE3
:1052600040F8042B08BF704748BF20F8022B11F00C
:10527000804F18BF00F8012B704770477047704788
:1052800010B500F083F8006810BD10B5044600F0BA
:105290007DF8046010BD2DE9F0470D469946924611
:1052A000044600F124080168880604D5E06921F06D
:1052B0001001216000E00120A84202DDA0EB0507FB
:1052C00000E00027A16907EB050202EB0900A1EB52
:1052D0000000A0612078C00602D42046AFF3008011
:1052E000002608E0D4E901211AF806009047206A58
:1052F000401C761C20624E45F4DB2078C0060AD59F
:105300002046AFF3008006E0D4E901213020904729
:10531000206A401C2062381EA7F10107F4DC07E078
:10532000D4E9012118F805009047206A401C20624A
:10533000281EA5F10105F3DC2046AFF3008020789C
:10534000000602D50220BDE8F0870120FBE700003F
:1053500001694A1C02610878704700B58FB0CDE939
:1053600001310021059105497944CDE90310114629
:105370006846FFF7EBFE0FB000BD0000E5FFFFFF42
:105380000A6802F8010B0A60704700000048704785
:10539000FC06002000487047FC0600207546FFF719
:1053A000F9FFAE4605006946534620F007008546E2
:1053B00018B020B5FAF76AFFBDE820404FF00006AC
:1053C0004FF000074FF000084FF0000B21F00701ED
:1053D000AC46ACE8C009ACE8C009ACE8C009ACE830
:1053E000C0098D4670470446AFF300802046FAF7A7
:1053F00039FF000001491820ABBEFEE7260002007D
:10540000704703B401984100009850EAC12018BFCA
:1054100004204A0D18BF40F0010040F2FF72B2EBC9
:10542000515F08BF40F00200012808BF052002B00C
:10543000704700000000000070B52DED020B2DED4F
:105440000A8B82B00D98C40F20F00045B048854209
:105450004AD3B048854218D30C99C5F313000843CA
:1054600008D09DED0C0B53EC102B51EC100B00F001
:1054700055FA20E0002C14BF9FEDA70B9DED0C0BFF
:1054800002B0BDEC0A8B02B070BD9FEDA50B53ECD2
:10549000102B9DED0C0B51EC100B00F0F9FD0DD213
:1054A0000220FFF7F2FE9FEDA00B53EC102B51EC06
:1054B000100B00F0EFFC41EC100BE1E79FED9C0BB3
:1054C00053EC102B9DED0C0B51EC100B00F0A6FCD7
:1054D0000AD20220FFF7D9FE02B0BDEC0A8B02B05F
:1054E000BDE8704000F0D8B993489FED959BA84265
:1054F0005ED29548854219D29448784400EBC400A6
:1055000090ED000B53EC102B9DED0C0B51EC100BA0
:1055100000F000FE41EC1A0B8D48784400EBC4000B
:1055200090ED00BBC4F10100041B36E09FED8A0B37
:1055300053EC102B9DED0C0B51EC100B00F0AAFC62
:1055400041EC100B8648784400EBC40090ED001B42
:1055500051EC100B53EC112B00F0E0F900F0EAFBDA
:10556000044600F044FC41EC180B9FED7F0B53EC1C
:10557000102B00F08FFC9DED0C1B53EC112B00F059
:10558000BDFD41EC1A0B9FED7A0B51EC180B53EC5F
:10559000102B00F07FFC41EC1B0B51EC1A0B53EC71
:1055A0001B2B00F0B7FD41EC100B8DED0C0B1DE03B
:1055B0007148854217D29FED720B53EC102B9DED75
:1055C0000C0B51EC100B00F0A9F953EC192B00F067
:1055D0005FFD08D29DED0C0B53EC192B51EC100B19
:1055E00000F09CF967E79DED0C0B002453EC102BA9
:1055F00051EC100B00F04EFC41EC180B62480521F9
:10560000B0EE480AF0EE680A784400F0C9F853ECAE
:10561000182B51EC100B00F03DFC9DED0C1B53ECD6
:10562000112B00F06BFD41EC180B9FED590B7CB377
:1056300053EC182B51EC100B00F06CFD9DED0C0B96
:1056400041EC1C0B53EC182B51EC100B00F022FC1E
:1056500053EC1C2B00F016FA53EC1B2B00F04EFD04
:1056600053EC1A2B00F056FD53EC192B00F046FDBD
:1056700041EC100B6FF47F70844210EE900A8DEDB8
:10568000000B25DB00EB045001909DED000BF7E6CD
:10569000FFE753EC102B51EC180B00F03BFD9DED98
:1056A0000C0B41EC1A0B53EC182B51EC100B00F0C7
:1056B000F1FB53EC1A2B00F0E5F99DED0C1B53ECBC
:1056C000112B00F027FD53EC192B00F017FDF2E62B
:1056D0004FF07A5101EB04519FED2F0B084453EC2E
:1056E000102B01909DED000B51EC100B00F0D2FB44
:1056F0000D4645EC100B044651EC100BFFF781FEF4
:10570000042808BF00F0C8F845EC104BB8E60000CC
:10571000422E86400000F07F0000000000000000E4
:10572000EF39FAFE422E86400000000000000070B3
:1057300051302DD5104987C0422ED63F00000000C1
:10574000000000000000F03FB2A2F03FF20E0000A7
:10575000E20E000000000000FE822B654715F73FB7
:10576000960E0000000000000000E0FE422EE63F22
:10577000763C7935EF39EA3D0000303E000000000C
:105780009C7500883CE4377E040E00000000000099
:105790000000000000000040000000000000700158
:1057A00070B504462DED028B4D1E00EBC500B0EE2A
:1057B000408AF0EE608A90ED000B35F0060017D0BD
:1057C00053EC182B51EC100B00F064FB41EC100B68
:1057D0006D1E04EBC50090ED001B51EC100B53EC5B
:1057E000112B00F09BF841EC100B35F00600E7D1CF
:1057F000022D36D0042D1CD0062D1CBFBDEC028B13
:1058000070BD53EC182B51EC100B00F043FB94EDE2
:105810000A1B53EC112B00F081F853EC182B00F00D
:1058200039FB94ED080B53EC102B00F077F841ECAA
:10583000100B53EC182B51EC100B00F02BFB94EDDC
:10584000060B53EC102B00F069F853EC182B00F00A
:1058500021FB94ED041B53EC112B00F05FF841EC9D
:10586000100B53EC182B51EC100B00F013FB94EDC4
:10587000020B53EC102B00F051F853EC182B00F0F6
:1058800009FB94ED000B53EC102B00F047F8BDEC36
:10589000028B41EC100B70BD9FED050B10B553EC66
:1058A000102B51EC100B00F0F5FA41EC100B10BD71
:1058B000000000000000001021F00042A2F1605240
:1058C000B2F5801F01F0004328BFD2F17F6C0BD9E5
:1058D0005FEA001C43EAC20242EB507018BF7047F7
:1058E00028BF20F001007047B2F5801FBCBF1846EA
:1058F00070474FEA410C1CF5001F02D2084600F029
:1059000069BD70B500F070FB00000089FFF7F6BFBD
:105910004FF00040A0F580007047000010B591EAFC
:10592000030F48BF83F0004300F1FC83841A71EB3E
:10593000030C05D2121943EB0C03001B61EB0C01A5
:10594000DFF824E14FEA1154A4EB135C1EEA430F85
:1059500018BF9EEA445F73D023EA0E03DCF1200EE9
:1059600021EA045143F4801332D322FA0CFE10EBE7
:105970000E0023FA0CFE41EB0E01CCF1200E03FACF
:105980000EFE10EB0E0051F10001B1F5801FCCF1BD
:10599000200E32D201EB045112FA0EF2BDE8104093
:1059A00058BF7047401C38BF5FEA420218BF7047BB
:1059B000002814BF20F0010041F100014FEA41032B
:1059C00013F5001F38BF7047A1F1C04100F05ABB6A
:1059D000012A43EB0302ACF1200CDCF11F0E32BFB5
:1059E0004FF0000E23FA0CF310EB030041EB0451CF
:1059F000B4EB115FD0D0A1EB045101F5801149083F
:105A00005FEA300001EB04510ED350F1000038BFC3
:105A100012FA0EFE08D1BDE81040C9E7401C38BF9D
:105A20005FEA4202CAD1C3E7BDE810404FEA410332
:105A300013F5001F38BF7047A1F1C04100F022BB31
:105A40009EEA445F08D011EA5E0FBDE8104004BF33
:105A500001F0004100207047BDE8104070B500F033
:105A6000C3FA00BF64FBBE3E0000E0FF491058BF10
:105A7000C1F140415B1058BFC3F140438B42EFF38B
:105A8000008070472DE9C04130B4DFF8A0C23CEA85
:105A9000111418BF3CEA131400F0EC8081EA0305EE
:105AA0001CEA111444EAD57418BF1CEA131500F05F
:105AB000C780A4EB05044FF0004545EAC12145EA43
:105AC000C32341EA505143EA525304F17F7499428F
:105AD00004F500344FEAC0204FEAC22208BF9042CA
