:020000040800F2
:10000000E815002071020008A9040008AB040008EC
:10001000AF040008B3040008B704000800000000A3
:10002000000000000000000000000000BB04000809
:10003000BD04000800000000BF0400088902000899
:100040008B0200088B0200088B0200088B0200085C
:100050008B0200088B0200088B0200088B0200084C
:100060008B0200088B0200088B0200088B0200083C
:100070008B0200088B020008853A00087B390008D3
:100080008B020008F32E0008C10400088B02000850
:100090008B0200088B0200088B0200088B0200080C
:1000A0008B0200088B0200088B0200088B020008FC
:1000B000E704000805050008DB2F00088B02000894
:1000C0008B0200088B0200088B0200088B020008DC
:1000D0008B020008C30400088B0200088B02000892
:1000E0008B0200088B0200088B0200088B020008BC
:1000F0008B0200088B0200080000000000000000D6
:1001000000000000000000008B0200088B020008C5
:1001100000000000000000008B0200088B020008B5
:100120008B0200088B0200088B0200088B0200087B
:100130008B0200088B0200088B0200088B0200086B
:100140008B0200080000000000000000000000001A
:10015000000000000000000000000000000000009F
:1001600000000000000000008B0200088B02000865
:100170008B020008000000008B0200080000000055
:10018000000000008B02000800F002F800F061F8A7
:100190000AA090E8000C82448344AAF10107DA45E2
:1001A00001D100F056F8AFF2090EBAE80F0013F0D3
:1001B000010F18BFFB1A43F001031847687E0000C7
:1001C000887E00000A444FF0000C10F8013B13F049
:1001D000070408BF10F8014B1D1108BF10F8015BA0
:1001E000641E05D010F8016B641E01F8016BF9D193
:1001F00013F0080F1EBF10F8014BAD1C0C1B09D1EA
:100200006D1E58BF01F801CBFAD505E014F8016B5B
:1002100001F8016B6D1EF9D59142D6D370470000ED
:100220000023002400250026103A28BF78C1FBD8FF
:10023000520728BF30C148BF0B607047642907F0E0
:100240005583002070471FB507F093FD1FBD10B503
:1002500010BD07F029FD1146FFF7F5FF00F08AF900
:1002600007F047FD03B4FFF7F2FF03BC07F00EFDF4
:100270000948804709480047FEE7FEE7FEE7FEE73A
:10028000FEE7FEE7FEE7FEE7FEE7FEE70448054976
:10029000054A064B704700008D03000889010008DD
:1002A000E80F0020E8150020E8110020E8110020E8
:1002B0001CB50020019000907248006840F4803026
:1002C0007049086000BF6F48006800F4003000907B
:1002D0000198401C0190009818B90198B0F5A06FE2
:1002E000F1D16848006810F4003F02D0012000906E
:1002F00001E0002000900098012836D102206249D8
:100300000860604840685F49486008464068486047
:100310000846406840F4806048600846406820F421
:100320007C1048600846406840F4E8104860084681
:10033000006840F08070086000BF5248006810F00C
:10034000007FFAD04F48406820F003004D494860D4
:100350000846406840F00200486000BF49484068D5
:1003600000F00C000828F9D10FE04FF4E011002054
:1003700003F055FD012003F060FD02E0022003F0D0
:100380006EFD03F075FD0828F8D11CBD10B53F487F
:10039000006840F470003D4908603A48006840F049
:1003A0000100384908600846406800F47F00486052
:1003B0000846006836490840324908600846006827
:1003C00020F4802008600846406820F4FE00486061
:1003D0000846C06A20F00F00C8620846006B2D492D
:1003E00008402849086300208860FFF761FF4FF04C
:1003F000006026498039086010BD30B5002100201A
:10040000002200231F4C646804F00C0121B1042970
:1004100006D0082925D107E01F4C204D2C6024E090
:100420001D4C1E4D2C6020E0164C646804F47010C6
:10043000144C646804F48032022404EB904022B926
:10044000174C4443154D2C600AE00E4CE46A04F04E
:100450000F04631C104CB4FBF3F444430F4D2C60A9
:1004600003E00D4C0D4D2C6000BF00BF054C6468CF
:10047000C4F303140B4D295D084C2468CC40074D90
:100480002C6030BD001002400020024088ED00E0EA
:10049000FFFFF6FE8C0FFF0F00127A000000002015
:1004A00000093D0004000020704700BFFEE700BFC8
:1004B000FEE700BFFEE700BFFEE7704770477047EA
:1004C000704710B51549164804F02CF9012801D1E0
:1004D00006F014FF1349124804F024F9012801D151
:1004E00006F004FF10BD10B54FF08040008A10F0F8
:1004F000010F06D04FF6FE704FF08041088206F0E3
:1005000043FF10BD10B50121074805F0DBF818B115
:100510000121054805F0E7F810BD000005010500C0
:100520000038014006010600000400400521344A5D
:10053000115434490968344A42F8201070470021A8
:100540002F4A1154304951F820102E4A1268511A7E
:100550002E4A42F82010704700B503462848C05C78
:10056000032803DA1846FFF7E1FF02E01846FFF719
:10057000E6FF00BD38B501F0F7FD02204FF4165339
:10058000002201210090104605F076FF044606F097
:1005900037F8044630E01E480088322804DB00208B
:1005A0001B49088002F03EF919484088012804DB05
:1005B00006F04BF800201649488000F0ADF800EB3B
:1005C000800013498988B1EB400F07DB00201049F8
:1005D000888000F066FB08B101F0A2F80C48C088E2
:1005E00041F28831884207DB00200949C88002F0C7
:1005F00011F908B101F09CFC002CCCD0002038BDD2
:1006000014000020D8060020000800201008002058
:10061000DE06002010B50146002000BF30E000EBF0
:100620004002921D8A5C52B24B79C3EBC30303EBC9
:100630004303FE4C234400EB40041A5500EB4002F8
:10064000D21D8A5C52B24B79C3EBC30303EB430365
:10065000F64C234400EB400423445A7000EB400264
:1006600008328A5C52B24B79C3EBC30303EB4303FA
:10067000EE4C234400EB400423449A70421CD0B259
:100680000728CCDB10BD2DE9F04104460F460526B6
:100690000025242020704E2060703E20A07008208D
:1006A000207100BF2CE0C7EBC70000EB4000DF4922
:1006B000084405EB4501405C05EB450131446054BD
:1006C000C7EBC70000EB4000D849084405EB4501E3
:1006D0000844417805EB45003044401C2154C7EBE9
:1006E000C70000EB4000D149084405EB4501084430
:1006F000817805EB45003044801C2154681CC5B24C
:10070000072DD0DB1536204601F0BBFAA055761C2C
:10071000701CE070BDE8F081C548008D704702464E
:10072000C81C105C0306881C105C43EA0043481C8C
:10073000105C43EA0020535C184370470246535C48
:10074000481C105C43EA0020704710B58854C0F381
:100750000724531CCC54C0F30744931CCC54040E00
:10076000D31CCC5410BD10B588540412531CCC5467
:1007700010BD10B5012001F0E9F9AD480088AD4980
:100780000880AB488088AC490880A9480089AB49FB
:100790000880AB490888A749098802F0A7FEA84944
:1007A0004888A549098802F0A1FEA5498888A3497F
:1007B000098802F09BFE9E4880899E4908809C48DB
:1007C000008A9D4908809A48808A9C4908809C49F3
:1007D000C8889849098802F089FE9949088996498C
:1007E000098802F083FE964948899449098802F0F5
:1007F0007DFE8F48008B8F4908808D48408B8E4945
:1008000008808B48808B8D4908808D49888989496B
:10081000098802F06BFE8A49C8898749098802F075
:1008200065FE8749088A8549098802F05FFE80488D
:10083000C08B804908807E48008C7F4908807C48B6
:10084000408C7E4908807E49488A7A49098802F0AE
:100850004DFE7B49888A7849098802F047FE78492D
:10086000C88A7649098802F041FE7148808C714936
:1008700008806F48008D704908806D48808D6F49F1
:1008800008806F49088B6B49098802F02FFE6C497C
:10089000488B6949098802F029FE6949888B6749B4
:1008A000098802F023FE6248C06B4FF6FF71B0FB6F
:1008B000F1F0604908805E48006C4FF6FF71B0FBB4
:1008C000F1F05D4908805A48406C4FF6FF71B0FB6B
:1008D000F1F05A4908805A49C88B5649098802F0F4
:1008E00005FE5749088C5449098802F0FFFD544918
:1008F000488C5249098802F0F9FD4D48C06B4FF60B
:10090000FF71B0FBF1F201FB12004A490880484830
:10091000006C4FF6FF71B0FBF1F201FB120046498B
:1009200008804348406C4FF6FF71B0FBF1F201FBC9
:100930001200424908804249888C3E49098802F0E9
:10094000D5FD3F49C88C3C49098802F0CFFD3C49A0
:10095000088D3A49098802F0C9FD002001F0F6F837
:1009600010BD3348008B404200EE100AB8EEC00ABA
:10097000344880ED000A2E48408B404200EE100AB9
:10098000B8EEC00A2F4880ED010A2948808B40420A
:1009900000EE100AB8EEC00A2A4880ED020A9FED68
:1009A0002A0A80ED030A2248808B00EE100AB8EE76
:1009B000400A244880ED040A1D48408B00EE100ACE
:1009C000B8EE400A1F4880ED050A1948008B00EE7A
:1009D000100AB8EE400A1B4880ED060A1448C08B86
:1009E000404200EE100AB8EEC00A184880ED000A36
:1009F0000F48008C404200EE100AB8EEC00A1348BF
:100A000080ED010A0A48408C404200EE100AB8EE20
:100A1000C00A0E4880ED020A9FED0B0A80ED030A22
:100A20000348408C00EE100A12E000008500002010
:100A30005408002072020020740200207602002078
:100A40003E020020240000200000000040000020A2
:100A5000B8EE400AFE4880ED040AFE48008C00EE25
:100A6000100AB8EE400AFA4880ED050AF948C08B32
:100A700000EE100AB8EE400AF54880ED060A70470D
:100A800070B50546082421462846FFF757FEF14970
:100A90000860A41C21462846FFF750FEED49486037
:100AA000A41C21462846FFF749FEEA498860A41C99
:100AB00021462846FFF742FEE649C860A41C2146AD
:100AC0002846FFF73BFEE3490861A41CE1B2284633
:100AD000FFF734FEDF494861A41CE1B22846FFF766
:100AE0002DFEDC490883A41CE1B22846FFF726FE50
:100AF000D8494883A41CE1B22846FFF71FFED54918
:100B00008883A41CE1B22846FFF718FED149C883A8
:100B1000A41CE1B22846FFF711FECE490884A41CAC
:100B2000E1B22846FFF70AFECA494884A41CE1B294
:100B30002846FFF703FEC7494862A41CE1B22846D5
:100B4000FFF7FCFDC3490885A41CE1B22846FFF766
:100B5000F5FDC049C862A41CE1B22846FFF7DFFDDD
:100B6000BC49C863241DE1B22846FFF7D8FDB94946
:100B70000864241DE1B22846FFF7D1FDB549486459
:100B8000241DFFF7EEFEFFF7F4FD70BD30B50546FE
:100B900000242246AF49098888B22946FFF7E3FDC1
:100BA000A41C2246AB49898888B22946FFF7DBFDA1
:100BB000A41C2246A749098988B22946FFF7D3FD1C
:100BC000A41C2246A349898988B22946FFF7CBFD98
:100BD000A41C22469F49098A88B22946FFF7C3FD13
:100BE000A41C22469B49898A88B22946FFF7BBFD8F
:100BF000A41C22469749088B2946FFF7B4FDA41C84
:100C0000E2B29449488B2946FFF7ADFDA41CE2B23D
:100C10009049888B2946FFF7A6FDA41CE2B28D49B6
:100C2000C88B2946FFF79FFDA41CE2B28949088CB6
:100C30002946FFF798FDA41CE2B28649488C294654
:100C4000FFF791FDA41CE2B28249898C88B2294643
:100C5000FFF789FDA41CE2B27E49088D2946FFF703
:100C600082FDA41CE2B27B49898D88B22946FFF738
:100C70007AFDA41CE2B27749C86B2946FFF765FDEF
:100C8000241DE2B27349086C2946FFF75EFD241D5E
:100C9000E2B27049486C2946FFF757FD241DE0B2C7
:100CA00030BD6D480078704770B505460024214678
:100CB0002846FFF743FD69490880A41C21462846C1
:100CC000FFF73CFD064602F041F8A41CFFF7E9FFE0
:100CD00030B9E1B22846FFF722FD064602F0C3F81C
:100CE00070BD70B505462A24224629465B48008817
:100CF000FFF739FDA41C2246294659480068FFF732
:100D000024FD241D012001F04DFFF2EE040A20EE27
:100D1000200ABCEEC00A10EE100A86B2224629460E
:100D20003046FFF720FDA41C012001F03BFFF2EE4E
:100D3000040A20EE200ABCEEC00A10EE100A86B2A9
:100D4000E2B229463046FFF70EFDA41CE2B2454947
:100D5000D1ED000A9FED441A9FED440A00EE810A8E
:100D6000BCEEC00A10EE101A88B22946FFF7FBFC51
:100D7000A41CE2B23B49D1ED010A9FED3B1A9FED65
:100D80003B0A00EE810ABCEEC00A10EE101A88B2CF
:100D90002946FFF7E8FCA41CE2B23249D1ED020A71
:100DA0009FED311A9FED310A00EE810ABCEEC00AB8
:100DB00010EE101A88B22946FFF7D5FCA41CE2B247
:100DC0002B4908882946FFF7CEFCA41CE2B228492B
:100DD00048882946FFF7C7FCA41CE2B2244988884A
:100DE0002946FFF7C0FCA41CE2B22149C888294665
:100DF000FFF7B9FCA41CE2B21D4908892946FFF798
:100E0000B2FCA41CE2B21A4948892946FFF7ABFCA0
:100E1000A41CE2B2174908682946FFF796FC241D76
:100E2000E2B2144948682946FFF78FFC241DE2B25C
:100E3000104988682946FFF788FC241DE2B20D4955
:100E4000C8682946FFF781FC241D601CC0B270BD34
:100E500040000020540800201B0000207C020020DD
:100E6000780200202C08002000007A4400401C4634
:100E700020080020100800200146002901DD084656
:100E800000E0484280B270470022FE4B1A700229EF
:100E900001D003292FD1FC4A127862BB18B1012876
:100EA00001D0022810D1F94A1278521C52B2F74BE5
:100EB0001A701A4692F900200A2A05DBFF22F14B2C
:100EC0001A700122F04B1A70032803D0042801D0B5
:100ED000052813D1ED4A1278521C52B2EB4B1A700E
:100EE0001A4692F900200A2A08DB0122E54B1A7003
:100EF000E54B1A7002E00022E44B1A70022904D07C
:100F0000032902D00022E04B1A7070472DE9F04708
:100F10002DED028B04460D464FF00009CA46DC4811
:100F2000D0ED000A00EE105AB8EEC00AF4EEC00A86
:100F3000F1EE10FA06DD0027B7EE000AD54880ED85
:100F4000000A0DE1D248D0ED000A00EE105AB8EECA
:100F5000C00AF4EEC00AF1EE10FA1FD8D0ED010A73
:100F600000EE105AB8EEC00AF4EEC00AF1EE10FA24
:100F700014DD002790ED010AD0ED000A70EE600A42
:100F800090ED011A00EE105AB8EEC00A31EE400A98
:100F900080EE201ABF4880ED001AE1E0BC48D0ED99
:100FA000010A00EE105AB8EEC00AF4EEC00AF1EEE3
:100FB00010FA1FD8D0ED020A00EE105AB8EEC00A9F
:100FC000F4EEC00AF1EE10FA14DD012790ED020AEA
:100FD000D0ED010A70EE600A90ED021A00EE105A90
:100FE000B8EEC00A31EE400A80EE201AA94880ED22
:100FF000001AB5E0A648D0ED020A00EE105AB8EE8D
:10100000C00AF4EEC00AF1EE10FA1FD8D0ED030AC0
:1010100000EE105AB8EEC00AF4EEC00AF1EE10FA73
:1010200014DD022790ED030AD0ED020A70EE600A8B
:1010300090ED031A00EE105AB8EEC00A31EE400AE5
:1010400080EE201A934880ED001A89E09048D0ED98
:10105000030A00EE105AB8EEC00AF4EEC00AF1EE30
:1010600010FA1FD8D0ED040A00EE105AB8EEC00AEC
:10107000F4EEC00AF1EE10FA14DD032790ED040A35
:10108000D0ED030A70EE600A90ED041A00EE105ADB
:10109000B8EEC00A31EE400A80EE201A7D4880ED9D
:1010A000001A5DE07A48D0ED040A00EE105AB8EE5E
:1010B000C00AF4EEC00AF1EE10FA1FD8D0ED050A0E
:1010C00000EE105AB8EEC00AF4EEC00AF1EE10FAC3
:1010D00014DD042790ED050AD0ED040A70EE600AD5
:1010E00090ED051A00EE105AB8EEC00A31EE400A33
:1010F00080EE201A674880ED001A31E06448D0ED98
:10110000050A00EE105AB8EEC00AF4EEC00AF1EE7D
:1011100010FA1FD8D0ED060A00EE105AB8EEC00A39
:10112000F4EEC00AF1EE10FA14DD052790ED060A80
:10113000D0ED050A70EE600A90ED061A00EE105A26
:10114000B8EEC00A31EE400A80EE201A514880ED18
:10115000001A05E005279FED500A4E4880ED000A71
:101160004C4890ED000AF7EE000A30EEC00A80ED20
:10117000010A4A48D0ED000A00EE104AB8EEC00A53
:10118000F4EEC00AF1EE10FA06DD0026B7EE000A12
:10119000434880ED000A1FE14048D0ED000A00EE10
:1011A000104AB8EEC00AF4EEC00AF1EE10FA1FD8E9
:1011B000D0ED010A00EE104AB8EEC00AF4EEC00A03
:1011C000F1EE10FA14DD002690ED010AD0ED000AD0
:1011D00070EE600A90ED011A00EE104AB8EEC00AF7
:1011E00031EE400A80EE201A2D4880ED001AF3E01F
:1011F0002A48D0ED010A00EE104AB8EEC00AF4EE1B
:10120000C00AF1EE10FA1FD8D0ED020A00EE104A23
:10121000B8EEC00AF4EEC00AF1EE10FA14DD0126B1
:1012200090ED020AD0ED010A70EE600A90ED021A0C
:1012300000EE104AB8EEC00A31EE400A80EE201AE5
:10124000174880ED001AC7E01448D0ED020A00EEFE
:10125000104AB8EEC00AF4EEC00AF1EE10FA31D826
:10126000D0ED030A00EE104AB8EEC00AF4EEC00A50
:10127000F1EE10FA26DD022690ED030AD0ED020A07
:1012800010E000006C0000206E0000206D000020C7
:101290004000002064000020000000002400002026
:1012A0005C00002070EE600A90ED031A00EE104A18
:1012B000B8EEC00A31EE400A80EE201AFE4880EDFA
:1012C000001A89E0FD48D0ED030A00EE104AB8EE9E
:1012D000C00AF4EEC00AF1EE10FA1FD8D0ED040AED
:1012E00000EE104AB8EEC00AF4EEC00AF1EE10FAB1
:1012F00014DD032690ED040AD0ED030A70EE600AB7
:1013000090ED041A00EE104AB8EEC00A31EE400A21
:1013100080EE201AE84880ED001A5DE0E748D0ED45
:10132000040A00EE104AB8EEC00AF4EEC00AF1EE6C
:1013300010FA1FD8D0ED050A00EE104AB8EEC00A28
:10134000F4EEC00AF1EE10FA14DD042690ED050A61
:10135000D0ED040A70EE600A90ED051A00EE104A16
:10136000B8EEC00A31EE400A80EE201AD24880ED75
:10137000001A31E0D148D0ED050A00EE104AB8EE6F
:10138000C00AF4EEC00AF1EE10FA1FD8D0ED060A3A
:1013900000EE104AB8EEC00AF4EEC00AF1EE10FA00
:1013A00014DD052690ED060AD0ED050A70EE600A00
:1013B00090ED061A00EE104AB8EEC00A31EE400A6F
:1013C00080EE201ABC4880ED001A05E005261FEDCE
:1013D0004E0AB94880ED000AB74890ED000AF7EED2
:1013E000000A30EEC00A80ED010A4FF00009A5E0C6
:1013F0001C21B34806F05BFBC7EBC70000EB4000C5
:10140000B049084406EB4601084410F80980AC488E
:1014100000EB880090ED000AA748D0ED000AAA482A
:1014200090ED001A00EE810AA54800EB880080EDDF
:10143000000A781CC0EBC00000EB4000A149084442
:1014400006EB4601084410F809809D4800EB88002F
:1014500090ED000A9848D0ED000A9B4890ED011AE3
:1014600000EE810A964800EB880080ED000AC7EB89
:10147000C70000EB400093490144701C00EB4000A2
:10148000084410F809808E4800EB880090ED000AAF
:101490008948D0ED010A8C4890ED001A00EE810ACF
:1014A000874800EB880080ED000A781CC0EBC00084
:1014B00000EB400083490144701C00EB40000844ED
:1014C00010F809807E4800EB880090ED000A7A4809
:1014D000D0ED010A7C4890ED011A00EE810A7848AF
:1014E00000EB880080ED000A1FED958A4FF0000A9E
:1014F00018E0734800EB8A00D0ED000AC9EBC90080
:101500007249084410F90A0000EE100AB8EEC01A39
:10151000B0EE480A00EE810AB0EE408A0AF10100FE
:1015200000F0FF0ABAF1070FE3DB694800EB89001E
:1015300080ED008A09F1010000F0FF09B9F1030F05
:10154000FFF656AF63480681478139463046FFF7BC
:101550009BFCBDEC028BBDE8F08770B55E4800785F
:1015600001F020FBBDEEC00A10EE106A5B48008857
:10157000841B5B48008E201A01B220B2FFF7C6FC24
:101580002046FFF779FC5649C96A884201DA0025EE
:101590006DE0544890F9000042F2107108444D4942
:1015A000088042F2107020444D49098E401A494982
:1015B000488042F210702044888042F2107020442B
:1015C0004749096B022202FB11004549898E0844F4
:1015D0004049C880424890ED000AB8EEC00A3C4835
:1015E00090ED001A3E48D0ED030AF8EEE00A01EE55
:1015F000200A006B201A00EE900AF8EEE00A20EEB6
:10160000201A374890ED010AF8EEC00A3048D0EDB4
:10161000011A334890ED040AB8EEC00A41EE800A80
:1016200000EE104AF8EEC01AB0EE410A00EEA10A30
:10163000D0ED020AF8EEE00A2548D0ED021A28485B
:1016400090ED051AB8EEC11A41EE810A006B022135
:1016500001FB10402249496B084401EE100AB8EE24
:10166000C11A00EE810ABDEEC00A10EE105A1E48E3
:1016700028441E49C8601A48006B19494863084647
:101680000463002D0BDD012019490870194800780A
:10169000012801D118490870002016490870002D52
:1016A0002EDA01201349087011480078012801D171
:1016B00011490870002021E05C0000202400002077
:1016C0003808002085000020640000207000002001
:1016D0002C08002020080020190000207C02002097
:1016E000540800206C000020A08601001008002093
:1016F0001F000020200000206F000020FB49087020
:10170000642095FBF0F0FA49496AFA4A92F9002000
:1017100002FB0100F84909680844F749086070BDF8
:1017200010B5FFF71AFFF248C06BF3490968884209
:1017300003D2EF48C06BF0490860ED48006CEE49F9
:101740000968884203D9EA48006CEB490860EA4816
:10175000006801F088FB10BD70B50546E7480078C9
:101760000A2190FBF1F201FB1200C4B20026E4480A
:1017700040F82450E3480078401CE24908702CB936
:10178000DF48406A2E1A0A20087004E0601EDC4917
:1017900051F820002E1A002E05DAA5F59850883849
:1017A000D74941F82400E01E002800DC00E0A01D1D
:1017B000D34951F82000D04908600846006801F07C
:1017C00052FB70BD10B54821C94806F070F964207D
:1017D000C749086096204860322088602120C86090
:1017E0003221C3480161112141614FF4FA60C049BF
:1017F00008834FF44871BE484183142181834FF41C
:101800009670BB49C8836421B94801840A21418488
:1018100047F23050B6494862642008850520C86206
:10182000B948C8636420086441F288304864FEF710
:10183000A0FF10BD10B5B5490888B54901F0B4FC4A
:10184000B2494888B34901F0AFFCB0498888B24931
:1018500001F0AAFCAE48008800EE100AB8EE400A7B
:10186000BDEEC00AA24880ED000AAA48008800EE3A
:10187000100AB8EE400ABDEEC00A9D4880ED010A8C
:10188000A548008800EE100AB8EE400ABDEEC00A76
:10189000974880ED020A9D49C8889D4901F084FC63
:1018A0009A4908899B4901F07FFC984948899A49DF
:1018B00001F07AFC9648008800EE100AB8EE400A63
:1018C000BDEEC00A8A4880ED030A9248008800EE07
:1018D000100AB8EE400ABDEEC00A854880ED040A41
:1018E0008D48008800EE100AB8EE400ABDEEC00A2E
:1018F0007F4880ED050A85498889854901F054FCB7
:101900008249C889834901F04FFC8049088A82498D
:1019100001F04AFC7E48008800EE100AB8EE400A4A
:10192000BCEEC00A10EE100A71490883794800889D
:1019300000EE100AB8EE400ABCEEC00A10EE100A23
:1019400081B26B4841837448008800EE100AB8EEFB
:10195000400ABCEEC00A10EE100A81B264488183CE
:101960006A49488A6A4901F01FFC6849888A6949BE
:1019700001F01AFC6549C88A674901F015FC644802
:10198000008800EE100AB8EE400ABCEEC00A10EE65
:10199000100A5749C8835F48008800EE100AB8EE65
:1019A000400ABCEEC00A10EE100A81B25048018411
:1019B0005948008800EE100AB8EE400ABCEEC00A92
:1019C00010EE100A81B24A4841845049088B5049B0
:1019D00001F0EAFB4D49488B4E4901F0E5FB4B49CC
:1019E000888B4D4901F0E0FB494800884049486236
:1019F00048480088088548480088C8624349C88B21
:101A0000434901F0D1FB4149088C424901F0CCFB2C
:101A10003E49488C404901F0C7FB3D480088C0EB77
:101A200000403349C8633B480088C0EB004008646D
:101A300039480088C0EB004048643449888C3449F8
:101A400001F0B2FB3149C88C324901F0ADFB2F499E
:101A5000088D314901F0A8FB2548C06B2C49098845
:101A600008442349C8630846006C2A490988084489
:101A70001F4908640846406C2749098808441C49E6
:101A8000486410BD10B501F0AEFCFFF7D3FE1F494E
:101A9000488D1F4901F088FB1D48008815280CD08F
:101AA000012000F053F81949488D152101F01EFD61
:101AB000002000F04BF8FFF785FE10BD10B504F0D4
:101AC0000AF8FFF7DFFFFEF74CFF10BD10B500204E
:101AD000124908700648006C07490860084600680B
:101AE00001F0C1F900200E49087010BD1F00002050
:101AF000540800206C000020780200201D00002007
:101B00009C0800201C00002020A107003E020020AD
:101B10007202002074020020760200201B000020C8
:101B20006E00002010B500200A4908700A48C06BFA
:101B30000A49086000200A4908700848006801F056
:101B400092F910BD012003490870704780F3108896
:101B5000704700001B00002054080020780200207D
:101B60006E000020014608784A7850408A7850403C
:101B7000CA785040704708B5425C8DF800204A1C76
:101B8000825C8DF801208A1C825C8DF80220CA1CC0
:101B9000825C8DF803209DED000A08BD70B50446F7
:101BA000002500262078242800D070BD60784E28BB
:101BB00000D0FAE7A0783C2800D0F6E70020BD4925
:101BC00008702079022841D003DC48B301284DD1A8
:101BD00031E0032842D00A2848D1B748B749086005
:101BE0004FF4007208460168B54805F0F9FEB448A4
:101BF000B2490860002510E04022B0480168B148B1
:101C000005F0EEFE4021AF4801F042FEAB4800680F
:101C10004030AA490860681CC5B2082DECDB2DE0F5
:101C20002046FFF741F8A8A1A64805F017FEA548F1
:101C300001F02DFE22E02046FEF722FFA8A1A148D8
:101C400005F00CFE9F4801F022FE17E09D48FFF7CB
:101C500048F89C48C17801F01BFE0FE09948FEF758
:101C600095FF9848C17801F013FE07E0A1A19548BF
:101C700005F0F4FD934801F00AFE00BF00BF00BF6D
:101C800093E710B501460020CB78002204E0D41C75
:101C90000C5D6040541CE2B29C1CA242F7DB10BDFC
:101CA000704700B5014600221012FFF7F9FFC8B2D5
:101CB000FFF7F6FF00BD30B50146002905DA2D20FB
:101CC000FFF7EEFF484241B202E02020FFF7E8FFB5
:101CD000642091FBF0F0C2B2642091FBF0F500FBB0
:101CE00015100A2590FBF5F0C3B20A2091FBF0F520
:101CF00000FB1510C4B202F13005E8B2FFF7D0FFC7
:101D000003F13005E8B2FFF7CBFF04F13005E8B28C
:101D1000FFF7C6FF30BD30B50146642091FBF0F0FF
:101D2000C2B2642091FBF0F500FB15100A2590FB70
:101D3000F5F0C3B20A2091FBF0F500FB1510C4B218
:101D400002F13005E8B2FFF7ABFF03F13005E8B26E
:101D5000FFF7A6FF04F13005E8B2FFF7A1FF30BDA1
:101D6000F0B50146002905DA2D20FFF799FF48421A
:101D700001B202E02020FFF793FF6C4891FBF0F7DF
:101D800000FB171042F2107790FBF7F0C2B2384612
:101D900091FBF0F700FB17104FF47A7790FBF7F008
:101DA000C3B2384691FBF0F700FB1710642790FB95
:101DB000F7F0C4B2642091FBF0F700FB17100A277C
:101DC00090FBF7F0C5B20A2091FBF0F700FB17106B
:101DD000C6B202F13007F8B2FFF762FF03F1300735
:101DE000F8B2FFF75DFF04F13007F8B2FFF758FFD4
:101DF00005F13007F8B2FFF753FF06F13007F8B2EC
:101E0000FFF74EFFF0BDF0B50146484891FBF0F7F3
:101E100000FB171042F2107790FBF7F0C2B2384681
:101E200091FBF0F700FB17104FF47A7790FBF7F077
:101E3000C3B2384691FBF0F700FB1710642790FB04
:101E4000F7F0C4B2642091FBF0F700FB17100A27EB
:101E500090FBF7F0C5B20A2091FBF0F700FB1710DA
:101E6000C6B22020FFF71CFF02F13007F8B2FFF7DF
:101E700017FF03F13007F8B2FFF712FF04F1300744
:101E8000F8B2FFF70DFF05F13007F8B2FFF708FFD2
:101E900006F13007F8B2FFF703FFF0BD00B50246C8
:101EA000114603E00878FFF7FBFE491C087800287C
:101EB000F8D100BDF40600201A0B0020800200209B
:101EC000C4080020A20B00205365745F52756E6E2B
:101ED000696E675F506172616D3A4F4B0A00000096
:101EE0005365745F5049445F506172616D3A4F4B66
:101EF0000A000000756E6B6E6F7720636D6420754D
:101F00006E6B6E6F7720636D6420756E6B6E6F778E
:101F100020636D6420756E6B6E6F7720636D642037
:101F2000756E6B6E6F7720636D640A00A08601008A
:101F300010B5022000F033FCABA001F0A8FC10BDEE
:101F400008B54FF4A06003F0A9FC25208DF800002F
:101F500000208DF801008DF8020001208DF80300AB
:101F6000684603F0A0FC1E208DF8000001208DF8CB
:101F7000010000208DF8020001208DF80300684662
:101F800003F091FC1C208DF8000002208DF8010068
:101F900000208DF8020001208DF80300684603F050
:101FA00082FC11208DF8000003208DF80100002034
:101FB0008DF8020001208DF80300684603F073FCE1
:101FC00008BD1CB54FF44070009003208DF804004C
:101FD00000208DF807006946884801F0DAFD4FF4CB
:101FE0000050009000208DF8040003208DF80500BB
:101FF00001208DF8070069464FF0904001F0C9FDBF
:102000004FF48070009001208DF8040000208DF8BE
:10201000060001208DF8070003208DF805006946B1
:102020004FF0904001F0B5FD0820009002208DF89F
:10203000040003208DF8050000208DF80700694694
:102040006F4801F0A6FD012203216D4801F028FE32
:102050000E20009001208DF8050002208DF804006C
:1020600000208DF8060001208DF8070069464FF02A
:10207000904001F08EFD062201214FF0904001F0CA
:102080000FFE062202214FF0904001F009FE0622C9
:1020900003214FF0904001F003FE1020009001203A
:1020A0008DF805008DF8040000208DF80600012051
:1020B0008DF8070069464FF0904001F06AFD4FF43B
:1020C000C060009002208DF8040000208DF806000A
:1020D00001208DF8070003208DF8050069464FF0B8
:1020E000904001F056FD4FF48070009001208DF873
:1020F000040000208DF8060001208DF80700032061
:102100008DF8050069463F4801F043FD072209218B
:10211000C80601F0C5FD07220A214FF0904001F0EA
:10212000BFFD1CBD10B50121480402F041F801219A
:10213000880402F03DF80121080502F039F8012178
:10214000480502F035F80121084602F031F8012176
:10215000084602F047F80121C80302F043F80121C4
:10216000880302F032F810BD00B58DB0FFF7DAFF3A
:10217000FFF727FFFFF7E4FE00F05CFA00F0CAFA71
:1021800000F0E6FA20A001F082FB00F01EFB22A086
:1021900001F07DFB00F00EFF23A001F078FB00F0C2
:1021A0005AFE25A001F073FBFFF788FC26A001F082
:1021B0006EFB00F0BAFD28A001F069FB01F052FAB5
:1021C00029A001F064FB01A801F0D3FE2AA1304848
:1021D000029A05F043FB2E4801F059FB01202D49DE
:1021E00008700DB000BD0000303A094F6E526573A3
:1021F0006574466C6F77446F776E0A000010004874
:1022000000040048000C0048313A09525334383574
:102210005F496E69740A0000323A094B45595F49BB
:102220006E69740A00000000333A0954494D345F66
:10223000496E69740A000000343A0950574D5F49ED
:102240006E69740A00000000353A095049445F493C
:102250006E69740A00000000363A094144435F4940
:102260006E69740A00000000373A09414435373678
:10227000315F496E69740A000A2A2A2A436C6F6327
:102280006B73467265712A2A2A5B25645D0A000019
:10229000A20B0020840200202DE9F0430346002019
:1022A000DC4D00260227DFF87083B8F800C0A1F1EA
:1022B00001081FFA88F1B1421FDB01EB020806EBAF
:1022C0000709C84519DCA1EB0C081FFA88F411E0D6
:1022D00035F814804FEA282803F8018B15F814808C
:1022E00003F8018B04F101081FFA88F4A2F1010838
:1022F0001FFA88F2002AEBDC00E00120BDE8F08341
:10230000F0B502460020C34D00240226DFF808C3C2
:10231000BCF80070A2F1010C1FFA8CF2A2420ADB99
:1023200004EB060C944506DBA2EB070C1FFA8CF3BA
:1023300025F8131000E00120F0BD2DE9FC5F0446F4
:102340000D461746994600200190DFF8D08282465C
:102350004FF02B0BB24800880090681E85B255459F
:1023600048DBE8190AEB0B01884243DC0098281A85
:1023700086B2B9F1000F03D0B9F1010F39D11AE0DB
:10238000152D02DA4046FEF701FC152D02DB404612
:10239000FEF7A7FC0CE038F81600001204F8010B59
:1023A00018F8160004F8010B701C86B2781E87B26C
:1023B000002FF0DC1DE00FE014F8011B080228F8E4
:1023C000160014F8010B38F81610084328F8160008
:1023D000701C86B2781E87B2002FEDDC152D02DA54
:1023E0004046FEF74DFB152D02DB4046FEF75CFC38
:1023F00000BF01E0012001900198BDE8FC9F2DE99C
:10240000F04F85B005460E4614469B4600200490CA
:1024100082462046E11704EB5171C910491C1FFA8E
:1024200081F8DFF8009200200290032001907E489E
:1024300000880090701E86B20298864276DB3219C0
:10244000DDE90110084482427EDC0099711A88B2ED
:10245000C11700EB5171CF100099711A88B2C117E2
:1024600000EB5171C910A0EBC10189B20391BBF11E
:10247000000F03D0BBF1010F65D126E00EE0394615
:102480007A1C97B201EB09000822039904F096FC2C
:1024900005F8010BA8F101001FFA80F8B8F1000F50
:1024A000EDDC6D1E2046E11704EB5171C910A4EB61
:1024B000C1018CB22878C4F10801884028702878BE
:1024C000C4F10801084128703DE00EE015F8013B19
:1024D00039467A1C97B201EB09000822039904F0EF
:1024E00039FCA8F101001FFA80F8B8F1010FEDDC0A
:1024F0002046E11704EB5171C910A4EBC1018CB265
:1025000064B115F8013BE2B2394607F1010C1FFA3C
:102510008CF701EB0900039904F01CFC99F800A06A
:10252000BAF1010F03D1FFF7D1FA0BE00CE0BAF1D9
:10253000020F02D1FFF7F6FA04E0BAF1040F01D15D
:10254000FFF700FB00BF01E001200490049805B0F4
:10255000BDE8F08F2DE9FE4F05460E4614460020DB
:1025600002902046E11704EB5171C910491C1FFA73
:1025700081F92E4801904FF0000A072000902C4866
:10258000B0F800B0701E86B256453DDB3119009898
:102590005044814238DCA6EB0B0188B2C11700EB36
:1025A0005171CF10A6EB0B0188B2C11700EB51712E
:1025B000C910A0EBC1011FFA81F80EE039467A1C60
:1025C00097B2019A88180822414604F0F7FB05F8F3
:1025D000010BA9F101001FFA80F9B9F1000FEDDC40
:1025E0006D1E2046E11704EB5171C910A4EBC10127
:1025F0008CB22878C4F10801884028702878C4F18A
:1026000008010841287001E0012002900298BDE80D
:10261000FE8F0000900200208A020020C40A0020E1
:102620008C0200208F020020880200208E020020F1
:102630008602002010B56FF0040003F07FF92D48EA
:1026400000682D49B0FBF1F02C490870084600786D
:1026500000EB4001C1EBC0104FF6FF7101EAC00072
:102660002749088010BD0146244A12784A434FF09A
:10267000E0235A6100229A611A46126942F001026F
:102680001A6100BF4FF0E022106910F0010F02D074
:1026900010F4803FF6D04FF0E022126922F00102E0
:1026A0004FF0E0231A6100229A6170470146144AF4
:1026B00012884A434FF0E0235A6100229A611A4679
:1026C000126942F001021A6100BF4FF0E022106966
:1026D00010F0010F02D010F4803FF6D04FF0E0224E
:1026E000126922F001024FF0E0231A6100229A6180
:1026F000704700000000002000127A0094020020C1
:102700009602002010B54FF480714FF0904001F018
:10271000BEFA10BD10B5FFF7F5FF10BD10B54FF4B0
:1027200080714FF0904001F0B0FA10BD10B54FF439
:1027300080714FF0904001F09CFAC0F10100C4B2EA
:1027400022464FF480714FF0904001F0A2FA10BD84
:1027500010B500240BE0FFF7E1FFC820FFF7A6FF4C
:10276000FFF7D0FFC820FFF7A1FF601CC4B2032C05
:10277000F1DB00240BE0FFF7D1FF6420FFF796FFA9
:10278000FFF7C0FF6420FFF791FF601CC4B2032C69
:10279000F1DBFFF7B7FF6420FFF788FF10BD70B5CE
:1027A0000446002500BF0BE0FFF7B8FFC820FFF785
:1027B0007DFFFFF7A7FFC820FFF778FF681CC5B2B1
:1027C000A542F1DBFFF79EFF70BD10B54FF400513D
:1027D0004FF0904001F059FA10BD70B504460D4617
:1027E0002946204601F039FA90B90A20FFF75EFF2A
:1027F0002946204601F031FA40B900BF294620465B
:1028000001F02BFA0028F9D0012070BD0020FCE770
:102810000020FAE710B54FF400514FF09040FFF759
:10282000DCFF10BD70B5002400250020FA490860C7
:10283000486000BF13E0F84801686000401CF74A98
:1028400032F910000844F449086008464168600005
:1028500032F910000844F0494860601C84B2082C2A
:10286000E9DBED480068C01005B205F5004000EE58
:10287000100AB8EEC00ADFEDEA0A20EE200A9FED4A
:10288000E91AC0EE010AB0EE000A20EE800AE6481E
:1028900080ED000AE0484068C01005B205F5004030
:1028A00000EE100AB8EEC00ADFEDDD0A60EE200A85
:1028B0009FEDDC1A80EE810AF0EE000A20EE200A7D
:1028C000D94880ED010A90ED000AF2EE040A20EEEC
:1028D000200ABCEEC00A10EE100A81B20020FFF7F9
:1028E0000FFDD14890ED010AF2EE040A20EE200A15
:1028F000BCEEC00A10EE100A81B20120FFF700FD05
:1029000070BD10B500200021C84AB2F90020521C49
:102910000A2392FBF3F403FB142212B2C34B1A8076
:10292000C34A1388C34AC14CB4F9004022F814309A
:10293000BF4A1288C04BBD4CB4F9004023F81420A4
:102940000022B54B1A605A6000BF11E0B24A12680B
:10295000BA4B33F910301A44AF4B1A601A4652681A
:10296000B74B33F910301A44AB4B5A60421C90B24B
:102970000A28EBDBAF4AAD4BB3F9003032F9132034
:10298000AC4BB04CB4F9004033F914309A4205DD39
:10299000A64AB2F90020AB4B1A8012E0A54AA34B1D
:1029A000B3F9003032F91320A24BA74CB4F9004020
:1029B00033F914309A4204DA9C4AB2F90020A24B4F
:1029C0001A809D4A994BB3F9003032F913209A4B83
:1029D0009E4CB4F9004033F914309A4205DD934A15
:1029E000B2F90020994B1A8011E0934A8F4BB3F94A
:1029F000003032F91330964CB4F9004032F914200B
:102A0000934204DA894AB2F90020914B1A80874A2E
:102A1000B2F900208B4BB3F900309A4214D1002058
:102A20000FE0844A32F91020824B864CB4F9004002
:102A300033F914309A4202DD02B2824B1A80421CF2
:102A400090B20A28EDDB1BE0784AB2F900207E4BF9
:102A5000B3F900309A4213D100200FE0754A32F9E1
:102A60001020744B784CB4F9004033F914309A427A
:102A700002DA02B2744B1A80421C90B20A28EDDBD3
:102A80006A4AB2F90020714BB3F900309A4214D16E
:102A900000200FE0684A32F91020674B6B4CB4F904
:102AA000004033F914309A4202DD02B2674B1A80BB
:102AB000421C90B20A28EDDB1BE05C4AB2F9002010
:102AC000634BB3F900309A4213D100200FE05A4A09
:102AD00032F91020584B5E4CB4F9004033F91430F1
:102AE0009A4202DA02B25A4B1A80421C90B20A2869
:102AF000EDDB494A12684F4B534CB4F9004033F9AF
:102B00001430D31A4B4A4F4CB4F9004032F9142018
:102B10009A1A414B1A601A465268474B4C4CB4F90A
:102B2000004033F91430D21A434B484CB4F90040FA
:102B300033F91430D21A384B5A601A461268C2F36D
:102B4000CF0211B201F5004200EE102AB8EEC00A21
:102B5000DFED330A60EE200A9FED321A80EE810A23
:102B6000F0EE000A20EE200A2F4A82ED000A1A46F3
:102B70005268C2F3CF0211B201F5004200EE102AF2
:102B8000B8EEC00ADFED260A60EE200A9FED251A96
:102B900080EE810AF0EE000A20EE200A224A82ED41
:102BA000010A10BD18B9204991ED000A70471E496D
:102BB00091ED010AFAE710B590B000240121080652
:102BC00001F003FB0121080701F00CFB0121480281
:102BD00002F0F9FE4FF0784001F076F94FF44070C2
:102BE00001F078FF0520FFF761FD0121194801F090
:102BF00050FF0121174801F057FF1E2400BF4FF07E
:102C00000041144802F032F810B9601E0400F6D1F9
:102C100014BB012010B010BDC40200201A0B00200C
:102C200000E0324500FF7F47BC020020AC020020DC
:102C3000B60200209A0200209E0200203A0B0020DB
:102C40004E0B0020AE020020B0020020B202002095
:102C5000B4020020006001404FF040600C90002062
:102C60000D900E900F900CAA0021324801F0EDFE5D
:102C7000002231492F4801F0FDFE00222F492D4846
:102C800001F0F8FE2E492B4801F06BFF0121294885
:102C900001F075FF0021274801F006FF00212548BB
:102CA00001F020FF234801F024FF4FF4F03400BF6F
:102CB0000121204801F0DAFF10B9601E0400F7D1AD
:102CC00014B9022010B010BD1A4801F045FF0121CF
:102CD000022001F06DFA1B4801F052FD15486030EA
:102CE000019019480290002003901020ADF81000C8
:102CF00000200590802006904000079080000890FA
:102D00002020099000020A9000200B9001A90D4894
:102D100001F0D8FD01210B4801F0FFFD0122110453
:102D2000044801F091FF0020CCE710B5FFF743FF06
:102D300010BD000000600140000108008000070095
:102D400080010F00300402401A0B002010B588B03B
:102D5000044600214FF0804002F0EEF80694002077
:102D6000ADF81400ADF81C00ADF8160005A94FF041
:102D7000804002F055F86020ADF800000120ADF869
:102D8000020000200290ADF80C0069464FF0804030
:102D900002F045F90821C80602F051FA012188071E
:102DA00002F0ACF80121880702F0C6F801221102F6
:102DB000880502F0A0FC01229102080502F09BFCAC
:102DC0000121880702F0E0F808B010BD00B58BB013
:102DD0005B4801F0D5FC684601F092FD594800902F
:102DE000594801901020029058480078ADF80C0026
:102DF00000200490802005908000069080000790BD
:102E0000202008900002099000200A9069464C4852
:102E100001F058FD4FF0007001F0ADFD4FF0806003
:102E200001F0A9FD4FF0006001F0A5FD0122022193
:102E3000434801F084FD01220421414801F07FFD57
:102E4000012208213E4801F07AFD01213C4801F0B1
:102E500064FD0BB000BD10B5FFF7B8FF4FF6FF7073
:102E6000FFF774FF10BD0146C1F34F12384B1A80B3
:102E700001F01F02374B1A7000200EE0364A354B26
:102E80001B7802EB4312125C314B1B881A4492B23E
:102E9000324B43F82020421CD0B22028EEDB002227
:102EA0002F4B1A702F4B1A707047002000BF07E09D
:102EB0002A4951F82010244A42F82010411CC8B277
:102EC0002028F5DB0121264A11707047002000BF41
:102ED00009E0224951F820201B4B00F1200143F862
:102EE0002120411CC8B22028F3DB01211D4A1170AA
:102EF000704710B54FF0007001F048FD40B14FF041
:102F0000007001F056FD1748007808B9FFF7DEFFA2
:102F10004FF0806001F03AFD40B14FF0806001F069
:102F200048FD0F48007808B9FFF7BFFF4FF0006079
:102F300001F02CFD18B14FF0006001F03AFD10BD1A
:102F40008000024038000040640C0020CC060020C5
:102F5000D0060020D2060020CC020020E40B002086
:102F6000CD060020CE0600203EB5044601210420F7
:102F700001F038F964200190A0B2ADF80000002003
:102F8000ADF80800ADF8020069462B4801F048FF93
:102F90000121294802F093FB01221146264802F044
:102FA0007AFB0121244801F0C7FF0021042001F031
:102FB00019F93EBD10B54720FFF7D6FF01210420C7
:102FC00001F010F910BD10B504462046FFF7CCFF04
:102FD0000121042001F006F910BD174810300088C7
:102FE00010F0010F25D04FF6FE7013491031088004
:102FF0001248007800B9704711480068401C104919
:10300000086000200F4908700FE00F480D4909784B
:1030100030F81100401C0C490A4A127821F81200BD
:1030200008480078401C07490870064800780428C2
:10303000EBDB00BFDFE70000000800408402002057
:10304000D8060020DC060020DE060020034606210C
:103050000622FA480188FA480288A3B1012B1AD146
:1030600032B9A1F56E40EE3800D170470120FCE77F
:1030700039B9A2F56E40EE3801D10120F5E7002004
:10308000F3E7AB20F1E709B90020EEE70AB9012028
:10309000EBE7AB20E9E70020E7E770B50426002462
:1030A0000120FFF7D3FF0446AB2C06D1E34800EB29
:1030B000C420E4490860AB2070BDE04800EBC420A8
:1030C000E0490860601CDD49891E01EBC0250CE069
:1030D000DC4800680068401C02D104263046EBE75B
:1030E000D8480068001DD7490860D6480068A84243
:1030F000EED38020E0E710B50424D04802F028FD8C
:103100000446042C01D0204610BD0021CB4802F01B
:1031100097FD0446042C01D02046F5E7C84802F08C
:1031200017FD04462046EFE72DE9F04104460F461F
:1031300004250026DFF80883A8F101080120FFF725
:1031400085FF0646AB2E01D1BDE8F081701CBB495E
:10315000891E01EBC02821E0BA4800680068401CC5
:1031600017D13946B748006802F06AFD0546042DBC
:1031700001D02846E8E72146B2480068801C02F0EA
:103180005FFD0546AF480068001DAE49086028464F
:10319000DAE7AC480068001DAA490860A948006841
:1031A0004045D9D38020CFE72DE9F04706460F46AA
:1031B000002545F255584FF00109A04CA2460020C9
:1031C000FFF744FF0546AB2D01D1BDE8F0879B48D2
:1031D00000EBC52A9B480068841E0AE0B4F8008012
:1031E000B04505D134F8020C38804FF0000904E0F6
:1031F000241F0AF102008442F0D800BF4846E4E7E9
:103200002DE9F0474FF0060A062600250027A846BC
:103210004FF0FF398948B0F800A0894806885FEA76
:103220000A0075D0A0F56E40EE382AD0A0F588507F
:1032300011386ED146B9814802F08AFC0446042C4C
:103240001ED02046BDE8F087A6F56E40EE3810D1BE
:103250007A4802F07DFC0446042C01D02046F1E7B8
:103260000021774802F0ECFC0446042C08D02046EC
:10327000E8E7FFF740FF0446042C01D02046E1E7D1
:10328000AEE086BB002523E06C48801D00886E49B7
:1032900031F81510884201D10FFA85F94D4515D046
:1032A000694931F815006949FFF77EFF8046B8F19A
:1032B000010F0BD0644931F8150064490988FFF704
:1032C00033FF0746042F01D03846BBE7681C85B2A0
:1032D0001A2DD9DB0021594802F0B2FC0446042C17
:1032E00002D02046AEE707E0554802F031FC044624
:1032F000042C1FD02046A5E7A6F57F40FF3812D149
:103300004F4802F025FC0446042C03D0204699E7E0
:1033100011E05DE00021494802F092FC0446042CD3
:1033200008D020468EE7FFF7E6FE0446042C01D0C5
:10333000204687E754E036B9FFF7DDFE0446042C4B
:1033400045D020467EE7A6F57F40FF3807D13C48B0
:1033500002F0FEFB0446042C39D0204672E700251B
:1033600022E03748C088384931F81510884201D129
:103370000FFA85F94D4515D0334931F81500334919
:10338000FFF712FF8046B8F1010F0BD02E4931F83C
:1033900015002E490988FFF7C7FE0746042F01D004
:1033A00038464FE7681C85B21A2DDADB0021244825
:1033B00002F046FC0446042C01D0204642E71F4898
:1033C00002F0C6FB0446042C01D020463AE707E091
:1033D000FFF791FE0446042C01D0204632E700BFDF
:1033E00000BF04202EE710B5FFF70AFF0446FFF7E1
:1033F00054FE204610BD2DE9F84F074689460425A6
:10340000DFF84CA00D4800904FF000080024002683
:103410004FF0000B0020FFF719FE8046B8F1010FB6
:1034200004D1DFF818A00648009016E0B8F1000FAC
:1034300010D1DFF80CA0014800900EE000E803086E
:1034400000F00308EC0600203E020020E806002001
:10345000FFEB0308AB20BDE8F88F4EF6EE61504657
:1034600002F0EEFB0546042D01D02846F3E7FFF7F6
:1034700014FE49463846FFF757FE0646042E01D093
:103480003046E8E700241CE0214830F81400B84238
:1034900015D01F4931F814001E49FFF785FE8346F9
:1034A000BBF1010F0BD01A4931F8140019490988F2
:1034B000FFF73AFE0646042E01D03046CBE7601CEB
:1034C00084B21A2CE0DB009802F042FB0546042D82
:1034D00001D02846BFE70021504602F0B1FB054667
:1034E000042D01D02846B6E72846B4E770B5054656
:1034F0000E46002431462846FFF716FE0446802C6F
:1035000004D131462846FFF776FF0446204670BDB9
:103510003E020020E806002070B50546002405E0C4
:10352000601CC4B2642C01DD204670BD02217948C4
:1035300002F075FF0028F3D02946764802F00EFF0E
:10354000002405E0601CC4B26E2C01DD2046ECE7CF
:103550000121704802F063FF0028F3D06D4802F0AB
:1035600004FFE2E72DE9F04105460C4610214FF03B
:10357000904000F08CFB0120FFF798F82846FFF7F9
:10358000CBFF0646270A3846FFF7C6FFE7B23846A4
:10359000FFF7C2FF0120FFF789F810214FF090409C
:1035A00000F073FB3046BDE8F08110B504462146BB
:1035B0000320FFF7D7FF10BD2DE9F05F002500269F
:1035C00000274FF001084FF00109AA464FF0030B06
:1035D000680240EA062040EAC71040EA881040EA44
:1035E000491040EACA0040EA0B0421460420FFF7D4
:1035F000B9FFBDE8F09F00B585B00021454802F055
:1036000042FE0020ADF800004FF48270ADF80200D9
:103610004FF4E060ADF804000020ADF80600012092
:10362000ADF808004002ADF80A003020ADF80C00FB
:103630000020ADF80E000720ADF8100010214FF06B
:10364000904000F022FB6946324802F07EFD0121E5
:10365000304802F018FE0E214FF0904000F015FBAC
:1036600005B000BD10B5FFF7C6FFFFF7A5FF0020AE
:10367000FFF79BFF10BD70B505460E4610214FF0B9
:10368000904000F004FB0120FFF710F8002405E053
:10369000285DFFF741FF2855601CC4B2B442F7DB38
:1036A0000120FFF703F810214FF0904000F0EDFAF1
:1036B000002070BD00B591B000210C20FFF752FF33
:1036C00000208DF80400032101A8FFF7D4FF9DF826
:1036D000060000909DF805309DF804200EA101A879
:1036E00004F0BCF801A800F0D2F811B000BD10B58C
:1036F0000446084800884FF6C7710840054908800D
:1037000008460088204308800121024802F0BBFDE2
:1037100010BD0000003C00405350495F5265636992
:10372000657665446174615B2564202564202564A9
:10373000205D0A0030B58BB005460C460120E349F8
:103740000870402C00D9402404B901240021E0482D
:1037500001F0E3F84FF4003001F00DF94FF40020D0
:1037600001F009F900220221D94801F0E8F800220D
:103770000821D74801F0E3F800224021D54800F0A5
:1037800087FFD44824300090019500200290A0B219
:10379000ADF80C00002004908020059000200690D9
:1037A000079008904FF40050099000200A90C848F4
:1037B00000F0E6FF6946C64801F084F801220221C4
:1037C000C34801F0BCF801220821C14801F0B7F854
:1037D0004FF4002001F0CFF84FF4003001F0CBF8A7
:1037E00001224021BB4800F053FF0121B84801F0FD
:1037F00094F80BB030BD10B586B004460021B54832
:1038000000F0F8FD009400200190029003900590D4
:103810000C200490AF4800F041FD6946AD4800F02F
:1038200066FD0121AB4800F0E5FD06B010BD10B506
:1038300004462046FFF7DFFF0121A748FFF77AFF84
:1038400010BDA648A649086008460068704770B5D4
:103850000446A448007858B9FFF7F3FF0546E0781E
:10386000021D2146284604F0BBF801209D4908703E
:1038700070BD10B59B480078012807D1FFF7E1FF24
:103880000446FEF78BF900209649087010BD70477A
:1038900030B58BB005460C460CB90BB030BD402C92
:1038A00000D9402400BF904800780128FBD00120B7
:1038B0008D49087000218648143801F02EF8002246
:1038C00002218348143801F03AF800220821804888
:1038D000143801F034F84FF4005001F04CF84FF474
:1038E000004001F048F8002280217A4800F0D0FE24
:1038F000224629467D4804F073F876482830009027
:103900007A48019010200290A0B2ADF80C0000207F
:1039100004908020059000200690079008904FF4B6
:103920000050099000200A906948143800F028FFE0
:1039300069466748143800F0C5FF01220221644837
:10394000143800F0FCFF012208216148143800F00F
:10395000F6FF4FF4005001F00EF84FF4004001F074
:103960000AF8012280215B4800F092FE01215848AC
:10397000143800F0D2FF00BF8FE710B54FF40020DD
:1039800001F004F868B10020504908704FF400209D
:1039900001F00FF800205649087001214E48FFF74A
:1039A000C9FE4FF4003000F0F1FF002869D000207C
:1039B000464908700021464800F0AFFF0022402130
:1039C000444800F065FE00220221414800F0B7FFA4
:1039D0004FF4003000F0EDFF4548007888B93E48CC
:1039E0000078242808D101204149087003213A4871
:1039F000401CFFF79FFE44E001213748FFF79AFE85
:103A00003FE03B48007801281FD1334840784E28DA
:103A100011D1314880783C280DD1022034490870FA
:103A20002D48C07833490870084601782A48001D9F
:103A3000FFF780FE25E000202D4908702648002170
:103A400001600121FFF776FE1BE02948007802287B
:103A500010D12148FFF7FBFE1F48C078011D1E480A
:103A600004F003F800202249087001211A48FFF7EA
:103A700061FE06E000201E49087001211648FFF78C
:103A800059FE10BD10B54FF4005000F07FFF58B143
:103A90004FF4005000F08DFF00210D48143800F065
:103AA0003CFF0020104908704FF4004000F06EFF0A
:103AB00058B14FF4004000F07CFF00210448143856
:103AC00000F02BFF00200849087010BDF20600200E
:103AD0005800024000380140A40D0020E40D0020F1
:103AE000F8060020F1060020F3060020640D0020F7
:103AF000F0060020F606002010B50446B4F1904F01
:103B000009D10121480400F07AFB00214FF4003074
:103B100000F075FB3CE07448844208D101210002AA
:103B200000F06DFB0021200200F069FB30E06F48DF
:103B3000844208D10121000200F061FB0021200233
:103B400000F05DFB24E06A48844209D101210805A8
:103B500000F055FB00214FF4801000F050FB17E0FF
:103B60006448844208D10121400200F048FB002152
:103B7000600200F044FB0BE05F48844208D1012161
:103B8000880500F03CFB00214FF4800000F037FB7B
:103B900010BDF0B50A4600210023002400BF3DE01F
:103BA000012505FA01F3156805EA03049C4234D1A6
:103BB0001579012D02D01579022D16D185684F0097
:103BC0000326BE40B543856055794E00B5408668F2
:103BD00035438560868801258D40AE438680868882
:103BE00095798D40ADB22E43868005684F0003263F
:103BF000BE40B543056015794E00B54006683543B3
:103C00000560C5684F000326BE40B543C560D57941
:103C10004E00B540C6683543C560491C1029BFD366
:103C2000F0BD4FF6FF710160002101710221417169
:103C300000218171C171704708B54FF48032009244
:103C4000009A0A430092009AC261C161009AC2615F
:103C5000C2690092C269009208BD02460020138A20
:103C60000B4201D0012000E0002070470146088A85
:103C7000704702460020938A0B4201D0012000E0E9
:103C8000002070470146888A70478161704701852E
:103C900070470AB1816100E00185704781827047F9
:103CA000F0B5002300244D07ED0E02FA05F3CE1007
:103CB00000F1200555F826504E07F70E0F26BE409E
:103CC000B543CF1000F1200646F82750CE1000F182
:103CD000200555F8265045EA0304CE1000F12005D2
:103CE00045F82640F0BD00000004004800080048E8
:103CF000000C00480010004800140048F848006814
:103D000040F00100F64908600846406800F47F0072
:103D1000486008460068F3490840F14908600846D1
:103D2000006820F4802008600846406820F4FE0007
:103D300048600846C06A20F00F00C8620846006B61
:103D4000E9490840E649086300208860704700217F
:103D5000E34A917011468870704710B50146002201
:103D6000002300204A1112B9DD4C236806E0012A25
:103D700002D1DB4C236A01E0D94C636A01F01F02D7
:103D8000012494401C4201D0012000E0002010BD1D
:103D900038B5002000900024002500BF1120FFF757
:103DA000DCFF05460098401C00900098B0F5A06F1D
:103DB00001D0002DF2D01120FFF7CFFF08B1012470
:103DC00000E00024204638BD01460020C44A1068A7
:103DD00020F0F80040EAC10010607047C349086055
:103DE0007047BF49096A21F00101BD4A11621146BD
:103DF000096A21F0040111621146096A0143116246
:103E00007047B749096A21F01801B54A1162114695
:103E1000096A014311627047B54908607047B04AAA
:103E2000526822F47412AE4B5A601A46526840EA45
:103E300001031A43AA4B5A607047AC4908667047A1
:103E400001460020A64AD06A20F00F000843D06245
:103E50007047A649C8647047A149C87170470146B8
:103E600000209F4A506820F00300084350607047CC
:103E70009B48406800F00C00704701460020984ABB
:103E8000506820F0F0000843506070470146002061
:103E9000934A506820F4E060084350607047014640
:103EA00000208F4A506820F4605040EAC100506002
:103EB00070478B49496821F44041894A5160114655
:103EC00049680143516070478549496821F078414C
:103ED000834A5160114649680143516070478049E7
:103EE000096B21F040017E4A11631146096B0143C1
:103EF000116370470021010F31B9794A126B22F02A
:103F00001002774B1A6305E0754A126B22F020020B
:103F1000734B1A63724A126B0243714B1A637047F8
:103F20000021010F012904D0022909D0032915D14C
:103F30000DE06B4A126B22F00302694B1A630EE02C
:103F4000674A126B22F44032654B1A6307E0644AF9
:103F5000126B22F44022624B1A6300E000BF00BFE4
:103F60005F4A126B02435E4B1A63704761490860F7
:103F7000704770B500210023002400250022584E10
:103F8000766806F00C0121B1042905D0082921D159
:103F900005E0594E066020E0574E06601DE0504E89
:103FA000766806F470134E4E766806F48034022666
:103FB00006EB93431CB9514E5E43066009E0484E40
:103FC000F66A06F00F06751C4B4EB6FBF5F65E431F
:103FD000066002E0484E066000BF00BF404E7668B3
:103FE00006F0F0010909464E725C0668D64046604C
:103FF0003B4E766806F4E061090A414E725C466801
:10400000D6408660364E766806F46051C90A3C4E4A
:10401000725C4668D640C660314E766806F4404110
:10402000890B384E725CC668B6FBF2F606612C4E00
:10403000766806F07841C1F3C361334E725C06685E
:10404000B6FBF2F64661264E366B06F04006402E71
:1040500003D048F21206866102E04FF40046866102
:104060001F4E366B06F01006102E02D0224EC6618F
:1040700001E00668C6611A4E366B06F02006202E57
:1040800002D01D4E066201E006680662144E366BD1
:1040900016F0030F02D1C668466219E0104E366B67
:1040A00006F00306012E02D10668466210E00C4EAF
:1040B000366B06F00306022E02D1B603466207E015
:1040C000074E366B06F00306032E01D10A4E4662F8
:1040D000034E366B16F4403F18D18668866233E093
:1040E00000100240FFFFF6FE8C0FFF0F000042425F
:1040F00080044242D800424200127A0000093D008A
:10410000FC0600200C07002010070020604E366BD4
:1041100006F44036B6F5803F02D10668866213E0A9
:104120005B4E366B06F44036B6F5003F03D14FF4D4
:104130000046866208E0564E366B06F44036B6F509
:10414000403F01D1534E8662514E366B16F4402FDC
:1041500002D18668C6621DE04D4E366B06F44026DD
:10416000B6F5802F02D10668C66213E0484E366B62
:1041700006F44026B6F5002F03D14FF40046C66280
:1041800008E0434E366B06F44026B6F5402F01D1C9
:10419000404EC66270BD3E49096A01433C4A116205
:1041A00070473D49086070473B49091D08607047EA
:1041B00029B1374A52690243354B5A6104E0344A07
:1041C00052698243324B5A61704729B1304A926931
:1041D00002432F4B9A6104E02D4A926982432C4B93
:1041E0009A61704729B12A4AD2690243284BDA61A1
:1041F00004E0274AD2698243254BDA61704729B12E
:10420000234A926A0243224B9A6204E0204A926A4D
:1042100082431F4B9A62704729B11D4AD2680243FC
:104220001B4BDA6004E01A4AD2688243184BDA600A
:10423000704729B1164A12690243154B1A6104E00E
:10424000134A12698243124B1A61704729B1104A0E
:10425000527A02430E4B5A7204E00D4A527A82435C
:104260000B4B5A7270470A48406A40F08070084908
:104270004862704701460020054A92680A4201D010
:10428000012000E00020704701498872704700005B
:104290000010024000127A003C04424210B504466D
:1042A000F848844209D101218803FFF7B5FF0021B6
:1042B0004FF48040FFF7B0FF18E0F348844209D183
:1042C00001214804FFF7B5FF00214FF40030FFF74C
:1042D000B0FF0BE0ED48844208D101218804FFF7CC
:1042E000A8FF00214FF48020FFF7A3FF10BD2DE9A8
:1042F000F0418CB004460D460027B84600262068E1
:1043000020F001002060666826F44056A868064345
:104310006660266841F20C608643E9686868084375
:104320002969084306432660A66826F44076686932
:104330000643A6606846FFF71CFED248844202D1BD
:10434000DDF8248007E0D048844202D1DDF82880DF
:1043500001E0DDF82C80206810F4004F0CD04FEA0B
:1043600048002968B0FBF1F74FEA48002968B0FB24
:10437000F1F201FB120607E02868B8FBF0F72868A5
:10438000B8FBF0F100FB11862868B6EB500F00D3A4
:104390007F1C206810F4004F07D0C7F342064FF689
:1043A000F07107EA010040EA0607A7810CB0BDE8FA
:1043B000F0814FF416510160002141608160C160BD
:1043C0000C21016100214161704710B50022426853
:1043D00022F47062D1E9003423438C682343CC6813
:1043E00023431A43426010BD002101604160816097
:1043F000C160704721B1026842F00102026003E02F
:10440000026822F00102026070471AB103680B4390
:10441000036002E003688B430360704721B10268C8
:1044200042F40042026003E0026822F400420260AB
:10443000704721B1826842F40062826003E08268C2
:1044400022F400628260704721B1426842F4002287
:10445000426003E0426822F400224260704721B1CA
:10446000426842F48022426003E0426822F48022E3
:10447000426070471AB143680B43436002E04368EF
:104480008B434360704721B1426842F4004242606E
:1044900003E0426822F400424260704721B1426862
:1044A00042F40002426003E0426822F400024260EB
:1044B0007047426902F07F42426142690A434261A9
:1044C0007047028A02F47F420282028A0A43028211
:1044D000704721B1026842F00202026003E0026804
:1044E00022F0020202607047826822F44012826069
:1044F00082680A438260704721B1426842F48012A8
:10450000426003E0426822F48012426070474268D1
:1045100022F4C002426042680A4342607047C1F31D
:104520000802028570470146888CC0F30800704776
:10453000426822F07F424260426842EA0162426081
:10454000704721B1026842F40052026003E0026841
:1045500022F4005202607047026822F40062026096
:1045600002680A4302607047426822F0100242600B
:1045700042680A4342607047426822F0200242606B
:1045800042680A434260704721B1426842F4804267
:10459000426003E0426822F480424260704721B1E9
:1045A000826842F00802826003E0826822F008021A
:1045B00082607047028AD2B20282028A42EA0122F3
:1045C0000282704721B1826842F02002826003E0DB
:1045D000826822F020028260704721B1826842F036
:1045E0001002826003E0826822F01002826070474D
:1045F000826822F460228260826842EA41428260DC
:104600007047426922F07F424261426942EA016298
:1046100042617047826822F00402826082680A4325
:104620008260704721B1826842F00202826003E03A
:10463000826822F002028260704721B1826842F4EF
:104640008042826003E0826822F480428260704788
:10465000826822F40042826082680A438260704766
:10466000026822F078720260026842EA41520260F7
:104670007047026822F4F8120260026842EA0142BE
:10468000026070470038014000440040004800408C
:104690001AB183680B43836002E083688B438360B5
:1046A0007047826822F40052826082680A43826006
:1046B0007047F0B503460024002600250020184668
:1046C000C1F30724CEB2012707FA06F5022C01D167
:1046D000001D02E0032C00D108301AB107682F43F7
:1046E000076002E00768AF430760F0BD1AB1038BB3
:1046F0000B43038302E0038B8B4303837047826881
:1047000022F48052826082680A43826070470246C7
:104710000020D3690B4201D0012000E00020704747
:104720000162704770B502460B4600240021002547
:104730000020C3F30725D9B2012606FA01F1012DA5
:1047400002D11668314006E0022D02D15668314090
:1047500001E0966831401C0C012606FA04F4D66983
:10476000344011B10CB1012000E0002070BD10B543
:10477000002200230A0C012404FA02F3036210BD94
:1047800001684FF6FE721140016000210160416036
:104790008160C1608C49884208D18B4908394968D9
:1047A00041F00F01884A083A51608AE08649143185
:1047B000884208D184490839496841F0F001824AA9
:1047C000083A51607DE080492831884208D17E490D
:1047D0000839496841F470617B4A083A516070E0D9
:1047E00079493C31884208D177490839496841F410
:1047F0007041754A083A516063E07349503188420C
:1048000008D171490839496841F470216E4A083A63
:10481000516056E06C496431884208D16A490839D0
:10482000496841F47001684A083A516049E06649B4
:104830007831884208D164490839496841F070618B
:10484000614A083A51603CE06049884206D1011F44
:10485000096841F00F01021F116032E05B49143119
:10486000884208D15949091F096841F0F001574AA7
:10487000121F116025E055492831884208D153495B
:10488000091F096841F47061504A121F116018E055
:104890004E493C31884208D14C49091F096841F40E
:1048A00070414A4A121F11600BE04849503188425A
:1048B00007D14649091F096841F47021434A121F74
:1048C0001160704710B50022026847F6F0739A43F2
:1048D0000C6A8B6823430C6923434C6923438C691E
:1048E0002343CC6923434C6A23438C6A23431A43F2
:1048F00002608B8943600B6883604B68C36010BDA6
:1049000000210160416081608181016141618161BB
:10491000C161016241628162704721B1026842F067
:104920000102026004E002684FF6FE731A40026062
:104930007047416070470146486880B270471AB1BD
:1049400003680B43036002E003688B430360704716
:1049500001460020002211F0805F03D01B4B083B72
:104960001A6802E0184B083B1A680A4201D001207D
:1049700000E00020704710F0805F03D01349091F4A
:10498000086002E01049083948607047014600207D
:10499000002211F0805F03D00C4B083B1A6802E044
:1049A000094B083B1A680A4201D0012000E00020B0
:1049B000704710F0805F03D00449091F086002E0CF
:1049C0000149083948607047080002400804024065
:1049D00010B50446B648844209D101210806FFF704
:1049E0001BFC00214FF08070FFF716FC15E0B1486A
:1049F000844209D101214806FFF70EFC00214FF047
:104A00000070FFF709FC08E001218806FFF704FCAD
:104A100000214FF08060FFF7FFFB10BD10B50022B2
:104A20004268A54B1A400B799B054C7943EA046315
:104A30000C6804F4702423431A43426010BD012122
:104A40000160002101714171704730B5002300F110
:104A5000200303EB8103D2E900452C4395682C43E6
:104A6000D5682C431C6030BD00210160416081602D
:104A7000C160704730B50023904CA14207D00B0CA9
:104A8000046C9D0002FA05F52C43046400E04264C6
:104A900030BD21B1426842F00102426003E0426849
:104AA00022F001024260704721B1026842F00042E8
:104AB000026003E0026822F000420260704721B108
:104AC000426842F08072426003E0426822F08072E5
:104AD000426070470146764A106820F440700843EF
:104AE000106070470A46416821F006011143416099
:104AF0007047416841F01001416070470A464168C3
:104B000021F47021130C1B0419434160704721B13B
:104B1000426842F48002426003E0426822F480026C
:104B200042607047416841F40001416070470146AE
:104B3000486E00B2704721B1026842F40042026040
:104B400003E0026822F40042026070475848406F58
:104B500070475748C06F7047416841F40041416059
:104B600070478AB24261704721B1426842F0400208
:104B7000426003E0426822F040024260704721B187
:104B8000426842F02002426003E0426822F02002C4
:104B9000426070470A460021416821F47061114368
:104BA000416070470A460021416821F4C041114329
:104BB00041607047014600200A6E100C01228240BD
:104BC00042EA0040704730B502460B460021116EA4
:104BD0003B4800EA11200D0E0124AC402043186030
:104BE00008B230BD21B1026842F48042026003E0A5
:104BF000026822F48042026070472D48006F7047BF
:104C00002B48806F704721B1026842F480520260E5
:104C100003E0026822F480520260704721B102680A
:104C200042F40062026003E0026822F40062026063
:104C3000704721B1026842F48062026003E00268BA
:104C400022F48062026070471AB103680B4303606C
:104C500002E003688B43036070471AB103680B439B
:104C6000036002E003688B43036070470246002044
:104C700093680B4201D0012000E000207047C26819
:104C80000A43C260704730B502460020002300246A
:104C9000956805EA0103156805EA010413B10CB132
:104CA000012000E0002030BDC2680A43C2607047A6
:104CB0000060014000640140FFFF30FE0001080079
:104CC0000000FFFF10B50446B4F1804F08D1012168
:104CD0000846FFF7AEFA00210120FFF7AAFA9EE08E
:104CE000F748844208D101210220FFF7A2FA0021EF
:104CF0000220FFF79EFA92E0F248844208D1012197
:104D00000420FFF796FA00210420FFF792FA86E0CC
:104D1000ED48844208D101210820FFF78AFA0021DA
:104D20000820FFF786FA7AE0E848844208D101219A
:104D30001020FFF77EFA00211020FFF77AFA6EE0CC
:104D4000E348844208D101212020FFF772FA0021B4
:104D50002020FFF76EFA62E0DE48844208D101218C
:104D60004020FFF766FA00214020FFF762FA56E084
:104D7000D948844208D101218020FFF75AFA002146
:104D80008020FFF756FA4AE0D448844208D1012136
:104D90008015FFF74EFA0021A015FFF74AFA3EE012
:104DA000CF48844209D101210804FFF735FA0021D8
:104DB0004FF48030FFF730FA31E0CA48844209D11D
:104DC00001214804FFF728FA00214FF40030FFF7D3
:104DD00023FA24E0C448844209D101218804FFF762
:104DE0001BFA00214FF48020FFF716FA17E0BF48A6
:104DF000844208D101214015FFF71BFA00216015FC
:104E0000FFF717FA0BE0BA48844208D10121C80421
:104E1000FFF702FA00214FF40020FFF7FDF910BD63
:104E200000220288B0F1804F0BD0A54B984208D0E9
:104E3000A44B984205D0A44B984202D0AC4B984268
:104E400004D14FF68F731A404B881A439F4B9842F8
:104E50000AD09F4B984207D0A44B984204D04FF6FB
:104E6000FF431A400B891A4302804B68C3620B88C8
:104E700003859B4B984205D09A4B984202D09A4B9F
:104E8000984201D18B7A03860123838270474FF0C9
:104E9000FF314160002101800181418081727047B2
:104EA0000185828270470A46002101884FF68F7380
:104EB000194011430180704741627047C1627047D9
:104EC0000146486A70470146088D704721B1028843
:104ED00042F00202028004E002884FF6FD731A409D
:104EE0000280704721B1028842F00402028004E08F
:104EF00002884FF6FB731A400280704721B1028886
:104F000042F08002028004E002884FF67F731A406C
:104F10000280704702884FF6F7731A4002800288B9
:104F20000A430280704702884FF6FF431A4002800E
:104F300002880A430280704721B1028842F00102D0
:104F4000028004E002884FF6FE731A400280704728
:104F50000A884B881A438B881A43CB881A430B89DB
:104F60001A434B891A438B891A43B0F844301A43C9
:104F7000A0F8442070470021018041808180C180D9
:104F8000018141818181704731B1B0F8442042F400
:104F90000042A0F8442005E0B0F84420C2F30E021D
:104FA000A0F84420704770B5002400220023058C2F
:104FB0004FF6FE7635400584028C8388048B4FF6CD
:104FC0008F752C40B51E2C400D882C43751E2A4031
:104FD0008D892A434D882A43414DA84205D0414D31
:104FE000A84202D0404DA84213D14FF6F7752A408F
:104FF000CD892A434FF6FB752A408D882A434FF608
:10500000FF652B404FF6FF552B400D8A2B434D8AF1
:105010002B43838004838D684563028470BD70B523
:10502000002200230024058C4FF6EF7635400584DE
:10503000038C8488028B48F6FF752A404FF6FF45A3
:105040002A400D884FF6FF7606EA05252A434FF6DB
:10505000DF752B408D8906EA05152B434D8806EA3E
:1050600005152B43848002838D688563038470BD9E
:1050700070B5002200230024058C4FF6FF663540F2
:105080000584038C8488828B4FF68F752A404FF6F7
:10509000FC752A400D882A434FF6FF552B408D8919
:1050A0004FF6FF7606EA05252B434D8806EA0525CF
:1050B0002B43848082838D68C563038470BD0000A8
:1050C0000004004000080040000C004000100040B8
:1050D0000014004000180040001C00400020004068
:1050E000004001400044014000480140009C004055
:1050F000005C014070B5002200230024058C4EF6B0
:10510000FF7635400584038C8488828B48F6FF75D2
:105110002A404FF6FF452A400D884FF6FF7606EAF3
:1051200005252A434DF6FF752B408D8906EA053586
:105130002B434D8806EA05352B43848082838D6896
:105140000564038470BD00210180418081808160FD
:105150008181C18101824182704770B50346002080
:1051600000241846183001258D40ACB21D8CA54393
:105170001D8409B1082909D100EB6100056825F0FB
:10518000700505600568154305600EE00D1FC5F349
:105190004E052844056825F4E045056005684FF68E
:1051A000FF7606EA02263543056070BD416370470D
:1051B00081637047C1637047016470470A460021EC
:1051C000018B4FF68F7319401143018370470A46D4
:1051D0000021018B48F6FF7319404FF6FF7303EA75
:1051E00002231943018370470A460021818B4FF641
:1051F0008F7319401143818370470A460021818BC8
:1052000048F6FF7319404FF6FF7303EA0223194370
:105210008183704721B1828842F00102828004E0DC
:1052200082884FF6FE731A40828070470A4600213A
:10523000018B4FF6F77319401143018370470A46FB
:105240000021018B4FF2FF7319404FF6FF7303EA01
:1052500002231943018370470A460021818B4FF6D0
:10526000F77319401143818370470A460021818BEF
:105270004FF2FF7319404FF6FF7303EA02231943FD
:10528000818370470A460021018B4FF6FB7319405A
:105290001143018370470A460021018B4FF6FF330B
:1052A00019404FF6FF7303EA022319430183704745
:1052B0000A460021818B4FF6FB731940114381830D
:1052C00070470A460021818B4FF6FF3319404FF695
:1052D000FF7303EA02231943818370470A460021C2
:1052E000018B4FF67F7319401143018370470A46C3
:1052F0000021018BC1F30E014FF6FF7303EA022375
:105300001943018370470A460021818B4FF67F7352
:1053100019401143818370470A460021818BC1F3F4
:105320000E014FF6FF7303EA02231943818370478E
:105330000A460021018C4FF6FD7319401143018488
:1053400070470A460021018C4FF6F773194011434C
:10535000018470470A460021018C4FF6DF73194023
:105360004FF6FF7303EA02131943018470470A469C
:105370000021018C4FF6FF5319404FF6FF7303EAEB
:1053800002231943018470470A460021018C4DF61F
:10539000FF7319404FF6FF7303EA02331943018488
:1053A000704702894FF6F7731A40028102890A4357
:1053B0000281704730B5002301248C40A3B2048CD5
:1053C0009C430484048C02FA01F5ADB22C4304849E
:1053D00030BD30B5002304248C40A3B2048C9C4320
:1053E0000484048C02FA01F5ADB22C43048430BD70
:1053F00021B1828842F00402828004E082884FF664
:10540000FB731A4082807047828B4FF2FF331A4041
:105410008283828B4FF6FF7303EA01231A43828350
:105420007047F0B50C461546002100220026078C77
:105430004EF6FF7C07EA0C070784818B028C4FF63F
:10544000FF7707EA043640F6FF4739404FF6FF770B
:1054500007EA052739434FF6FF7707EA0337394351
:1054600047F6FF573A4046F480573A438183028417
:10547000F0BD828B4FF6F3731A408283828B0A430E
:1054800082837047F0B50C461546002100220026A5
:10549000078C4FF6FF6C07EA0C070784818B028CA0
:1054A0004FF6FF7707EA04264FF60C7739404FF6A0
:1054B000FF7707EA03172F4339434FF2FF573A406C
:1054C00046F480773A4381830284F0BD028B4FF229
:1054D000FF331A400283028B4FF6FF7303EA012366
:1054E0001A4302837047F0B50C461546002100228E
:1054F0000026078C4FF6EF7C07EA0C070784018B28
:10550000028C4FF6FF7707EA041640F6FF47394052
:105510004FF6FF7707EA033739434FF6FF7707EA7D
:10552000052739434FF65F773A4046F010073A4374
:1055300001830284F0BD028B4FF6F3731A4002839D
:10554000028B0A4302837047F0B50C4615460021D2
:105550000022068C4FF6FE773E400684018B028CBB
:105560004FF60C7631407E1C06EA03162E4331437B
:105570004FF6F576324044F001063243018302844F
:10558000F0BD70B505460C46208850B92389A28825
:1055900061882846FFF7D8FFE1882846FFF7CBFF50
:1055A00025E0208804280AD12389A288618828461A
:1055B000FFF799FFE1882846FFF788FF17E020886A
:1055C00008280AD12389A28861882846FFF75AFF54
:1055D000E1882846FFF74DFF09E02389A28861880A
:1055E0002846FFF71EFFE1882846FFF70DFF70BD34
:1055F000002101804180012181800021C180018141
:1056000070472DE9F04105460C46002601276088C9
:1056100008B9022600E00026A088012801D102274F
:1056200000E001272088A0B92389A2886188284644
:10563000FFF78AFFE1882846FFF77DFF23893A4676
:1056400031462846FFF74FFFE1882846FFF73EFF27
:1056500013E02389A28861882846FFF744FFE18888
:105660002846FFF733FF23893A4631462846FFF79D
:105670006BFFE1882846FFF75EFFBDE8F081014639
:10568000486B70470146886B70470146C86B70478E
:105690000146086C70471AB183890B43838102E08D
:1056A00083898B4383817047818270470246002043
:1056B000138A0B4201D0012000E000207047CA434A
:1056C0000282704730B50246002000230024158A6C
:1056D00005EA0103958905EA010413B10CB1012023
:1056E00000E0002030BDCA430282704741EA020355
:1056F000A0F8483070471AB183890B43838102E0D8
:1057000083898B438381704721B1828842F00802EC
:10571000828004E082884FF6F7731A4082807047D7
:1057200001894FF6F8721140018170470A46002145
:1057300001894FF68F73194011430181704730B5CD
:1057400004460D4629462046FFF7F0FF208940F029
:105750000700208130BD2DE9F04104460D46164674
:105760001F46602D06D13B46012231462046FFF7F9
:10577000BAFE05E03B46012231462046FFF7E4FE33
:1057800029462046FFF7D2FF208940F007002081FC
:10579000BDE8F08130B50C4600210189C9B24FF651
:1057A000FF7505EA0325154325432943018130BDD3
:1057B0002DE9F04105460E4617469846002443461B
:1057C0003A4631462846FFF7E5FF2C894FF6F87038
:1057D000044044F007044FF68F70044044F0700416
:1057E0002C81BDE8F081F0B504460D4616461F46F3
:1057F0003B46324629462046FFF7CCFF208940F43D
:1058000080402081F0BD82884FF68F731A408280DD
:1058100082880A438280704702894FF6F8731A40E3
:10582000028102890A430281704702894FF67F7321
:105830001A40028102890A4302817047F0B50C4682
:1058400015461E460021002200230189028B038C8D
:105850004FF6F877394021434FF6FC473A4040F283
:1058600001173A434FF6DD773B404FF6FF7707EAE3
:1058700006172F433B43018102830384F0BD21B10E
:10588000828842F08002828004E082884FF67F7333
:105890001A4082807047A0F8501070473149014388
:1058A000314A1160704770B5002100230F22C4787F
:1058B0000CB32D4C246804F4E064C4F5E064210AC0
:1058C000C1F10403CA40447804FA03F18478144017
:1058D00021430901254C0678A155047804F01F05E1
:1058E0000124AC4005786D114FF0E02606EB8505EC
:1058F000C5F8004109E0047804F01F050124AC401C
:105900001B4D0678761145F8264070BD194A0A40AD
:105910000243154B1B1F1A60704739B1124A121D02
:1059200012680243104B1B1D1A6006E00E4A121D3E
:10593000126882430C4B1B1D1A607047042808D163
:105940004FF0E021096941F004014FF0E0221161BC
:1059500007E04FF0E021096921F004014FF0E02257
:10596000116170470000FA050CED00E000E400E072
:1059700080E100E080FFFF1F10B501210807FEF75E
:1059800058FC00214FF08050FEF753FC10BD3B49FE
:105990000862704701460020394A106820F0E00094
:1059A00008431060704735490861704729B1344A8F
:1059B00052680243324B5A6004E0314A52688243D3
:1059C0002F4B5A60704729B12D4A126802432C4B65
:1059D0001A6004E02A4A12688243294B1A60704711
:1059E0002849096821F00401264A1160012801D1E3
:1059F00030BF00E020BF704710B502460020204BAA
:105A0000186820F00300104318601E4B1B6843F019
:105A100004031C4C2360012901D130BF00E020BFEA
:105A2000184B1B6823F00403164C236010BD144868
:105A3000006840F00400124908600846006840F021
:105A4000020008600F48006840F004000D4908603B
:105A500000BF00BF30BF704701460020084A5268AF
:105A60000A4201D0012000E0002070470449096883
:105A700041EA8001024A11607047000000000E42B6
:105A80000070004010ED00E001460020FE4A106862
:105A900020F0030008431060704730B1FA490968EC
:105AA00041F00801F84A116005E0F749096821F062
:105AB0000801F54A1160704730B1F349096841F0B7
:105AC0001001F14A116005E0EF49096821F0100169
:105AD000ED4A11607047EC48006910F0800F04D067
