:020000040800F2
:10000000C022002069020008A1040008A30400081F
:10001000A7040008AB040008AF04000800000000BB
:10002000000000000000000000000000B304000811
:10003000B504000800000000B704000881020008B1
:10004000830200088302000883020008830200087C
:10005000830200088302000883020008830200086C
:10006000830200088302000883020008830200085C
:10007000830200088302000883020008830200084C
:100080008302000897230008B904000883020008CF
:10009000830200088302000883020008830200082C
:1000A000830200088302000883020008830200081C
:1000B000DF040008F70400087F240008830200081A
:1000C00083020008830200088302000883020008FC
:1000D00083020008BB0400088302000883020008B2
:1000E00083020008830200088302000883020008DC
:1000F00083020008830200080000000000000000E6
:1001000000000000000000008302000883020008D5
:1001100000000000000000008302000883020008C5
:10012000830200088302000883020008830200089B
:10013000830200088302000883020008830200088B
:100140008302000800000000000000000000000022
:10015000000000000000000000000000000000009F
:100160000000000000000000830200088302000875
:100170008302000800000000830200080000000065
:10018000000000008302000800F002F800F05CF8B4
:100190000AA090E8000C82448344AAF10107DA45E2
:1001A00001D100F051F8AFF2090EBAE80F0013F0D8
:1001B000010F18BFFB1A43F00103184750700000ED
:1001C000707000000A444FF0000C10F8013B13F06F
:1001D000070408BF10F8014B1D1108BF10F8015BA0
:1001E000641E05D010F8016B641E01F8016BF9D193
:1001F00013F0080F1EBF10F8014BAD1C0C1B09D1EA
:100200006D1E58BF01F801CBFAD505E014F8016B5B
:1002100001F8016B6D1EF9D59142D6D370470000ED
:100220000023002400250026103A28BF78C1FBD8FF
:10023000520728BF30C148BF0B6070471FB506F09A
:100240008CFE1FBD10B510BD06F084FC1146FFF7F3
:10025000F5FF00F091F906F0A2FC03B4FFF7F2FFFE
:1002600003BC06F069FC00000948804709480047C4
:10027000FEE7FEE7FEE7FEE7FEE7FEE7FEE7FEE756
:10028000FEE7FEE704480549054A064B70470000B3
:100290008503000889010008C01C0020C02200203E
:1002A000C01E0020C01E00201CB500200190009040
:1002B0007248006840F480307049086000BF6F48A1
:1002C000006800F4003000900198401C01900098F4
:1002D00018B90198B0F5A06FF1D16848006810F422
:1002E000003F02D00120009001E000200090009823
:1002F000012836D1022062490860604840685F49A1
:1003000048600846406848600846406840F480609D
:1003100048600846406820F47C1048600846406801
:1003200040F4E81048600846006840F080700860BB
:1003300000BF5248006810F0007FFAD04F48406874
:1003400020F003004D4948600846406840F0020034
:10035000486000BF4948406800F00C000828F9D107
:100360000FE04FF4E011002002F0ADFD012002F09B
:10037000B8FD02E0022002F0C6FD02F0CDFD082823
:10038000F8D11CBD10B53F48006840F470003D49ED
:1003900008603A48006840F00100384908600846A3
:1003A000406800F47F00486008460068364908400D
:1003B000324908600846006820F48020086008463A
:1003C000406820F4FE0048600846C06A20F00F0034
:1003D000C8620846006B2D49084028490863002080
:1003E0008860FFF761FF4FF00060264980390860A0
:1003F00010BD30B500210020002200231F4C64688E
:1004000004F00C0121B1042906D0082925D107E008
:100410001F4C204D2C6024E01D4C1E4D2C6020E014
:10042000164C646804F47010144C646804F4803250
:10043000022404EB904022B9174C4443154D2C6024
:100440000AE00E4CE46A04F00F04631C104CB4FB89
:10045000F3F444430F4D2C6003E00D4C0D4D2C6024
:1004600000BF00BF054C6468C4F303140B4D295D45
:10047000084C2468CC40074D2C6030BD0010024071
:100480000020024088ED00E0FFFFF6FE8C0FFF0F1A
:1004900000127A000000002000093D000400002046
:1004A000704700BFFEE700BFFEE700BFFEE700BFEA
:1004B000FEE7704770477047704710B514491548FC
:1004C00003F084F9012801D105F06EFF12491148AB
:1004D00003F07CF9012801D105F05EFF10BD4FF05B
:1004E0008040008A10F0010F04D04FF6FE704FF0EC
:1004F00080410882704710B50121084804F036F9A0
:1005000028B10121054804F042F905F090FF10BD23
:100510000501050000380140060106000004004006
:1005200005213D4A11543D4909683D4A42F82010D1
:1005300070470021384A1154394951F82010374A80
:100540001268511A374A42F82010114651F82020FB
:1005500035490968103141F82020704700B503463D
:100560002D48C05C032803DA1846FFF7D9FF02E0E4
:100570001846FFF7DEFF00BD38B501F032FA022061
:100580004FF41653002201210090104604F0C8FFDA
:10059000044605F089F8044639E0244800883228EA
:1005A00007DB0020FFF7DAFF00202049088001F078
:1005B000C7FC1E484088322807DB0120FFF7CEFF2A
:1005C00005F097F800201949488000F085F800EB05
:1005D000800016498988B1EB400F0ADB0220FFF743
:1005E000BDFF00201149888001F0BBF808B100F080
:1005F0009BFE0E48C08841F28831884207DB00200C
:100600000A49C88001F07DFC08B101F0BFF8002C58
:10061000C3D0002038BD0000140000206007002077
:100620007C0800208C080020300300206607002092
:1006300010B50020F7490870F7480068406AF7498C
:1006400008600846006801F060FE0020F449087068
:1006500010BD0120EF490870704710B50020ED492A
:100660000870ED480068006AEC4908600020EC4919
:100670000870EA48006801F048FE10BD10B5044655
:10068000012C04D0022C05D0042C09D105E0FFF781
:10069000CFFF08E0FFF7E1FF05E0FFF7DAFF02E038
:1006A000FFF7C6FF00BF00BF10BD012802D002281F
:1006B0000BD104E0DB490968DB4A11600AE0DB4941
:1006C0000968891CD84A116004E0D6490968D64AED
:1006D000116000BF00BF7047CF480068808B704733
:1006E00010B5012001F040F8CB4800684088D0499F
:1006F0000880C94800688088CE490880C6480068DC
:10070000C088CD490880CD490888C949098802F0C8
:100710003FF9CA494888C749098802F039F9C749E9
:100720008888C549098802F033F9BB480068008908
:10073000BF490880B84800684089BE490880B6486B
:1007400000688089BC490880BC49C888B8490988C4
:1007500002F01EF9B9490889B649098802F018F96A
:10076000B6494889B449098802F012F9AA480068D4
:10077000C089AF490880A8480068008AAD49088050
:10078000A5480068408AAC490880AC498889A849D6
:10079000098802F0FDF8A949C889A649098802F02C
:1007A000F7F8A649088AA449098802F0F1F89A489E
:1007B0000068808A9E49088097480068C08A9D49E1
:1007C000088095480068008B9B4908809B49488AAF
:1007D0009749098802F0DCF89849888A9549098880
:1007E00002F0D6F89549C88A9349098802F0D0F8F2
:1007F00089480068408B8E49088087480068808B54
:100800008C49088084480068C08B8B4908808B49DC
:10081000088B8749098802F0BBF88849488B8549CD
:10082000098802F0B5F88549888B8349098802F068
:10083000AFF879480068006A4FF6FF71B0FBF1F03D
:100840007B49088074480068406A4FF6FF71B0FB2E
:10085000F1F07849088070480068806A4FF6FF71AF
:10086000B0FBF1F0744908807449C88B704909885D
:1008700002F08EF87149088C6E49098802F088F8F8
:100880006E49488C6C49098802F082F86248006819
:10089000006A4FF6FF71B0FBF1F201FB12006449F0
:1008A00008805D480068406A4FF6FF71B0FBF1F2C6
:1008B00001FB12005F49088057480068806A4FF6C4
:1008C000FF71B0FBF1F201FB12005B4908805B494C
:1008D000888C5749098802F05BF85849C88C5549FB
:1008E000098802F055F85549088D5349098802F0E6
:1008F0004FF8002000F038FF10BD47480068C0895D
:10090000404200EE100AB8EEC00A4D4880ED000AE1
:1009100041480068008A404200EE100AB8EEC00A62
:10092000474880ED010A3C480068408A404200EE9A
:10093000100AB8EEC00A424880ED020A9FED410A53
:1009400080ED030A34480068408A00EE100AB8EED1
:10095000400A3B4880ED040A2F480068008A00EEF8
:10096000100AB8EE400A364880ED050A2A480068A9
:10097000C08900EE100AB8EE400A314880ED060A40
:1009800025480068808A404200EE100AB8EEC00A8E
:100990002D4880ED000A20480068C08A404200EEE1
:1009A000100AB8EEC00A284880ED010A1A4800680B
:1009B000008B404200EE100AB8EEC00A224880EDDB
:1009C000020A9FED200A80ED030A13480068008B9D
:1009D00000EE100AB8EE400A1B4880ED040A0E48EB
:1009E0000068C08A00EE100AB8EE400A164880ED92
:1009F000050A09480068808A00EE100AB8EE400A2D
:100A0000114880ED060A704710B5FFF776FFFFF733
:100A100067FE10BD1A000020040300201803002008
:100A200066000020340300200C0300203003002067
:100A3000100300201203002014030020CE02002027
:100A40001C000020000000003800002001460029A2
:100A500001DD084600E0484280B270470022FE4BAC
:100A60001A70022901D003292FD1FC4A127862BBE7
:100A700018B1012801D0022810D1F94A1278521C6D
:100A800052B2F74B1A701A4692F900200A2A05DB77
:100A9000FF22F14B1A700122F04B1A70032803D089
:100AA000042801D0052813D1ED4A1278521C52B205
:100AB000EB4B1A701A4692F900200A2A08DB012231
:100AC000E54B1A70E54B1A7002E00022E44B1A70F5
:100AD000022904D0032902D00022E04B1A7070478B
:100AE0002DE9F0472DED028B04460D464FF000092D
:100AF000CA46DC48D0ED000A00EE105AB8EEC00A33
:100B0000F4EEC00AF1EE10FA06DD0027B7EE000A97
:100B1000D54880ED000A0DE1D248D0ED000A00EE84
:100B2000105AB8EEC00AF4EEC00AF1EE10FA1FD85F
:100B3000D0ED010A00EE105AB8EEC00AF4EEC00A79
:100B4000F1EE10FA14DD002790ED010AD0ED000A55
:100B500070EE600A90ED011A00EE105AB8EEC00A6D
:100B600031EE400A80EE201ABF4880ED001AE1E025
:100B7000BC48D0ED010A00EE105AB8EEC00AF4EEFF
:100B8000C00AF1EE10FA1FD8D0ED020A00EE105A9A
:100B9000B8EEC00AF4EEC00AF1EE10FA14DD012737
:100BA00090ED020AD0ED010A70EE600A90ED021A93
:100BB00000EE105AB8EEC00A31EE400A80EE201A5C
:100BC000A94880ED001AB5E0A648D0ED020A00EE73
:100BD000105AB8EEC00AF4EEC00AF1EE10FA1FD8AF
:100BE000D0ED030A00EE105AB8EEC00AF4EEC00AC7
:100BF000F1EE10FA14DD022790ED030AD0ED020A9F
:100C000070EE600A90ED031A00EE105AB8EEC00ABA
:100C100031EE400A80EE201A934880ED001A89E0F8
:100C20009048D0ED030A00EE105AB8EEC00AF4EE78
:100C3000C00AF1EE10FA1FD8D0ED040A00EE105AE7
:100C4000B8EEC00AF4EEC00AF1EE10FA14DD032784
:100C500090ED040AD0ED030A70EE600A90ED041ADC
:100C600000EE105AB8EEC00A31EE400A80EE201AAB
:100C70007D4880ED001A5DE07A48D0ED040A00EE70
:100C8000105AB8EEC00AF4EEC00AF1EE10FA1FD8FE
:100C9000D0ED050A00EE105AB8EEC00AF4EEC00A14
:100CA000F1EE10FA14DD042790ED050AD0ED040AE8
:100CB00070EE600A90ED051A00EE105AB8EEC00A08
:100CC00031EE400A80EE201A674880ED001A31E0CC
:100CD0006448D0ED050A00EE105AB8EEC00AF4EEF2
:100CE000C00AF1EE10FA1FD8D0ED060A00EE105A35
:100CF000B8EEC00AF4EEC00AF1EE10FA14DD0527D2
:100D000090ED060AD0ED050A70EE600A90ED061A25
:100D100000EE105AB8EEC00A31EE400A80EE201AFA
:100D2000514880ED001A05E005271FEDBA0A4E482C
:100D300080ED000A4C4890ED000AF7EE000A30EE14
:100D4000C00A80ED010A4948D0ED000A00EE104AC1
:100D5000B8EEC00AF4EEC00AF1EE10FA06DD002685
:100D6000B7EE000A424880ED000A1DE13F48D0ED91
:100D7000000A00EE104AB8EEC00AF4EEC00AF1EE26
:100D800010FA1FD8D0ED010A00EE104AB8EEC00AE2
:100D9000F4EEC00AF1EE10FA14DD002690ED010A1F
:100DA000D0ED000A70EE600A90ED011A00EE104AD4
:100DB000B8EEC00A31EE400A80EE201A2C4880EDD1
:100DC000001AF1E02948D0ED010A00EE104AB8EE11
:100DD000C00AF4EEC00AF1EE10FA1FD8D0ED020AF4
:100DE00000EE104AB8EEC00AF4EEC00AF1EE10FAB6
:100DF00014DD012690ED020AD0ED010A70EE600AC2
:100E000090ED021A00EE104AB8EEC00A31EE400A28
:100E100080EE201A164880ED001AC5E01348D0ED88
:100E2000020A00EE104AB8EEC00AF4EEC00AF1EE73
:100E300010FA2FD8D0ED030A00EE104AB8EEC00A1F
:100E4000F4EEC00AF1EE10FA24DD022690ED030A5A
:100E5000D0ED020A0EE000006400002066000020D1
:100E600065000020380000205C0000201C000020ED
:100E70005400002070EE600A90ED031A00EE104A54
:100E8000B8EEC00A31EE400A80EE201AFE4880ED2E
:100E9000001A89E0FD48D0ED030A00EE104AB8EED2
:100EA000C00AF4EEC00AF1EE10FA1FD8D0ED040A21
:100EB00000EE104AB8EEC00AF4EEC00AF1EE10FAE5
:100EC00014DD032690ED040AD0ED030A70EE600AEB
:100ED00090ED041A00EE104AB8EEC00A31EE400A56
:100EE00080EE201AE84880ED001A5DE0E748D0ED7A
:100EF000040A00EE104AB8EEC00AF4EEC00AF1EEA1
:100F000010FA1FD8D0ED050A00EE104AB8EEC00A5C
:100F1000F4EEC00AF1EE10FA14DD042690ED050A95
:100F2000D0ED040A70EE600A90ED051A00EE104A4A
:100F3000B8EEC00A31EE400A80EE201AD24880EDA9
:100F4000001A31E0D148D0ED050A00EE104AB8EEA3
:100F5000C00AF4EEC00AF1EE10FA1FD8D0ED060A6E
:100F600000EE104AB8EEC00AF4EEC00AF1EE10FA34
:100F700014DD052690ED060AD0ED050A70EE600A34
:100F800090ED061A00EE104AB8EEC00A31EE400AA3
:100F900080EE201ABC4880ED001A05E005269FED82
:100FA000BC0AB94880ED000AB74890ED000AF7EE98
:100FB000000A30EEC00A80ED010A4FF00009A9E0F6
:100FC0001C21B44805F043FDC7EBC70000EB40000F
:100FD000B1490968084406EB4601084410F8098045
:100FE000AC4800EB880090ED000AA748D0ED000A5D
:100FF000AA4890ED001A00EE810AA64800EB88008E
:1010000080ED000A781CC0EBC00000EB4000A24954
:101010000968084406EB4601084410F809809D4819
:1010200000EB880090ED000A9748D0ED000A9B483D
:1010300090ED011A00EE810A964800EB880080EDE1
:10104000000AC7EBC70000EB400093490968014460
:10105000701C00EB4000084410F809808D4800EB3C
:10106000880090ED000A8848D0ED010A8B4890ED89
:10107000001A00EE810A874800EB880080ED000A24
:10108000781CC0EBC00000EB4000834909680144B4
:10109000701C00EB4000084410F809807D4800EB0C
:1010A000880090ED000A7848D0ED010A7B4890ED69
:1010B000011A00EE810A774800EB880080ED000AF3
:1010C0009FED738A4FF0000A18E0724800EB8A0027
:1010D000D0ED000AC9EBC9007149084410F90A00B3
:1010E00000EE100AB8EEC01AB0EE480A00EE810A0F
:1010F000B0EE408A0AF1010000F0FF0ABAF1070FD2
:10110000E3DB684800EB890080ED008A09F101000B
:1011100000F0FF09B9F1030FFFF652AF62480681F4
:10112000478139463046FFF799FCBDEC028BBDE89C
:10113000F08770B55D48007800F098FFBDEEC00AFA
:1011400010EE106A5A4800680088841B59480088CD
:10115000201A01B220B2FFF7C3FC2046FFF776FC4D
:1011600055490968C98B884201DA002580E0534857
:1011700090F9000042F2107108444B49088042F295
:10118000107020444B490988401A4749488042F270
:1011900010702044888042F2107020444549B1F913
:1011A0000010022202FB11004549098808443E490B
:1011B000C88041480068408800EE100AB8EE400A36
:1011C000384890ED001A3C480068008900EE900A0B
:1011D000F8EE600A01EE200A3648B0F90000201A45
:1011E00000EE900AF8EEE00A20EE201A324800687D
:1011F000808800EE100AF8EE400A2A48D0ED011A65
:101200002D480068408900EE100AB8EE400A41EE11
:10121000800A00EE104AF8EEC01AB0EE410A00EE65
:10122000A10A25480068C08800EE900AF8EE600A1E
:101230001C48D0ED021A20480068808901EE100A8F
:10124000B8EE411A41EE810A1A48B0F900000221B5
:1012500001FB10401A49B1F90010084401EE100AD0
:10126000B8EEC11A00EE810ABDEEC00A10EE105AA7
:10127000144828441449C8600E48B0F900001049C9
:10128000088020B20B4921E0540000201C000020FF
:1012900000000000A8080020080300205C000020D7
:1012A0006C0000209C080020C408002018000020CA
:1012B0000C0300201C030020040300206400002015
:1012C0001E030020A08601008C0800200880002D4D
:1012D0000BDD0120F8490870F8480078012801D199
:1012E000F74908700020F5490870002D0BDA01203D
:1012F000F2490870F0480078012801D1F0490870DF
:101300000020ED490870642095FBF0F0ED49096874
:10131000498BED4A92F9002002FB0100EB49096874
:101320000844EA49086070BD10B5FFF702FFE548C0
:101330000068006AE5490968884204D2E14800680B
:10134000006AE2490860DF480068406ADF490968CE
:10135000884204D9DB480068406ADC490860DB4801
:10136000006800F0D2FF10BD10B52C21D5480068F0
:1013700005F06DFB0020D349096808806420D1493D
:10138000096848809621CF48006881803221CD4885
:101390000068C1802120CB49096808813221C948F1
:1013A000006841811121C748006881814FF4FA60CB
:1013B000C4490968C8814FF44871C2480068018275
:1013C0001421C048006841824FF49670BD490968F5
:1013D00088826421BB480068C1820A21B94800683C
:1013E000018347F23050B749096848836420B54902
:1013F000096888830520B3490968C883B448B1499E
:10140000096808626420AF490968486241F288307F
:10141000AC4909688862FFF763F910BD10B5AD49A2
:101420000888AD4901F012F9AA494888AB4901F092
:101430000DF9A8498888AA4901F008F9A64800884A
:1014400000EE100AB8EE400ABCEEC00A10EE100A18
:101450009C4909684880A148008800EE100AB8EE4F
:10146000400ABCEEC00A10EE100A81B2954800682E
:1014700081809B48008800EE100AB8EE400ABCEE5E
:10148000C00A10EE100A81B28E480068C1809149EE
:10149000C888914901F0DAF88E4908898F4901F02E
:1014A000D5F88C4948898E4901F0D0F88A480088DF
:1014B00000EE100AB8EE400ABCEEC00A10EE100AA8
:1014C0008049096808818548008800EE100AB8EE56
:1014D000400ABCEEC00A10EE100A81B279480068DA
:1014E00041817F48008800EE100AB8EE400ABCEE49
:1014F000C00A10EE100A81B27248006881817549F5
:101500008889754901F0A2F87249C889734901F0C8
:101510009DF87049088A724901F098F86E48008871
:1015200000EE100AB8EE400ABCEEC00A10EE100A37
:1015300064490968C8816948008800EE100AB8EE5D
:10154000400ABCEEC00A10EE100A81B25D48006885
:1015500001826348008800EE100AB8EE400ABCEE33
:10156000C00A10EE100A81B25648006841825949FB
:10157000488A594901F06AF85649888A574901F062
:1015800065F85449C88A564901F060F85248008805
:1015900000EE100AB8EE400ABCEEC00A10EE100AC7
:1015A0004849096888824D48008800EE100AB8EE64
:1015B000400ABCEEC00A10EE100A81B24148006831
:1015C000C1824748008800EE100AB8EE400ABCEE1F
:1015D000C00A10EE100A81B23A48006801833D4902
:1015E000088B3D4901F032F83A49488B3B4901F0FC
:1015F0002DF83849888B3A4901F028F83648008898
:10160000304909684883354800882E49096888832D
:10161000334800882B490968C8832E49C88B2E4956
:1016200001F014F82B49088C2C4901F00FF82949D6
:10163000488C2B4901F00AF827480088C0EB00408D
:1016400020490968086225480088C0EB00401D4910
:101650000968486222480088C0EB004019490968BF
:1016600088621C49888C1C4900F0F0FF1949C88C1D
:101670001A4900F0EBFF1749088D194900F0E6FF01
:1016800010480068006A1449098808440D4909682F
:1016900008620C480068406A1049098808440949F2
:1016A0000968486207480068806A0D49098808444B
:1016B00004490968886210BD690000206A000020A2
:1016C00067000020040300206400002018030020AD
:1016D00020A10700CE0200201003002012030020EA
:1016E0001403002010B501F0D0F8FFF797FE204951
:1016F000488D204900F0AAFF1E48008815280CD00C
:10170000012000F031F81A49488D152101F040F907
:10171000002000F029F8FFF727FE10BD10B5932137
:101720001548006805F071F99322144912480068C1
:1017300005F026F910BD10B503F021FA0120FEF7DF
:10174000B4FF0F4800680F4908600D4800682C304E
:1017500009490860FFF7C6FFFFF7CFF8FFF7DEFF84
:1017600010BD09480078704780F31088704700006A
:10177000CE0200201003002008030020A701002053
:1017800034030020040300201A00002010B50220BA
:1017900000F099FB10BD08B54FF4A06003F0D2F83B
:1017A00025208DF8000000208DF801008DF8020042
:1017B00001208DF80300684603F0C9F81E208DF85B
:1017C000000001208DF8010000208DF802000120AA
:1017D0008DF80300684603F0BAF81D208DF800006C
:1017E00002208DF8010000208DF8020001208DF804
:1017F0000300684603F0ABF81C208DF800000320BE
:101800008DF8010000208DF8020001208DF8030002
:10181000684603F09CF811208DF8000000208DF838
:10182000010001208DF802008DF80300684603F0E6
:101830008EF808BD1CB54FF44070009003208DF861
:10184000040000208DF807006946744801F0F5F99E
:101850004FF40050009000208DF8040003208DF814
:10186000050000208DF8070069464FF0904001F018
:10187000E4F94FF48070009001208DF804000020FE
:101880008DF8060001208DF8070003208DF8050073
:1018900069464FF0904001F0D0F9082000900220F6
:1018A0008DF8040003208DF8050000208DF8070056
:1018B00069465B4801F0C1F901220321584801F053
:1018C00043FA0E20009001208DF8050002208DF8CB
:1018D000040000208DF8060001208DF807006946FD
:1018E0004FF0904001F0A9F9062201214FF09040FD
:1018F00001F02AFA062202214FF0904001F024FA6A
:10190000062203214FF0904001F01EFA10200090B3
:1019100001208DF805008DF8040000208DF80600E8
:1019200001208DF8070069464FF0904001F085F9DD
:101930004FF4C060009002208DF8040000208DF864
:10194000060001208DF8070003208DF80500694688
:101950004FF0904001F071F94FF480700090012039
:101960008DF8040000208DF8060001208DF8070096
:1019700003208DF8050069462A4801F05EF9072228
:101980000921C80601F0E0F907220A214FF0904032
:1019900001F0DAF91CBD10B50121480401F05CFC2E
:1019A0000121880401F058FC0121080501F054FCD4
:1019B0000121480501F050FC0121084601F04CFCD2
:1019C0000121084601F062FC0121022001F05EFCC9
:1019D0000121C80301F05AFC0121880301F049FCF0
:1019E00010BD10B5FFF7D7FFFFF724FFFFF7D3FEB9
:1019F00000F0B4F900F022FA00F03EFA00F079FAB3
:101A000000F02AFD00F079FCFFF795FE00F0D1FB15
:101A100001F07AF801200449087010BD0010004858
:101A200000040048000C0048240300202DE9F04386
:101A300003460020C14D00261327DFF80483B8F8C1
:101A400000C0A1F101081FFA88F1B1421FDB01EBD0
:101A5000020806EB0709C84519DCA1EB0C081FFAC0
:101A600088F411E035F814804FEA282803F8018B38
:101A700015F8148003F8018B04F101081FFA88F4AB
:101A8000A2F101081FFA88F2002AEBDC00E0012035
:101A9000BDE8F0832DE9FC5F04460E4617469946E3
:101AA00000200190DFF89C8282464FF0640BA6482C
:101AB00000880090701E86B2564538DBF0190AEB9C
:101AC0000B01884233DC0098301A85B2B9F1000F5F
:101AD00003D0B9F1010F29D110E00CE038F815005E
:101AE000001204F8010B18F8150004F8010B681C2B
:101AF00085B2781E87B2002FF0DC17E00FE014F8F3
:101B0000011B080228F8150014F8010B38F815100D
:101B1000084328F81500681C85B2781E87B2002F8C
:101B2000EDDC012E01D1FEF76FFF00BF01E00120C7
:101B300001900198BDE8FC9F2DE9FF5F05460E4628
:101B400014469A46002003902046E11704EB517199
:101B5000C910491C1FFA81F9DFF8F08100200290BA
:101B6000032001907A4800880090701E86B2029887
:101B700086427EDB3219DDE901100844824278DCBE
:101B80000099711A88B2C11700EB5171CF100099FA
:101B9000711A88B2C11700EB5171C910A0EBC101D5
:101BA0001FFA81FBBAF1000F03D0BAF1010F5FD128
:101BB00026E00EE039467A1C97B201EB08000822B5
:101BC000594604F051F905F8010BA9F101001FFA7B
:101BD00080F9B9F1000FEDDC6D1E2046E11704EB32
:101BE0005171C910A4EBC1018CB22878C4F108016D
:101BF000884028702878C4F108010841287037E02F
:101C00000EE015F8013B39467A1C97B201EB08004B
:101C10000822594604F0F4F8A9F101001FFA80F9EE
:101C2000B9F1010FEDDC2046E11704EB5171C91049
:101C3000A4EBC1018CB264B115F8013BE2B23946A4
:101C400007F1010C1FFA8CF701EB0800594604F06C
:101C5000D7F82EB998F80000FEF710FD07E008E06D
:101C6000032E04D198F80010C808FEF71EFD00BF2F
:101C700001E001200390039804B0BDE8F09F2DE936
:101C8000FE4F05460E461446002002902046E117FE
:101C900004EB5171C910491C1FFA81F92D480190BC
:101CA0004FF0000A072000902B48B0F800B0701EDB
:101CB00086B256453DDB311900985044814238DCEC
:101CC000A6EB0B0188B2C11700EB5171CF10A6EB48
:101CD0000B0188B2C11700EB5171C910A0EBC10113
:101CE0001FFA81F80EE039467A1C97B2019A8818DB
:101CF0000822414604F0B8F805F8010BA9F10100EB
:101D00001FFA80F9B9F1000FEDDC6D1E2046E117D6
:101D100004EB5171C910A4EBC1018CB22878C4F155
:101D20000801884028702878C4F10801084128700B
:101D300001E0012002900298BDE8FE8FD00800204B
:101D40002C030020F60800202E0300203903002079
:101D50002A030020380300202803002010B56FF06C
:101D6000040002F03FFE2D4800682D49B0FBF1F061
:101D70002C4908700846007800EB4001C1EBC01008
:101D80004FF6FF7101EAC0002749088010BD0146E7
:101D9000244A12784A434FF0E0235A6100229A61A4
:101DA0001A46126942F001021A6100BF4FF0E022A8
:101DB000106910F0010F02D010F4803FF6D04FF000
:101DC000E022126922F001024FF0E0231A610022A2
:101DD0009A6170470146144A12884A434FF0E02343
:101DE0005A6100229A611A46126942F001021A6190
:101DF00000BF4FF0E022106910F0010F02D010F484
:101E0000803FF6D04FF0E022126922F001024FF03D
:101E1000E0231A6100229A61704700000000002050
:101E200000127A003A0300203C03002010B54FF462
:101E300080714FF0904000F07EFF10BD10B5FFF7AD
:101E4000F5FF10BD10B54FF480714FF0904000F0D9
:101E500070FF10BD10B54FF480714FF0904000F04E
:101E60005CFFC0F10100C4B222464FF480714FF014
:101E7000904000F062FF10BD10B500240BE0FFF7AA
:101E8000E1FFC820FFF7A6FFFFF7D0FFC820FFF74C
:101E9000A1FF601CC4B2032CF1DB00240BE0FFF7B0
:101EA000D1FF6420FFF796FFFFF7C0FF6420FFF724
:101EB00091FF601CC4B2032CF1DBFFF7B7FF642075
:101EC000FFF788FF10BD70B50446002500BF0BE08A
:101ED000FFF7B8FFC820FFF77DFFFFF7A7FFC82077
:101EE000FFF778FF681CC5B2A542F1DBFFF79EFF44
:101EF00070BD10B54FF400514FF0904000F019FF45
:101F000010BD0020704770B504460D462946204696
:101F100000F0F7FE90B90A20FFF75CFF2946204643
:101F200000F0EFFE40B900BF2946204600F0E9FE70
:101F30000028F9D0012070BD0020FCE70020FAE75E
:101F400070B52DED048B0024002500209B4908600E
:101F5000486000BF13E0994801686000401C984A3F
:101F600032F910000844954908600846416860004D
:101F700032F91000084491494860601C84B2B4F5FD
:101F8000806FE8DB8D480068801205B205F50040DF
:101F900000EE100AB8EEC00ADFED8A0A60EE200AF1
:101FA0009FED891A80EE810AF0EE000A20EE200AE9
:101FB000864880ED000A81484068801205B205F528
:101FC000004000EE100AB8EEC00ADFED7E0A20EEF7
:101FD000200ADFED7D0A80EE201AB0EE000A21EE25
:101FE000000A7A4880ED010A90ED000AF2EE040A38
:101FF00020EE200ABCEEC00A10EE100A74490968EF
:102000000880724890ED010AF2EE040A20EE200AE0
:10201000BCEEC00A10EE100A6D49096848806B4892
:1020200090ED000A10EE101A084604F025FF41EC6E
:10203000100BB0EE409AF0EE609A9FED660B53ECF9
:10204000102B51EC190B04F019FE41EC100BB0EE03
:10205000408AF0EE608A51EC180B04F0E1FD86B284
:10206000304600F0F4FCBDEC048B70BD18B9574944
:1020700091ED000A7047554991ED010AFAE710B554
:1020800090B000240121080601F0F3F801210807AF
:1020900001F0FCF80121480202F0E9FC4FF0784021
:1020A00000F066FF4FF4407001F068FD0520FFF777
:1020B00091FE0121494801F040FD0121474801F00E
:1020C00047FD1E2400BF4FF00041444801F022FEAE
:1020D00010B9601E0400F6D114B9012010B010BD73
:1020E0004FF040600C9000200D900E900F900CAAC5
:1020F00000213A4801F0FDFC00223949374801F03F
:102100000DFD00223749354801F008FD36493348B6
:1021100001F07BFD0121314801F085FD00212F48B0
:1021200001F016FD00212D4801F030FD2B4801F093
:1021300034FD4FF4F03400BF0121284801F0EAFDDE
:1021400010B9601E0400F7D10CB90220C6E723487D
:1021500001F056FD0121022001F07EF8234801F034
:1021600063FB1E48603001901548029000200390E8
:102170004FF40060ADF8100000200590802006901C
:1021800040000790800008902020099000020A90EB
:1021900000200B9001A9154801F0E8FB012113482C
:1021A00001F00FFC012211040C4801F0A1FD0020F8
:1021B00094E710B5FFF763FF10BD00004C0300204B
:1021C000BE09002000E0324500FF7F4744030020A5
:1021D000300300202D431CEBE2362A400060014012
:1021E000000108008000070080010F003004024059
:1021F00010B588B0044600214FF0804001F0F0FE99
:1022000006940020ADF81400ADF81C00ADF81600DF
:1022100005A94FF0804001F057FE6020ADF80000A6
:102220000120ADF8020000200290ADF80C006946D4
:102230004FF0804001F047FF0821C80602F053F834
:102240000121880701F0AEFE0121880701F0C8FED8
:1022500001221102880502F0A2FA0122910208056A
:1022600002F09DFA0121880701F0E2FE08B010BDDE
:1022700000B58BB05B4801F0D7FA684601F094FBDB
:102280005948009059480190102002905848007811
:10229000ADF80C000020049080200590800006908E
:1022A00080000790202008900002099000200A90EA
:1022B00069464C4801F05AFB4FF0007001F0AFFB4B
:1022C0004FF0806001F0ABFB4FF0006001F0A7FB26
:1022D00001220221434801F086FB012204214148EA
:1022E00001F081FB012208213E4801F07CFB012125
:1022F0003C4801F066FB0BB000BD10B5FFF7B8FF1E
:102300004FF6FF70FFF774FF10BD0146C1F34F1287
:10231000384B1A8001F01F02374B1A7000200EE074
:10232000364A354B1B7802EB4312125C314B1B884B
:102330001A4492B2324B43F82020421CD0B22028DB
:10234000EEDB00222F4B1A702F4B1A7070470020C3
:1023500000BF07E02A4951F82010244A42F8201013
:10236000411CC8B22028F5DB0121264A11707047B4
:10237000002000BF09E0224951F820201B4B00F14A
:10238000200143F82120411CC8B22028F3DB0121A1
:102390001D4A1170704710B54FF0007001F04AFBF4
:1023A00040B14FF0007001F058FB1748007808B9B1
:1023B000FFF7DEFF4FF0806001F03CFB40B14FF0D3
:1023C000806001F04AFB0F48007808B9FFF7BFFFB3
:1023D0004FF0006001F02EFB18B14FF0006001F0EB
:1023E0003CFB10BD8000024038000040401A002035
:1023F00054070020580700205A07002054030020EB
:10240000C019002055070020560700203EB504469D
:102410000121042000F03AFF64200190A0B2ADF841
:1024200000000020ADF80800ADF8020069462B4816
:1024300001F04AFD0121294802F095F901221146D7
:10244000264802F07CF90121244801F0C9FD002151
:10245000042000F01BFF3EBD10B54720FFF7D6FF5C
:102460000121042000F012FF10BD10B504462046E3
:10247000FFF7CCFF0121042000F008FF10BD174832
:102480001030008810F0010F25D04FF6FE70134970
:10249000103108801248007800B970471148006870
:1024A000401C1049086000200F4908700FE00F48D9
:1024B0000D49097830F81100401C0C490A4A12787D
:1024C00021F8120008480078401C074908700648A7
:1024D00000780428EBDB00BFDFE7000000080040C5
:1024E0002403002060070020640700206607002006
:1024F000034606210622FA480188FA480288A3B159
:10250000012B1AD132B9A1F56E40EE3800D17047D7
:102510000120FCE739B9A2F56E40EE3801D1012067
:10252000F5E70020F3E7AB20F1E709B90020EEE77B
:102530000AB90120EBE7AB20E9E70020E7E770B537
:10254000042600240120FFF7D3FF0446AB2C06D15C
:10255000E34800EBC420E4490860AB2070BDE048CC
:1025600000EBC420E0490860601CDD49891E01EBD6
:10257000C0250CE0DC4800680068401C02D104263D
:102580003046EBE7D8480068001DD7490860D648B8
:102590000068A842EED38020E0E710B50424D048BC
:1025A00002F02AFB0446042C01D0204610BD002175
:1025B000CB4802F099FB0446042C01D02046F5E7F5
:1025C000C84802F019FB04462046EFE72DE9F04128
:1025D00004460F4604250026DFF80883A8F1010809
:1025E0000120FFF785FF0646AB2E01D1BDE8F08143
:1025F000701CBB49891E01EBC02821E0BA48006865
:102600000068401C17D13946B748006802F06CFBDF
:102610000546042D01D02846E8E72146B248006867
:10262000801C02F061FB0546AF480068001DAE4902
:1026300008602846DAE7AC480068001DAA4908602F
:10264000A94800684045D9D38020CFE72DE9F0475D
:1026500006460F46002545F255584FF00109A04C9B
:10266000A2460020FFF744FF0546AB2D01D1BDE88F
:10267000F0879B4800EBC52A9B480068841E0AE04F
:10268000B4F80080B04505D134F8020C38804FF022
:10269000000904E0241F0AF102008442F0D800BFC0
:1026A0004846E4E72DE9F0474FF0060A06260025E4
:1026B0000027A8464FF0FF398948B0F800A08948A4
:1026C00006885FEA0A0075D0A0F56E40EE382AD081
:1026D000A0F5885011386ED146B9814802F08CFAC5
:1026E0000446042C1ED02046BDE8F087A6F56E40B7
:1026F000EE3810D17A4802F07FFA0446042C01D05B
:102700002046F1E70021774802F0EEFA0446042C57
:1027100008D02046E8E7FFF740FF0446042C01D02C
:102720002046E1E7AEE086BB002523E06C48801D33
:1027300000886E4931F81510884201D10FFA85F9E9
:102740004D4515D0694931F815006949FFF77EFFFD
:102750008046B8F1010F0BD0644931F81500644987
:102760000988FFF733FF0746042F01D03846BBE73F
:10277000681C85B21A2DD9DB0021594802F0B4FA41
:102780000446042C02D02046AEE707E0554802F08C
:1027900033FA0446042C1FD02046A5E7A6F57F4057
:1027A000FF3812D14F4802F027FA0446042C03D018
:1027B000204699E711E05DE00021494802F094FAD3
:1027C0000446042C08D020468EE7FFF7E6FE0446B8
:1027D000042C01D0204687E754E036B9FFF7DDFE30
:1027E0000446042C45D020467EE7A6F57F40FF38FE
:1027F00007D13C4802F000FA0446042C39D02046A8
:1028000072E7002522E03748C088384931F81510B2
:10281000884201D10FFA85F94D4515D0334931F879
:1028200015003349FFF712FF8046B8F1010F0BD0B6
:102830002E4931F815002E490988FFF7C7FE0746D3
:10284000042F01D038464FE7681C85B21A2DDADB19
:102850000021244802F048FA0446042C01D0204606
:1028600042E71F4802F0C8F90446042C01D0204674
:102870003AE707E0FFF791FE0446042C01D020461A
:1028800032E700BF00BF04202EE710B5FFF70AFFB4
:102890000446FFF754FE204610BD2DE9F84F0746C9
:1028A00089460425DFF84CA00D4800904FF0000841
:1028B000002400264FF0000B0020FFF719FE804691
:1028C000B8F1010F04D1DFF818A00648009016E017
:1028D000B8F1000F10D1DFF80CA0014800900EE015
:1028E00000E8030800F0030874070020CE0200206F
:1028F00070070020FFEB0308AB20BDE8F88F4EF611
:10290000EE61504602F0F0F90546042D01D028464C
:10291000F3E7FFF714FE49463846FFF757FE064631
:10292000042E01D03046E8E700241CE0214830F8AE
:102930001400B84215D01F4931F814001E49FFF7A2
:1029400085FE8346BBF1010F0BD01A4931F8140004
:1029500019490988FFF73AFE0646042E01D0304691
:10296000CBE7601C84B21A2CE0DB009802F044F93B
:102970000546042D01D02846BFE70021504602F04D
:10298000B3F90546042D01D02846B6E72846B4E73A
:1029900070B505460E46002431462846FFF716FE60
:1029A0000446802C04D131462846FFF776FF0446C2
:1029B000204670BDCE0200207007002070B505468D
:1029C000002405E0601CC4B2642C01DD204670BD0B
:1029D0000221724802F077FD0028F3D029466F48A3
:1029E00002F010FD002405E0601CC4B26E2C01DD75
:1029F0002046ECE70121694802F065FD0028F3D08C
:102A0000664802F006FDE2E72DE9F04105460C4676
:102A100010214FF0904000F08EF90120FFF7DAF915
:102A20002846FFF7CBFF0646270A3846FFF7C6FFC2
:102A3000E7B23846FFF7C2FF0120FFF7CBF91021BC
:102A40004FF0904000F075F93046BDE8F08110B5C8
:102A5000044621460320FFF7D7FF10BD2DE9F05FA4
:102A60000025002600274FF001084FF00109AA4673
:102A70004FF0030B680240EA062040EAC71040EA24
:102A8000881040EA491040EACA0040EA0B04214697
:102A90000420FFF7B9FFBDE8F09F00B585B0002125
:102AA0003E4802F044FC0020ADF800004FF4827074
:102AB000ADF802004FF4E060ADF804000020ADF87E
:102AC00006000120ADF808004002ADF80A003020F1
:102AD000ADF80C000020ADF80E000720ADF8100096
:102AE00010214FF0904000F024F969462B4802F085
:102AF00080FB0121294802F01AFC0E214FF0904082
:102B000000F017F905B000BD10B5FFF7C6FFFFF7DD
:102B1000A5FF0020FFF79BFF10BD70B505460E46D0
:102B200010214FF0904000F006F90120FFF752F914
:102B3000002405E0285DFFF741FF2855601CC4B262
:102B4000B442F7DB0120FFF745F910214FF0904028
:102B500000F0EFF8002070BD00B591B000210C200E
:102B6000FFF752FF00208DF80400032101A8FFF7B2
:102B7000D4FF11B000BD10B50446084800884FF6D8
:102B8000C77108400549088008460088204308802E
:102B90000121024802F0CBFB10BD0000003C0040C8
:102BA00010B50446B4F1904F09D10121480400F05A
:102BB0007AFB00214FF4003000F075FB3CE07448D4
:102BC000844208D10121000200F06DFB00212002A7
:102BD00000F069FB30E06F48844208D10121000217
:102BE00000F061FB0021200200F05DFB24E06A4858
:102BF000844209D10121080500F055FB00214FF462
:102C0000801000F050FB17E06448844208D1012195
:102C1000400200F048FB0021600200F044FB0BE0A2
:102C20005F48844208D10121880500F03CFB002167
:102C30004FF4800000F037FB10BDF0B50A460021CC
:102C40000023002400BF3DE0012505FA01F31568CB
:102C500005EA03049C4234D11579012D02D015797F
:102C6000022D16D185684F000326BE40B54385600E
:102C700055794E00B54086683543856086880125C4
:102C80008D40AE438680868895798D40ADB22E43C7
:102C9000868005684F000326BE40B5430560157960
:102CA0004E00B540066835430560C5684F000326F1
:102CB000BE40B543C560D5794E00B540C6683543C2
:102CC000C560491C1029BFD3F0BD4FF6FF710160EC
:102CD000002101710221417100218171C171704790
:102CE00008B54FF480320092009A0A430092009A8D
:102CF000C261C161009AC261C2690092C269009258
:102D000008BD02460020138A0B4201D0012000E0DA
:102D1000002070470146088A704702460020938AC7
:102D20000B4201D0012000E0002070470146888A54
:102D3000704781617047018570470AB1816100E089
:102D40000185704781827047F0B5002300244D074C
:102D5000ED0E02FA05F3CE1000F1200555F82650CD
:102D60004E07F70E0F26BE40B543CF1000F12006E8
:102D700046F82750CE1000F1200555F8265045EAB8
:102D80000304CE1000F1200545F82640F0BD0000F8
:102D90000004004800080048000C004800100048EB
:102DA00000140048F848006840F00100F649086047
:102DB0000846406800F47F00486008460068F34910
:102DC0000840F14908600846006820F48020086047
:102DD0000846406820F4FE0048600846C06A20F0BB
:102DE0000F00C8620846006BE9490840E6490863DD
:102DF0000020886070470021E34A91701146887076
:102E0000704710B501460022002300204A1112B974
:102E1000DD4C236806E0012A02D1DB4C236A01E085
:102E2000D94C636A01F01F02012494401C4201D076
:102E3000012000E0002010BD38B5002000900024E3
:102E4000002500BF1120FFF7DCFF05460098401C5D
:102E500000900098B0F5A06F01D0002DF2D01120A5
:102E6000FFF7CFFF08B1012400E00024204638BD61
:102E700001460020C44A106820F0F80040EAC10072
:102E800010607047C34908607047BF49096A21F064
:102E90000101BD4A11621146096A21F00401116263
:102EA0001146096A014311627047B749096A21F066
:102EB0001801B54A11621146096A0143116270474F
:102EC000B54908607047B04A526822F47412AE4B9C
:102ED0005A601A46526840EA01031A43AA4B5A60E4
:102EE0007047AC490866704701460020A64AD06A80
:102EF00020F00F000843D0627047A649C8647047AD
:102F0000A149C8717047014600209F4A506820F0CF
:102F100003000843506070479B48406800F00C0075
:102F2000704701460020984A506820F0F00008439E
:102F30005060704701460020934A506820F4E060DA
:102F4000084350607047014600208F4A506820F4C3
:102F5000605040EAC100506070478B49496821F4D5
:102F60004041894A516011464968014351607047A8
:102F70008549496821F07841834A51601146496882
:102F80000143516070478049096B21F040017E4A3E
:102F900011631146096B0143116370470021010F52
:102FA00031B9794A126B22F01002774B1A6305E0AF
:102FB000754A126B22F02002734B1A63724A126B2D
:102FC0000243714B1A6370470021010F012904D09D
:102FD000022909D0032915D10DE06B4A126B22F0AA
:102FE0000302694B1A630EE0674A126B22F4403207
:102FF000654B1A6307E0644A126B22F44022624B6D
:103000001A6300E000BF00BF5F4A126B02435E4BD1
:103010001A63704761490860704770B5002100234A
:10302000002400250022584E766806F00C0121B1DC
:10303000042905D0082921D105E0594E066020E079
:10304000574E06601DE0504E766806F470134E4EE3
:10305000766806F48034022606EB93431CB9514E81
:103060005E43066009E0484EF66A06F00F06751CDE
:103070004B4EB6FBF5F65E43066002E0484E066036
:1030800000BF00BF404E766806F0F0010909464EC9
:10309000725C0668D64046603B4E766806F4E06196
:1030A000090A414E725C4668D6408660364E7668A4
:1030B00006F46051C90A3C4E725C4668D640C66050
:1030C000314E766806F44041890B384E725CC66812
:1030D000B6FBF2F606612C4E766806F07841C1F335
:1030E000C361334E725C0668B6FBF2F64661264E4B
:1030F000366B06F04006402E03D048F21206866179
:1031000002E04FF4004686611F4E366B06F0100653
:10311000102E02D0224EC66101E00668C6611A4E2A
:10312000366B06F02006202E02D01D4E066201E00E
:1031300006680662144E366B16F0030F02D1C6689D
:10314000466219E0104E366B06F00306012E02D1DE
:103150000668466210E00C4E366B06F00306022E3F
:1031600002D1B603466207E0074E366B06F003064F
:10317000032E01D10A4E4662034E366B16F4403FD1
:1031800018D18668866233E000100240FFFFF6FE29
:103190008C0FFF0F0000424280044242D80042429E
:1031A00000127A0000093D007807002088070020FF
:1031B0008C070020604E366B06F44036B6F5803F33
:1031C00002D10668866213E05B4E366B06F4403629
:1031D000B6F5003F03D14FF40046866208E0564E34
:1031E000366B06F44036B6F5403F01D1534E866249
:1031F000514E366B16F4402F02D18668C6621DE030
:103200004D4E366B06F44026B6F5802F02D1066887
:10321000C66213E0484E366B06F44026B6F5002F22
:1032200003D14FF40046C66208E0434E366B06F405
:103230004026B6F5402F01D1404EC66270BD3E49D2
:10324000096A01433C4A116270473D490860704772
:103250003B49091D0860704729B1374A526902434A
:10326000354B5A6104E0344A52698243324B5A6109
:10327000704729B1304A926902432F4B9A6104E0AA
:103280002D4A926982432C4B9A61704729B12A4A90
:10329000D2690243284BDA6104E0274AD2698243AB
:1032A000254BDA61704729B1234A926A0243224BC7
:1032B0009A6204E0204A926A82431F4B9A627047E6
:1032C00029B11D4AD26802431B4BDA6004E01A4A56
:1032D000D2688243184BDA60704729B1164A1269E6
:1032E0000243154B1A6104E0134A12698243124BE0
:1032F0001A61704729B1104A527A02430E4B5A7232
:1033000004E00D4A527A82430B4B5A7270470A48C6
:10331000406A40F0807008494862704701460020CA
:10332000054A92680A4201D0012000E0002070475F
:1033300001498872704700000010024000127A00B4
:103340003C04424210B50446F848844209D10121A8
:103350008803FFF7B5FF00214FF48040FFF7B0FF6F
:1033600018E0F348844209D101214804FFF7B5FF72
:1033700000214FF40030FFF7B0FF0BE0ED4884422E
:1033800008D101218804FFF7A8FF00214FF4802015
:10339000FFF7A3FF10BD2DE9F0418CB004460D46A8
:1033A0000027B8460026206820F0010020606668EB
:1033B00026F44056A86806436660266841F20C6011
:1033C0008643E9686868084329690843064326601C
:1033D000A66826F4407668690643A6606846FFF74B
:1033E0001CFED248844202D1DDF8248007E0D04898
:1033F000844202D1DDF8288001E0DDF82C802068CD
:1034000010F4004F0CD04FEA48002968B0FBF1F7E8
:103410004FEA48002968B0FBF1F201FB120607E011
:103420002868B8FBF0F72868B8FBF0F100FB1186BC
:103430002868B6EB500F00D37F1C206810F4004FB3
:1034400007D0C7F342064FF6F07107EA010040EAE1
:103450000607A7810CB0BDE8F0814FF4165101605A
:10346000002141608160C1600C2101610021416146
:10347000704710B50022426822F47062D1E900342E
:1034800023438C682343CC6823431A43426010BD16
:103490000021016041608160C160704721B1026814
:1034A00042F00102026003E0026822F001020260C1
:1034B00070471AB103680B43036002E003688B4353
:1034C0000360704721B1026842F40042026003E0E9
:1034D000026822F400420260704721B1826842F41F
:1034E0000062826003E0826822F4006282607047BA
:1034F00021B1426842F40022426003E0426822F4B3
:1035000000224260704721B1426842F4802242604A
:1035100003E0426822F48022426070471AB1436897
:103520000B43436002E043688B434360704721B123
:10353000426842F40042426003E0426822F40042E2
:103540004260704721B1426842F40002426003E0E9
:10355000426822F4000242607047426902F07F42F2
:10356000426142690A4342617047028A02F47F4223
:103570000282028A0A430282704721B1026842F045
:103580000202026003E0026822F002020260704759
:10359000826822F44012826082680A438260704727
:1035A00021B1426842F48012426003E0426822F492
:1035B000801242607047426822F4C0024260426852
:1035C0000A4342607047C1F3080202857047014612
:1035D000888CC0F308007047426822F07F42426046
:1035E000426842EA01624260704721B1026842F4D7
:1035F0000052026003E0026822F400520260704749
:10360000026822F40062026002680A4302607047A6
:10361000426822F01002426042680A4342607047EA
:10362000426822F02002426042680A4342607047CA
:1036300021B1426842F48042426003E0426822F4D1
:1036400080424260704721B1826842F00802826085
:1036500003E0826822F0080282607047028AD2B2D8
:103660000282028A42EA01220282704721B1826804
:1036700042F02002826003E0826822F02002826031
:10368000704721B1826842F01002826003E08268D4
:1036900022F0100282607047826822F46022826009
:1036A000826842EA414282607047426922F07F426A
:1036B0004261426942EA016242617047826822F0D7
:1036C0000402826082680A438260704721B1826886
:1036D00042F00202826003E0826822F0020282600D
:1036E000704721B1826842F48042826003E08268C0
:1036F00022F4804282607047826822F40042826035
:1037000082680A4382607047026822F07872026021
:10371000026842EA415202607047026822F4F812DD
:103720000260026842EA01420260704700380140CC
:1037300000440040004800401AB183680B43836096
:1037400002E083688B4383607047826822F40052F2
:10375000826082680A4382607047F0B503460024A5
:103760000026002500201846C1F30724CEB2012709
:1037700007FA06F5022C01D1001D02E0032C00D14E
:1037800008301AB107682F43076002E00768AF43AB
:103790000760F0BD1AB1038B0B43038302E0038B78
:1037A0008B4303837047826822F480528260826870
:1037B0000A438260704702460020D3690B4201D061
:1037C000012000E0002070470162704770B502469A
:1037D0000B460024002100250020C3F30725D9B2A1
:1037E000012606FA01F1012D02D11668314006E0EA
:1037F000022D02D15668314001E0966831401C0C20
:10380000012606FA04F4D669344011B10CB1012046
:1038100000E0002070BD10B5002200230A0C012436
:1038200004FA02F3036210BD01684FF6FE72114004
:1038300001600021016041608160C1608C49884263
:1038400008D18B490839496841F00F01884A083A84
:1038500051608AE086491431884208D18449083988
:10386000496841F0F001824A083A51607DE08049A0
:103870002831884208D17E490839496841F470618D
:103880007B4A083A516070E079493C31884208D15E
:1038900077490839496841F47041754A083A5160DE
:1038A00063E073495031884208D171490839496849
:1038B00041F470216E4A083A516056E06C49643117
:1038C000884208D16A490839496841F47001684A58
:1038D000083A516049E066497831884208D1644924
:1038E0000839496841F07061614A083A51603CE02A
:1038F0006049884206D1011F096841F00F01021F8B
:10390000116032E05B491431884208D15949091FDE
:10391000096841F0F001574A121F116025E055492E
:103920002831884208D15349091F096841F4706160
:10393000504A121F116018E04E493C31884208D1AC
:103940004C49091F096841F470414A4A121F11602D
:103950000BE048495031884207D14649091F0968A0
:1039600041F47021434A121F1160704710B50022C4
:10397000026847F6F0739A430C6A8B6823430C691C
:1039800023434C6923438C692343CC6923434C6A0A
:1039900023438C6A23431A4302608B8943600B687C
:1039A00083604B68C36010BD00210160416081608D
:1039B0008181016141618161C16101624162816214
:1039C000704721B1026842F00102026004E002681F
:1039D0004FF6FE731A40026070474160704701461F
:1039E000486880B270471AB103680B43036002E075
:1039F00003688B430360704701460020002211F0EA
:103A0000805F03D01B4B083B1A6802E0184B083B51
:103A10001A680A4201D0012000E00020704710F02F
:103A2000805F03D01349091F086002E0104908397C
:103A30004860704701460020002211F0805F03D0EB
:103A40000C4B083B1A6802E0094B083B1A680A4213
:103A500001D0012000E00020704710F0805F03D00B
:103A60000449091F086002E00149083948607047AD
:103A7000080002400804024010B50446B6488442DB
:103A800009D101210806FFF71BFC00214FF08070CF
:103A9000FFF716FC15E0B148844209D10121480620
:103AA000FFF70EFC00214FF00070FFF709FC08E063
:103AB00001218806FFF704FC00214FF08060FFF72A
:103AC000FFFB10BD10B500224268A54B1A400B79D0
:103AD0009B054C7943EA04630C6804F47024234387
:103AE0001A43426010BD0121016000210171417142
:103AF000704730B5002300F1200303EB8103D2E9C6
:103B000000452C4395682C43D5682C431C6030BD80
:103B10000021016041608160C160704730B50023C1
:103B2000904CA14207D00B0C046C9D0002FA05F5E5
:103B30002C43046400E0426430BD21B1426842F08D
:103B40000102426003E0426822F0010242607047D5
:103B500021B1026842F00042026003E0026822F0F4
:103B600000420260704721B1426842F080724260B8
:103B700003E0426822F08072426070470146764A54
:103B8000106820F440700843106070470A4641688E
:103B900021F00601114341607047416841F0100176
:103BA000416070470A46416821F47021130C1B04E0
:103BB00019434160704721B1426842F4800242607B
:103BC00003E0426822F4800242607047416841F499
:103BD0000001416070470146486E00B2704721B154
:103BE000026842F40042026003E0026822F40042EC
:103BF000026070475848406F70475748C06F704721
:103C0000416841F40041416070478AB242617047A7
:103C100021B1426842F04002426003E0426822F073
:103C200040024260704721B1426842F02002426087
:103C300003E0426822F02002426070470A460021F9
:103C4000416821F470611143416070470A460021C8
:103C5000416821F4C0411143416070470146002092
:103C60000A6E100C0122824042EA0040704730B5D3
:103C700002460B460021116E3B4800EA11200D0E52
:103C80000124AC402043186008B230BD21B1026865
:103C900042F48042026003E0026822F48042026043
:103CA00070472D48006F70472B48806F704721B1D7
:103CB000026842F48052026003E0026822F48052FB
:103CC0000260704721B1026842F40062026003E0C2
:103CD000026822F400620260704721B1026842F477
:103CE0008062026003E0026822F480620260704732
:103CF0001AB103680B43036002E003688B4303605F
:103D000070471AB103680B43036002E003688B43FA
:103D1000036070470246002093680B4201D00120E7
:103D200000E000207047C2680A43C260704730B5A7
:103D30000246002000230024956805EA0103156867
:103D400005EA010413B10CB1012000E0002030BDF0
:103D5000C2680A43C26070470060014000640140CD
:103D6000FFFF30FE000108000000FFFF10B5044611
:103D7000B4F1804F08D101210846FFF7AEFA0021C7
:103D80000120FFF7AAFA9EE0F748844208D10121FA
:103D90000220FFF7A2FA00210220FFF79EFA92E02C
:103DA000F248844208D101210420FFF796FA00214D
:103DB0000420FFF792FA86E0ED48844208D1012101
:103DC0000820FFF78AFA00210820FFF786FA7AE038
:103DD000E848844208D101211020FFF77EFA002133
:103DE0001020FFF77AFA6EE0E348844208D10121FF
:103DF0002020FFF772FA00212020FFF76EFA62E020
:103E0000DE48844208D101214020FFF766FA0021F4
:103E10004020FFF762FA56E0D948844208D10121D8
:103E20008020FFF75AFA00218020FFF756FA4AE077
:103E3000D448844208D101218015FFF74EFA0021B1
:103E4000A015FFF74AFA3EE0CF48844209D101218C
:103E50000804FFF735FA00214FF48030FFF730FAFD
:103E600031E0CA48844209D101214804FFF728FA09
:103E700000214FF40030FFF723FA24E0C4488442C5
:103E800009D101218804FFF71BFA00214FF480209B
:103E9000FFF716FA17E0BF48844208D10121401508
:103EA000FFF71BFA00216015FFF717FA0BE0BA487D
:103EB000844208D10121C804FFF702FA00214FF41F
:103EC0000020FFF7FDF910BD00220288B0F1804FFD
:103ED0000BD0A54B984208D0A44B984205D0A44BD8
:103EE000984202D0AC4B984204D14FF68F731A40DF
:103EF0004B881A439F4B98420AD09F4B984207D059
:103F0000A44B984204D04FF6FF431A400B891A4342
:103F100002804B68C3620B8803859B4B984205D097
:103F20009A4B984202D09A4B984201D18B7A0386E1
:103F30000123838270474FF0FF31416000210180EF
:103F400001814180817270470185828270470A46F3
:103F5000002101884FF68F7319401143018070478B
:103F600041627047C16270470146486A7047014626
:103F7000088D704721B1028842F00202028004E0FD
:103F800002884FF6FD731A400280704721B1028803
:103F900042F00402028004E002884FF6FB731A40EC
:103FA0000280704721B1028842F08002028004E062
:103FB00002884FF67F731A400280704702884FF6DE
:103FC000F7731A40028002880A4302807047028811
:103FD0004FF6FF431A40028002880A43028070476E
:103FE00021B1028842F00102028004E002884FF60B
:103FF000FE731A40028070470A884B881A438B88E8
:104000001A43CB881A430B891A434B891A438B896D
:104010001A43B0F844301A43A0F8442070470021F6
:10402000018041808180C18001814181818170470F
:1040300031B1B0F8442042F40042A0F8442005E039
:10404000B0F84420C2F30E02A0F84420704770B5C7
:10405000002400220023058C4FF6FE7635400584AF
:10406000028C8388048B4FF68F752C40B51E2C4034
:104070000D882C43751E2A408D892A434D882A437A
:10408000414DA84205D0414DA84202D0404DA84222
:1040900013D14FF6F7752A40CD892A434FF6FB75A9
:1040A0002A408D882A434FF6FF652B404FF6FF5577
:1040B0002B400D8A2B434D8A2B43838004838D68CC
:1040C0004563028470BD70B5002200230024058C76
:1040D0004FF6EF7635400584038C8488028B48F6D2
:1040E000FF752A404FF6FF452A400D884FF6FF76B0
:1040F00006EA05252A434FF6DF752B408D8906EA2F
:1041000005152B434D8806EA05152B438480028351
:104110008D688563038470BD70B500220023002480
:10412000058C4FF6FF6635400584038C8488828BAE
:104130004FF68F752A404FF6FC752A400D882A43AA
:104140004FF6FF552B408D894FF6FF7606EA052581
:104150002B434D8806EA05252B43848082838D6896
:10416000C563038470BD00000004004000080040E7
:10417000000C0040001000400014004000180040F7
:10418000001C00400020004000400140004401406D
:1041900000480140009C0040005C014070B50022D6
:1041A00000230024058C4EF6FF7635400584038CF1
:1041B0008488828B48F6FF752A404FF6FF452A40D7
:1041C0000D884FF6FF7606EA05252A434DF6FF7562
:1041D0002B408D8906EA05352B434D8806EA0535C7
:1041E0002B43848082838D680564038470BD002125
:1041F00001804180818081608181C1810182418211
:10420000704770B503460020002418461830012579
:104210008D40ACB21D8CA5431D8409B1082909D17C
:1042200000EB6100056825F0700505600568154321
:1042300005600EE00D1FC5F34E052844056825F402
:10424000E045056005684FF6FF7606EA022635432D
:10425000056070BD4163704781637047C1637047FB
:10426000016470470A460021018B4FF68F73194095
:104270001143018370470A460021018B48F6FF7302
:1042800019404FF6FF7303EA022319430183704775
:104290000A460021818B4FF68F73194011438183A9
:1042A00070470A460021818B48F6FF7319404FF68C
:1042B000FF7303EA022319438183704721B1828887
:1042C00042F00102828004E082884FF6FE731A40B9
:1042D000828070470A460021018B4FF6F773194020
:1042E0001143018370470A460021018B4FF2FF738F
:1042F00019404FF6FF7303EA022319430183704705
:104300000A460021818B4FF6F773194011438183D0
:1043100070470A460021818B4FF2FF7319404FF618
:10432000FF7303EA02231943818370470A46002181
:10433000018B4FF6FB7319401143018370470A4606
:104340000021018B4FF6FF3319404FF6FF7303EA4C
:1043500002231943018370470A460021818B4FF6DF
:10436000FB7319401143818370470A460021818BFA
:104370004FF6FF3319404FF6FF7303EA0223194348
:10438000818370470A460021018B4FF67F731940E5
:104390001143018370470A460021018BC1F30E01CE
:1043A0004FF6FF7303EA02231943018370470A465D
:1043B0000021818B4FF67F73194011438183704731
:1043C0000A460021818BC1F30E014FF6FF7303EA09
:1043D00002231943818370470A460021018C4FF65E
:1043E000FD7319401143018470470A460021018C76
:1043F0004FF6F77319401143018470470A460021B4
:10440000018C4FF6DF7319404FF6FF7303EA021376
:104410001943018470470A460021018C4FF6FF536F
:1044200019404FF6FF7303EA0223194301847047D2
:104430000A460021018C4DF6FF7319404FF6FF73B9
:1044400003EA023319430184704702894FF6F77378
:104450001A40028102890A430281704730B5002365
:1044600001248C40A3B2048C9C430484048C02FA83
:1044700001F5ADB22C43048430BD30B500230424D3
:104480008C40A3B2048C9C430484048C02FA01F592
:10449000ADB22C43048430BD21B1828842F00402C5
:1044A000828004E082884FF6FB731A408280704756
:1044B000828B4FF2FF331A408283828B4FF6FF7359
:1044C00003EA01231A4382837047F0B50C46154670
:1044D000002100220026078C4EF6FF7C07EA0C071D
:1044E0000784818B028C4FF6FF7707EA043640F68B
:1044F000FF4739404FF6FF7707EA052739434FF664
:10450000FF7707EA0337394347F6FF573A4046F447
:1045100080573A4381830284F0BD828B4FF6F37358
:104520001A408283828B0A4382837047F0B50C461F
:104530001546002100220026078C4FF6FF6C07EA83
:104540000C070784818B028C4FF6FF7707EA04265D
:104550004FF60C7739404FF6FF7707EA03172F43E2
:1045600039434FF2FF573A4046F480773A4381830C
:104570000284F0BD028B4FF2FF331A400283028B9C
:104580004FF6FF7303EA01231A4302837047F0B525
:104590000C461546002100220026078C4FF6EF7CC2
:1045A00007EA0C070784018B028C4FF6FF7707EAB6
:1045B000041640F6FF4739404FF6FF7707EA033706
:1045C00039434FF6FF7707EA052739434FF65F7700
:1045D0003A4046F010073A4301830284F0BD028B53
:1045E0004FF6F3731A400283028B0A43028370472B
:1045F000F0B50C46154600210022068C4FF6FE77DA
:104600003E400684018B028C4FF60C7631407E1CB6
:1046100006EA03162E4331434FF6F576324044F056
:104620000106324301830284F0BD70B505460C4695
:10463000208850B92389A28861882846FFF7D8FFCF
:10464000E1882846FFF7CBFF25E0208804280AD11F
:104650002389A28861882846FFF799FFE1882846C8
:10466000FFF788FF17E0208808280AD12389A2884D
:1046700061882846FFF75AFFE1882846FFF74DFF7B
:1046800009E02389A28861882846FFF71EFFE18898
:104690002846FFF70DFF70BD0021018041800121F8
:1046A00081800021C180018170472DE9F0410546DC
:1046B0000C4600260127608808B9022600E0002683
:1046C000A088012801D1022700E001272088A0B995
:1046D0002389A28861882846FFF78AFFE188284657
:1046E000FFF77DFF23893A4631462846FFF74FFF03
:1046F000E1882846FFF73EFF13E02389A2886188FE
:104700002846FFF744FFE1882846FFF733FF238957
:104710003A4631462846FFF76BFFE1882846FFF707
:104720005EFFBDE8F0810146486B70470146886B2B
:1047300070470146C86B70470146086C70471AB154
:1047400083890B43838102E083898B438381704794
:104750008182704702460020138A0B4201D001205B
:1047600000E000207047CA430282704730B502461D
:10477000002000230024158A05EA0103958905EA33
:10478000010413B10CB1012000E0002030BDCA4388
:104790000282704741EA0203A0F8483070471AB11C
:1047A00083890B43838102E083898B438381704734
:1047B00021B1828842F00802828004E082884FF6AC
:1047C000F7731A408280704701894FF6F8721140E2
:1047D000018170470A46002101894FF68F73194005
:1047E00011430181704730B504460D4629462046E5
:1047F000FFF7F0FF208940F00700208130BD2DE950
:10480000F04104460D4616461F46602D06D13B4634
:10481000012231462046FFF7BAFE05E03B46012261
:1048200031462046FFF7E4FE29462046FFF7D2FF37
:10483000208940F007002081BDE8F08130B50C46AA
:1048400000210189C9B24FF6FF7505EA032515431A
:1048500025432943018130BD2DE9F04105460E462F
:1048600017469846002443463A4631462846FFF705
:10487000E5FF2C894FF6F870044044F007044FF62A
:104880008F70044044F070042C81BDE8F081F0B5D5
:1048900004460D4616461F463B46324629462046EC
:1048A000FFF7CCFF208940F480402081F0BD828852
:1048B0004FF68F731A40828082880A438280704745
:1048C00002894FF6F8731A40028102890A43028175
:1048D000704702894FF67F731A40028102890A43AA
:1048E00002817047F0B50C4615461E460021002295
:1048F00000230189028B038C4FF6F877394021435E
:104900004FF6FC473A4040F201173A434FF6DD7745
:104910003B404FF6FF7707EA06172F433B430181E1
:1049200002830384F0BD21B1828842F0800282803C
:1049300004E082884FF67F731A4082807047A0F8A7
:104940005010704731490143314A1160704770B5CA
:10495000002100230F22C4780CB32D4C246804F4EA
:10496000E064C4F5E064210AC1F10403CA4044785C
:1049700004FA03F18478144021430901254C067898
:10498000A155047804F01F050124AC4005786D1191
:104990004FF0E02606EB8505C5F8004109E00478F4
:1049A00004F01F050124AC401B4D0678761145F834
:1049B000264070BD194A0A400243154B1B1F1A605E
:1049C000704739B1124A121D12680243104B1B1D69
:1049D0001A6006E00E4A121D126882430C4B1B1D22
:1049E0001A607047042808D14FF0E021096941F0AE
:1049F00004014FF0E022116107E04FF0E021096966
:104A000021F004014FF0E022116170470000FA0527
:104A10000CED00E000E400E080E100E080FFFF1F1B
:104A200010B501210807FEF758FC00214FF0805017
:104A3000FEF753FC10BD3B49086270470146002059
:104A4000394A106820F0E00008431060704735498B
:104A50000861704729B1344A52680243324B5A60A8
:104A600004E0314A526882432F4B5A60704729B1A3
:104A70002D4A126802432C4B1A6004E02A4A12683D
:104A80008243294B1A6070472849096821F00401C4
:104A9000264A1160012801D130BF00E020BF7047D5
:104AA00010B502460020204B186820F00300104388
:104AB00018601E4B1B6843F004031C4C2360012943
:104AC00001D130BF00E020BF184B1B6823F0040366
:104AD000164C236010BD1448006840F004001249D1
:104AE00008600846006840F0020008600F4800684F
:104AF00040F004000D49086000BF00BF30BF7047A0
:104B000001460020084A52680A4201D0012000E014
:104B1000002070470449096841EA8001024A116097
:104B20007047000000000E420070004010ED00E0F1
:104B300001460020FE4A106820F003000843106080
:104B4000704730B1FA49096841F00801F84A11602C
:104B500005E0F749096821F00801F54A116070473E
:104B600030B1F349096841F01001F14A116005E0E4
:104B7000EF49096821F01001ED4A11607047EC48D7
:104B8000006910F0800F04D0EA48E9494860EA481B
:104B900048607047E648006940F08000E4490861D9
:104BA00070470420E249C96811F0010F01D00120CB
:104BB0000EE0DF49C96811F0100F01D0022007E0B4
:104BC000DB49C96811F0040F01D0032000E0042084
:104BD000704700B502460423FFF7E3FF034603E0F6
:104BE000FFF7DFFF0346521E012B01D1002AF7D148
:104BF00002B90523184600BD30B5044604254FF41C
:104C00003020FFF7E6FF0546042D16D1C84800699D
:104C100040F00200C649086108464461006940F05E
:104C2000400008614FF43020FFF7D3FF0546C0482D
:104C3000006920F00200BE490861284630BD10B569
:104C400004244FF43020FFF7C4FF0446042C15D190
:104C5000B748006940F00400B5490861084600699A
:104C600040F0400008614FF43020FFF7B2FF0446E7
:104C7000AF48006920F00400AD490861204610BD2E
:104C800078B506460C460425002000904FF43020ED
:104C9000FFF79FFF0546042D24D1A548006940F089
:104CA0000100A349086134804FF43020FFF791FFE1
:104CB0000546042D10D1B01C0090200C00990880EE
:104CC0004FF43020FFF785FF05469948006920F032
:104CD00001009749086105E09548006920F001004E
:104CE00093490861284678BD70B504460D460426F0
:104CF0004FF43020FFF76DFF0646042E11D18C488B
:104D0000006940F001008A49086125804FF4302095
:104D1000FFF75FFF06468648006920F001008449DE
:104D20000861304670BD8248006910F4007F04D1EC
:104D300080487F4988608048886070477C48006967
:104D400020F400707A49086170477948006940F49E
:104D5000005077490861704700207549C96911F012
:104D6000060F01D0012000E00020704730B5AA25D1
:104D70000424FFF7F1FF00B100254FF43020FFF7C6
:104D800028FF0446042C34D16948006940F0200013
:104D9000674908610846006940F0400008614FF427
:104DA0003020FFF716FF0446042C1AD16048006932
:104DB00020F020005E4908610846006940F01000BC
:104DC00008615E4805804FF43020FFF702FF04467B
:104DD000052C0ED05648006920F010005449086197
:104DE00007E0052C05D05248006920F0100050491A
:104DF0000861204630BD70B505460E4604244FF4C8
:104E00003020FFF7E6FE0446042C13D14848006921
:104E100040F01000464908612E804FF43020FFF723
:104E2000D8FE0446052C05D04148006920F010004A
:104E30003F490861204670BD2DE9F04304464FF616
:104E4000FF763746B046B1460425E443E6B2C4F3E4
:104E50000727C4F307484FEA14694FF43020FFF7DF
:104E6000B8FE0546042D3FD13148006940F01000DE
:104E70002F490861FF2E07D03048083006804FF4D4
:104E80003020FFF7A6FE0546042D09D1FF2F07D0DD
:104E90002A480A3007804FF43020FFF79AFE054673
:104EA000042D0BD1B8F1FF0F08D024480C30A0F826
:104EB00000804FF43020FFF78CFE0546042D0BD107
:104EC000B9F1FF0F08D01D480E30A0F800904FF444
:104ED0003020FFF77EFE0546052D05D014480069F9
:104EE00020F01000124908612846BDE8F08330B573
:104EF000054604244FF43020FFF76BFE0446042CD3
:104F00003DD10B48006940F020000949086108467E
:104F1000006940F0400008614FF43020FFF759FE6F
:104F20000446042C23D10248006920F0200007E049
:104F30000020024023016745AB89EFCD00F8FF1F39
:104F40008F4908610846006940F0100008618D48EB
:104F500005804FF43020FFF73CFE0446052C0ED0B0
:104F60008748006920F010008549086107E0052C9A
:104F700005D08348006920F020008149086120465F
:104F800030BDF0B507460D46164604244FF43020D8
:104F9000FFF71FFE0446042C1AD17948006940F03F
:104FA00010007749086147EA050046F0F801084318
:104FB0007449891C08804FF43020FFF70AFE04462C
:104FC000052C05D06E48006920F010006C4908617E
:104FD0002046F0BD30B5054604244FF43020FFF7DD
:104FE000F8FD0446042C17D16548006940F0100014
:104FF0006349086145F0EF006249891C08804FF45D
:105000003020FFF7E6FD0446052C05D05C4800691A
:1050100020F010005A490861204630BD30B50546E1
:1050200004244FF43020FFF7D4FD0446042C17D19C
:105030005348006940F010005149086145F0DF0015
:105040005049891C08804FF43020FFF7C2FD044608
:10505000052C05D04A48006920F010004849086135
:10506000204630BD30B5054604244FF43020FFF70C
:10507000B0FD0446042C17D14148006940F01000EF
:105080003F49086145F07F003E49891C08804FF484
:105090003020FFF79EFD0446052C05D038480069F6
:1050A00020F0100036490861204630BD30B5054675
:1050B00004244FF43020FFF78CFD0446042C17D154
:1050C0002F48006940F010002D49086145F0BF00ED
:1050D0002C49891C08804FF43020FFF77AFD0446E4
:1050E000052C05D02648006920F0100024490861ED
:1050F000204630BD30B5054604244FF43020FFF77C
:1051000068FD0446042C17D11D48006940F01000CA
:105110001B49086145F048001A49891C08804FF472
:105120003020FFF756FD0446052C05D014480069D1
:1051300020F0100012490861204630BD1048C069B7
:10514000C0F3072070470E48006A704729B10C4A27
:10515000126902430A4B1A6104E0094A1269824348
:10516000074B1A61704701460020054AD2680A427F
:1051700001D0012000E0002070470149C86070475D
:105180000020024000F8FF1F10B50446E1488442A9
:1051900008D101218014FEF793F80021A014FEF736
:1051A0008FF816E0DC48844208D101210014FEF794
:1051B00094F800212014FEF790F80AE0D7488442C2
:1051C00007D10121C013FEF788F80021E013FEF794
:1051D00084F810BD0021018041804FF4E06181809E
:1051E0000021C180018141818181C181072101822A
:1051F000704710B50022028802F441520B88CC8916
:105200002343CC8823430C8923434C8923438C8933
:1052100023431A43028082884FF2FF031A408B888F
:105220001A4382800B8A038202884FF6FB731A406E
:105230004B881A430280838B4FF2FF742340838391
:1052400010BD0021018041808180C18002218160E8
:105250000021818170472DE9F04F8DB005460C4645
:105260004FF0000902274FF000084FF0010B002615
:10527000B246A88B4FF240010840A8830220288440
:10528000B5F81C90A068022801D100BF33E0A088C7
:1052900010B94FF0010B01E04FF0020B01A8FDF730
:1052A000BCFEDDF804A0E088B0F5007F0AD14FEA2B
:1052B0001A2000EB80004000A168B0FBF1F0401D17
:1052C00086B20BE04FEA4B10BAFBF0F000EB800027
:1052D0004000A168B0FBF1F0401D86B20A20B6FB89
:1052E000F0F606F00108A6EB0800C0F34F074FF6F2
:1052F000FF7000EA0828022F01DBFF2F02DD0227E2
:105300004FF00008E08840EA080038432884A0886D
:10531000A1890843618808432188084340F400605C
:1053200040EA0909A5F81C900DB0BDE8F08F21B145
:10533000028842F04002028004E002884FF6BF7308
:105340001A400280704721B1828842F010028280A8
:1053500004E082884FF6EF731A408280704721B1D3
:10536000828B42F48062828304E0828B4FF6FF33AB
:105370001A40828370470A46002181884FF2FF035A
:10538000194011438180704782884EF6FF731A409E
:10539000828082880A4382807047B1F5804F04D1B1
:1053A000028842F48042028004E002884BF6FF73D8
:1053B0001A4002807047A1F57E42FF3A04D002886D
:1053C00042F48072028004E002884FF6FF631A40C4
:1053D0000280704721B1828842F00402828004E09A
:1053E00082884FF6FB731A408280704721B1828811
:1053F00042F00802828004E082884FF6F7731A4078
:1054000082807047002202460C3211707047818101
:105410007047014600220A460C3210787047014658
:105420008889704702884FF2FF731A400280028811
:105430000A430280704721B1028842F40052028080
:1054400004E002884DF6FF731A400280704701881D
:1054500041F480510180704702460020012901D0AB
:10546000108B00E0908A70470146088A70471AB195
:1054700083880B43838002E083888B43838070475B
:10548000828849F6FF731A40828082880A438280AC
:10549000704730B5002400230C110125A540ABB2A4
:1054A0001AB185881D43858002E085889D438580EB
:1054B00030BD0146088900F4C05070470146088994
:1054C00000F4C06070470246002013890B4201D0EF
:1054D000012000E000207047CA4302817047F0B508
:1054E0000246002000240023002501F00F070126BA
:1054F000BE40B4B20B1101269E40B3B2968806EAB4
:1055000003051689264202D00DB1012000E00020DB
:10551000F0BD00000030014000380040003C004079
:105520002DE9F04705460C4616461F46DDF820904B
:105530004FF000081CB1012C01DBF72C02DD4FF00D
:10554000020859E0AC48047015B1012D42D120E0A9
:10555000AA48AB490860AB48AB490860AB48AC49C6
:105560000860AC48AC4908600020AC490860AC4811
:10557000AC490860AC48AD490860AD48AD49086029
:105580004B463A4631469C48007800F0CBFC8046BA
:1055900023E0A9489A490860A8489B490860A848A0
:1055A0009B490860A7489C49086000209B49086007
:1055B000A5489C490860A5489C490860A4489D49A5
:1055C00008604B463A4631468B48007800F038FF79
:1055D000804602E04FF0020800BF00BFB8F1000FA4
:1055E0000AD100F05DFE10B94FF0030804E09948BD
:1055F00005700120984908704046BDE8F0872DE904
:10560000F04105460E46002D3ADD7F2D38DC00F0D6
:105610003DFEF6B1002412E0904800EBC400406863
:1056200028B18E4800EBC4004068B04206D18B48D8
:1056300000F8345000EBC400466002E0641C102CFB
:10564000EADB00BF102C01D0002000E00420074658
:1056500013E000240DE0814810F83400A84207D17F
:1056600000207E4901F8340001EBC401486002E0EB
:10567000641C102CEFDB00BF002700F00CFE00E0E4
:1056800002273846BDE8F08110B500247248007842
:10569000012806D16148006820B160480068804751
:1056A00000E00624204610BD10B500246A480078AA
:1056B000012806D1524800688047002066490870DA
:1056C00000E00624204610BD10B56348007838B9C4
:1056D0004D480068804701205F490870002406E0BB
:1056E0005D480078012801D1002400E0062420460E
:1056F00010BD38B500255848007808B1062038BDDF
:10570000684600F0DAFD012874D19DF8000030B140
:10571000012805D002281AD003286AD168E068E081
:10572000FCF798FB4E4A4F494F483B4B1B68984744
:1057300005465DB94C4800782F490978884202D067
:105740004948007810B9022000F0AFFD51E045480B
:105750000068007845490870012045490870002418
:1057600017E03E4810F8340000B914E03B4810F848
:1057700034003E49097888420AD1384800EBC40019
:10578000374942683748006890473949087002E055
:10579000641C102CE5DB00BF3348007830B334487C
:1057A0000078C8B100202E4908803048007840F0C9
:1057B00080012B4802880088401C294B188029480A
:1057C000006881542A480178184602880088401CE5
:1057D00018802448006881542148028821480168C3
:1057E000054800780A4B1B689847054601E001E030
:1057F00000BF00BF002082E729080020795F000871
:1058000030080020975F000834080020116000086D
:105810002C080020AF5F0008380800203C0800205A
:105820008D6000084008002019610008440800202D
:105830008D6100084808002085640008A564000800
:105840003D650008DD640008D16500081F67000899
:105850000F6800082A0800209C070020A0070020ED
:105860002608002020080020240800202508002009
:10587000280800202DE9F05F06460D464FF0000B8A
:105880002888052848D170784FEA0029B07840EA86
:10589000090909F101001FFA80F9F0780402307952
:1058A0000443012C35DBB4F5FA6F32DA37460020B9
:1058B0002880012007F8010B2888401C288014F05C
:1058C000070F08D02046E11704EB5171C910491C9D
:1058D00001F0FF0805E02046E11704EB5171C1F328
:1058E000C70807F8018B2888401C2880002322461F
:1058F00049463846FCF720F98246BAF1000F04D039
:10590000504600F0C6FA834608E0288840442880C4
:1059100004E04FF0030B01E04FF0030B5846BDE8E5
:10592000F09F2DE9F84304460F464FF000083888F1
:10593000052829D160780502A0780543681C85B246
:105940002079F0B9E078FF2801D0E078C8B90020CC
:105950008DF80100E078FF2803D101208DF80000C8
:1059600002E000208DF8000001231A46294668460F
:10597000FCF7E2F806464EB1304600F08AFA80465F
:1059800004E04FF0030801E04FF003084046BDE893
:10599000F8832DE9F05F05460E464FF0000B308886
:1059A000052839DD68780702A8780743781C87B294
:1059B000E87804022879044395F805A014F0070F4D
:1059C00008D02046E11704EB5171C910491C01F0C1
:1059D000FF0805E02046E11704EB5171C1F3C70849
:1059E000012C16DBB4F5F66F13DCD04511D1012381
:1059F00022463946A81DFCF79FF88146B9F1000FF1
:105A000004D0484600F045FA834607E00520308080
:105A100004E04FF0030B01E04FF0030B5846BDE8E4
:105A2000F09F2DE9F05F06460D464FF0000B2888E9
:105A3000052847D170784FEA0029B07840EA090973
:105A400009F101001FFA80F9F0780402307904436B
:105A5000012C34DBB4F5FA6F31DA374600202880A8
:105A6000022007F8010B2888401C288014F0070F3B
:105A700008D02046E11704EB5171C910491C01F010
:105A8000FF0805E02046E11704EB5171C1F3C70898
:105A900007F8018B2888401C288022464946384652
:105AA000FCF7EDF88246BAF1000F04D0504600F042
:105AB000F0F9834608E028884044288004E04FF04D
:105AC000030B01E04FF0030B5846BDE8F09F2DE9B2
:105AD000F04104460F464FF000083888052812D1DF
