:020000040800F2
:10000000B822002069020008A5040008A70400081F
:10001000AB040008AF040008B304000800000000AF
:10002000000000000000000000000000B70400080D
:10003000B904000800000000BB04000881020008A9
:10004000830200088302000883020008830200087C
:10005000830200088302000883020008830200086C
:10006000830200088302000883020008830200085C
:10007000830200088302000883020008830200084C
:1000800083020008B7230008BD04000883020008AB
:10009000830200088302000883020008830200082C
:1000A000830200088302000883020008830200081C
:1000B000E3040008FB0400089F24000883020008F2
:1000C00083020008830200088302000883020008FC
:1000D00083020008BF0400088302000883020008AE
:1000E00083020008830200088302000883020008DC
:1000F00083020008830200080000000000000000E6
:1001000000000000000000008302000883020008D5
:1001100000000000000000008302000883020008C5
:10012000830200088302000883020008830200089B
:10013000830200088302000883020008830200088B
:100140008302000800000000000000000000000022
:10015000000000000000000000000000000000009F
:100160000000000000000000830200088302000875
:100170008302000800000000830200080000000065
:10018000000000008302000800F002F800F05CF8B4
:100190000AA090E8000C82448344AAF10107DA45E2
:1001A00001D100F051F8AFF2090EBAE80F0013F0D8
:1001B000010F18BFFB1A43F00103184778700000C5
:1001C000987000000A444FF0000C10F8013B13F047
:1001D000070408BF10F8014B1D1108BF10F8015BA0
:1001E000641E05D010F8016B641E01F8016BF9D193
:1001F00013F0080F1EBF10F8014BAD1C0C1B09D1EA
:100200006D1E58BF01F801CBFAD505E014F8016B5B
:1002100001F8016B6D1EF9D59142D6D370470000ED
:100220000023002400250026103A28BF78C1FBD8FF
:10023000520728BF30C148BF0B6070471FB506F09A
:10024000A0FE1FBD10B510BD06F098FC1146FFF7CB
:10025000F5FF00F093F906F0B6FC03B4FFF7F2FFE8
:1002600003BC06F07DFC00000948804709480047B0
:10027000FEE7FEE7FEE7FEE7FEE7FEE7FEE7FEE756
:10028000FEE7FEE704480549054A064B70470000B3
:100290008703000889010008B81C0020B82200204C
:1002A000B81E0020B81E00201CB500200190009050
:1002B0007348006840F480307149086000BF70489E
:1002C000006800F4003000900198401C01900098F4
:1002D00018B90198B0F5A06FF1D16948006800F431
:1002E000003010B10120009001E000200090009843
:1002F000012837D10220634908606148406860499D
:1003000048600846406848600846406840F480609D
:1003100048600846406820F47C1048600846406801
:1003200040F4E81048600846006840F080700860BB
:1003300000BF5348006800F000700028F9D0504812
:10034000406820F003004E4948600846406840F08D
:100350000200486000BF4A48406800F00C000828CE
:10036000F9D10FE04FF4E011002002F0C2FD0120AE
:1003700002F0CDFD02E0022002F0DBFD02F0E2FD22
:100380000828F8D11CBD10B53F48006840F4700043
:100390003D4908603A48006840F00100384908606B
:1003A0000846406800F47F00486008460068374906
:1003B0000840334908600846006820F4802008603F
:1003C0000846406820F4FE0048600846C06A20F0F5
:1003D0000F00C8620846006B2D4908402849086391
:1003E00000208860FFF760FF4FF0006026498039E9
:1003F000086010BD30B50021002000220023204CF1
:10040000646804F00C0121B1042906D0082925D123
:1004100007E0204C204D2C6024E01E4C1E4D2C602B
:1004200020E0174C646804F47010154C646804F400
:100430008032022404EB904022B9184C4443164DFC
:100440002C600AE00E4CE46A04F00F04631C114CAB
:10045000B4FBF3F44443104D2C6003E00D4C0E4DFF
:100460002C6000BF00BF064C6468C4F303140C4D3D
:10047000295D094C2468CC40074D2C6030BD00003C
:10048000001002400020024088ED00E0FFFFF6FE71
:100490008C0FFF0F00127A000000002000093D00C1
:1004A00004000020704700BFFEE700BFFEE700BF6A
:1004B000FEE700BFFEE7704770477047704710B512
:1004C0001449154803F098F9012801D105F07EFF81
:1004D0001249114803F090F9012801D105F06EFF8F
:1004E00010BD4FF08040008A00F0010020B14FF6AF
:1004F000FE704FF080410882704710B50121084816
:1005000004F04CF928B10121054804F058F905F030
:10051000A0FF10BD050105000038014006010600DE
:100520000004004005213D4A11543D4909683D4AF7
:1005300042F8201070470021384A1154394951F8C7
:100540002010374A1268511A374A42F820101146D3
:1005500051F8202035490968103141F820207047B2
:1005600000B503462D48C05C032803DA1846FFF7A0
:10057000D9FF02E01846FFF7DEFF00BD38B501F0F5
:1005800033FA02204FF41653002201210090104646
:1005900004F0DEFF044605F09FF8044639E02448E5
:1005A0000088322807DB0020FFF7DAFF002020490F
:1005B000088001F0E1FC1E484088322807DB01205A
:1005C000FFF7CEFF05F0ADF800201949488000F094
:1005D00085F800EB800016498988B1EB400F0ADBF3
:1005E0000220FFF7BDFF00201149888001F0BBF811
:1005F00008B100F09BFE0E48C08841F28831884265
:1006000007DB00200A49C88001F0ADFC08B101F009
:10061000BFF8002CC3D0002038BD0000140000201B
:1006200064070020740800208408002030030020A4
:100630005807002010B50020F7490870F7480068F7
:10064000406AF74908600846006801F06EFE002025
:10065000F449087010BD0120EF490870704710B5CB
:100660000020ED490870ED480068006AEC49086018
:100670000020EC490870EA48006801F056FE10BD01
:1006800010B50446012C04D0022C05D0042C09D14D
:1006900005E0FFF7CFFF08E0FFF7E1FF05E0FFF718
:1006A000DAFF02E0FFF7C6FF00BF00BF10BD012860
:1006B00002D002280BD104E0DB490968DB4A116053
:1006C0000AE0DB490968891CD84A116004E0D64970
:1006D0000968D64A116000BF00BF7047CF48006864
:1006E000808B704710B5012001F040F8CB480068BE
:1006F0004088D0490880C94800688088CE49088071
:10070000C6480068C088CD490880CD490888C949D5
:10071000098802F04FF9CA494888C749098802F098
:1007200049F9C7498888C549098802F043F9BB4897
:1007300000680089BF490880B84800684089BE4900
:100740000880B64800688089BC490880BC49C888D0
:10075000B849098802F02EF9B9490889B6490988CB
:1007600002F028F9B6494889B449098802F022F90B
:10077000AA480068C089AF490880A8480068008A74
:10078000AD490880A5480068408AAC490880AC495A
:100790008889A849098802F00DF9A949C889A6499C
:1007A000098802F007F9A649088AA449098802F0D5
:1007B00001F99A480068808A9E4908809748006835
:1007C000C08A9D49088095480068008B9B49088035
:1007D0009B49488A9749098802F0ECF89849888A29
:1007E0009549098802F0E6F89549C88A934909882D
:1007F00002F0E0F889480068408B8E4908808748FD
:100800000068808B8C49088084480068C08B8B49C5
:1008100008808B49088B8749098802F0CBF8884902
:10082000488B8549098802F0C5F88549888B83493A
:10083000098802F0BFF879480068006A4FF6FF7136
:10084000B0FBF1F07B49088074480068406A4FF6BD
:10085000FF71B0FBF1F07849088070480068806A49
:100860004FF6FF71B0FBF1F0744908807449C88BF2
:100870007049098802F09EF87149088C6E49098810
:1008800002F098F86E49488C6C49098802F092F899
:1008900062480068006A4FF6FF71B0FBF1F201FB9D
:1008A0001200644908805D480068406A4FF6FF7195
:1008B000B0FBF1F201FB12005F4908805748006865
:1008C000806A4FF6FF71B0FBF1F201FB12005B4949
:1008D00008805B49888C5749098802F06BF85849B1
:1008E000C88C5549098802F065F85549088D534967
:1008F000098802F05FF8002000F038FF10BD47487B
:100900000068C089404200EE100AB8EEC00A4D48A7
:1009100080ED000A41480068008A404200EE100A5B
:10092000B8EEC00A474880ED010A3C480068408A9A
:10093000404200EE100AB8EEC00A424880ED020ABA
:100940009FED410A80ED030A34480068408A00EEBA
:10095000100AB8EE400A3B4880ED040A2F480068B0
:10096000008A00EE100AB8EE400A364880ED050A0B
:100970002A480068C08900EE100AB8EE400A3148E3
:1009800080ED060A25480068808A404200EE100A81
:10099000B8EEC00A2D4880ED000A20480068C08AE1
:1009A000404200EE100AB8EEC00A284880ED010A65
:1009B0001A480068008B404200EE100AB8EEC00AE8
:1009C000224880ED020A9FED200A80ED030A1348B9
:1009D0000068008B00EE100AB8EE400A1B4880ED5C
:1009E000040A0E480068C08A00EE100AB8EE400AF9
:1009F000164880ED050A09480068808A00EE100A52
:100A0000B8EE400A114880ED060A704710B5FFF7AE
:100A100076FFFFF767FE10BD3A00002018000020A7
:100A20002C0000208600002034030020200000203D
:100A30003003002024000020260000202800002091
:100A4000EE0200203C0000200000000058000020C2
:100A50000146002901DD084600E0484280B27047A7
:100A60000022FE4B1A70022901D003292FD1FC4A23
:100A7000127862BB18B1012801D0022810D1F94ABE
:100A80001278521C52B2F74B1A701A4692F9002093
:100A90000A2A05DBFF22F14B1A700122F04B1A7073
:100AA000032803D0042801D0052813D1ED4A127879
:100AB000521C52B2EB4B1A701A4692F900200A2AC5
:100AC00008DB0122E54B1A70E54B1A7002E00022A8
:100AD000E44B1A70022904D0032902D00022E04B13
:100AE0001A7070472DE9F0472DED028B04460D4634
:100AF0004FF00009CA46DC48D0ED000A00EE105A5B
:100B0000B8EEC00AF4EEC00AF1EE10FA06DD0027D6
:100B1000B7EE000AD54880ED000A0DE1D248D0EDCD
:100B2000000A00EE105AB8EEC00AF4EEC00AF1EE68
:100B300010FA1FD8D0ED010A00EE105AB8EEC00A24
:100B4000F4EEC00AF1EE10FA14DD002790ED010A70
:100B5000D0ED000A70EE600A90ED011A00EE105A16
:100B6000B8EEC00A31EE400A80EE201ABF4880ED90
:100B7000001AE1E0BC48D0ED010A00EE105AB8EED0
:100B8000C00AF4EEC00AF1EE10FA1FD8D0ED020A46
:100B900000EE105AB8EEC00AF4EEC00AF1EE10FAF8
:100BA00014DD012790ED020AD0ED010A70EE600A13
:100BB00090ED021A00EE105AB8EEC00A31EE400A6B
:100BC00080EE201AA94880ED001AB5E0A648D0EDC5
:100BD000020A00EE105AB8EEC00AF4EEC00AF1EEB6
:100BE00010FA1FD8D0ED030A00EE105AB8EEC00A72
:100BF000F4EEC00AF1EE10FA14DD022790ED030ABC
:100C0000D0ED020A70EE600A90ED031A00EE105A61
:100C1000B8EEC00A31EE400A80EE201A934880ED0B
:100C2000001A89E09048D0ED030A00EE105AB8EEA1
:100C3000C00AF4EEC00AF1EE10FA1FD8D0ED040A93
:100C400000EE105AB8EEC00AF4EEC00AF1EE10FA47
:100C500014DD032790ED040AD0ED030A70EE600A5C
:100C600090ED041A00EE105AB8EEC00A31EE400AB8
:100C700080EE201A7D4880ED001A5DE07A48D0EDC4
:100C8000040A00EE105AB8EEC00AF4EEC00AF1EE03
:100C900010FA1FD8D0ED050A00EE105AB8EEC00ABF
:100CA000F4EEC00AF1EE10FA14DD042790ED050A07
:100CB000D0ED040A70EE600A90ED051A00EE105AAD
:100CC000B8EEC00A31EE400A80EE201A674880ED87
:100CD000001A31E06448D0ED050A00EE105AB8EE73
:100CE000C00AF4EEC00AF1EE10FA1FD8D0ED060AE1
:100CF00000EE105AB8EEC00AF4EEC00AF1EE10FA97
:100D000014DD052790ED060AD0ED050A70EE600AA5
:100D100090ED061A00EE105AB8EEC00A31EE400A05
:100D200080EE201A514880ED001A05E005271FEDDE
:100D3000BA0A4E4880ED000A4C4890ED000AF7EEE2
:100D4000000A30EEC00A80ED010A4948D0ED000AE1
:100D500000EE104AB8EEC00AF4EEC00AF1EE10FA46
:100D600006DD0026B7EE000A424880ED000A1DE1CC
:100D70003F48D0ED000A00EE104AB8EEC00AF4EE8B
:100D8000C00AF1EE10FA1FD8D0ED010A00EE104AA9
:100D9000B8EEC00AF4EEC00AF1EE10FA14DD002637
:100DA00090ED010AD0ED000A70EE600A90ED011A94
:100DB00000EE104AB8EEC00A31EE400A80EE201A6A
:100DC0002C4880ED001AF1E02948D0ED010A00EE30
:100DD000104AB8EEC00AF4EEC00AF1EE10FA1FD8BD
:100DE000D0ED020A00EE104AB8EEC00AF4EEC00AD6
:100DF000F1EE10FA14DD012690ED020AD0ED010AA1
:100E000070EE600A90ED021A00EE104AB8EEC00AC9
:100E100031EE400A80EE201A164880ED001AC5E037
:100E20001348D0ED020A00EE104AB8EEC00AF4EE04
:100E3000C00AF1EE10FA2FD8D0ED030A00EE104AE6
:100E4000B8EEC00AF4EEC00AF1EE10FA24DD022674
:100E500090ED030AD0ED020A0EE0000084000020AD
:100E60008600002085000020580000207C00002023
:100E70003C0000207400002070EE600A90ED031A20
:100E800000EE104AB8EEC00A31EE400A80EE201A99
:100E9000FE4880ED001A89E0FD48D0ED030A00EE1F
:100EA000104AB8EEC00AF4EEC00AF1EE10FA1FD8EC
:100EB000D0ED040A00EE104AB8EEC00AF4EEC00A03
:100EC000F1EE10FA14DD032690ED040AD0ED030ACA
:100ED00070EE600A90ED041A00EE104AB8EEC00AF7
:100EE00031EE400A80EE201AE84880ED001A5DE0FD
:100EF000E748D0ED040A00EE104AB8EEC00AF4EE5E
:100F0000C00AF1EE10FA1FD8D0ED050A00EE104A23
:100F1000B8EEC00AF4EEC00AF1EE10FA14DD0426B1
:100F200090ED050AD0ED040A70EE600A90ED051A06
:100F300000EE104AB8EEC00A31EE400A80EE201AE8
:100F4000D24880ED001A31E0D148D0ED050A00EE1C
:100F5000104AB8EEC00AF4EEC00AF1EE10FA1FD83B
:100F6000D0ED060A00EE104AB8EEC00AF4EEC00A50
:100F7000F1EE10FA14DD052690ED060AD0ED050A13
:100F800070EE600A90ED061A00EE104AB8EEC00A44
:100F900031EE400A80EE201ABC4880ED001A05E0D0
:100FA00005269FEDBC0AB94880ED000AB74890EDD0
:100FB000000AF7EE000A30EEC00A80ED010A4FF099
:100FC0000009A9E01C21B44805F055FDC7EBC70096
:100FD00000EB4000B1490968084406EB46010844AB
:100FE00010F80980AC4800EB880090ED000AA74893
:100FF000D0ED000AAA4890ED001A00EE810AA6483A
:1010000000EB880080ED000A781CC0EBC00000EB0C
:101010004000A2490968084406EB4601084410F85C
:1010200009809D4800EB880090ED000A9748D0EDBC
:10103000000A9B4890ED011A00EE810A964800EBE9
:10104000880080ED000AC7EBC70000EB4000934921
:1010500009680144701C00EB4000084410F8098046
:101060008D4800EB880090ED000A8848D0ED010A19
:101070008B4890ED001A00EE810A874800EB88004B
:1010800080ED000A781CC0EBC00000EB40008349F3
:1010900009680144701C00EB4000084410F8098006
:1010A0007D4800EB880090ED000A7848D0ED010AF9
:1010B0007B4890ED011A00EE810A774800EB88002A
:1010C00080ED000A9FED738A4FF0000A18E0724825
:1010D00000EB8A00D0ED000AC9EBC9007149084451
:1010E00010F90A0000EE100AB8EEC01AB0EE480A75
:1010F00000EE810AB0EE408A0AF1010000F0FF0A1A
:10110000BAF1070FE3DB684800EB890080ED008A45
:1011100009F1010000F0FF09B9F1030FFFF652AF2A
:1011200062480681478139463046FFF799FCBDEC9D
:10113000028BBDE8F08770B55D48007800F0A6FF2F
:10114000BDEEC00A10EE106A5A4800680088841B81
:1011500059480088201A01B220B2FFF7C3FC20468C
:10116000FFF776FC55490968C98B884201DA0025EA
:1011700080E0534890F9000042F2107108444B4956
:10118000088042F2107020444B490988401A4749B0
:10119000488042F210702044888042F2107020444F
:1011A0004549B1F90010022202FB110045490988A6
:1011B00008443E49C88041480068408800EE100A53
:1011C000B8EE400A384890ED001A3C4800680089A3
:1011D00000EE900AF8EE600A01EE200A3648B0F9F7
:1011E0000000201A00EE900AF8EEE00A20EE201A25
:1011F00032480068808800EE100AF8EE400A2A485B
:10120000D0ED011A2D480068408900EE100AB8EEB2
:10121000400A41EE800A00EE104AF8EEC01AB0EE25
:10122000410A00EEA10A25480068C08800EE900A35
:10123000F8EE600A1C48D0ED021A20480068808948
:1012400001EE100AB8EE411A41EE810A1A48B0F9CF
:101250000000022101FB10401A49B1F900100844B6
:1012600001EE100AB8EEC11A00EE810ABDEEC00A06
:1012700010EE105A144828441449C8600E48B0F9BA
:1012800000001049088020B20B4921E074000020C2
:101290003C00002000000000A00800201C000020EE
:1012A0007C0000208C00002094080020BC08002056
:1012B000380000202000002030000020180000200E
:1012C0008400002032000020A08601008408002055
:1012D0000880002D0BDD0120F8490870F8480078DF
:1012E000012801D1F74908700020F5490870002D48
:1012F0000BDA0120F2490870F0480078012801D18A
:10130000F04908700020ED490870642095FBF0F06A
:10131000ED490968498BED4A92F9002002FB010072
:10132000EB4909680844EA49086070BD10B5FFF749
:1013300002FFE5480068006AE5490968884204D26E
:10134000E1480068006AE2490860DF480068406AD6
:10135000DF490968884204D9DB480068406ADC49F3
:101360000860DB48006800F0E0FF10BD10B52C21DC
:10137000D548006805F07FFB0020D3490968088044
:101380006420D149096848809621CF48006881804F
:101390003221CD480068C1802120CB4909680881ED
:1013A0003221C948006841811121C7480068818104
:1013B0004FF4FA60C4490968C8814FF44871C248C3
:1013C000006801821421C048006841824FF4967081
:1013D000BD49096888826421BB480068C1820A212E
:1013E000B9480068018347F23050B749096848831B
:1013F0006420B549096888830520B3490968C88312
:10140000B448B149096808626420AF490968486274
:1014100041F28830AC4909688862FFF763F910BD72
:1014200010B5AD490888AD4901F021F9AA494888AD
:10143000AB4901F01CF9A8498888AA4901F017F9BD
:10144000A648008800EE100AB8EE400ABCEEC00ABA
:1014500010EE100A9C4909684880A148008800EEF7
:10146000100AB8EE400ABCEEC00A10EE100A81B2B3
:101470009548006881809B48008800EE100AB8EE0D
:10148000400ABCEEC00A10EE100A81B28E48006815
:10149000C1809149C888914901F0E9F88E490889CD
:1014A0008F4901F0E4F88C4948898E4901F0DFF852
:1014B0008A48008800EE100AB8EE400ABCEEC00A66
:1014C00010EE100A8049096808818548008800EEFE
:1014D000100AB8EE400ABCEEC00A10EE100A81B243
:1014E0007948006841817F48008800EE100AB8EE14
:1014F000400ABCEEC00A10EE100A81B272480068C1
:10150000818175498889754901F0B1F87249C889A6
:10151000734901F0ACF87049088A724901F0A7F8E4
:101520006E48008800EE100AB8EE400ABCEEC00A11
:1015300010EE100A64490968C8816948008800EE05
:10154000100AB8EE400ABCEEC00A10EE100A81B2D2
:101550005D48006801826348008800EE100AB8EE1A
:10156000400ABCEEC00A10EE100A81B2564800686C
:1015700041825949488A594901F079F85649888A7F
:10158000574901F074F85449C88A564901F06FF878
:101590005248008800EE100AB8EE400ABCEEC00ABD
:1015A00010EE100A4849096888824D48008800EE0C
:1015B000100AB8EE400ABCEEC00A10EE100A81B262
:1015C00041480068C1824748008800EE100AB8EE22
:1015D000400ABCEEC00A10EE100A81B23A48006818
:1015E00001833D49088B3D4901F041F83A49488B58
:1015F0003B4901F03CF83849888B3A4901F037F80B
:1016000036480088304909684883354800882E49A3
:1016100009688883334800882B490968C8832E49A4
:10162000C88B2E4901F023F82B49088C2C4901F076
:101630001EF82949488C2B4901F019F827480088E1
:10164000C0EB004020490968086225480088C0EBCB
:1016500000401D490968486222480088C0EB0040EC
:101660001949096888621C49888C1C4900F0FFFFF1
:101670001949C88C1A4900F0FAFF1749088D194911
:1016800000F0F5FF10480068006A14490988084412
:101690000D49096808620C480068406A10490988C9
:1016A000084409490968486207480068806A0D498A
:1016B0000988084404490968886210BD890000202F
:1016C0008A000020870000201800002084000020ED
:1016D0002C00002020A10700EE02002024000020A2
:1016E000260000202800002010B501F0E0F8FFF7E8
:1016F00097FE2049488D204900F0B9FF1E48008818
:1017000015280CD0012000F031F81A49488D152118
:1017100001F050F9002000F029F8FFF727FE10BD76
:1017200010B593211548006805F083F993221449F8
:101730001248006805F038F910BD10B503F037FA0B
:101740000120FEF7B4FF0F4800680F4908600D48FC
:1017500000682C3009490860FFF7C6FFFFF7CFF893
:10176000FFF7DEFF10BD09480078704780F310884E
:1017700070470000EE020020240000201C00002022
:10178000C701002034030020180000203A00002088
:1017900010B5022000F09DFB10BD08B54FF4A0600D
:1017A00003F0E8F825208DF8000000208DF80100F6
:1017B0008DF8020001208DF80300684603F0DFF881
:1017C0001E208DF8000001208DF8010000208DF80A
:1017D000020001208DF80300684603F0D0F81D20B8
:1017E0008DF8000002208DF8010000208DF8020025
:1017F00001208DF80300684603F0C1F81C208DF825
:10180000000002208DF8010000208DF80200012068
:101810008DF80300684603F0B2F811208DF800003F
:1018200001208DF8010000208DF8020001208DF8C4
:101830000300684603F0A3F808BD1CB54FF44070E0
:10184000009003208DF8040000208DF80700694601
:10185000744801F008FA4FF40050009000208DF811
:10186000040003208DF8050000208DF8070069466C
:101870004FF0904001F0F7F94FF480700090012094
:101880008DF8040000208DF8060001208DF8070077
:1018900003208DF8050069464FF0904001F0E3F910
:1018A0000820009002208DF8040003208DF8050028
:1018B00000208DF8070069465B4801F0D4F9012249
:1018C0000321594801F056FA0E20009001208DF8AE
:1018D000050002208DF8040000208DF8060001208C
:1018E0008DF8070069464FF0904001F0BCF90622E0
:1018F00001214FF0904001F03DFA062202214FF005
:10190000904001F037FA062203214FF0904001F099
:1019100031FA1020009001208DF805008DF80400A8
:1019200000208DF8060001208DF8070069464FF071
:10193000904001F098F94FF4C060009002208DF8BB
:10194000040000208DF8060001208DF80700032018
:101950008DF8050069464FF0904001F084F94FF48E
:101960008070009001208DF8040000208DF80600A2
:1019700001208DF8070003208DF8050069462B48EB
:1019800001F071F907220921C80601F0F3F90722D5
:101990000A214FF0904001F0EDF91CBD10B5012176
:1019A000480401F06FFC0121880401F06BFC012167
:1019B000080501F067FC0121480501F063FC0121E5
:1019C000084601F05FFC0121084601F075FC012189
:1019D000022001F071FC0121C80301F06DFC01211E
:1019E000880301F05CFC10BD10B5FFF7D7FFFFF7CF
:1019F00024FFFFF7D2FE00F0B5F900F025FA00F061
:101A000041FA00F07CFA00F037FD00F086FCFFF7A9
:101A100094FE00F0DEFB01F08DF80120044908700F
:101A200010BD00000010004800040048000C0048F1
:101A3000220300202DE9F04303460020C14D00267B
:101A40001327DFF80483B8F800C0A1F101081FFADA
:101A500088F1B1421FDB01EB020806EB0709C8451C
:101A600019DCA1EB0C081FFA88F411E035F814809A
:101A70004FEA282803F8018B15F8148003F8018B2E
:101A800004F101081FFA88F4A2F101081FFA88F294
:101A9000002AEBDC00E00120BDE8F0832DE9FC5FCB
:101AA00004460E461746994600200190DFF89C82B6
:101AB00082464FF0640BA64800880090701E86B2E4
:101AC000564538DBF0190AEB0B01884233DC0098ED
:101AD000301A85B2B9F1000F03D0B9F1010F29D145
:101AE00010E00CE038F81500001204F8010B18F8AB
:101AF000150004F8010B681C85B2781E87B2002F10
:101B0000F0DC17E00FE014F8011B080228F81500BC
:101B100014F8010B38F81510084328F81500681C54
:101B200085B2781E87B2002FEDDC012E01D1FEF7C1
:101B30006DFF00BF01E0012001900198BDE8FC9F0E
:101B40002DE9FF5F05460E4614469A460020039095
:101B50002046E11704EB5171C910491C1FFA81F9A5
:101B6000DFF8F08100200290032001907A4800887D
:101B70000090701E86B2029886427EDB3219DDE943
:101B800001100844824278DC0099711A88B2C117AA
:101B900000EB5171CF100099711A88B2C11700EB98
:101BA0005171C910A0EBC1011FFA81FBBAF1000FFE
:101BB00003D0BAF1010F5FD126E00EE039467A1C5E
:101BC00097B201EB08000822594604F067F905F8BE
:101BD000010BA9F101001FFA80F9B9F1000FEDDC4A
:101BE0006D1E2046E11704EB5171C910A4EBC10131
:101BF0008CB22878C4F10801884028702878C4F194
:101C000008010841287037E00EE015F8013B39461D
:101C10007A1C97B201EB08000822594604F00AF931
:101C2000A9F101001FFA80F9B9F1010FEDDC20469E
:101C3000E11704EB5171C910A4EBC1018CB264B17E
:101C400015F8013BE2B2394607F1010C1FFA8CF797
:101C500001EB0800594604F0EDF82EB998F80000A1
:101C6000FEF70EFD07E008E0032E04D198F80010FF
:101C7000C808FEF71CFD00BF01E001200390039897
:101C800004B0BDE8F09F2DE9FE4F05460E46144610
:101C9000002002902046E11704EB5171C910491C45
:101CA0001FFA81F92D4801904FF0000A072000909B
:101CB0002B48B0F800B0701E86B256453DDB311996
:101CC00000985044814238DCA6EB0B0188B2C11762
:101CD00000EB5171CF10A6EB0B0188B2C11700EBDE
:101CE0005171C910A0EBC1011FFA81F80EE039460D
:101CF0007A1C97B2019A88180822414604F0CEF85F
:101D000005F8010BA9F101001FFA80F9B9F1000FE4
:101D1000EDDC6D1E2046E11704EB5171C910A4EBF8
:101D2000C1018CB22878C4F1080188402870287855
:101D3000C4F108010841287001E0012002900298D6
:101D4000BDE8FE8FC80800202C030020EE0800200C
:101D50002E0300202A030020280300202603002051
:101D60002403002010B56FF0040002F052FE2E484C
:101D700000682E49B0FBF1F02D4908700846007844
:101D800000EB4001C1EBC0104FF6FF7101EAC0004B
:101D90002849088010BD0146254A12784A434FF071
:101DA000E0235A6100229A611A46126942F0010248
:101DB0001A6100BF4FF0E022106900F001021AB171
:101DC00000F48032002AF5D04FF0E022126922F0B0
:101DD00001024FF0E0231A6100229A617047014628
:101DE000144A12884A434FF0E0235A6100229A6154
:101DF0001A46126942F001021A6100BF4FF0E02258
:101E0000106900F001021AB100F48032002AF5D006
:101E10004FF0E022126922F001024FF0E0231A6134
:101E200000229A61704700000000002000127A0032
:101E3000380300203A03002010B54FF480714FF0B2
:101E4000904000F08EFF10BD10B5FFF7F5FF10BDFC
:101E500010B54FF480714FF0904000F080FF10BD3E
:101E600010B54FF480714FF0904000F06CFFC0F15E
:101E70000100C4B222464FF480714FF0904000F050
:101E800072FF10BD10B500240BE0FFF7E1FFC82082
:101E9000FFF7A5FFFFF7D0FFC820FFF7A0FF601CEA
:101EA000C4B2032CF1DB00240BE0FFF7D1FF642068
:101EB000FFF795FFFFF7C0FF6420FFF790FF601C5E
:101EC000C4B2032CF1DBFFF7B7FF6420FFF787FFF5
:101ED00010BD70B50446002500BF0BE0FFF7B8FF4A
:101EE000C820FFF77CFFFFF7A7FFC820FFF777FFA9
:101EF000681CC5B2A542F1DBFFF79EFF70BD10B5AF
:101F00004FF400514FF0904000F029FF10BD70B524
:101F100005460E4600243146284600F008FF00BB67
:101F20000A20FFF75CFF3146284600F000FFB0B9F9
:101F300004E0601C84B20120FFF751FF31462846BF
:101F400000F0F5FE18B940F6B8308442F1DB40F6F7
:101F5000B830844201DB012070BD0020FCE7002086
:101F6000FAE70020F8E710B54FF400514FF0904029
:101F7000FFF7CDFF10BD000070B52DED048B0024E0
:101F80000025002095490860486000BF13E0934891
:101F900001686000401C924A32F9100008448F49E1
:101FA000086008464168600032F9100008448B4917
:101FB0004860601C84B2B4F5806FE8DB8748006835
:101FC000801205B205F5004000EE100AB8EEC00A16
:101FD000DFED840A20EE200A9FED831AC0EE010A8D
:101FE000B0EE000A20EE800A804880ED000A7B48AF
:101FF0004068801205B205F5004000EE100AB8EE08
:10200000C00ADFED780A20EE200ADFED770A80EEC5
:10201000201AB0EE000A21EE000A744880ED010A91
:1020200090ED000AF2EE040A20EE200ABCEEC00A8F
:1020300010EE100A6E49096808806C4890ED010A9C
:10204000F2EE040A20EE200ABCEEC00A10EE100ADE
:10205000674909684880654890ED000A10EE101A3B
:10206000084604F01DFF41EC190B9FED620B53EC89
:10207000102B04F017FE41EC180B04F0E5FD86B2BE
:10208000304600F0FAFCBDEC048B70BD18B957491E
:1020900091ED000A7047554991ED010AFAE710B534
:1020A00090B000240121080601F0F9F80121080789
:1020B00001F002F90121480202F0F1FC4FF07840F2
:1020C00000F06CFF4FF4407001F070FD0520FFF749
:1020D00086FE0121494801F048FD0121474801F0F1
:1020E0004FFD1E2400BF4FF00041444801F02AFE7E
:1020F00010B9601E0400F6D114B9012010B010BD53
:102100004FF040600C9000200D900E900F900CAAA4
:1021100000213A4801F005FD00223949374801F015
:1021200015FD00223749354801F010FD3649334886
:1021300001F083FD0121314801F08DFD00212F4880
:1021400001F01EFD00212D4801F038FD2B4801F063
:102150003CFD4FF4F03400BF0121284801F0F2FDAE
:1021600010B9601E0400F7D10CB90220C6E723485D
:1021700001F05EFD0121022001F084F8234801F006
:1021800069FB1E48603001901548029000200390C2
:102190004FF40060ADF810000020059080200690FC
:1021A00040000790800008902020099000020A90CB
:1021B00000200B9001A9154801F0EEFB0121134806
:1021C00001F015FC012211040C4801F0A9FD0020CA
:1021D00094E710B5FFF763FF10BD0000480300202F
:1021E000B609002000E0324500FF7F474003002091
:1021F000300300202D431CEBE2362A4000600140F2
:10220000000108008000070080010F003004024038
:1022100010B588B0044600214FF0804001F0F8FE70
:1022200006940020ADF81400ADF81C00ADF81600BF
:1022300005A94FF0804001F05FFE6020ADF800007E
:102240000120ADF8020000200290ADF80C006946B4
:102250004FF0804001F04FFF0821C80602F05BF804
:102260000121880701F0B6FE0121880701F0D0FEA8
:1022700001221102880502F0AAFA01229102080542
:1022800002F0A5FA0121880701F0EAFE08B010BDAE
:1022900000B58BB05B4801F0DDFA684601F09AFBAF
:1022A00059480090594801901020029058480078F1
:1022B000ADF80C000020049080200590800006906E
:1022C00080000790202008900002099000200A90CA
:1022D00069464C4801F060FB4FF0007001F0B6FB1E
:1022E0004FF0806001F0B2FB4FF0006001F0AEFBF8
:1022F00001220221434801F08CFB012204214148C4
:1023000001F087FB012208213E4801F082FB0121F8
:102310003C4801F06CFB0BB000BD10B5FFF7B8FFF7
:102320004FF6FF70FFF774FF10BD0146C1F34F1267
:10233000384B1A8001F01F02374B1A7000200EE054
:10234000364A354B1B7802EB4312125C314B1B882B
:102350001A4492B2324B43F82020421CD0B22028BB
:10236000EEDB00222F4B1A702F4B1A7070470020A3
:1023700000BF07E02A4951F82010244A42F82010F3
:10238000411CC8B22028F5DB0121264A1170704794
:10239000002000BF09E0224951F820201B4B00F12A
:1023A000200143F82120411CC8B22028F3DB012181
:1023B0001D4A1170704710B54FF0007001F051FBCD
:1023C00040B14FF0007001F060FB1748007808B989
:1023D000FFF7DEFF4FF0806001F043FB40B14FF0AC
:1023E000806001F052FB0F48007808B9FFF7BFFF8B
:1023F0004FF0006001F035FB18B14FF0006001F0C4
:1024000044FB10BD8000024038000040381A002014
:1024100050070020520700205407002050030020DE
:10242000B819002055070020560700203EB5044685
:102430000121042000F040FF64200190A0B2ADF81B
:1024400000000020ADF80800ADF8020069462B48F6
:1024500001F052FD0121294802F09DF901221146A7
:10246000264802F084F90121244801F0D1FD002121
:10247000042000F021FF3EBD10B54720FFF7D6FF36
:102480000121042000F018FF10BD10B504462046BD
:10249000FFF7CCFF0121042000F00EFF10BD17480C
:1024A0001030008800F0010028B34FF6FE70134989
:1024B000103108801248007800B970471148006850
:1024C000401C1049086000200F4908700FE00F48B9
:1024D0000D49097830F81100401C0C490A4A12785D
:1024E00021F8120008480078401C07490870064887
:1024F00000780428EBDB00BFDFE7000000080040A5
:1025000022030020640700206807002058070020ED
:10251000034606210622F7480188F7480288ABB136
:10252000012B1BD13AB94EF6EE60814201D1002059
:1025300070470120FCE739B94EF6EE60824201D1C6
:102540000120F5E70020F3E7AB20F1E709B900200F
:10255000EEE70AB90120EBE7AB20E9E70020E7E767
:1025600070B5042600240120FFF7D2FF0446AB2CEF
:1025700006D1E04800EBC420E0490860AB2070BD04
:10258000DC4800EBC420DD490860601CD949891E85
:1025900001EBC0250CE0D94800680068401C10B968
:1025A00004263046EBE7D5480068001DD349086093
:1025B000D2480068A842EED38020E0E710B504249A
:1025C000CC4802F031FB0446042C01D0204610BD5B
:1025D0000021C84802F0A0FB0446042C01D020468C
:1025E000F5E7C54802F020FB04462046EFE72DE959
:1025F000F04104460F4604250026DFF8FC82A8F1CE
:1026000001080120FFF784FF0646AB2E01D1BDE88B
:10261000F081701CB749891E01EBC02821E0B74842
:1026200000680068401CB8B93946B448006802F038
:1026300073FB0546042D01D02846E8E72146AF4844
:102640000068801C02F068FB0546AC480068001D6D
:10265000AA4908602846DAE7A8480068001DA7498B
:102660000860A64800684045D9D38020CFE72DE90F
:10267000F04706460F46002545F255584FF0010930
:102680009C4CA2460020FFF743FF0546AB2D01D12D
:10269000BDE8F087974800EBC52A98480068841E7B
:1026A0000AE0B4F80080B04505D134F8020C388057
:1026B0004FF0000904E0241F0AF102008442F0D820
:1026C00000BF4846E4E72DE9F0474FF0060A06262A
:1026D00000250027A8464FF0FF398648B0F800A033
:1026E000854806885FEA0A0076D0A0F56E40EE388D
:1026F00058B3A0F58850113800286ED146B97D48EE
:1027000002F092FA0446042C1ED02046BDE8F08761
:102710004EF6EE60864210D1764802F085FA044605
:10272000042C01D02046F1E70021734802F0F4FAAE
:102730000446042C08D02046E8E7FFF73FFF044694
:10274000042C01D02046E1E7AEE086BB002523E063
:102750006848801D00886A4931F81510884201D107
:102760000FFA85F94D4515D0654931F815006549D1
:10277000FFF77DFF8046B8F1010F0BD0604931F8BB
:10278000150060490988FFF732FF0746042F01D082
:102790003846BBE7681C85B21A2DD9DB00215548A5
:1027A00002F0BAFA0446042C02D02046AEE707E055
:1027B000514802F039FA0446042C1FD02046A5E700
:1027C0004FF6FF70864212D14B4802F02DFA0446B4
:1027D000042C03D0204699E711E05DE00021454834
:1027E00002F09AFA0446042C08D020468EE7FFF740
:1027F000E5FE0446042C01D0204687E754E036B9B4
:10280000FFF7DCFE0446042C45D020467EE74FF659
:10281000FF70864207D1384802F006FA0446042CBD
:1028200039D0204672E7002522E03348C088344979
:1028300031F81510884201D10FFA85F94D4515D0B0
:102840002F4931F815002F49FFF711FF8046B8F1E5
:10285000010F0BD02A4931F815002A490988FFF7E2
:10286000C6FE0746042F01D038464FE7681C85B2E4
:102870001A2DDADB0021204802F04EFA0446042C1F
:1028800001D0204642E71B4802F0CEF90446042C52
:1028900001D020463AE707E0FFF790FE0446042CFB
:1028A00001D0204632E700BF00BF04202EE710B55C
:1028B000FFF709FF0446FFF753FE204610BD2DE940
:1028C000F84F074689460425DFF83CA009480090E8
:1028D0004FF00008002400264FF0000B0020FFF707
:1028E00017FE8046B8F1010F10D1DFF808A00248AA
:1028F000009016E000E8030800F0030870070020CD
:10290000EE0200206C070020FFEB0308B8F1000F77
:1029100004D1DFF8C4A03148009002E0AB20BDE84C
:10292000F88F4EF6EE61504602F0F6F90546042D9A
:1029300001D02846F3E7FFF713FE49463846FFF774
:1029400056FE0646042E01D03046E8E700241CE07F
:10295000234830F81400B84215D0214931F814004A
:102960002049FFF784FE8346BBF1010F0BD01C49C1
:1029700031F814001B490988FFF739FE0646042E7A
:1029800001D03046CBE7601C84B21A2CE0DB009803
:1029900002F04AF90546042D01D02846BFE7002180
:1029A000504602F0B9F90546042D01D02846B6E795
:1029B0002846B4E770B505460E4600243146284641
:1029C000FFF715FE0446802C04D131462846FFF758
:1029D00076FF0446204670BD00F0030800E80308B7
:1029E000EE0200206C07002070B50546002405E0CB
:1029F000601CC4B2642C01DD204670BD0221724807
:102A000002F079FD0028F3D029466F4802F012FD4C
:102A1000002405E0601CC4B26E2C01DD2046ECE70A
:102A20000121694802F067FD0028F3D0664802F0F2
:102A300008FDE2E72DE9F04105460C4610214FF074
:102A4000904000F08EF90120FFF7C9F92846FFF702
:102A5000CBFF0646270A3846FFF7C6FFE7B23846DF
:102A6000FFF7C2FF0120FFF7BAF910214FF09040A5
:102A700000F075F93046BDE8F08110B504462146F6
:102A80000320FFF7D7FF10BD2DE9F05F00250026DA
:102A900000274FF001084FF00109AA464FF0030B41
:102AA000680240EA062040EAC71040EA881040EA7F
:102AB000491040EACA0040EA0B0421460420FFF70F
:102AC000B9FFBDE8F09F00B585B000213E4802F097
:102AD00046FC0020ADF800004FF48270ADF8020013
:102AE0004FF4E060ADF804000020ADF806000120CE
:102AF000ADF808004002ADF80A003020ADF80C0037
:102B00000020ADF80E000720ADF8100010214FF0A6
:102B1000904000F024F969462B4802F082FB012125
:102B2000294802F01CFC0E214FF0904000F017F9EC
:102B300005B000BD10B5FFF7C6FFFFF7A5FF0020E9
:102B4000FFF79BFF10BD70B505460E4610214FF0F4
:102B5000904000F006F90120FFF741F9002405E05C
:102B6000285DFFF741FF2855601CC4B2B442F7DB73
:102B70000120FFF734F910214FF0904000F0EFF8FA
:102B8000002070BD00B591B000210C20FFF752FF6E
:102B900000208DF80400032101A8FFF7D4FF11B035
:102BA00000BD10B50446084800884FF6C7710840BC
:102BB0000549088008460088204308800121024812
:102BC00002F0CDFB10BD0000003C004010B50446F3
:102BD000B4F1904F09D10121480400F07AFB0021A3
:102BE0004FF4003000F075FB3CE07448844208D19B
:102BF0000121000200F06DFB0021200200F069FBC2
:102C000030E06F48844208D10121000200F061FBEE
:102C10000021200200F05DFB24E06A48844209D1D3
:102C20000121080500F055FB00214FF4801000F051
:102C300050FB17E06448844208D10121400200F0B3
:102C400048FB0021600200F044FB0BE05F48844237
:102C500008D10121880500F03CFB00214FF48000E1
:102C600000F037FB10BDF0B50A4600210023002418
:102C700000BF3DE0012505FA01F3156805EA0304EC
:102C80009C4234D11579012D02D01579022D16D12F
:102C900085684F000326BE40B543856055794E00D8
:102CA000B540866835438560868801258D40AE43F2
:102CB0008680868895798D40ADB22E4386800568E2
:102CC0004F000326BE40B543056015794E00B54060
:102CD000066835430560C5684F000326BE40B5430E
:102CE000C560D5794E00B540C6683543C560491CFE
:102CF0001029BFD3F0BD4FF6FF71016000210171B3
:102D00000221417100218171C171704708B54FF4F2
:102D100080320092009A0A430092009AC261C16117
:102D2000009AC261C2690092C269009208BD02465F
:102D30000020138A0B400BB1012000E000207047F7
:102D40000146088A704702460020938A0B400BB167
:102D5000012000E0002070470146888A70478161A9
:102D60007047018570470AB1816100E001857047B5
:102D700081827047F0B5002300244D07ED0E02FA62
:102D800005F3CE1000F1200555F826504E07F70E3A
:102D90000F26BE40B543CF1000F1200646F827505D
:102DA000CE1000F1200555F8265045EA0304CE1058
:102DB00000F1200545F82640F0BD00000004004861
:102DC00000080048000C00480010004800140048AB
:102DD000F948006840F00100F7490860084640687B
:102DE00000F47F00486008460068F4490840F24952
:102DF00008600846006820F48020086008464068A3
:102E000020F4FE0048600846C06A20F00F00C86247
:102E10000846006BEA490840E749086300208860DB
:102E200070470021E44A917011468870704710B5D0
:102E300001460022002300204A1112B9DE4C23680B
:102E400006E0012A02D1DC4C236A01E0DA4C636A15
:102E500001F01F02012494401C400CB1012000E04D
:102E6000002010BD38B5002000900024002500BFD0
:102E70001120FFF7DCFF05460098401C00900098E9
:102E8000B0F5A06F01D0002DF2D01120FFF7CFFFD9
:102E900008B1012400E00024204638BD014600208E
:102EA000C54A106820F0F80040EAC1001060704781
:102EB000C44908607047C049096A21F00101BE4A4F
:102EC00011621146096A21F0040111621146096A72
:102ED000014311627047B849096A21F01801B64AE6
:102EE00011621146096A014311627047B6490860D0
:102EF0007047B14A526822F47412AF4B5A601A46B6
:102F0000526840EA01031A43AB4B5A607047AD491F
:102F10000866704701460020A74AD06A20F00F00DB
:102F20000843D0627047A749C8647047A249C87176
:102F3000704701460020A04A506820F00300084373
:102F4000506070479C48406800F00C007047014694
:102F50000020994A506820F0F00008435060704704
:102F600001460020944A506820F4E0600843506015
:102F7000704701460020904A506820F4605040EAB3
:102F8000C100506070478C49496821F440418A4A29
:102F9000516011464968014351607047864949684C
:102FA00021F07841844A51601146496801435160DB
:102FB00070478149096B21F040017F4A1163114636
:102FC000096B0143116370470021010F31B97A4A3F
:102FD000126B22F01002784B1A6305E0764A126BEE
:102FE00022F02002744B1A63734A126B0243724B35
:102FF0001A6370470021010F012904D0022909D06A
:10300000032915D10DE06C4A126B22F003026A4BC2
:103010001A630EE0684A126B22F44032664B1A6360
:1030200007E0654A126B22F44022634B1A6300E00A
:1030300000BF00BF604A126B02435F4B1A637047C8
:103040006049D8310860704770B500210023002422
:1030500000250022584E766806F00C0121B10429A3
:1030600005D0082921D105E0584E066020E0574ED2
:1030700006601DE0504E766806F470134E4E76687A
:1030800006F48034022606EB93431CB9504E5E438F
:10309000066009E0484EF66A06F00F06751C4B4EB6
:1030A000B6FBF5F65E43066002E0484E066000BFE0
:1030B00000BF414E766806F0F0010909454E725C8A
:1030C0000668D64046603C4E766806F4E061090A20
:1030D000404E725C4668D6408660374E766806F48D
:1030E0006051C90A3B4E725C4668D640C660324E9B
:1030F000766806F44041890B374E725CC668B6FBB1
:10310000F2F606612C4E766806F07841C1F3C36191
:10311000324E725C0668B6FBF2F64661264E366B9E
:1031200006F04006402E03D048F21206866102E007
:103130004FF400468661204E366B06F01006102EC6
:1031400002D0224EC66101E00668C6611A4E366B97
:1031500006F02006202E02D01C4E066201E0066812
:103160000662154E366B06F0030616B9C66846624F
:1031700019E0114E366B06F00306012E02D10668E7
:10318000466210E00C4E366B06F00306022E02D1AA
:10319000B603466207E0084E366B06F00306032EC0
:1031A00001D10A4E4662044E366B06F44036BEB973
:1031B0008668866232E0000000100240FFFFF6FEE3
:1031C0008C0FFF0F000042428004424200127A003E
:1031D00000093D00740700208407002088070020B4
:1031E000604E366B06F44036B6F5803F02D1066875
:1031F000866213E05B4E366B06F44036B6F5003F50
:1032000003D14FF40046866208E0564E366B06F452
:103210004036B6F5403F01D1534E8662514E366B73
:1032200006F4402616B98668C6621DE04D4E366B20
:1032300006F44026B6F5802F02D10668C66213E078
:10324000484E366B06F44026B6F5002F03D14FF4F6
:103250000046C66208E0434E366B06F44026B6F5DB
:10326000402F01D1404EC66270BD3E49096A0143FC
:103270003C4A116270473D49086070473B49091D4F
:103280000860704729B1374A52690243354B5A6189
:1032900004E0344A52698243324B5A61704729B183
:1032A000304A926902432F4B9A6104E02D4A926999
:1032B00082432C4B9A61704729B12A4AD269024352
:1032C000284BDA6104E0274AD2698243254BDA6150
:1032D000704729B1234A926A0243224B9A6204E062
:1032E000204A926A82431F4B9A62704729B11D4A55
:1032F000D26802431B4BDA6004E01A4AD268824368
:10330000184BDA60704729B1164A12690243154B0F
:103310001A6104E0134A12698243124B1A61704722
:1033200029B1104A527A02430E4B5A7204E00D4AF8
:10333000527A82430B4B5A7270470A48406A40F0F7
:10334000807008494862704701460020054A92682B
:103350000A400AB1012000E000207047014988724C
:10336000704700000010024000127A003C04424204
:1033700010B50446F848844209D101218803FFF7BB
:10338000B5FF00214FF48040FFF7B0FF18E0F3488D
:10339000844209D101214804FFF7B5FF00214FF411
:1033A0000030FFF7B0FF0BE0ED48844208D1012167
:1033B0008804FFF7A8FF00214FF48020FFF7A3FF48
:1033C00010BD2DE9F0418CB004460D460027B846EB
:1033D0000026206820F001002060666826F4405630
:1033E000A86806436660266841F20C608643E96877
:1033F000686808432969084306432660A66826F4DE
:10340000407668690643A6606846FFF71DFED2480D
:10341000844202D1DDF8248007E0D048844202D102
:10342000DDF8288001E0DDF82C80206800F4004001
:1034300060B14FEA48002968B0FBF1F74FEA480055
:103440002968B0FBF1F201FB120607E02868B8FB1F
:10345000F0F72868B8FBF0F100FB11862868B6EB9E
:10346000500F00D37F1C206800F4004038B1C7F330
:1034700042064FF6F07107EA010040EA0607A7810D
:103480000CB0BDE8F0814FF416510160002141609D
:103490008160C1600C21016100214161704710B55C
:1034A0000022426822F47062D1E9003423438C6820
:1034B0002343CC6823431A43426010BD00210160BE
:1034C00041608160C160704721B1026842F0010231
:1034D000026003E0026822F00102026070471AB144
:1034E00003680B43036002E003688B43036070478B
:1034F00021B1026842F40042026003E0026822F453
:1035000000420260704721B1826842F4006282602A
:1035100003E0826822F400628260704721B1426851
:1035200042F40022426003E0426822F4002242603A
:10353000704721B1426842F48022426003E0426851
:1035400022F48022426070471AB143680B43436003
:1035500002E043688B434360704721B1426842F404
:103560000042426003E0426822F400424260704739
:1035700021B1426842F40002426003E0426822F452
:10358000000242607047426902F07F424261426934
:103590000A4342617047028A02F47F420282028A31
:1035A0000A430282704721B1026842F002020260BF
:1035B00003E0026822F0020202607047826822F48F
:1035C0004012826082680A438260704721B142687B
:1035D00042F48012426003E0426822F480124260AA
:1035E0007047426822F4C002426042680A43426067
:1035F0007047C1F30802028570470146888CC0F30A
:1036000008007047426822F07F424260426842EA06
:1036100001624260704721B1026842F400520260C8
:1036200003E0026822F4005202607047026822F44C
:103630000062026002680A4302607047426822F03A
:103640001002426042680A4342607047426822F0BA
:103650002002426042680A434260704721B14268DA
:1036600042F48042426003E0426822F480424260B9
:10367000704721B1826842F00802826003E08268EC
:1036800022F0080282607047028AD2B20282028A65
:1036900042EA01220282704721B1826842F0200290
:1036A000826003E0826822F020028260704721B1CC
:1036B000826842F01002826003E0826822F0100209
:1036C00082607047826822F460228260826842EAE7
:1036D000414282607047426922F07F424261426902
:1036E00042EA016242617047826822F0040282600D
:1036F00082680A438260704721B1826842F0020208
:10370000826003E0826822F002028260704721B189
:10371000826842F48042826003E0826822F4804240
:1037200082607047826822F40042826082680A43A5
:1037300082607047026822F078720260026842EA92
:10374000415202607047026822F4F8120260026877
:1037500042EA0142026070470038014000440040E4
:10376000004800401AB183680B43836002E083681D
:103770008B4383607047826822F4005282608268C3
:103780000A4382607047F0B50346002400260025F6
:1037900000201846C1F30724CEB2012707FA06F528
:1037A000022C01D1001D02E0032C00D108301AB117
:1037B00007682F43076002E00768AF430760F0BD6A
:1037C0001AB1038B0B43038302E0038B8B43038308
:1037D0007047826822F48052826082680A43826065
:1037E000704702460020D3690B400BB1012000E076
:1037F000002070470162704770B502460B460024F6
:10380000002100250020C3F30725D9B2012606FABE
:1038100001F1012D02D11668314006E0022D02D1DE
:103820005668314001E0966831401C0C012606FACA
:1038300004F4D669344011B10CB1012000E000203D
:1038400070BD10B5002200230A0C012404FA02F313
:10385000036210BD01684FF6FE7211400160002145
:10386000016041608160C1608D49884208D18C4906
:103870000839496841F00F01894A083A51608AE0E5
:1038800087491431884208D185490839496841F08F
:10389000F001834A083A51607DE08149283188422D
:1038A00008D17F490839496841F470617C4A083A77
:1038B000516070E07A493C31884208D17849083932
:1038C000496841F47041764A083A516063E07449AE
:1038D0005031884208D172490839496841F4702151
:1038E0006F4A083A516056E06D496431884208D108
:1038F0006B490839496841F47001694A083A5160D6
:1039000049E067497831884208D1654908394968F2
:1039100041F07061624A083A51603CE06149884276
:1039200006D1011F096841F00F01021F116032E04A
:103930005C491431884208D15A49091F096841F08D
:10394000F001584A121F116025E05649283188427B
:1039500008D15449091F096841F47061514A121F86
:10396000116018E04F493C31884208D14D49091F88
:10397000096841F470414B4A121F11600BE049493C
:103980005031884207D14749091F096841F4702125
:10399000444A121F1160704710B50022026847F6B2
:1039A000F0739A430C6A8B6823430C6923434C6978
:1039B00023438C692343CC6923434C6A23438C6A99
:1039C00023431A4302608B8943600B6883604B6812
:1039D000C36010BD0021016041608160818101618F
:1039E00041618161C161016241628162704721B1BF
:1039F000026842F00102026004E002684FF6FE73C2
:103A00001A4002607047416070470146486880B2C2
:103A100070471AB103680B43036002E003688B43ED
:103A20000360704701460020002201F080531BB163
:103A30001C4B083B1A6802E0194B083B1A6802EA63
:103A400001030BB1012000E00020704700F080511D
:103A500019B11449091F086002E01149083948608A
:103A6000704701460020002201F080531BB10D4B2E
:103A7000083B1A6802E00A4B083B1A6802EA010395
:103A80000BB1012000E00020704700F0805119B117
:103A90000449091F086002E001490839486070477D
:103AA000080002400804024010B50446B6488442AB
:103AB00009D101210806FFF719FC00214FF08070A1
:103AC000FFF714FC15E0B148844209D101214806F2
:103AD000FFF70CFC00214FF00070FFF707FC08E037
:103AE00001218806FFF702FC00214FF08060FFF7FC
:103AF000FDFB10BD10B500224268A54B1A400B79A2
:103B00009B054C7943EA04630C6804F47024234356
:103B10001A43426010BD0121016000210171417111
:103B2000704730B5002300F1200303EB8103D2E995
:103B300000452C4395682C43D5682C431C6030BD50
:103B40000021016041608160C160704730B5002391
:103B5000904CA14207D00B0C046C9D0002FA05F5B5
:103B60002C43046400E0426430BD21B1426842F05D
:103B70000102426003E0426822F0010242607047A5
:103B800021B1026842F00042026003E0026822F0C4
:103B900000420260704721B1426842F08072426088
:103BA00003E0426822F08072426070470146764A24
:103BB000106820F440700843106070470A4641685E
:103BC00021F00601114341607047416841F0100146
:103BD000416070470A46416821F47021130C1B04B0
:103BE00019434160704721B1426842F4800242604B
:103BF00003E0426822F4800242607047416841F469
:103C00000001416070470146486E00B2704721B123
:103C1000026842F40042026003E0026822F40042BB
:103C2000026070475848406F70475748C06F7047F0
:103C3000416841F40041416070478AB24261704777
:103C400021B1426842F04002426003E0426822F043
:103C500040024260704721B1426842F02002426057
:103C600003E0426822F02002426070470A460021C9
:103C7000416821F470611143416070470A46002198
:103C8000416821F4C0411143416070470146002062
:103C90000A6E100C0122824042EA0040704730B5A3
:103CA00002460B460021116E3B4800EA11200D0E22
:103CB0000124AC402043186008B230BD21B1026835
:103CC00042F48042026003E0026822F48042026013
:103CD00070472D48006F70472B48806F704721B1A7
:103CE000026842F48052026003E0026822F48052CB
:103CF0000260704721B1026842F40062026003E092
:103D0000026822F400620260704721B1026842F446
:103D10008062026003E0026822F480620260704701
:103D20001AB103680B43036002E003688B4303602E
:103D300070471AB103680B43036002E003688B43CA
:103D4000036070470246002093680B400BB10120CE
:103D500000E000207047C2680A43C260704730B577
:103D60000246002000230024956805EA0103156837
:103D700005EA010413B10CB1012000E0002030BDC0
:103D8000C2680A43C260704700600140006401409D
:103D9000FFFF30FE000108000000FFFF10B50446E1
:103DA000B4F1804F08D101210846FFF7ACFA002199
:103DB0000120FFF7A8FA9EE0F748844208D10121CC
:103DC0000220FFF7A0FA00210220FFF79CFA92E000
:103DD000F248844208D101210420FFF794FA00211F
:103DE0000420FFF790FA86E0ED48844208D10121D3
:103DF0000820FFF788FA00210820FFF784FA7AE00C
:103E0000E848844208D101211020FFF77CFA002104
:103E10001020FFF778FA6EE0E348844208D10121D0
:103E20002020FFF770FA00212020FFF76CFA62E0F3
:103E3000DE48844208D101214020FFF764FA0021C6
:103E40004020FFF760FA56E0D948844208D10121AA
:103E50008020FFF758FA00218020FFF754FA4AE04B
:103E6000D448844208D101218015FFF74CFA002183
:103E7000A015FFF748FA3EE0CF48844209D101215E
:103E80000804FFF733FA00214FF48030FFF72EFAD1
:103E900031E0CA48844209D101214804FFF726FADB
:103EA00000214FF40030FFF721FA24E0C448844297
:103EB00009D101218804FFF719FA00214FF480206D
:103EC000FFF714FA17E0BF48844208D101214015DA
:103ED000FFF719FA00216015FFF715FA0BE0BA4851
:103EE000844208D10121C804FFF700FA00214FF4F1
:103EF0000020FFF7FBF910BD00220288B0F1804FCF
:103F00000BD0A54B984208D0A44B984205D0A44BA7
:103F1000984202D0AC4B984204D14FF68F731A40AE
:103F20004B881A439F4B98420AD09F4B984207D028
:103F3000A44B984204D04FF6FF431A400B891A4312
:103F400002804B68C3620B8803859B4B984205D067
:103F50009A4B984202D09A4B984201D18B7A0386B1
:103F60000123838270474FF0FF31416000210180BF
:103F700001814180817270470185828270470A46C3
:103F8000002101884FF68F7319401143018070475B
:103F900041627047C16270470146486A70470146F6
:103FA000088D704721B1028842F00202028004E0CD
:103FB00002884FF6FD731A400280704721B10288D3
:103FC00042F00402028004E002884FF6FB731A40BC
:103FD0000280704721B1028842F08002028004E032
:103FE00002884FF67F731A400280704702884FF6AE
:103FF000F7731A40028002880A43028070470288E1
:104000004FF6FF431A40028002880A43028070473D
:1040100021B1028842F00102028004E002884FF6DA
:10402000FE731A40028070470A884B881A438B88B7
:104030001A43CB881A430B891A434B891A438B893D
:104040001A43B0F844301A43A0F8442070470021C6
:10405000018041808180C1800181418181817047DF
:1040600031B1B0F8442042F40042A0F8442005E009
:10407000B0F84420C2F30E02A0F84420704770B597
:10408000002400220023058C4FF6FE76354005847F
:10409000028C8388048B4FF68F752C40B51E2C4004
:1040A0000D882C43751E2A408D892A434D882A434A
:1040B000414DA84205D0414DA84202D0404DA842F2
:1040C00013D14FF6F7752A40CD892A434FF6FB7579
:1040D0002A408D882A434FF6FF652B404FF6FF5547
:1040E0002B400D8A2B434D8A2B43838004838D689C
:1040F0004563028470BD70B5002200230024058C46
:104100004FF6EF7635400584038C8488028B48F6A1
:10411000FF752A404FF6FF452A400D884FF6FF767F
:1041200006EA05252A434FF6DF752B408D8906EAFE
:1041300005152B434D8806EA05152B438480028321
:104140008D688563038470BD70B500220023002450
:10415000058C4FF6FF6635400584038C8488828B7E
:104160004FF68F752A404FF6FC752A400D882A437A
:104170004FF6FF552B408D894FF6FF7606EA052551
:104180002B434D8806EA05252B43848082838D6866
:10419000C563038470BD00000004004000080040B7
:1041A000000C0040001000400014004000180040C7
:1041B000001C00400020004000400140004401403D
:1041C00000480140009C0040005C014070B50022A6
:1041D00000230024058C4EF6FF7635400584038CC1
:1041E0008488828B48F6FF752A404FF6FF452A40A7
:1041F0000D884FF6FF7606EA05252A434DF6FF7532
:104200002B408D8906EA05352B434D8806EA053596
:104210002B43848082838D680564038470BD0021F4
:1042200001804180818081608181C18101824182E0
:10423000704770B503460020002418461830012549
:104240008D40ACB21D8CA5431D8409B1082909D14C
:1042500000EB6100056825F07005056005681543F1
:1042600005600EE00D1FC5F34E052844056825F4D2
:10427000E045056005684FF6FF7606EA02263543FD
:10428000056070BD4163704781637047C1637047CB
:10429000016470470A460021018B4FF68F73194065
:1042A0001143018370470A460021018B48F6FF73D2
:1042B00019404FF6FF7303EA022319430183704745
:1042C0000A460021818B4FF68F7319401143818379
:1042D00070470A460021818B48F6FF7319404FF65C
:1042E000FF7303EA022319438183704721B1828857
:1042F00042F00102828004E082884FF6FE731A4089
:10430000828070470A460021018B4FF6F7731940EF
:104310001143018370470A460021018B4FF2FF735E
:1043200019404FF6FF7303EA0223194301837047D4
:104330000A460021818B4FF6F773194011438183A0
:1043400070470A460021818B4FF2FF7319404FF6E8
:10435000FF7303EA02231943818370470A46002151
:10436000018B4FF6FB7319401143018370470A46D6
:104370000021018B4FF6FF3319404FF6FF7303EA1C
:1043800002231943018370470A460021818B4FF6AF
:10439000FB7319401143818370470A460021818BCA
:1043A0004FF6FF3319404FF6FF7303EA0223194318
:1043B000818370470A460021018B4FF67F731940B5
:1043C0001143018370470A460021018BC1F30E019E
:1043D0004FF6FF7303EA02231943018370470A462D
:1043E0000021818B4FF67F73194011438183704701
:1043F0000A460021818BC1F30E014FF6FF7303EAD9
:1044000002231943818370470A460021018C4FF62D
:10441000FD7319401143018470470A460021018C45
:104420004FF6F77319401143018470470A46002183
:10443000018C4FF6DF7319404FF6FF7303EA021346
:104440001943018470470A460021018C4FF6FF533F
:1044500019404FF6FF7303EA0223194301847047A2
:104460000A460021018C4DF6FF7319404FF6FF7389
:1044700003EA023319430184704702894FF6F77348
:104480001A40028102890A430281704730B5002335
:1044900001248C40A3B2048C9C430484048C02FA53
:1044A00001F5ADB22C43048430BD30B500230424A3
:1044B0008C40A3B2048C9C430484048C02FA01F562
:1044C000ADB22C43048430BD21B1828842F0040295
:1044D000828004E082884FF6FB731A408280704726
:1044E000828B4FF2FF331A408283828B4FF6FF7329
:1044F00003EA01231A4382837047F0B50C46154640
:10450000002100220026078C4EF6FF7C07EA0C07EC
:104510000784818B028C4FF6FF7707EA043640F65A
:10452000FF4739404FF6FF7707EA052739434FF633
:10453000FF7707EA0337394347F6FF573A4046F417
:1045400080573A4381830284F0BD828B4FF6F37328
:104550001A408283828B0A4382837047F0B50C46EF
:104560001546002100220026078C4FF6FF6C07EA53
:104570000C070784818B028C4FF6FF7707EA04262D
:104580004FF60C7739404FF6FF7707EA03172F43B2
:1045900039434FF2FF573A4046F480773A438183DC
:1045A0000284F0BD028B4FF2FF331A400283028B6C
:1045B0004FF6FF7303EA01231A4302837047F0B5F5
:1045C0000C461546002100220026078C4FF6EF7C92
:1045D00007EA0C070784018B028C4FF6FF7707EA86
:1045E000041640F6FF4739404FF6FF7707EA0337D6
:1045F00039434FF6FF7707EA052739434FF65F77D0
:104600003A4046F010073A4301830284F0BD028B22
:104610004FF6F3731A400283028B0A4302837047FA
:10462000F0B50C46154600210022068C4FF6FE77A9
:104630003E400684018B028C4FF60C7631407E1C86
:1046400006EA03162E4331434FF6F576324044F026
:104650000106324301830284F0BD70B505460C4665
:10466000208850B92389A28861882846FFF7D8FF9F
:10467000E1882846FFF7CBFF25E0208804280AD1EF
:104680002389A28861882846FFF799FFE188284698
:10469000FFF788FF17E0208808280AD12389A2881D
:1046A00061882846FFF75AFFE1882846FFF74DFF4B
:1046B00009E02389A28861882846FFF71EFFE18868
:1046C0002846FFF70DFF70BD0021018041800121C8
:1046D00081800021C180018170472DE9F0410546AC
:1046E0000C4600260127608808B9022600E0002653
:1046F000A088012801D1022700E001272088A0B965
:104700002389A28861882846FFF78AFFE188284626
:10471000FFF77DFF23893A4631462846FFF74FFFD2
:10472000E1882846FFF73EFF13E02389A2886188CD
:104730002846FFF744FFE1882846FFF733FF238927
:104740003A4631462846FFF76BFFE1882846FFF7D7
:104750005EFFBDE8F0810146486B70470146886BFB
:1047600070470146C86B70470146086C70471AB124
:1047700083890B43838102E083898B438381704764
:104780008182704702460020138A0B400BB1012042
:1047900000E000207047CA430282704730B50246ED
:1047A000002000230024158A05EA0103958905EA03
:1047B000010413B10CB1012000E0002030BDCA4358
:1047C0000282704741EA0203A0F8483070471AB1EC
:1047D00083890B43838102E083898B438381704704
:1047E00021B1828842F00802828004E082884FF67C
:1047F000F7731A408280704701894FF6F8721140B2
:10480000018170470A46002101894FF68F731940D4
:1048100011430181704730B504460D4629462046B4
:10482000FFF7F0FF208940F00700208130BD2DE91F
:10483000F04104460D4616461F46602D06D13B4604
:10484000012231462046FFF7BAFE05E03B46012231
:1048500031462046FFF7E4FE29462046FFF7D2FF07
:10486000208940F007002081BDE8F08130B50C467A
:1048700000210189C9B24FF6FF7505EA03251543EA
:1048800025432943018130BD2DE9F04105460E46FF
:1048900017469846002443463A4631462846FFF7D5
:1048A000E5FF2C894FF6F870044044F007044FF6FA
:1048B0008F70044044F070042C81BDE8F081F0B5A5
:1048C00004460D4616461F463B46324629462046BC
:1048D000FFF7CCFF208940F480402081F0BD828822
:1048E0004FF68F731A40828082880A438280704715
:1048F00002894FF6F8731A40028102890A43028145
:10490000704702894FF67F731A40028102890A4379
:1049100002817047F0B50C4615461E460021002264
:1049200000230189028B038C4FF6F877394021432D
:104930004FF6FC473A4040F201173A434FF6DD7715
:104940003B404FF6FF7707EA06172F433B430181B1
:1049500002830384F0BD21B1828842F0800282800C
:1049600004E082884FF67F731A4082807047A0F877
:104970005010704731490143314A1160704770B59A
:10498000002100230F22C47804B32D4C246804F4C2
:10499000E064C4F5E064210AC1F10403CA4044782C
:1049A00004FA03F18478144021430901254C067868
:1049B000A155047804F01F050124AC4005786D1161
:1049C000AD0005F1E025C5F8004109E0047804F0E8
:1049D0001F050124AC401C4D0678761145F8264091
:1049E00070BD1A4A0A400243154B1B1F1A607047DC
:1049F00039B1134A121D12680243114B1B1D1A6074
:104A000006E00F4A121D126882430D4B1B1D1A60EF
:104A10007047042808D14FF0E021096941F00401F2
:104A20004FF0E022116107E04FF0E021096921F029
:104A300004014FF0E0221161704700000000FA0508
:104A40000CED00E000E400E080E100E080FFFF1FEB
:104A500010B501210807FEF756FC00214FF08050E9
:104A6000FEF751FC10BD3B4908627047014600202B
:104A7000394A106820F0E00008431060704735495B
:104A80000861704729B1344A52680243324B5A6078
:104A900004E0314A526882432F4B5A60704729B173
:104AA0002D4A126802432C4B1A6004E02A4A12680D
:104AB0008243294B1A6070472849096821F0040194
:104AC000264A1160012801D130BF00E020BF7047A5
:104AD00010B502460020204B186820F00300104358
:104AE00018601E4B1B6843F004031C4C2360012913
:104AF00001D130BF00E020BF184B1B6823F0040336
:104B0000164C236010BD1448006840F004001249A0
:104B100008600846006840F0020008600F4800681E
:104B200040F004000D49086000BF00BF30BF70476F
:104B300001460020084A52680A400AB1012000E0FC
:104B4000002070470449096841EA8001024A116067
:104B50007047000000000E420070004010ED00E0C1
:104B600001460020FE4A106820F003000843106050
:104B7000704730B1FA49096841F00801F84A1160FC
:104B800005E0F749096821F00801F54A116070470E
:104B900030B1F349096841F01001F14A116005E0B4
:104BA000EF49096821F01001ED4A11607047EC48A7
:104BB000006900F0800020B1EA48E9494860EA480D
:104BC00048607047E648006940F08000E4490861A9
:104BD00070470420E249C96801F0010109B10120D0
:104BE0000EE0DF49C96801F0100109B1022007E0B9
:104BF000DB49C96801F0040109B1032000E0042089
:104C0000704700B502460423FFF7E3FF034603E0C5
:104C1000FFF7DFFF0346521E012B01D1002AF7D117
:104C200002B90523184600BD30B5044604254FF4EB
:104C30003020FFF7E6FF0546042D16D1C84800696D
:104C400040F00200C649086108464461006940F02E
:104C5000400008614FF43020FFF7D3FF0546C048FD
:104C6000006920F00200BE490861284630BD10B539
:104C700004244FF43020FFF7C4FF0446042C15D160
:104C8000B748006940F00400B5490861084600696A
:104C900040F0400008614FF43020FFF7B2FF0446B7
:104CA000AF48006920F00400AD490861204610BDFE
:104CB00078B506460C460425002000904FF43020BD
:104CC000FFF79FFF0546042D24D1A548006940F059
:104CD0000100A349086134804FF43020FFF791FFB1
:104CE0000546042D10D1B01C0090200C00990880BE
:104CF0004FF43020FFF785FF05469948006920F002
:104D000001009749086105E09548006920F001001D
:104D100093490861284678BD70B504460D460426BF
:104D20004FF43020FFF76DFF0646042E11D18C485A
:104D3000006940F001008A49086125804FF4302065
:104D4000FFF75FFF06468648006920F001008449AE
:104D50000861304670BD8248006900F4007020B9D7
:104D600080487F4988608048886070477C48006937
:104D700020F400707A49086170477948006940F46E
:104D8000005077490861704700207549C96901F0F2
:104D9000060109B1012000E00020704730B5AA25C6
:104DA0000424FFF7F1FF00B100254FF43020FFF796
:104DB00028FF0446042C34D16948006940F02000E3
:104DC000674908610846006940F0400008614FF4F7
:104DD0003020FFF716FF0446042C1AD16048006902
:104DE00020F020005E4908610846006940F010008C
:104DF00008615E4805804FF43020FFF702FF04464B
:104E0000052C0ED05648006920F010005449086166
:104E100007E0052C05D05248006920F010005049E9
:104E20000861204630BD70B505460E4604244FF497
:104E30003020FFF7E6FE0446042C13D148480069F1
:104E400040F01000464908612E804FF43020FFF7F3
:104E5000D8FE0446052C05D04148006920F010001A
:104E60003F490861204670BD2DE9F04304464FF6E6
:104E7000FF763746B046B1460425E443E6B2C4F3B4
:104E80000727C4F307484FEA14694FF43020FFF7AF
:104E9000B8FE0546042D3FD13148006940F01000AE
:104EA0002F490861FF2E07D03048083006804FF4A4
:104EB0003020FFF7A6FE0546042D09D1FF2F07D0AD
:104EC0002A480A3007804FF43020FFF79AFE054643
:104ED000042D0BD1B8F1FF0F08D024480C30A0F8F6
:104EE00000804FF43020FFF78CFE0546042D0BD1D7
:104EF000B9F1FF0F08D01D480E30A0F800904FF414
:104F00003020FFF77EFE0546052D05D014480069C8
:104F100020F01000124908612846BDE8F08330B542
:104F2000054604244FF43020FFF76BFE0446042CA2
:104F30003DD10B48006940F020000949086108464E
:104F4000006940F0400008614FF43020FFF759FE3F
:104F50000446042C23D10248006920F0200007E019
:104F60000020024023016745AB89EFCD00F8FF1F09
:104F70008F4908610846006940F0100008618D48BB
:104F800005804FF43020FFF73CFE0446052C0ED080
:104F90008748006920F010008549086107E0052C6A
:104FA00005D08348006920F020008149086120462F
:104FB00030BDF0B507460D46164604244FF43020A8
:104FC000FFF71FFE0446042C1AD17948006940F00F
:104FD00010007749086147EA050046F0F8010843E8
:104FE0007449891C08804FF43020FFF70AFE0446FC
:104FF000052C05D06E48006920F010006C4908614E
:105000002046F0BD30B5054604244FF43020FFF7AC
:10501000F8FD0446042C17D16548006940F01000E3
:105020006349086145F0EF006249891C08804FF42C
:105030003020FFF7E6FD0446052C05D05C480069EA
:1050400020F010005A490861204630BD30B50546B1
:1050500004244FF43020FFF7D4FD0446042C17D16C
:105060005348006940F010005149086145F0DF00E5
:105070005049891C08804FF43020FFF7C2FD0446D8
:10508000052C05D04A48006920F010004849086105
:10509000204630BD30B5054604244FF43020FFF7DC
:1050A000B0FD0446042C17D14148006940F01000BF
:1050B0003F49086145F07F003E49891C08804FF454
:1050C0003020FFF79EFD0446052C05D038480069C6
:1050D00020F0100036490861204630BD30B5054645
:1050E00004244FF43020FFF78CFD0446042C17D124
:1050F0002F48006940F010002D49086145F0BF00BD
:105100002C49891C08804FF43020FFF77AFD0446B3
:10511000052C05D02648006920F0100024490861BC
:10512000204630BD30B5054604244FF43020FFF74B
:1051300068FD0446042C17D11D48006940F010009A
:105140001B49086145F048001A49891C08804FF442
:105150003020FFF756FD0446052C05D014480069A1
:1051600020F0100012490861204630BD1048C06987
:10517000C0F3072070470E48006A704729B10C4AF7
:10518000126902430A4B1A6104E0094A1269824318
:10519000074B1A61704701460020054AD2680A4051
:1051A0000AB1012000E0002070470149C860704743
:1051B0000020024000F8FF1F10B50446E148844279
:1051C00008D101218014FEF791F80021A014FEF708
:1051D0008DF816E0DC48844208D101210014FEF766
:1051E00092F800212014FEF78EF80AE0D748844296
:1051F00007D10121C013FEF786F80021E013FEF766
:1052000082F810BD0021018041804FF4E06181806F
:105210000021C180018141818181C18107210182F9
:10522000704710B50022028802F441520B88CC89E5
:105230002343CC8823430C8923434C8923438C8903
:1052400023431A43028082884FF2FF031A408B885F
:105250001A4382800B8A038202884FF6FB731A403E
:105260004B881A430280838B4FF2FF742340838361
:1052700010BD0021018041808180C18002218160B8
:105280000021818170472DE9F04F8DB005460C4615
:105290004FF0000902274FF000084FF0010B0026E5
:1052A000B246A88B4FF240010840A8830220288410
:1052B000B5F81C90A068022801D100BF33E0A08897
:1052C00010B94FF0010B01E04FF0020B01A8FDF700
:1052D000BBFEDDF804A0E088B0F5007F0AD14FEAFC
:1052E0001A2000EB80004000A168B0FBF1F0401DE7
:1052F00086B20BE04FEA4B10BAFBF0F000EB8000F7
:105300004000A168B0FBF1F0401D86B20A20B6FB58
:10531000F0F606F00108A6EB0800C0F34F074FF6C1
:10532000FF7000EA0828022F01DBFF2F02DD0227B1
:105330004FF00008E08840EA080038432884A0883D
:10534000A1890843618808432188084340F400602C
:1053500040EA0909A5F81C900DB0BDE8F08F21B115
:10536000028842F04002028004E002884FF6BF73D8
:105370001A400280704721B1828842F01002828078
:1053800004E082884FF6EF731A408280704721B1A3
:10539000828B42F48062828304E0828B4FF6FF337B
:1053A0001A40828370470A46002181884FF2FF032A
:1053B000194011438180704782884EF6FF731A406E
:1053C000828082880A4382807047B1F5804F04D181
:1053D000028842F48042028004E002884BF6FF73A8
:1053E0001A40028070474FF6FF62914204D0028853
:1053F00042F48072028004E002884FF6FF631A4094
:105400000280704721B1828842F00402828004E069
:1054100082884FF6FB731A408280704721B18288E0
:1054200042F00802828004E082884FF6F7731A4047
:1054300082807047002202460C32117070478181D1
:105440007047014600220A460C3210787047014628
:105450008889704702884FF2FF731A4002800288E1
:105460000A430280704721B1028842F40052028050
:1054700004E002884DF6FF731A40028070470188ED
:1054800041F480510180704702460020012901D07B
:10549000108B00E0908A70470146088A70471AB165
:1054A00083880B43838002E083888B43838070472B
:1054B000828849F6FF731A40828082880A4382807C
:1054C000704730B5002400230C110125A540ABB274
:1054D0001AB185881D43858002E085889D438580BB
:1054E00030BD0146088900F4C05070470146088964
:1054F00000F4C06070470246002013890B400BB1D6
:10550000012000E000207047CA4302817047F0B5D7
:105510000246002000240023002501F00F07012689
:10552000BE40B4B20B1101269E40B3B2968806EA83
:1055300003051689264016B10DB1012000E00020B8
:10554000F0BD00000030014000380040003C004049
:105550002DE9F04705460C4616461F46DDF820901B
:105560004FF000081CB1012C01DBF72C02DD4FF0DD
:10557000020859E0AD48047015B1012D42D120E078
:10558000AB48AC490860AC48AC490860AC48AD4990
:105590000860AD48AD4908600020AD490860AD48DD
:1055A000AD490860AD48AE490860AE48AE490860F4
:1055B0004B463A4631469D48007800F0CDFC804687
:1055C00023E0AA489B490860A9489C490860A9486B
:1055D0009C490860A8489D49086000209C490860D3
:1055E000A6489D490860A6489D490860A5489E496F
:1055F00008604B463A4631468C48007800F032FF4E
:10560000804602E04FF0020800BF00BFB8F1000F73
:105610000AD100F057FE10B94FF0030804E09A4891
:1056200005700120994908704046BDE8F0872DE9D2
:10563000F04105460E46002D3ADD7F2D38DC00F0A6
:105640003FFEF6B1002412E0914800EBC400406830
:1056500028B18F4800EBC4004068B04206D18C48A6
:1056600000F8345000EBC400466002E0641C102CCB
:10567000EADB00BF102C01D0002000E00420074628
:1056800013E000240DE0824810F83400A84207D14E
:1056900000207F4901F8340001EBC401486002E0BA
:1056A000641C102CEFDB00BF002700F00AFE00E0B6
:1056B00002273846BDE8F08110B500247348007811
:1056C000012806D16248006820B16148006880471F
:1056D00000E00624204610BD10B500246B48007879
:1056E000012806D1534800688047002067490870A8
:1056F00000E00624204610BD10B56448007838B993
:105700004E4800688047012060490870002406E088
:105710005E480078012801D1002400E006242046DC
:1057200010BD38B500255948007808B1062038BDAD
:10573000684600F0D4FD012876D19DF8000030B114
:10574000012805D002281AD003286CD16AE06AE04B
:10575000FCF786FB4F4A504950483C4B1B68984722
:1057600005465DB94D48007830490978884202D035
:105770004A48007810B9022000F0A9FD53E04648DD
:1057800000680078464908700120464908700024E6
:1057900017E03F4810F8340000B914E03C4810F816
:1057A00034003F49097888420AD1394800EBC400E7
:1057B000384942683848006890473A49087002E022
:1057C000641C102CE5DB00BF3448007830B335484A
:1057D0000078C8B100202F4908803148007840F097
:1057E00080012C4802880088401C2A4B18802A48D7
:1057F000006881542B480178184602880088401CB4
:10580000188025480068815422480288224801688F
:10581000064800780B4B1B6898470546FCF720FBB1
:1058200001E001E000BF00BF002080E798070020F2
:10583000AD5F0008A0070020CB5F0008A407002090
:10584000456000089C070020E35F0008A8070020CF
:10585000AC070020C1600008B00700204D610008BF
:10586000B4070020C1610008B8070020A96400083F
:10587000C96400086165000801650008F565000855
:105880004367000833680008990700209A07002042
:10589000C40700204A0800204408002048080020CF
:1058A000490800204C0800202DE9F05F06460D460F
:1058B0004FF0000B2888052848D170784FEA00295E
:1058C000B07840EA090909F101001FFA80F9F0787F
:1058D000040230790443012C35DBB4F5FA6F32DA77
:1058E000374600202880012007F8010B2888401C3B
:1058F000288004F0070040B12046E11704EB517105
:10590000C910491C01F0FF0805E02046E11704EB2F
:105910005171C1F3C70807F8018B2888401C288003
:105920000023224649463846FCF70AF98246BAF176
:10593000000F04D0504600F0C6FA834608E02888DD
:105940004044288004E04FF0030B01E04FF0030BCC
:105950005846BDE8F09F2DE9F84304460F464FF046
:1059600000083888052829D160780502A078054309
:10597000681C85B22079F0B9E078FF2801D0E07882
:10598000C8B900208DF80100E078FF2803D101207C
:105990008DF8000002E000208DF8000001231A4677
:1059A00029466846FCF7CCF806464EB1304600F072
:1059B0008AFA804604E04FF0030801E04FF0030844
:1059C0004046BDE8F8832DE9F05F05460E464FF0EE
:1059D000000B3088052839DD68780702A87807436E
:1059E000781C87B2E87804022879044395F805A06A
:1059F00004F0070040B12046E11704EB5171C910D3
:105A0000491C01F0FF0805E02046E11704EB517145
:105A1000C1F3C708012C16DBB4F5F66F13DCD045D3
:105A200011D1012322463946A81DFCF789F8814689
:105A3000B9F1000F04D0484600F045FA834607E06C
:105A40000520308004E04FF0030B01E04FF0030B22
:105A50005846BDE8F09F2DE9F05F06460D464FF031
:105A6000000B2888052847D170784FEA0029B078C4
:105A700040EA090909F101001FFA80F9F0780402EF
:105A800030790443012C34DBB4F5FA6F31DA374650
:105A900000202880022007F8010B2888401C28805D
:105AA00004F0070040B12046E11704EB5171C91022
:105AB000491C01F0FF0805E02046E11704EB517195
:105AC000C1F3C70807F8018B2888401C28802246AC
:105AD00049463846FCF7D7F88246BAF1000F04D0A1
