:020000040800F2
:100000006023002071020008A9040008AB04000866
:10001000AF040008B3040008B704000800000000A3
:10002000000000000000000000000000BB04000809
:10003000BD04000800000000BF0400088902000899
:100040008B0200088B0200088B0200088B0200085C
:100050008B0200088B0200088B0200088B0200084C
:100060008B0200088B0200088B0200088B0200083C
:100070008B0200088B020008B9380008AF3700086F
:100080008B020008132D0008C10400088B02000831
:100090008B0200088B0200088B0200088B0200080C
:1000A0008B0200088B0200088B0200088B020008FC
:1000B000C3040008D9040008FB2D00088B020008C7
:1000C0008B0200088B0200088B0200088B020008DC
:1000D0008B020008252A00088B0200088B0200080A
:1000E0008B0200088B0200088B0200088B020008BC
:1000F0008B0200088B0200080000000000000000D6
:1001000000000000000000008B0200088B020008C5
:1001100000000000000000008B0200088B020008B5
:100120008B0200088B0200088B0200088B0200087B
:100130008B0200088B0200088B0200088B0200086B
:100140008B0200080000000000000000000000001A
:10015000000000000000000000000000000000009F
:1001600000000000000000008B0200088B02000865
:100170008B020008000000008B0200080000000055
:10018000000000008B02000800F002F800F061F8A7
:100190000AA090E8000C82448344AAF10107DA45E2
:1001A00001D100F056F8AFF2090EBAE80F0013F0D3
:1001B000010F18BFFB1A43F0010318472465000024
:1001C000446500000A444FF0000C10F8013B13F0A6
:1001D000070408BF10F8014B1D1108BF10F8015BA0
:1001E000641E05D010F8016B641E01F8016BF9D193
:1001F00013F0080F1EBF10F8014BAD1C0C1B09D1EA
:100200006D1E58BF01F801CBFAD505E014F8016B5B
:1002100001F8016B6D1EF9D59142D6D370470000ED
:100220000023002400250026103A28BF78C1FBD8FF
:10023000520728BF30C148BF0B607047642906F0E1
:100240007D80002070471FB506F045FA1FBD10B530
:1002500010BD06F00AFA1146FFF7F5FF00F06EF93F
:1002600006F028FA03B4FFF7F2FF03BC06F02CFAFD
:100270000948804709480047FEE7FEE7FEE7FEE73A
:10028000FEE7FEE7FEE7FEE7FEE7FEE70448054976
:10029000054A064B704700008D03000889010008DD
:1002A000601D002060230020601F0020601F0020D0
:1002B0001CB50020019000907248006840F4803026
:1002C0007049086000BF6F48006800F4003000907B
:1002D0000198401C0190009818B90198B0F5A06FE2
:1002E000F1D16848006810F4003F02D0012000906E
:1002F00001E0002000900098012836D102206249D8
:100300000860604840685F49486008464068486047
:100310000846406840F4806048600846406820F421
:100320007C1048600846406840F4E8104860084681
:10033000006840F08070086000BF5248006810F00C
:10034000007FFAD04F48406820F003004D494860D4
:100350000846406840F00200486000BF49484068D5
:1003600000F00C000828F9D10FE04FF4E011002054
:1003700003F06FFC012003F07AFC02E0022003F09E
:1003800088FC03F08FFC0828F8D11CBD10B53F484D
:10039000006840F470003D4908603A48006840F049
:1003A0000100384908600846406800F47F00486052
:1003B0000846006836490840324908600846006827
:1003C00020F4802008600846406820F4FE00486061
:1003D0000846C06A20F00F00C8620846006B2D492D
:1003E00008402849086300208860FFF761FF4FF04C
:1003F000006026498039086010BD30B5002100201A
:10040000002200231F4C646804F00C0121B1042970
:1004100006D0082925D107E01F4C204D2C6024E090
:100420001D4C1E4D2C6020E0164C646804F47010C6
:10043000144C646804F48032022404EB904022B926
:10044000174C4443154D2C600AE00E4CE46A04F04E
:100450000F04631C104CB4FBF3F444430F4D2C60A9
:1004600003E00D4C0D4D2C6000BF00BF054C6468CF
:10047000C4F303140B4D295D084C2468CC40074D90
:100480002C6030BD001002400020024088ED00E0EA
:10049000FFFFF6FE8C0FFF0F00127A000000002015
:1004A00000093D0004000020704700BFFEE700BFC8
:1004B000FEE700BFFEE700BFFEE7704770477047EA
:1004C000704710B50121880705F016F818B1012111
:1004D000880705F022F810BD10B50121044805F089
:1004E0000BF818B10121024805F017F810BD000003
:1004F0000004004005212E4A11542E4909682E4A55
:1005000042F8201070470021294A11542A4951F815
:100510002010284A1268511A284A42F820107047C1
:1005200000B503462248C05C032803DA1846FFF7EB
:10053000E1FF02E01846FFF7E6FF00BD00BF00BF85
:1005400000BF00BF01F063FE30E01D480088322884
:1005500004DB00201A49088001F0ECFF18484088AD
:10056000142804DB03F095F800201549488000F0BA
:10057000ABF800EB800012498988B1EB400F07DB34
:1005800000200F49888000F074FB08B101F0A5F845
:100590000B48C08841F28831884207DB00200849B7
:1005A000C88001F0BFFF08B101F018FDCDE70000E1
:1005B00014000020CC06002014070020240700208F
:1005C000D206002010B50146002000BF30E000EB4D
:1005D0004002921D8A5C52B24B79C3EBC30303EB1A
:1005E0004303FE4C234400EB40041A5500EB400249
:1005F000D21D8A5C52B24B79C3EBC30303EB4303B6
:10060000F64C234400EB400423445A7000EB4002B4
:1006100008328A5C52B24B79C3EBC30303EB43034A
:10062000EE4C234400EB400423449A70421CD0B2A9
:100630000728CCDB10BD2DE9F04104460F46052606
:100640000025242020704E2060703E20A0700820DD
:10065000207100BF2CE0C7EBC70000EB4000DF4972
:10066000084405EB4501405C05EB4501314460540D
:10067000C7EBC70000EB4000D849084405EB450133
:100680000844417805EB45003044401C2154C7EB39
:10069000C70000EB4000D149084405EB4501084480
:1006A000817805EB45003044801C2154681CC5B29C
:1006B000072DD0DB1536204601F00FFBA055761C28
:1006C000701CE070BDE8F081C548008D704702469F
:1006D000C81C105C0306881C105C43EA0043481CDD
:1006E000105C43EA0020535C184370470246535C99
:1006F000481C105C43EA0020704710B58854C0F3D2
:100700000724531CCC54C0F30744931CCC54030E51
:10071000D41C0B5510BD10B58854040A531CCC547E
:1007200010BD10B5012001F0EDF9AD480088AD49CC
:100730000880AB488088AC490880A9480089AB494B
:100740000880AB490888A749098802F0DFFDA8495D
:100750004888A549098802F0D9FDA5498888A34998
:10076000098802F0D3FD9E4880899E4908809C48F4
:10077000008A9D4908809A48808A9C4908809C4943
:10078000C8889849098802F0C1FD994908899649A5
:10079000098802F0BBFD964948899449098802F00E
:1007A000B5FD8F48008B8F4908808D48408B8E495E
:1007B00008808B48808B8D4908808D4988898949BC
:1007C000098802F0A3FD8A49C8898749098802F08F
:1007D0009DFD8749088A8549098802F097FD804870
:1007E000C08B804908807E48008C7F4908807C4807
:1007F000408C7E4908807E49488A7A49098802F0FF
:1008000085FD7B49888A7849098802F07FFD78490F
:10081000C88A7649098802F079FD7148808C71494F
:1008200008806F48008D704908806D48808D6F4941
:1008300008806F49088B6B49098802F067FD6C4995
:10084000488B6949098802F061FD6949888B6749CD
:10085000098802F05BFD6248C06B4FF6FF71B0FB88
:10086000F1F0604908805E48006C4FF6FF71B0FB04
:10087000F1F05D4908805A48406C4FF6FF71B0FBBB
:10088000F1F05A4908805A49C88B5649098802F044
:100890003DFD5749088C5449098802F037FD5449F9
:1008A000488C5249098802F031FD4D48C06B4FF623
:1008B000FF71B0FBF1F201FB12004A490880484881
:1008C000006C4FF6FF71B0FBF1F201FB12004649DC
:1008D00008804348406C4FF6FF71B0FBF1F201FB1A
:1008E0001200424908804249888C3E49098802F03A
:1008F0000DFD3F49C88C3C49098802F007FD3C4981
:10090000088D3A49098802F001FD002001F0FAF84B
:1009100010BD3348008B404200EE100AB8EEC00A0A
:10092000344880ED000A2E48408B404200EE100A09
:10093000B8EEC00A2F4880ED010A2948808B40425A
:1009400000EE100AB8EEC00A2A4880ED020A9FEDB8
:100950002A0A80ED030A2248808B00EE100AB8EEC6
:10096000400A244880ED040A1D48408B00EE100A1E
:10097000B8EE400A1F4880ED050A1948008B00EECA
:10098000100AB8EE400A1B4880ED060A1448C08BD6
:10099000404200EE100AB8EEC00A184880ED000A86
:1009A0000F48008C404200EE100AB8EEC00A13480F
:1009B00080ED010A0A48408C404200EE100AB8EE71
:1009C000C00A0E4880ED020A9FED0B0A80ED030A73
:1009D0000348408C00EE100A12E000008000002066
:1009E000680700206E0200207002002072020020C2
:1009F0003A02002020000020000000003C000020FF
:100A0000B8EE400AFE4880ED040AFE48008C00EE75
:100A1000100AB8EE400AFA4880ED050AF948C08B82
:100A200000EE100AB8EE400AF54880ED060A70475D
:100A300070B50546052421462846FFF757FEF149C3
:100A40000860A41C21462846FFF750FEED49486087
:100A5000A41C21462846FFF749FEEA498860A41CE9
:100A600021462846FFF742FEE649C860A41C2146FD
:100A70002846FFF73BFEE3490861A41C21462846AF
:100A8000FFF734FEDF494861A41CE1B22846FFF7B6
:100A90002DFEDC490883A41CE1B22846FFF726FEA0
:100AA000D8494883A41CE1B22846FFF71FFED54968
:100AB0008883A41CE1B22846FFF718FED149C883F9
:100AC000A41CE1B22846FFF711FECE490884A41CFD
:100AD000E1B22846FFF70AFECA494884A41CE1B2E5
:100AE0002846FFF703FEC7494862A41CE1B2284626
:100AF000FFF7FCFDC3490885A41CE1B22846FFF7B7
:100B0000F5FDC049C862A41CE1B22846FFF7DFFD2D
:100B1000BC49C863241DE1B22846FFF7D8FDB94996
:100B20000864241DE1B22846FFF7D1FDB5494864A9
:100B3000241DFFF7EEFEFFF7F4FD70BD70B505460E
:100B40000524242028704E2068703E20A8700320C1
:100B500028712246AB49098888B22946FFF7DBFD98
:100B6000A41C2246A749898888B22946FFF7D3FDED
:100B7000A41C2246A349098988B22946FFF7CBFD68
:100B8000A41C22469F49898988B22946FFF7C3FDE4
:100B9000A41C22469B49098A88B22946FFF7BBFD5F
:100BA000A41C22469749898A88B22946FFF7B3FDDB
:100BB000A41CE2B29349088B2946FFF7ACFDA41CA4
:100BC000E2B29049488B2946FFF7A5FDA41CE2B28A
:100BD0008C49888B2946FFF79EFDA41CE2B2894907
:100BE000C88B2946FFF797FDA41CE2B28549088C03
:100BF0002946FFF790FDA41CE2B28249488C2946A1
:100C0000FFF789FDA41CE2B27E49898C88B229468F
:100C1000FFF781FDA41CE2B27A49088D2946FFF74F
:100C20007AFDA41CE2B27749898D88B22946FFF784
:100C300072FDA41CE2B27349C86B2946FFF75DFD43
:100C4000241DE2B26F49086C2946FFF756FD241DAA
:100C5000E2B26C49486C2946FFF74FFD241D284637
:100C600001F03BF82855641C601CE870601CC0B2A1
:100C700070BD65480078704770B50546052421466B
:100C80002846FFF733FD61490880A41C2146284609
:100C9000FFF72CFD064601F069FFA41CFFF7E9FFF2
:100CA00030B9E1B22846FFF712FD064601F0EBFF2E
:100CB00070BD70B505460524242028704E2068704C
:100CC0003E20A87002202871224629464F480088FD
:100CD000FFF721FDA41C224629464D480068FFF776
:100CE0000CFD241D22464749098E484B1B88591A82
:100CF00088B22946FFF70FFDA41C002001F0BEFDBD
:100D0000F2EE040A20EE200ABCEEC00A10EE100A31
:100D100086B2224629463046FFF7FDFCA41C01207E
:100D200001F0ACFDF2EE040A20EE200ABCEEC00A8F
:100D300010EE100A86B2224629463046FFF7EBFC39
:100D4000A41C22463349D1ED000A9FED331A9FEDD2
:100D5000330A00EE810ABCEEC00A10EE101A88B207
:100D60002946FFF7D8FCA41CE2B22A49D1ED010ABA
:100D70009FED291A9FED290A00EE810ABCEEC00AF8
:100D800010EE101A88B22946FFF7C5FCA41CE2B287
:100D90002049D1ED020A9FED201A9FED200A00EEB6
:100DA000810ABCEEC00A10EE101A88B22946FFF77D
:100DB000B2FCA41CE2B21A4908682946FFF79DFC60
:100DC000241DE2B2164948682946FFF796FC241D07
:100DD000E2B2134988682946FFF78FFC241DE2B26E
:100DE0000F49C8682946FFF788FC241DE2B20D4967
:100DF00008882946FFF78FFCA41CE2B2094913E0DA
:100E00003C000020680700201B0000207802002022
:100E1000740200204007002000007A4400401C4675
:100E2000240700203407002048882946FFF773FC78
:100E3000A41CE2B2FE4988882946FFF76CFCA41C7A
:100E4000E2B2FB49C8882946FFF765FCA41CE2B260
:100E5000F74908892946FFF75EFCA41CE2B2F44971
:100E600048892946FFF757FCA41C284600F035FFA7
:100E70002855641C601CE870601CC0B270BD01463F
:100E8000002901DD084600E0484280B27047002298
:100E9000E84B1A70022901D003292FD1E64A1278B3
:100EA00062BB18B1012801D0022810D1E34A1278A0
:100EB000521C52B2E14B1A701A4692F900200A2ACB
:100EC00005DBFF22DB4B1A700122DB4B1A70032873
:100ED00003D0042801D0052813D1D84A1278521C17
:100EE00052B2D64B1A701A4692F900200A2A08DB31
:100EF0000122D04B1A70D04B1A7002E00022CF4B67
:100F00001A70022904D0032902D00022CA4B1A7099
:100F100070472DE9F0472DED028B04460D464FF04A
:100F20000009CA46C648D0ED000A00EE105AB8EED5
:100F3000C00AF4EEC00AF1EE10FA06DD0027B7EEA3
:100F4000000AC04880ED000A0DE1BD48D0ED000A5E
:100F500000EE105AB8EEC00AF4EEC00AF1EE10FA34
:100F60001FD8D0ED010A00EE105AB8EEC00AF4EE18
:100F7000C00AF1EE10FA14DD002790ED010AD0ED61
:100F8000000A70EE600A90ED011A00EE105AB8EEF9
:100F9000C00A31EE400A80EE201AAA4880ED001AFD
:100FA000E1E0A748D0ED010A00EE105AB8EEC00A01
:100FB000F4EEC00AF1EE10FA1FD8D0ED020A00EEEE
:100FC000105AB8EEC00AF4EEC00AF1EE10FA14DDC1
:100FD000012790ED020AD0ED010A70EE600A90ED53
:100FE000021A00EE105AB8EEC00A31EE400A80EE46
:100FF000201A944880ED001AB5E09148D0ED020A1D
:1010000000EE105AB8EEC00AF4EEC00AF1EE10FA83
:101010001FD8D0ED030A00EE105AB8EEC00AF4EE65
:10102000C00AF1EE10FA14DD022790ED030AD0EDAC
:10103000020A70EE600A90ED031A00EE105AB8EE44
:10104000C00A31EE400A80EE201A7E4880ED001A78
:1010500089E07B48D0ED030A00EE105AB8EEC00AD2
:10106000F4EEC00AF1EE10FA1FD8D0ED040A00EE3B
:10107000105AB8EEC00AF4EEC00AF1EE10FA14DD10
:10108000032790ED040AD0ED030A70EE600A90ED9C
:10109000041A00EE105AB8EEC00A31EE400A80EE93
:1010A000201A684880ED001A5DE06548D0ED040A1A
:1010B00000EE105AB8EEC00AF4EEC00AF1EE10FAD3
:1010C0001FD8D0ED050A00EE105AB8EEC00AF4EEB3
:1010D000C00AF1EE10FA14DD042790ED050AD0EDF8
:1010E000040A70EE600A90ED051A00EE105AB8EE90
:1010F000C00A31EE400A80EE201A524880ED001AF4
:1011000031E04F48D0ED050A00EE105AB8EEC00AA3
:10111000F4EEC00AF1EE10FA1FD8D0ED060A00EE88
:10112000105AB8EEC00AF4EEC00AF1EE10FA14DD5F
:10113000052790ED060AD0ED050A70EE600A90EDE5
:10114000061A00EE105AB8EEC00A31EE400A80EEE0
:10115000201A3C4880ED001A05E005279FED3A0A69
:10116000384880ED000A374890ED000AF7EE000A93
:1011700030EEC00A80ED010A3448D0ED000A00EEDE
:10118000104AB8EEC00AF4EEC00AF1EE10FA06DD1D
:101190000026B7EE000A2E4880ED000A20E12B4819
:1011A000D0ED000A00EE104AB8EEC00AF4EEC00A14
:1011B000F1EE10FA1FD8D0ED010A00EE104AB8EE99
:1011C000C00AF4EEC00AF1EE10FA14DD002690ED2C
:1011D000010AD0ED000A70EE600A90ED011A00EEEF
:1011E000104AB8EEC00A31EE400A80EE201A1848C4
:1011F00080ED001AF4E01548D0ED010A00EE104A27
:10120000B8EEC00AF4EEC00AF1EE10FA32D8D0ED12
:10121000020A00EE104AB8EEC00AF4EEC00AF1EE7F
:1012200010FA27DD012690ED020AD0ED010A11E047
:1012300034070020680000206A00002069000020B8
:101240003C00002060000020000000002000002082
:101250005800002070EE600A90ED021A00EE104A6D
:10126000B8EEC00A31EE400A80EE201AFE4880ED4A
:10127000001AB5E0FD48D0ED020A00EE104AB8EEC3
:10128000C00AF4EEC00AF1EE10FA1FD8D0ED030A3E
:1012900000EE104AB8EEC00AF4EEC00AF1EE10FA01
:1012A00014DD022690ED030AD0ED020A70EE600A0A
:1012B00090ED031A00EE104AB8EEC00A31EE400A73
:1012C00080EE201AE84880ED001A89E0E748D0ED6A
:1012D000030A00EE104AB8EEC00AF4EEC00AF1EEBE
:1012E00010FA1FD8D0ED040A00EE104AB8EEC00A7A
:1012F000F4EEC00AF1EE10FA14DD032690ED040AB4
:10130000D0ED030A70EE600A90ED041A00EE104A68
:10131000B8EEC00A31EE400A80EE201AD24880EDC5
:10132000001A5DE0D148D0ED040A00EE104AB8EE94
:10133000C00AF4EEC00AF1EE10FA1FD8D0ED050A8B
:1013400000EE104AB8EEC00AF4EEC00AF1EE10FA50
:1013500014DD042690ED050AD0ED040A70EE600A53
:1013600090ED051A00EE104AB8EEC00A31EE400AC0
:1013700080EE201ABC4880ED001A31E0BB48D0ED69
:10138000050A00EE104AB8EEC00AF4EEC00AF1EE0B
:1013900010FA1FD8D0ED060A00EE104AB8EEC00AC7
:1013A000F4EEC00AF1EE10FA14DD052690ED060AFF
:1013B000D0ED050A70EE600A90ED061A00EE104AB4
:1013C000B8EEC00A31EE400A80EE201AA64880ED41
:1013D000001A05E005261FED640AA34880ED000A07
:1013E000A14890ED000AF7EE000A30EEC00A80ED49
:1013F000010A4FF00009A5E01C219D4805F060F8A6
:10140000C7EBC70000EB40009A49084406EB4601D1
:10141000084410F80980964800EB880090ED000A17
:101420009148D0ED000A944890ED001A00EE810A30
:101430008F4800EB880080ED000A781CC0EBC000EC
:1014400000EB40008B49084406EB4601084410F8C5
:101450000980874800EB880090ED000A8248D0EDB3
:10146000000A854890ED011A00EE810A804800EBE1
:10147000880080ED000AC7EBC70000EB40007D4903
:101480000144701C00EB4000084410F809807848C3
:1014900000EB880090ED000A7348D0ED010A764811
:1014A00090ED001A00EE810A714800EB880080ED93
:1014B000000A781CC0EBC00000EB40006D490144FD
:1014C000701C00EB4000084410F80980684800EBED
:1014D000880090ED000A6448D0ED010A664890ED5E
:1014E000011A00EE810A624800EB880080ED000AD4
:1014F0001FEDAB8A4FF0000A18E05D4800EB8A0050
:10150000D0ED000AC9EBC9005C49084410F90A0093
:1015100000EE100AB8EEC01AB0EE480A00EE810ADA
:10152000B0EE408A0AF1010000F0FF0ABAF1070F9D
:10153000E3DB534800EB890080ED008A09F10100EC
:1015400000F0FF09B9F1030FFFF656AF4D480681D1
:10155000478139463046FFF79AFCBDEC028BBDE867
:10156000F08770B54848007801F088F9BDEEC00AF0
:1015700010EE106A45480088841B4548008E201AEA
:1015800001B220B2FFF7C5FC2046FFF778FC4049C6
:10159000C96A884201DA002586E03E4890F90000D9
:1015A00042F2107108443749088042F2107020441A
:1015B0003749098E401A3349488042F2107020445E
:1015C000888042F2107020443149096B022202FBEC
:1015D00011002F49898E08442A49C8802C4890ED73
:1015E000000AB8EEC00A264890ED001A2848D0ED4F
:1015F000030AF8EEE00A01EE200A006B201A00EE62
:10160000900AF8EEE00A20EE201A214890ED010A37
:10161000F8EEC00A1A48D0ED011A1D4890ED040AF0
:10162000B8EEC00A41EE800A00EE104AF8EEC01A89
:10163000B0EE410A00EEA10AD0ED020AF8EEE00A8F
:101640000F48D0ED021A124890ED051AB8EEC11AF3
:1016500041EE810A006B022101FB10400C49496BED
:10166000084401EE100A17E0580000202000002076
:101670004C07002080000020600000206B0000204C
:1016800040070020340700201900002078020020C5
:101690006807002068000020B8EEC11A00EE810A39
:1016A000BDEEC00A10EE105AF7482844F749C8604A
:1016B000F748006BF649486308460463642095FBCD
:1016C000F0F0496AF34A92F9002002FB0100F24966
:1016D00009680844F049086070BD10B5FFF741FF84
:1016E000EB48C06BEC490968884203D2E848C06BFC
:1016F000E9490860E648006CE7490968884203D96F
:10170000E348006CE4490860E348006801F0BBFA74
:1017100010BD70B50546E14800780A2190FBF1F252
:1017200001FB1200C4B20026DD4840F82450DD4819
:101730000078401CDB4908702CB9D948406A2E1A41
:101740000A20087004E0601ED54951F820002E1AC6
:10175000002E05DAA5F598508838D14941F82400C3
:10176000E01E002800DC00E0A01DCD4951F820005B
:10177000C94908600846006801F085FA70BD10B5D7
:101780004821C34804F09CFE6420C14908609620AB
:101790004860322088602120C8603221BC48016145
:1017A000112141614FF4FA60B94908834FF448713F
:1017B000B7484183142181834FF49670B449C8839C
:1017C0006421B34801840A21418447F23050B04972
:1017D0004862642008850520C862B348C863AA48E7
:1017E000086441F288304864FEF79BFF10BD10B5D5
:1017F000AE490888AE4901F0E7FBAC494888AD49DD
:1018000001F0E2FBA9498888AB4901F0DDFBA8485B
:10181000008800EE100AB8EE400ABDEEC00A9C48EF
:1018200080ED000AA348008800EE100AB8EE400AD6
:10183000BDEEC00A964880ED010A9F48008800EE80
:10184000100AB8EE400ABDEEC00A914880ED020AC7
:101850009649C888964901F0B7FB9449088995498B
:1018600001F0B2FB91494889934901F0ADFB9048E2
:10187000008800EE100AB8EE400ABDEEC00A8448A7
:1018800080ED030A8B48008800EE100AB8EE400A8B
:10189000BDEEC00A7E4880ED040A8748008800EE4D
:1018A000100AB8EE400ABDEEC00A794880ED050A7C
:1018B0007E4988897E4901F087FB7C49C8897D493A
:1018C00001F082FB7949088A7B4901F07DFB784869
:1018D000008800EE100AB8EE400ABCEEC00A10EE16
:1018E000100A6B4908837348008800EE100AB8EEAE
:1018F000400ABCEEC00A10EE100A81B2644841836F
:101900006D48008800EE100AB8EE400ABCEEC00A2E
:1019100010EE100A81B25E4881836449488A6449A6
:1019200001F052FB6149888A624901F04DFB5F4931
:10193000C88A614901F048FB5D48008800EE100A42
:10194000B8EE400ABCEEC00A10EE100A5049C88337
:101950005848008800EE100AB8EE400ABCEEC00AF3
:1019600010EE100A81B24A4801845348008800EE04
:10197000100AB8EE400ABCEEC00A10EE100A81B29E
:10198000434841844949088B494901F01DFB4749B7
:10199000488B484901F018FB4449888B464901F0BF
:1019A00013FB434800883A4948624248008808854A
:1019B00041480088C8623D49C88B3D4901F004FB9D
:1019C0003A49088C3B4901F0FFFA3849488C3A49BA
:1019D00001F0FAFA36480088C0EB00402C49C86391
:1019E00034480088C0EB0040086433480088C0EBEE
:1019F000004048642D49888C2D4901F0E5FA2B49B7
:101A0000C88C2C4901F0E0FA2849088D2A4901F0D8
:101A1000DBFA1F48C06B2649098808441C49C86383
:101A20000846006C23490988084419490864084697
:101A3000406C2149098808441549486410BD10B517
:101A400001F0E1FBFFF7D3FE1849488D184901F07A
:101A5000BBFA1748008815280CD0012000F052F876
:101A60001249488D152101F051FC002000F04AF880
:101A7000FFF785FE10BD10B503F047FFFFF7DFFF4E
:101A8000FEF747FF10BD0000A086010024070020DC
:101A90006807002068000020740200201D0000205C
:101AA000B00700201C000020404B4C003A020020F0
:101AB0006E020020700200207202002010B500208B
:101AC000124908701248006C124908600846006804
:101AD00001F0D9F800201049087010BD10B50020A1
:101AE0000A4908700A48C06B0A49086000200A4980
:101AF00008700848006801F0C6F810BD01200349CD
:101B00000870704780F31088704700001B000020A9
:101B100068070020740200206A000020014608784F
:101B20004A7850408A785040CA785040704708B58B
:101B3000425C8DF800204A1C825C8DF801208A1CD2
:101B4000825C8DF80220CA1C825C8DF803209DED1A
:101B5000000A08BD2DE9F0410446002600270025B3
:101B6000A8462078242801D0BDE8F08160784E286E
:101B700000D0F9E7A0783C2800D0F5E70020E34941
:101B8000087020790B286ED2DFE800F046626E768E
:101B90007E889206115123002046FEF713FDDCA13A
:101BA000DF4804F083FBDE4801F0F6FD92E00025FB
:101BB0000CE02946DA48FEF73EFDD948C17801F02D
:101BC00076FD322000F0FAFB681CC5B2072DF0DB71
:101BD00080E0D448D44908604FF400720846016898
:101BE000D24804F006FCD148CF490860002710E035
:101BF0004022CD480168CA4804F0FBFB4021C84898
:101C000001F055FDC84800684030C7490860781C9D
:101C1000C7B2082FECDB5DE02046FFF72DF8C4A12A
:101C2000BF4804F043FBBE4801F0B6FD52E0A17985
:101C3000607901EB002086B23246C3A1B84804F0B7
:101C400035FBB74801F0A8FD304601F0BEFB41E08E
:101C50002046FEF7EDFEC1A1B14804F027FBB048D5
:101C600001F09AFD36E02DE0AD48FFF722F8AC48D0
:101C7000C17801F01CFD2DE0A948FEF75FFFA848E0
:101C8000C17801F014FD25E0FFF718FFB8A1A448C2
:101C900004F00CFBA24801F07FFD1BE0FFF71EFFE4
:101CA000B7A19F4804F002FB9D4801F075FD11E0CB
:101CB000FFF724FFB6A19A4804F0F8FA984801F01B
:101CC0006BFD07E0B6A1964804F0F0FA944801F0E5
:101CD00063FD00BF00BF00BF46E710B5014600200E
:101CE000CB78002204E0D41C0C5D6040541CE2B2AE
:101CF0009C1CA242F7DB10BD704700B501460022D4
:101D00001012FFF7F9FFC8B2FFF7F6FF00BD30B5BC
:101D10000146002905DA2D20FFF7EEFF484241B2C7
:101D200002E02020FFF7E8FF642091FBF0F0C2B250
:101D3000642091FBF0F500FB15100A2590FBF5F0EF
:101D4000C3B20A2091FBF0F500FB1510C4B202F1FA
:101D50003005E8B2FFF7D0FF03F13005E8B2FFF736
:101D6000CBFF04F13005E8B2FFF7C6FF30BD30B558
:101D70000146642091FBF0F0C2B2642091FBF0F5C3
:101D800000FB15100A2590FBF5F0C3B20A2091FB69
:101D9000F0F500FB1510C4B202F13005E8B2FFF710
:101DA000ABFF03F13005E8B2FFF7A6FF04F1300501
:101DB000E8B2FFF7A1FF30BDF0B50146002905DA12
:101DC0002D20FFF799FF484201B202E02020FFF7E3
:101DD00093FF814891FBF0F700FB171042F2107758
:101DE00090FBF7F0C2B2384691FBF0F700FB1710FA
:101DF0004FF47A7790FBF7F0C3B2384691FBF0F7D7
:101E000000FB1710642790FBF7F0C4B2642091FB2D
:101E1000F0F700FB17100A2790FBF7F0C5B20A2075
:101E200091FBF0F700FB1710C6B202F13007F8B2D1
:101E3000FFF762FF03F13007F8B2FFF75DFF04F12F
:101E40003007F8B2FFF758FF05F13007F8B2FFF797
:101E500053FF06F13007F8B2FFF74EFFF0BDF0B5C3
:101E600001465D4891FBF0F700FB171042F2107736
:101E700090FBF7F0C2B2384691FBF0F700FB171069
:101E80004FF47A7790FBF7F0C3B2384691FBF0F746
:101E900000FB1710642790FBF7F0C4B2642091FB9D
:101EA000F0F700FB17100A2790FBF7F0C5B20A20E5
:101EB00091FBF0F700FB1710C6B22020FFF71CFFC4
:101EC00002F13007F8B2FFF717FF03F13007F8B25D
:101ED000FFF712FF04F13007F8B2FFF70DFF05F12D
:101EE0003007F8B2FFF708FF06F13007F8B2FFF746
:101EF00003FFF0BD00B50246114603E00878FFF786
:101F0000FBFE491C08780028F8D100BDE806002037
:101F100053657446757A7A794D61703A4F4B0A0071
:101F2000401A0020D80900207C020020D807002099
:101F30005365745F52756E6E696E675F5061726152
:101F40006D3A4F4B0A0000005F555F536574564F62
:101F500075745B25645D3A4F4B0A00005365745FEE
:101F60005049445F506172616D3A4F4B0A00000066
:101F700053657456436C6F7365204F4B0A00000025
:101F8000536574564F70656E204F4B0A0000000079
:101F9000536574565049444374726C204F4B0A0089
:101FA000756E6B6E6F7720636D6420756E6B6E6FF0
:101FB0007720636D6420756E6B6E6F7720636D6440
:101FC00020756E6B6E6F7720636D6420756E6B6E1F
:101FD0006F7720636D640A00A086010010B50220AF
:101FE00000F065FAABA001F0D7FB10BD08B54FF4C7
:101FF000A06003F06DFB0F208DF8000001208DF82C
:10200000010000208DF8020001208DF803006846D1
:1020100003F063FB0E208DF8000001208DF8010015
:102020008DF802008DF80300684603F056FB1E2071
:102030008DF8000000208DF801008DF802000120CD
:102040008DF80300684603F048FB11208DF800006E
:1020500000208DF8010001208DF802008DF80300AA
:10206000684603F03AFB08BD1CB54FF44070009081
:1020700003208DF8040000208DF8070069468A4887
:1020800001F0A1FC4FF40050009000208DF80400F6
:1020900003208DF8050001208DF8070069464FF0F8
:1020A000904001F090FC4FF48070009001208DF87A
:1020B000040000208DF8060001208DF807000320A1
:1020C0008DF8050069464FF0904001F07CFC082037
:1020D000009002208DF8040003208DF805000020F8
:1020E0008DF807006946714801F06DFC012203215B
:1020F0006E4801F0EFFC0E20009001208DF80500E5
:1021000002208DF8040000208DF8060001208DF8D3
:10211000070069464FF0904001F055FC062201216E
:102120004FF0904001F0D6FC062202214FF0904083
:1021300001F0D0FC062203214FF0904001F0CAFCD0
:102140001020009001208DF805008DF8040000207B
:102150008DF8060001208DF8070069464FF0904089
:1021600001F031FC4FF4C060009002208DF80400B3
:1021700000208DF8060001208DF8070003208DF85F
:10218000050069464FF0904001F01DFC4FF480704F
:10219000009001208DF8040000208DF80600012039
:1021A0008DF8070003208DF805006946404801F0CE
:1021B0000AFC07220921C80601F08CFC07220A212B
:1021C0004FF0904001F086FC1CBD10B50121480481
:1021D00001F008FF0121880401F004FF0121080536
:1021E00001F000FF0121480501F0FCFE0121084635
:1021F00001F0F8FE0121084601F00EFF0121C8039D
:1022000001F00AFF0121880301F0F9FE10BD00B5BD
:102210008DB0FFF7DAFFFFF727FFFFF7E7FE00F0CB
:1022200091F800F0FFF800F01BF94FF4E13001F0F5
:102230000EFA20A001F0B0FA00F04FF921A001F051
:10224000ABFA00F0C7FD23A001F0A6FA00F013FDE1
:1022500024A001F0A1FAFFF70EFC26A001F09CFAE1
:1022600000F0D6FB27A001F097FA01F00BF929A0A6
:1022700001F092FA01A801F096FD2AA12F48029AD6
:1022800004F014F82D4801F087FA01202C49087059
:102290000DB000BD303A094F6E5265736574466CDF
:1022A0006F77446F776E0A00001000480004004802
:1022B000000C0048313A0952533438355F496E6991
:1022C000740A0000323A094B45595F496E69740A35
:1022D00000000000333A0954494D345F496E697477
:1022E0000A000000343A0950574D5F496E69740A7C
:1022F00000000000353A095049445F496E69740A8C
:1023000000000000363A094144435F496E69740A8F
:1023100000000000373A094144353736315F496ED5
:1023200069740A000A2A2A2A436C6F636B73467227
:1023300065712A2A2A5B25645D0A0000401A002084
:102340008002002010B56FF0040003F011FA2D4850
:1023500000682D49B0FBF1F02C4908700846007860
:1023600000EB4001C1EBC0104FF6FF7101EAC00065
:102370002749088010BD0146244A12784A434FF08D
:10238000E0235A6100229A611A46126942F0010262
:102390001A6100BF4FF0E022106910F0010F02D067
:1023A00010F4803FF6D04FF0E022126922F00102D3
:1023B0004FF0E0231A6100229A6170470146144AE7
:1023C00012884A434FF0E0235A6100229A611A466C
:1023D000126942F001021A6100BF4FF0E022106959
:1023E00010F0010F02D010F4803FF6D04FF0E02241
:1023F000126922F001024FF0E0231A6100229A6173
:10240000704700000000002000127A0082020020C5
:102410008402002010B54FF480714FF0904001F01D
:1024200050FB10BD10B5FFF7F5FF10BD10B54FF410
:1024300080714FF0904001F042FB10BD10B54FF499
:1024400080714FF0904001F02EFBC0F10100C4B24A
:1024500022464FF480714FF0904001F034FB10BDE4
:1024600010B500240BE0FFF7E1FFC820FFF7A6FF3F
:10247000FFF7D0FFC820FFF7A1FF601CC4B2032CF8
:10248000F1DB00240BE0FFF7D1FF6420FFF796FF9C
:10249000FFF7C0FF6420FFF791FF601CC4B2032C5C
:1024A000F1DBFFF7B7FF6420FFF788FF10BD70B5C1
:1024B0000446002500BF0BE0FFF7B8FFC820FFF778
:1024C0007DFFFFF7A7FFC820FFF778FF681CC5B2A4
:1024D000A542F1DBFFF79EFF70BD10B54FF4005130
:1024E0004FF0904001F0EBFA10BD70B504460D4678
:1024F0002946204601F0CBFA90B90A20FFF75EFF8B
:102500002946204601F0C3FA40B900BF29462046BB
:1025100001F0BDFA0028F9D0012070BD0020FCE7D1
:102520000020FAE710B54FF400514FF09040FFF74C
:10253000DCFF10BD10B5002000210022FE4B1A6008
:102540005A6000BF13E0FC4A13684200521CFB4C67
:1025500034F912201A44F84B1A601A4653684200A4
:1025600034F912201A44F44B5A60421C90B2B0F570
:10257000806FE8DBF04A1268921211B201F5004256
:1025800000EE102AB8EEC00ADFEDED0A20EE200AB8
:102590009FEDEC1AC0EE010AB0EE000A20EE800AB0
:1025A000E94A82ED000AE44A5268921211B201F53A
:1025B000004200EE102AB8EEC00ADFEDE10A60EE3C
:1025C000200A9FEDE01A80EE810AF0EE000A20EE6C
:1025D000200ADD4A82ED010A10BD10B5002000215D
:1025E000DA4AB2F90020521C0A2392FBF3F403FBEF
:1025F000142212B2D54B1A80D54A1388D54AD34C2F
:10260000B4F9004022F81430D14A1288D24BCF4C92
:10261000B4F9004023F814200022C74B1A605A6016
:1026200000BF11E0C44A1268CC4B33F910301A4491
:10263000C14B1A601A465268C94B33F910301A441C
:10264000BD4B5A60421C90B20A28EBDBC14ABF4B1B
:10265000B3F9003032F91320BE4BC24CB4F900403C
:1026600033F914309A4205DDB84AB2F90020BD4B67
:102670001A8012E0B74AB54BB3F9003032F9132093
:10268000B44BB94CB4F9004033F914309A4204DA2F
:10269000AE4AB2F90020B44B1A80AF4AAB4BB3F943
:1026A000003032F91320AC4BB04CB4F9004033F990
:1026B00014309A4205DDA54AB2F90020AB4B1A80CE
:1026C00011E0A54AA14BB3F9003032F91330A84C00
:1026D000B4F9004032F91420934204DA9B4AB2F96B
:1026E0000020A34B1A80994AB2F900209D4BB3F900
:1026F00000309A4214D100200FE0964A32F910209F
:10270000944B984CB4F9004033F914309A4202DDEE
:1027100002B2944B1A80421C90B20A28EDDB1BE0F7
:102720008A4AB2F90020904BB3F900309A4213D193
:1027300000200FE0874A32F91020864B8A4CB4F90A
:10274000004033F914309A4202DA02B2864B1A8002
:10275000421C90B20A28EDDB7C4AB2F90020834B80
:10276000B3F900309A4214D100200FE07A4A32F9CE
:102770001020794B7D4CB4F9004033F914309A4263
:1027800002DD02B2794B1A80421C90B20A28EDDBBE
:102790001BE06E4AB2F90020754BB3F900309A4243
:1027A00013D100200FE06C4A32F910206A4B704CB4
:1027B000B4F9004033F914309A4202DA02B26C4B99
:1027C0001A80421C90B20A28EDDB5B4A1268614B0A
:1027D000654CB4F9004033F91430D31A5D4A614CAA
:1027E000B4F9004032F914209A1A534B1A601A4671
:1027F0005268594B5E4CB4F9004033F91430D21A88
:10280000554B5A4CB4F9004033F91430D21A4A4BA4
:102810005A601A461268C2F3CF0211B201F50042A3
:1028200000EE102AB8EEC00ADFED450A60EE200A7D
:102830009FED441A80EE810AF0EE000A20EE200A95
:10284000414A82ED000A1A465268C2F3CF0211B221
:1028500001F5004200EE102AB8EEC00ADFED380A9A
:1028600060EE200A9FED371A80EE810AF0EE000A32
:1028700020EE200A344A82ED010A10BD18B932490F
:1028800091ED000A7047304991ED010AFAE710B561
:1028900090B000240121080601F0B1FB01210807D6
:1028A00001F0BAFB0121480202F0A7FF4FF0784087
:1028B00001F024FA4FF4407002F026F80520FFF7EB
:1028C0007DFD01212B4801F0FEFF0121294802F086
:1028D00005F81E2400BF4FF00041264802F0E0F842
:1028E00010B9601E0400F6D114B9012010B010BD5B
:1028F0004FF040600C9000200D900E900F900CAAAD
:1029000000211C4801F0BBFF00221B49194801F0BF
:10291000CBFF00221949174801F0C6FF1849154896
:1029200002F039F80121134802F043F80021114860
:1029300001F0D4FF002125E0B4020020D8090020D6
:1029400000E0324500FF7F47AC0200209C020020DF
:10295000A60200208A0200208E020020D819002042
:10296000EC1900209E020020A0020020A2020020FC
:10297000A402002000600140000108008000070060
:1029800080010F00244801F0C7FF234801F0CBFF6E
:102990004FF4F03400BF01211F4802F081F810B954
:1029A000601E0400F7D10CB902209FE71A4801F01D
:1029B000EDFF0121022001F015FB184801F0FAFD9E
:1029C00015486030019016480290002003904FF4A3
:1029D0000060ADF8100000200590802006904000B7
:1029E0000790800008902020099000020A900020A3
:1029F0000B9001A9094801F07FFE0121074801F071
:102A0000A6FE01221104044802F038F800206DE708
:102A100010B5FFF73CFF10BD0060014030040240DC
:102A2000D809002010B54D494D4801F095FD80B101
:102A30004B4801F092FCC4B24A480078402808DABA
:102A4000494848490978445446480078401C45495B
:102A5000087010BD704710B586B004460094002081
:102A600001900290039005900C20049069463C4828
:102A700001F057FB01223949394801F034FD0121A9
:102A8000374801F0D1FBFFF7E5FF06B010BD7047F6
:102A900070B505460E46FFF7FAFF00240CE000BFB4
:102AA00040212F4801F04DFD0028F9D0295D2C4828
:102AB00001F04FFC601CC4B2B442F0DB00BF402107
:102AC000274801F03EFD0028F9D000202549087074
:102AD000FFF7C0FF70BD10B50446FFF7D8FF0BE04D
:102AE00000BF40211E4801F02CFD0028F9D02178BC
:102AF0001B4801F02EFC641C20780028F0D100BF98
:102B00004021174801F01DFD0028F9D0002015498B
:102B10000870FFF79FFF10BD2DE9F04107460D46F5
:102B200010480678002400202870C820FFF723FCF6
:102B30000C48007886420FD176B100BF04E00A4805
:102B4000005D3855601CC4B2B442F8DB054800781B
:102B50002870002003490870BDE8F08105010500D8
:102B600000380140BC020020001A002010B588B0D7
:102B7000044600214FF0804002F0F8F8069400204F
:102B8000ADF81400ADF81C00ADF8160005A94FF023
:102B9000804002F05FF86020ADF800000120ADF841
:102BA000020000200290ADF80C0069464FF0804012
:102BB00002F04FF90821C80602F05BFA01218807EC
:102BC00002F0B6F80121880702F0D0F801221102C4
:102BD000880502F0AAFC01229102080502F0A5FC7A
:102BE0000121880702F0EAF808B010BD00B58BB0EB
:102BF0005B4801F0DFFC684601F09CFD59480090FD
:102C0000594801901020029058480078ADF80C0007
:102C1000002004908020059080000690800007909E
:102C2000202008900002099000200A9069464C4834
:102C300001F062FD4FF0007001F0B7FD4FF08060D1
:102C400001F0B3FD4FF0006001F0AFFD0122022161
:102C5000434801F08EFD01220421414801F089FD25
:102C6000012208213E4801F084FD01213C4801F089
:102C70006EFD0BB000BD10B5FFF7B8FF4FF6FF704B
:102C8000FFF774FF10BD0146C1F34F12384B1A8095
:102C900001F01F02374B1A7000200EE0364A354B08
:102CA0001B7802EB4312125C314B1B881A4492B220
:102CB000324B43F82020421CD0B22028EEDB002209
:102CC0002F4B1A702F4B1A707047002000BF07E07F
:102CD0002A4951F82010244A42F82010411CC8B259
:102CE0002028F5DB0121264A11707047002000BF23
:102CF00009E0224951F820201B4B00F1200143F844
:102D00002120411CC8B22028F3DB01211D4A11708B
:102D1000704710B54FF0007001F052FD40B14FF018
:102D2000007001F060FD1748007808B9FFF7DEFF7A
:102D30004FF0806001F044FD40B14FF0806001F041
:102D400052FD0F48007808B9FFF7BFFF4FF0006051
:102D500001F036FD18B14FF0006001F044FD10BDE8
:102D60008000024038000040001B0020BE0600200A
:102D7000C2060020C4060020BE020020801A0020E7
:102D8000BF060020C00600203EB5044601210420F5
:102D900001F042F964200190A0B2ADF800000020DB
:102DA000ADF80800ADF8020069462B4801F052FF6B
:102DB0000121294802F09DFB01221146264802F01C
:102DC00084FB0121244801F0D1FF0021042001F0FF
:102DD00023F93EBD10B54720FFF7D6FF012104209F
:102DE00001F01AF910BD10B504462046FFF7CCFFDC
:102DF0000121042001F010F910BD1748103000889F
:102E000010F0010F25D04FF6FE70134910310880E5
:102E10001248007800B9704711480068401C1049FA
:102E2000086000200F4908700FE00F480D4909782D
:102E300030F81100401C0C490A4A127821F812009F
:102E400008480078401C07490870064800780428A4
:102E5000EBDB00BFDFE7000000080040800200203D
:102E6000CC060020D0060020D20600200346062112
:102E70000622FA480188FA480288A3B1012B1AD128
:102E800032B9A1F56E40EE3800D170470120FCE761
:102E900039B9A2F56E40EE3801D10120F5E70020E6
:102EA000F3E7AB20F1E709B90020EEE70AB901200A
:102EB000EBE7AB20E9E70020E7E770B50426002444
:102EC0000120FFF7D3FF0446AB2C06D1E34800EB0B
:102ED000C420E4490860AB2070BDE04800EBC4208A
:102EE000E0490860601CDD49891E01EBC0250CE04B
:102EF000DC4800680068401C02D104263046EBE73D
:102F0000D8480068001DD7490860D6480068A84224
:102F1000EED38020E0E710B50424D04802F032FD63
:102F20000446042C01D0204610BD0021CB4802F0FD
:102F3000A1FD0446042C01D02046F5E7C84802F064
:102F400021FD04462046EFE72DE9F04104460F46F7
:102F500004250026DFF80883A8F101080120FFF707
:102F600085FF0646AB2E01D1BDE8F081701CBB4940
:102F7000891E01EBC02821E0BA4800680068401CA7
:102F800017D13946B748006802F074FD0546042D94
:102F900001D02846E8E72146B2480068801C02F0CC
:102FA00069FD0546AF480068001DAE490860284627
:102FB000DAE7AC480068001DAA490860A948006823
:102FC0004045D9D38020CFE72DE9F04706460F468C
:102FD000002545F255584FF00109A04CA2460020AB
:102FE000FFF744FF0546AB2D01D1BDE8F0879B48B4
:102FF00000EBC52A9B480068841E0AE0B4F80080F4
:10300000B04505D134F8020C38804FF0000904E0D7
:10301000241F0AF102008442F0D800BF4846E4E7CA
:103020002DE9F0474FF0060A062600250027A8469E
:103030004FF0FF398948B0F800A0894806885FEA58
:103040000A0075D0A0F56E40EE382AD0A0F5885061
:1030500011386ED146B9814802F094FC0446042C24
:103060001ED02046BDE8F087A6F56E40EE3810D1A0
:103070007A4802F087FC0446042C01D02046F1E790
:103080000021774802F0F6FC0446042C08D02046C4
:10309000E8E7FFF740FF0446042C01D02046E1E7B3
:1030A000AEE086BB002523E06C48801D00886E4999
:1030B00031F81510884201D10FFA85F94D4515D028
:1030C000694931F815006949FFF77EFF8046B8F17C
:1030D000010F0BD0644931F8150064490988FFF7E6
:1030E00033FF0746042F01D03846BBE7681C85B282
:1030F0001A2DD9DB0021594802F0BCFC0446042CEF
:1031000002D02046AEE707E0554802F03BFC0446FB
:10311000042C1FD02046A5E7A6F57F40FF3812D12A
:103120004F4802F02FFC0446042C03D0204699E7B8
:1031300011E05DE00021494802F09CFC0446042CAB
:1031400008D020468EE7FFF7E6FE0446042C01D0A7
:10315000204687E754E036B9FFF7DDFE0446042C2D
:1031600045D020467EE7A6F57F40FF3807D13C4892
:1031700002F008FC0446042C39D0204672E70025F2
:1031800022E03748C088384931F81510884201D10B
:103190000FFA85F94D4515D0334931F815003349FB
:1031A000FFF712FF8046B8F1010F0BD02E4931F81E
:1031B00015002E490988FFF7C7FE0746042F01D0E6
:1031C00038464FE7681C85B21A2DDADB0021244807
:1031D00002F050FC0446042C01D0204642E71F4870
:1031E00002F0D0FB0446042C01D020463AE707E069
:1031F000FFF791FE0446042C01D0204632E700BFC1
:1032000000BF04202EE710B5FFF70AFF0446FFF7C2
:1032100054FE204610BD2DE9F84F07468946042587
:10322000DFF84CA00D4800904FF000080024002665
:103230004FF0000B0020FFF719FE8046B8F1010F98
:1032400004D1DFF818A00648009016E0B8F1000F8E
:1032500010D1DFF80CA0014800900EE000E8030850
:1032600000F00308E00600203A020020DC060020FF
:10327000FFEB0308AB20BDE8F88F4EF6EE61504639
:1032800002F0F8FB0546042D01D02846F3E7FFF7CE
:1032900014FE49463846FFF757FE0646042E01D075
:1032A0003046E8E700241CE0214830F81400B8421A
:1032B00015D01F4931F814001E49FFF785FE8346DB
:1032C000BBF1010F0BD01A4931F8140019490988D4
:1032D000FFF73AFE0646042E01D03046CBE7601CCD
:1032E00084B21A2CE0DB009802F04CFB0546042D5A
:1032F00001D02846BFE70021504602F0BBFB05463F
:10330000042D01D02846B6E72846B4E770B5054637
:103310000E46002431462846FFF716FE0446802C50
:1033200004D131462846FFF776FF0446204670BD9B
:103330003A020020DC06002070B50546002405E0B6
:10334000601CC4B2642C01DD204670BD02217948A6
:1033500002F07FFF0028F3D02946764802F018FFDC
:10336000002405E0601CC4B26E2C01DD2046ECE7B1
:103370000121704802F06DFF0028F3D06D4802F083
:103380000EFFE2E72DE9F04105460C4610214FF013
:10339000904000F096FB0120FFF710F82846FFF759
:1033A000CBFF0646270A3846FFF7C6FFE7B2384686
:1033B000FFF7C2FF0120FFF701F810214FF0904006
:1033C00000F07DFB3046BDE8F08110B50446214693
:1033D0000320FFF7D7FF10BD2DE9F05F0025002681
:1033E00000274FF001084FF00109AA464FF0030BE8
:1033F000680240EA062040EAC71040EA881040EA26
:10340000491040EACA0040EA0B0421460420FFF7B5
:10341000B9FFBDE8F09F00B585B00021454802F036
:103420004CFE0020ADF800004FF48270ADF80200B1
:103430004FF4E060ADF804000020ADF80600012074
:10344000ADF808004002ADF80A003020ADF80C00DD
:103450000020ADF80E000720ADF8100010214FF04D
:10346000904000F02CFB6946324802F088FD0121B3
:10347000304802F022FE0E214FF0904000F01FFB7A
:1034800005B000BD10B5FFF7C6FFFFF7A5FF002090
:10349000FFF79BFF10BD70B505460E4610214FF09B
:1034A000904000F00EFB0120FEF788FF002405E0AD
:1034B000285DFFF741FF2855601CC4B2B442F7DB1A
:1034C0000120FEF77BFF10214FF0904000F0F7FA4B
:1034D000002070BD00B591B000210C20FFF752FF15
:1034E00000208DF80400032101A8FFF7D4FF9DF808
:1034F000060000909DF805309DF804200EA101A85B
:1035000002F0D4FE01A800F047F911B000BD10B5DB
:103510000446084800884FF6C771084005490880EE
:1035200008460088204308800121024802F0C5FDBA
:1035300010BD0000003C00405350495F5265636974
:10354000657665446174615B25642025642025648B
:10355000205D0A0030B58BB005460C460120E849D5
:103560000870402C00D9402404B901240021E5480A
:1035700001F0EDF84FF4003001F017F94FF400209E
:1035800001F013F900220221DE4801F0F2F80022D6
:103590000821DC4801F0EDF800224021DA4800F073
:1035A00091FFD94824300090019500200290A0B2EC
:1035B000ADF80C00002004908020059000200690BB
:1035C000079008904FF40050099000200A90CD48D1
:1035D00000F0F0FF6946CB4801F08EF8012202218D
:1035E000C84801F0C6F801220821C64801F0C1F818
:1035F0004FF4002001F0D9F84FF4003001F0D5F875
:1036000001224021C04800F05DFF0121BD4801F0CA
:103610009EF80BB030BD10B586B004460021BA4804
:1036200000F002FE009400200190029003900590AB
:103630000C200490B44800F04BFD6946B24800F0FD
:1036400070FD0121B04800F0EFFD06B010BD10B5CF
:1036500004462046FFF7DFFF0121AC48FFF77AFF61
:1036600010BDAB48AB49086008460068704770B5AC
:103670000446A948007858B9FFF7F3FF0546E078FB
:10368000021D2146284602F0B4FE0120A24908701E
:1036900070BD10B5A0480078012807D1FFF7E1FF01
:1036A0000446FEF757FA00209B49087010BD30B55C
:1036B0008BB005460C460CB90BB030BD402C00D980
:1036C000402400BF954800780128FBD00120934991
:1036D000087000218B48143801F039F800220221CB
:1036E0008848143801F045F800220821854814382C
:1036F00001F03FF84FF4005001F057F84FF400404C
:1037000001F053F8002280217F4800F0DBFE2246C2
:103710002946834802F06DFE7B482830009080489F
:10372000019010200290A0B2ADF80C00002004908F
:103730008020059000200690079008904FF40050DC
:10374000099000200A906F48143800F033FF694652
:103750006C48143800F0D0FF012202216948143867
:1037600001F007F8012208216648143801F001F839
:103770004FF4005001F019F84FF4004001F015F833
:1037800001228021604800F09DFE01215D4814382F
:1037900000F0DDFF00BF8FE770B50446204602F061
:1037A00009FE054629462046FFF781FF70BD10B58A
:1037B0004FF4002001F004F868B10020504908706F
:1037C0004FF4002001F00FF8002056490870012145
:1037D0004E48FFF7BFFE4FF4003000F0F1FF002825
:1037E00069D00020464908700021464800F0AFFF2C
:1037F00000224021444800F065FE00220221414899
:1038000000F0B7FF4FF4003000F0EDFF45480078BE
:1038100088B93E480078242808D101204149087021
:1038200003213A48401CFFF795FE44E00121374848
:10383000FFF790FE3FE03B48007801281FD1334856
:1038400040784E2811D1314880783C280DD1022093
:10385000344908702D48C07833490870084601780B
:103860002A48001DFFF776FE25E000202D4908704C
:103870002648002101600121FFF76CFE1BE029486A
:103880000078022810D12148FFF7F1FE1F48C078C8
:10389000011D1E4802F0F2FD00202249087001219E
:1038A0001A48FFF757FE06E000201E490870012164
:1038B0001648FFF74FFE10BD10B54FF4005000F052
:1038C0007FFF58B14FF4005000F08DFF00210D48EC
:1038D000143800F03CFF0020104908704FF40040FD
:1038E00000F06EFF58B14FF4004000F07CFF002163
:1038F0000448143800F02BFF00200849087010BD60
:10390000E60600205800024000380140401C00201C
:10391000801C0020EC060020E5060020E7060020C1
:10392000001C0020E4060020EA06002010B5044632
:10393000B4F1904F09D10121480400F07AFB002135
:103940004FF4003000F075FB3CE07448844208D12D
:103950000121000200F06DFB0021200200F069FB54
:1039600030E06F48844208D10121000200F061FB81
:103970000021200200F05DFB24E06A48844209D166
:103980000121080500F055FB00214FF4801000F0E4
:1039900050FB17E06448844208D10121400200F046
:1039A00048FB0021600200F044FB0BE05F488442CA
:1039B00008D10121880500F03CFB00214FF4800074
:1039C00000F037FB10BDF0B50A46002100230024AB
:1039D00000BF3DE0012505FA01F3156805EA03047F
:1039E0009C4234D11579012D02D01579022D16D1C2
:1039F00085684F000326BE40B543856055794E006B
:103A0000B540866835438560868801258D40AE4384
:103A10008680868895798D40ADB22E438680056874
:103A20004F000326BE40B543056015794E00B540F2
:103A3000066835430560C5684F000326BE40B543A0
:103A4000C560D5794E00B540C6683543C560491C90
:103A50001029BFD3F0BD4FF6FF7101600021017145
:103A60000221417100218171C171704708B54FF485
:103A700080320092009A0A430092009AC261C161AA
:103A8000009AC261C2690092C269009208BD0246F2
:103A90000020138A0B4201D0012000E00020704773
:103AA0000146088A704702460020938A0B4201D0E3
:103AB000012000E0002070470146888A704781613C
:103AC0007047018570470AB1816100E00185704748
:103AD00081827047F0B5002300244D07ED0E02FAF5
:103AE00005F3CE1000F1200555F826504E07F70ECD
:103AF0000F26BE40B543CF1000F1200646F82750F0
:103B0000CE1000F1200555F8265045EA0304CE10EA
:103B100000F1200545F82640F0BD000000040048F3
:103B200000080048000C004800100048001400483D
:103B3000F848006840F00100F6490860084640680F
:103B400000F47F00486008460068F3490840F149E6
:103B500008600846006820F4802008600846406835
:103B600020F4FE0048600846C06A20F00F00C862DA
:103B70000846006BE9490840E64908630020886070
:103B800070470021E34A917011468870704710B564
:103B900001460022002300204A1112B9DD4C23689F
:103BA00006E0012A02D1DB4C236A01E0D94C636AAA
:103BB00001F01F02012494401C4201D0012000E0CA
:103BC000002010BD38B5002000900024002500BF63
:103BD0001120FFF7DCFF05460098401C009000987C
:103BE000B0F5A06F01D0002DF2D01120FFF7CFFF6C
:103BF00008B1012400E00024204638BD0146002021
:103C0000C44A106820F0F80040EAC1001060704714
:103C1000C34908607047BF49096A21F00101BD4AE4
:103C200011621146096A21F0040111621146096A04
:103C3000014311627047B749096A21F01801B54A7A
:103C400011621146096A014311627047B549086063
:103C50007047B04A526822F47412AE4B5A601A464A
:103C6000526840EA01031A43AA4B5A607047AC49B4
:103C70000866704701460020A64AD06A20F00F006F
:103C80000843D0627047A649C8647047A149C8710B
:103C90007047014600209F4A506820F00300084307
:103CA000506070479B48406800F00C007047014628
:103CB0000020984A506820F0F00008435060704798
:103CC00001460020934A506820F4E06008435060A9
:103CD0007047014600208F4A506820F4605040EA47
:103CE000C100506070478B49496821F44041894ABE
:103CF00051601146496801435160704785494968E0
:103D000021F07841834A516011464968014351606E
:103D100070478049096B21F040017E4A11631146CA
:103D2000096B0143116370470021010F31B9794AD2
:103D3000126B22F01002774B1A6305E0754A126B82
:103D400022F02002734B1A63724A126B0243714BCA
:103D50001A6370470021010F012904D0022909D0FC
:103D6000032915D10DE06B4A126B22F00302694B57
:103D70001A630EE0674A126B22F44032654B1A63F5
:103D800007E0644A126B22F44022624B1A6300E09F
:103D900000BF00BF5F4A126B02435E4B1A6370475D
:103DA00061490860704770B5002100230024002598
:103DB0000022584E766806F00C0121B1042905D086
:103DC000082921D105E0594E066020E0574E0660D3
:103DD0001DE0504E766806F470134E4E766806F479
:103DE0008034022606EB93431CB9514E5E430660B5
:103DF00009E0484EF66A06F00F06751C4B4EB6FBFE
:103E0000F5F65E43066002E0484E066000BF00BF64
:103E1000404E766806F0F0010909464E725C06686D
:103E2000D64046603B4E766806F4E061090A414E92
:103E3000725C4668D6408660364E766806F46051FD
:103E4000C90A3C4E725C4668D640C660314E766800
:103E500006F44041890B384E725CC668B6FBF2F638
:103E600006612C4E766806F07841C1F3C361334E8B
:103E7000725C0668B6FBF2F64661264E366B06F0BB
:103E80004006402E03D048F21206866102E04FF44D
:103E9000004686611F4E366B06F01006102E02D0CB
:103EA000224EC66101E00668C6611A4E366B06F006
:103EB0002006202E02D01D4E066201E00668066232
:103EC000144E366B16F0030F02D1C668466219E035
:103ED000104E366B06F00306012E02D106684662CC
:103EE00010E00C4E366B06F00306022E02D1B6032C
:103EF000466207E0074E366B06F00306032E01D13B
:103F00000A4E4662034E366B16F4403F18D186685F
:103F1000866233E000100240FFFFF6FE8C0FFF0FB9
:103F20000000424280044242D800424200127A001D
:103F300000093D00F00600200007002004070020D3
:103F4000604E366B06F44036B6F5803F02D1066807
:103F5000866213E05B4E366B06F44036B6F5003FE2
:103F600003D14FF40046866208E0564E366B06F4E5
:103F70004036B6F5403F01D1534E8662514E366B06
:103F800016F4402F02D18668C6621DE04D4E366B96
:103F900006F44026B6F5802F02D10668C66213E00B
:103FA000484E366B06F44026B6F5002F03D14FF489
:103FB0000046C66208E0434E366B06F44026B6F56E
:103FC000402F01D1404EC66270BD3E49096A01438F
:103FD0003C4A116270473D49086070473B49091DE2
:103FE0000860704729B1374A52690243354B5A611C
:103FF00004E0344A52698243324B5A61704729B116
:10400000304A926902432F4B9A6104E02D4A92692B
:1040100082432C4B9A61704729B12A4AD2690243E4
:10402000284BDA6104E0274AD2698243254BDA61E2
:10403000704729B1234A926A0243224B9A6204E0F4
:10404000204A926A82431F4B9A62704729B11D4AE7
:10405000D26802431B4BDA6004E01A4AD2688243FA
:10406000184BDA60704729B1164A12690243154BA2
:104070001A6104E0134A12698243124B1A617047B5
:1040800029B1104A527A02430E4B5A7204E00D4A8B
:10409000527A82430B4B5A7270470A48406A40F08A
:1040A000807008494862704701460020054A9268BE
:1040B0000A4201D0012000E00020704701498872C7
:1040C000704700000010024000127A003C04424297
:1040D00010B50446F848844209D101218803FFF74E
:1040E000B5FF00214FF48040FFF7B0FF18E0F34820
:1040F000844209D101214804FFF7B5FF00214FF4A4
:104100000030FFF7B0FF0BE0ED48844208D10121F9
:104110008804FFF7A8FF00214FF48020FFF7A3FFDA
:1041200010BD2DE9F0418CB004460D460027B8467D
:104130000026206820F001002060666826F44056C2
:10414000A86806436660266841F20C608643E96809
:10415000686808432969084306432660A66826F470
:10416000407668690643A6606846FFF71CFED248A1
:10417000844202D1DDF8248007E0D048844202D195
:10418000DDF8288001E0DDF82C80206810F4004F75
:104190000CD04FEA48002968B0FBF1F74FEA48001D
:1041A0002968B0FBF1F201FB120607E02868B8FBB2
:1041B000F0F72868B8FBF0F100FB11862868B6EB31
:1041C000500F00D37F1C206810F4004F07D0C7F3B6
:1041D00042064FF6F07107EA010040EA0607A781A0
:1041E0000CB0BDE8F0814FF4165101600021416030
:1041F0008160C1600C21016100214161704710B5EF
:104200000022426822F47062D1E9003423438C68B2
:104210002343CC6823431A43426010BD0021016050
:1042200041608160C160704721B1026842F00102C3
:10423000026003E0026822F00102026070471AB1D6
:1042400003680B43036002E003688B43036070471D
:1042500021B1026842F40042026003E0026822F4E5
:1042600000420260704721B1826842F400628260BD
:1042700003E0826822F400628260704721B14268E4
:1042800042F40022426003E0426822F400224260CD
:10429000704721B1426842F48022426003E04268E4
:1042A00022F48022426070471AB143680B43436096
:1042B00002E043688B434360704721B1426842F497
:1042C0000042426003E0426822F4004242607047CC
:1042D00021B1426842F40002426003E0426822F4E5
:1042E000000242607047426902F07F4242614269C7
:1042F0000A4342617047028A02F47F420282028AC4
:104300000A430282704721B1026842F00202026051
:1043100003E0026822F0020202607047826822F421
:104320004012826082680A438260704721B142680D
:1043300042F48012426003E0426822F4801242603C
:104340007047426822F4C002426042680A434260F9
:104350007047C1F30802028570470146888CC0F39C
:1043600008007047426822F07F424260426842EA99
:1043700001624260704721B1026842F4005202605B
:1043800003E0026822F4005202607047026822F4DF
:104390000062026002680A4302607047426822F0CD
:1043A0001002426042680A4342607047426822F04D
:1043B0002002426042680A434260704721B142686D
:1043C00042F48042426003E0426822F4804242604C
:1043D000704721B1826842F00802826003E082687F
:1043E00022F0080282607047028AD2B20282028AF8
:1043F00042EA01220282704721B1826842F0200223
:10440000826003E0826822F020028260704721B15E
:10441000826842F01002826003E0826822F010029B
:1044200082607047826822F460228260826842EA79
:10443000414282607047426922F07F424261426994
:1044400042EA016242617047826822F0040282609F
:1044500082680A438260704721B1826842F002029A
:10446000826003E0826822F002028260704721B11C
:10447000826842F48042826003E0826822F48042D3
:1044800082607047826822F40042826082680A4338
:1044900082607047026822F078720260026842EA25
:1044A000415202607047026822F4F812026002680A
:1044B00042EA014202607047003801400044004077
:1044C000004800401AB183680B43836002E08368B0
:1044D0008B4383607047826822F400528260826856
:1044E0000A4382607047F0B5034600240026002589
:1044F00000201846C1F30724CEB2012707FA06F5BB
:10450000022C01D1001D02E0032C00D108301AB1A9
:1045100007682F43076002E00768AF430760F0BDFC
:104520001AB1038B0B43038302E0038B8B4303839A
:104530007047826822F48052826082680A438260F7
:10454000704702460020D3690B4201D0012000E0F1
:10455000002070470162704770B502460B46002488
:10456000002100250020C3F30725D9B2012606FA51
:1045700001F1012D02D11668314006E0022D02D171
:104580005668314001E0966831401C0C012606FA5D
:1045900004F4D669344011B10CB1012000E00020D0
:1045A00070BD10B5002200230A0C012404FA02F3A6
:1045B000036210BD01684FF6FE72114001600021D8
:1045C000016041608160C1608C49884208D18B499B
:1045D0000839496841F00F01884A083A51608AE079
:1045E00086491431884208D184490839496841F024
:1045F000F001824A083A51607DE0804928318842C2
:1046000008D17E490839496841F470617B4A083A0B
:10461000516070E079493C31884208D177490839C6
:10462000496841F47041754A083A516063E0734942
:104630005031884208D171490839496841F47021E4
:104640006E4A083A516056E06C496431884208D19C
:104650006A490839496841F47001684A083A51606A
:1046600049E066497831884208D164490839496887
:1046700041F07061614A083A51603CE0604988420B
:1046800006D1011F096841F00F01021F116032E0DD
:104690005B491431884208D15949091F096841F022
:1046A000F001574A121F116025E055492831884210
:1046B00008D15349091F096841F47061504A121F1B
:1046C000116018E04E493C31884208D14C49091F1D
:1046D000096841F470414A4A121F11600BE04849D1
:1046E0005031884207D14649091F096841F47021B9
:1046F000434A121F1160704710B50022026847F646
:10470000F0739A430C6A8B6823430C6923434C690A
:1047100023438C692343CC6923434C6A23438C6A2B
:1047200023431A4302608B8943600B6883604B68A4
:10473000C36010BD00210160416081608181016121
:1047400041618161C161016241628162704721B151
:10475000026842F00102026004E002684FF6FE7354
:104760001A4002607047416070470146486880B255
:1047700070471AB103680B43036002E003688B4380
:104780000360704701460020002211F0805F03D0D3
:104790001B4B083B1A6802E0184B083B1A680A4298
:1047A00001D0012000E00020704710F0805F03D0AE
:1047B0001349091F086002E0104908394860704732
:1047C00001460020002211F0805F03D00C4B083B13
:1047D0001A6802E0094B083B1A680A4201D001201E
:1047E00000E00020704710F0805F03D00449091FEB
:1047F000086002E00149083948607047080002403B
:104800000804024010B50446B648844209D101218B
:104810000806FFF71BFC00214FF08070FFF716FC25
:1048200015E0B148844209D101214806FFF70EFC8A
:1048300000214FF00070FFF709FC08E00121880615
:10484000FFF704FC00214FF08060FFF7FFFB10BD75
:1048500010B500224268A54B1A400B799B054C7994
:1048600043EA04630C6804F4702423431A4342604F
:1048700010BD01210160002101714171704730B507
:10488000002300F1200303EB8103D2E900452C4310
:1048900095682C43D5682C431C6030BD0021016015
:1048A00041608160C160704730B50023904CA142E7
:1048B00007D00B0C046C9D0002FA05F52C43046430
:1048C00000E0426430BD21B1426842F00102426022
:1048D00003E0426822F001024260704721B10268A1
:1048E00042F00042026003E0026822F000420260EF
:1048F000704721B1426842F08072426003E0426832
:1049000022F08072426070470146764A106820F4B7
:1049100040700843106070470A46416821F0060164
:10492000114341607047416841F010014160704798
:104930000A46416821F47021130C1B04194341609D
:10494000704721B1426842F48002426003E042684D
:1049500022F4800242607047416841F400014160E6
:1049600070470146486E00B2704721B1026842F4B8
:104970000042026003E0026822F4004202607047D5
:104980005848406F70475748C06F7047416841F4BE
:104990000041416070478AB24261704721B142686C
:1049A00042F04002426003E0426822F0400242606E
:1049B000704721B1426842F02002426003E0426841
:1049C00022F02002426070470A460021416821F42B
:1049D00070611143416070470A460021416821F42B
:1049E000C041114341607047014600200A6E100C1F
:1049F0000122824042EA0040704730B502460B4631
:104A00000021116E3B4800EA11200D0E0124AC403C
:104A10002043186008B230BD21B1026842F48042E0
:104A2000026003E0026822F48042026070472D4871
:104A3000006F70472B48806F704721B1026842F4C5
:104A40008052026003E0026822F4805202607047E4
:104A500021B1026842F40062026003E0026822F4BD
:104A600000620260704721B1026842F48062026015
:104A700003E0026822F48062026070471AB10368A2
:104A80000B43036002E003688B43036070471AB175
:104A900003680B43036002E003688B4303607047C5
:104AA0000246002093680B4201D0012000E0002064
:104AB0007047C2680A43C260704730B502460020A2
:104AC00000230024956805EA0103156805EA01043E
:104AD00013B10CB1012000E0002030BDC2680A43D0
:104AE000C26070470060014000640140FFFF30FE7B
:104AF000000108000000FFFF10B50446B4F1804F2C
:104B000008D101210846FFF7AEFA00210120FFF786
:104B1000AAFA9EE0F748844208D101210220FFF75B
:104B2000A2FA00210220FFF79EFA92E0F2488442A6
:104B300008D101210420FFF796FA00210420FFF795
:104B400092FA86E0ED48844208D101210820FFF75F
:104B50008AFA00210820FFF786FA7AE0E8488442C2
:104B600008D101211020FFF77EFA00211020FFF765
:104B70007AFA6EE0E348844208D101212020FFF751
:104B800072FA00212020FFF76EFA62E0DE488442CC
:104B900008D101214020FFF766FA00214020FFF7ED
:104BA00062FA56E0D948844208D101218020FFF7FB
:104BB0005AFA00218020FFF756FA4AE0D44884428E
:104BC00008D101218015FFF74EFA0021A015FFF74B
:104BD0004AFA3EE0CF48844209D101210804FFF798
:104BE00035FA00214FF48030FFF730FA31E0CA483F
:104BF000844209D101214804FFF728FA00214FF42B
:104C00000030FFF723FA24E0C448844209D101218F
:104C10008804FFF71BFA00214FF48020FFF716FAF3
:104C200017E0BF48844208D101214015FFF71BFA65
:104C300000216015FFF717FA0BE0BA48844208D14B
:104C40000121C804FFF702FA00214FF40020FFF70A
:104C5000FDF910BD00220288B0F1804F0BD0A54BAA
:104C6000984208D0A44B984205D0A44B984202D059
:104C7000AC4B984204D14FF68F731A404B881A43BD
:104C80009F4B98420AD09F4B984207D0A44B984222
:104C900004D04FF6FF431A400B891A4302804B6839
:104CA000C3620B8803859B4B984205D09A4B984270
:104CB00002D09A4B984201D18B7A038601238382DA
:104CC00070474FF0FF314160002101800181418038
:104CD000817270470185828270470A4600210188EF
:104CE0004FF68F731940114301807047416270473E
:104CF000C16270470146486A70470146088D704797
:104D000021B1028842F00202028004E002884FF6DC
:104D1000FD731A400280704721B1028842F00402FC
:104D2000028004E002884FF6FB731A40028070474D
:104D300021B1028842F08002028004E002884FF62E
:104D40007F731A400280704702884FF6F7731A404B
:104D5000028002880A430280704702884FF6FF43B0
:104D60001A40028002880A430280704721B10288FB
:104D700042F00102028004E002884FF6FE731A40FE
:104D8000028070470A884B881A438B881A43CB8865
:104D90001A430B891A434B891A438B891A43B0F87B
:104DA00044301A43A0F8442070470021018041801C
:104DB0008180C180018141818181704731B1B0F82A
:104DC000442042F40042A0F8442005E0B0F844201A
:104DD000C2F30E02A0F84420704770B500240022F0
:104DE0000023058C4FF6FE7635400584028C8388BF
:104DF000048B4FF68F752C40B51E2C400D882C432C
:104E0000751E2A408D892A434D882A43414DA84268
:104E100005D0414DA84202D0404DA84213D14FF6D3
:104E2000F7752A40CD892A434FF6FB752A408D88B5
:104E30002A434FF6FF652B404FF6FF552B400D8A56
:104E40002B434D8A2B43838004838D684563028402
:104E500070BD70B5002200230024058C4FF6EF765C
:104E600035400584038C8488028B48F6FF752A4000
:104E70004FF6FF452A400D884FF6FF7606EA0525D6
:104E80002A434FF6DF752B408D8906EA05152B4323
:104E90004D8806EA05152B43848002838D6885635F
:104EA000038470BD70B5002200230024058C4FF6EA
:104EB000FF6635400584038C8488828B4FF68F759E
:104EC0002A404FF6FC752A400D882A434FF6FF55BD
:104ED0002B408D894FF6FF7606EA05252B434D883A
:104EE00006EA05252B43848082838D68C56303848D
:104EF00070BD00000004004000080040000C0040AD
:104F0000001000400014004000180040001C004049
:104F100000200040004001400044014000480140A2
:104F2000009C0040005C014070B50022002300247A
:104F3000058C4EF6FF7635400584038C8488828B81
:104F400048F6FF752A404FF6FF452A400D884FF678
:104F5000FF7606EA05252A434DF6FF752B408D891D
:104F600006EA05352B434D8806EA05352B43848038
:104F700082838D680564038470BD002101804180B7
:104F8000818081608181C18101824182704770B5D9
:104F90000346002000241846183001258D40ACB28D
:104FA0001D8CA5431D8409B1082909D100EB6100BE
:104FB000056825F0700505600568154305600EE07D
:104FC0000D1FC5F34E052844056825F4E04505602E
:104FD00005684FF6FF7606EA02263543056070BD88
:104FE0004163704781637047C163704701647047D4
:104FF0000A460021018B4FF68F731940114301833C
:1050000070470A460021018B48F6FF7319404FF69E
:10501000FF7303EA02231943018370470A46002104
:10502000818B4FF68F7319401143818370470A4675
:105030000021818B48F6FF7319404FF6FF7303EA96
:10504000022319438183704721B1828842F0010213
:10505000828004E082884FF6FE731A408280704797
:105060000A460021018B4FF6F77319401143018363
:1050700070470A460021018B4FF2FF7319404FF62B
:10508000FF7303EA02231943018370470A46002194
:10509000818B4FF6F77319401143818370470A469D
:1050A0000021818B4FF2FF7319404FF6FF7303EA23
:1050B00002231943818370470A460021018B4FF672
:1050C000FB7319401143018370470A460021018B8D
:1050D0004FF6FF3319404FF6FF7303EA02231943DB
:1050E000018370470A460021818B4FF6FB731940FC
:1050F0001143818370470A460021818B4FF6FF33AD
:1051000019404FF6FF7303EA022319438183704766
:105110000A460021018B4FF67F731940114301832A
:1051200070470A460021018BC1F30E014FF6FF7351
:1051300003EA02231943018370470A460021818B49
:105140004FF67F7319401143818370470A4600214F
:10515000818BC1F30E014FF6FF7303EA022319435B
:10516000818370470A460021018C4FF6FD73194078
:105170001143018470470A460021018C4FF6F773F2
:1051800019401143018470470A460021018C4FF6F3
:10519000DF7319404FF6FF7303EA021319430184CA
:1051A00070470A460021018C4FF6FF5319404FF615
:1051B000FF7303EA02231943018470470A46002162
:1051C000018C4DF6FF7319404FF6FF7303EA02336B
:1051D00019430184704702894FF6F7731A40028120
:1051E00002890A430281704730B5002301248C40B4
:1051F000A3B2048C9C430484048C02FA01F5ADB282
:105200002C43048430BD30B5002304248C40A3B269
:10521000048C9C430484048C02FA01F5ADB22C4347
:10522000048430BD21B1828842F00402828004E00F
:1052300082884FF6FB731A4082807047828B4FF250
:10524000FF331A408283828B4FF6FF7303EA0123F8
:105250001A4382837047F0B50C46154600210022A0
:105260000026078C4EF6FF7C07EA0C070784818B2B
:10527000028C4FF6FF7707EA043640F6FF473940C5
:105280004FF6FF7707EA052739434FF6FF7707EA1E
:105290000337394347F6FF573A4046F480573A43BD
:1052A00081830284F0BD828B4FF6F3731A408283B0
:1052B000828B0A4382837047F0B50C461546002165
:1052C00000220026078C4FF6FF6C07EA0C070784C4
:1052D000818B028C4FF6FF7707EA04264FF60C7796
:1052E00039404FF6FF7707EA03172F4339434FF250
:1052F000FF573A4046F480773A4381830284F0BDF9
:10530000028B4FF2FF331A400283028B4FF6FF737A
:1053100003EA01231A4302837047F0B50C46154691
:10532000002100220026078C4FF6EF7C07EA0C07CD
:105330000784018B028C4FF6FF7707EA041640F6CC
:10534000FF4739404FF6FF7707EA033739434FF6F7
:10535000FF7707EA052739434FF65F773A4046F073
:1053600010073A4301830284F0BD028B4FF6F373BA
:105370001A400283028B0A4302837047F0B50C4641
:10538000154600210022068C4FF6FE773E4006842B
:10539000018B028C4FF60C7631407E1C06EA031618
:1053A0002E4331434FF6F576324044F00106324346
:1053B00001830284F0BD70B505460C46208850B9C3
:1053C0002389A28861882846FFF7D8FFE18828460C
:1053D000FFF7CBFF25E0208804280AD12389A28883
:1053E00061882846FFF799FFE1882846FFF788FF84
:1053F00017E0208808280AD12389A28861882846D6
:10540000FFF75AFFE1882846FFF74DFF09E023899F
:10541000A28861882846FFF71EFFE1882846FFF72B
:105420000DFF70BD0021018041800121818000219C
:10543000C180018170472DE9F04105460C460026E8
:105440000127608808B9022600E00026A08801280C
:1054500001D1022700E001272088A0B92389A28872
:1054600061882846FFF78AFFE1882846FFF77DFF1D
:1054700023893A4631462846FFF74FFFE188284600
:10548000FFF73EFF13E02389A28861882846FFF7D3
:1054900044FFE1882846FFF733FF23893A46314627
:1054A0002846FFF76BFFE1882846FFF75EFFBDE85F
:1054B000F0810146486B70470146886B7047014692
:1054C000C86B70470146086C70471AB183890B435B
:1054D000838102E083898B43838170478182704797
:1054E00002460020138A0B4201D0012000E0002078
:1054F0007047CA430282704730B50246002000233D
:105500000024158A05EA0103958905EA010413B10F
:105510000CB1012000E0002030BDCA430282704778
:1055200041EA0203A0F8483070471AB183890B435F
:10553000838102E083898B438381704721B1828814
:1055400042F00802828004E082884FF6F7731A4026
:105550008280704701894FF6F872114001817047CF
:105560000A46002101894FF68F73194011430181CA
:10557000704730B504460D4629462046FFF7F0FF38
:10558000208940F00700208130BD2DE9F04104461C
:105590000D4616461F46602D06D13B460122314678
:1055A0002046FFF7BAFE05E03B4601223146204681
:1055B000FFF7E4FE29462046FFF7D2FF208940F09E
:1055C00007002081BDE8F08130B50C46002101893B
:1055D000C9B24FF6FF7505EA032515432543294354
:1055E000018130BD2DE9F04105460E46174698462B
:1055F000002443463A4631462846FFF7E5FF2C890A
:105600004FF6F870044044F007044FF68F700440E2
:1056100044F070042C81BDE8F081F0B504460D46DD
:1056200016461F463B46324629462046FFF7CCFF2A
:10563000208940F480402081F0BD82884FF68F732E
:105640001A40828082880A438280704702894FF61E
:10565000F8731A40028102890A4302817047028965
:105660004FF67F731A40028102890A430281704714
:10567000F0B50C4615461E46002100220023018984
:10568000028B038C4FF6F877394021434FF6FC47E5
:105690003A4040F201173A434FF6DD773B404FF670
:1056A000FF7707EA06172F433B43018102830384F8
:1056B000F0BD21B1828842F08002828004E08288BD
:1056C0004FF67F731A4082807047A0F850107047E1
:1056D00031490143314A1160704770B50021002300
:1056E0000F22C4780CB32D4C246804F4E064C4F594
:1056F000E064210AC1F10403CA40447804FA03F1CA
:105700008478144021430901254C0678A15504787A
:1057100004F01F050124AC4005786D114FF0E02620
:1057200006EB8505C5F8004109E0047804F01F0583
:105730000124AC401B4D0678761145F8264070BD1B
:10574000194A0A400243154B1B1F1A60704739B1B2
:10575000124A121D12680243104B1B1D1A6006E00C
:105760000E4A121D126882430C4B1B1D1A607047B3
:10577000042808D14FF0E021096941F004014FF0FD
:10578000E022116107E04FF0E021096921F00401F6
:105790004FF0E022116170470000FA050CED00E0C7
:1057A00000E400E080E100E080FFFF1F10B5012170
:1057B0000807FEF758FC00214FF08050FEF753FC1D
:1057C00010BD3B490862704701460020394A106805
:1057D00020F0E000084310607047354908617047C9
:1057E00029B1344A52680243324B5A6004E0314ACC
:1057F000526882432F4B5A60704729B12D4A126874
:1058000002432C4B1A6004E02A4A12688243294B57
:105810001A6070472849096821F00401264A11607E
:10582000012801D130BF00E020BF704710B502460B
:105830000020204B186820F00300104318601E4B16
:105840001B6843F004031C4C2360012901D130BFC5
:1058500000E020BF184B1B6823F00403164C2360A4
:1058600010BD1448006840F0040012490860084662
:10587000006840F0020008600F48006840F0040033
:105880000D49086000BF00BF30BF704701460020CF
:10589000084A52680A4201D0012000E00020704707
:1058A0000449096841EA8001024A1160704700001A
:1058B00000000E420070004010ED00E001460020A4
:1058C000FE4A106820F0030008431060704730B1B2
:1058D000FA49096841F00801F84A116005E0F74902
:1058E000096821F00801F54A1160704730B1F349A9
:1058F000096841F01001F14A116005E0EF490968BB
:1059000021F01001ED4A11607047EC48006910F079
:10591000800F04D0EA48E9494860EA484860704787
:10592000E648006940F08000E449086170470420BF
:10593000E249C96811F0010F01D001200EE0DF49F2
:10594000C96811F0100F01D0022007E0DB49C968D7
:1059500011F0040F01D0032000E00420704700B5CF
:1059600002460423FFF7E3FF034603E0FFF7DFFFF0
:105970000346521E012B01D1002AF7D102B905239B
:10598000184600BD30B5044604254FF43020FFF71B
:10599000E6FF0546042D16D1C848006940F0020014
:1059A000C649086108464461006940F0400008614A
:1059B0004FF43020FFF7D3FF0546C048006920F0C0
:1059C0000200BE490861284630BD10B504244FF4DA
:1059D0003020FFF7C4FF0446042C15D1B7480069F6
:1059E00040F00400B54908610846006940F04000F5
:1059F00008614FF43020FFF7B2FF0446AF4800695A
:105A000020F00400AD490861204610BD78B5064677
:105A10000C460425002000904FF43020FFF79FFF34
:105A20000546042D24D1A548006940F00100A34992
:105A3000086134804FF43020FFF791FF0546042DB4
:105A400010D1B01C0090200C009908804FF4302039
:105A5000FFF785FF05469948006920F00100974946
:105A6000086105E09548006920F00100934908614C
:105A7000284678BD70B504460D4604264FF4302004
:105A8000FFF76DFF0646042E11D18C48006940F0E7
:105A900001008A49086125804FF43020FFF75FFF3D
:105AA00006468648006920F00100844908613046B6
:105AB00070BD8248006910F4007F04D180487F499E
:105AC00088608048886070477C48006920F40070D6
:105AD0007A49086170477948006940F40050774975
